:0400000080312D28F6
:100008007E1480310B1F2B282100111F122820007D
:10001800111F12288431A22480312B282100911E1F
:100028001F282000911E1F28210066088A006508E5
:100038000A0080312B282100111E2B282000111EB8
:100048002B28210068088A0067080A0080317E1082
:10005800090080312F28FA014330840000308500E0
:100068001F30843186248031A03084000030850020
:100078003630843186248031203084000130850078
:100088004030843186247E10200080314B282100A6
:10009800E301DB01DE0184313C2480318B170B172F
:1000A8002100D701D801DC01DC0A053084310A249B
:1000B8008031FF302000BE000330BF0071083E02CF
:1000C800C00072083F3BC100C136C00CC136C00C2D
:1000D80040088231A02280312000C200420821005D
:1000E800DF005F088131F32180312100D901DA0175
:1000F8008331D22380317108720403195A2984315B
:10010800512480312000BE003E082100E400F03078
:100118006406031D9128D901D90A5908031D5329DA
:1001280064082000BE000430BE36890B98280F30C2
:100138003E0603194E292100E41FAB28640820005D
:10014800BE003E082100E000DE01DE0A53296408F3
:100158002000BE0021005E08E03E860087012000E6
:100168003E088100210060082000BE000430BE3631
:10017800890BBB280D303E060319CE2821006008E4
:100188002000BE000430BE36890BC7280C303E065E
:10019800031DD92821005E03031DD9286008833177
:1001A80094238031210061085029023021005E0625
:1001B800031D4729DE01DE0A60088331942380315C
:1001C8002100610883319423803121006208833142
:1001D80094238031210060082000BE000430BE3620
:1001E800890BF32809303E06031D0D2921006208FA
:1001F800031D0129FF3020001A296308031D062961
:1002080020000C1401302000BE003E082100E30746
:100218005329210060082000BE000430BE36890B37
:10022800122908303E06031D2529FF30BE003E086E
:100238002100E307E31BE3016308031D53295B085F
:100248003B29210060082000BE000430BE36890B1F
:100258002A290B303E06031D532940302100610630
:10026800031D53296208031D4029DB016308031D90
:10027800532920000C1053297F306206031D53298F
:10028800DB01DB0A532901302000BE003E082100B3
:10029800DE07532921006408833194238031F73025
:1002A80021006406031DC729D901C7290130200090
:1002B800BE003E082100DA0714305A06031DC7297C
:1002C800DA016308803A7B3E0318C7290430843179
:1002D8000A24803171082000BE007208BF00BF36B2
:1002E800BE0CBF36BE0CBF36BE0C3E088231ED22B6
:1002F80080312000C00040082100DD005D0857065D
:1003080003199A29B0308331942380310A3083311C
:100318009423803121005D088331942380312100AA
:100328005D082000BE003E082100D70020000C1AFE
:10033800AE29023021005C06031DAE29DC01DC0A6F
:10034800B030833194238031093083319423803154
:100358000030C42920000C1EC72921005C03031D9E
:10036800C72902302000BE003E082100DC00B03062
:1003780083319423803109308331942380317F3055
:10038800833194238031053084310A248031FF3051
:100398002000BE000330BF0071083E02C000720892
:1003A8003F3BC100C136C00CC136C00C4008823189
:1003B800A02280312000C20042082100DF005F082F
:1003C800580603197C285F088131F3218031210008
:1003D8005F082000BE003E082100D8007C282000CD
:1003E800B9003908B100B201B301B4013408B8004A
:1003F8003308B7003208B6003108B5000030A7004E
:100408000030A6000030A500FF30A4003808F40032
:100418003708F3003608F2003508F1000030F8001C
:100428000030F7002C30F6000230F50083313A2313
:10043800813174082000AB007308AA007208A90073
:100448007108A80082314D2281312A30200024070A
:10045800BA000730253DBB000030263DBC00003007
:10046800273DBD003A08B1003B08B2003C08B30084
:100478003D08B4000830B436B30CB20CB10C890B8B
:100488003F2A310829009C0020003A0829009B00D7
:10049800080000302000AF000030AE000030AD0092
:1004A8000030AC0027082604250424040319972AE1
:1004B800B001B00AA71B6C2A0130A435A50DA60D02
:1004C800A70D890B612A0130F9007908B0075E2A67
:1004D8000130AC35AD0DAE0DAF0D890B6D2A270877
:1004E8002B02031D812A26082A02031D812A2508BA
:1004F8002902031D812A24082802031C8C2A2408A7
:10050800A8022508A93B2608AA3B2708AB3B2C14C0
:100518000130A736A60CA50CA40C890B8D2A013036
:10052800B002031D6C2A2F08A7002E08A6002D086C
:10053800A5002C08A4000800F60020005B08D23EA5
:10054800860087010108F100F2017108CF027208E4
:10055800D03B7608F100F2017108CF077208D03D50
:100568007608F1005B08D23E860087017108810099
:100578000130F1007108DB0704305B060319DB0169
:100588005008F2004F08F100720DF20CF10C720DD8
:10059800F20CF10C7208803AF30080307302031DEC
:1005A800D72A013071020318DC2AF401F501EB2A7D
:1005B80020005008F2004F08F100720DF20CF10C07
:1005C800720DF20CF10C7108F4007208F500740851
:1005D8000800F60020005C08433E860087010108F9
:1005E800F100F2017108D1027208D23B7608F100DD
:1005F800F2017108D1077208D23D7608F1005C0853
:10060800433E86008701710881000130F1007108BE
:10061800DC0704305C060319DC015208F2005108BB
:10062800F100720DF20CF10C720DF20CF10C720863
:10063800803AF30080307302031D242B01307102CD
:100648000318292BF401F501382B20005208F20079
:100658005108F100720DF20CF10C720DF20CF10C54
:100668007108F4007208F5007408080000302000D2
:10067800A3000030A2000030A1000030A000711CCF
:100688004E2B75082000A0077608A13D7708A23DEB
:100698007808A33D0130F535F60DF70DF80D890BF7
:1006A8004F2B0130F436F30CF20CF10C890B562B5E
:1006B8007408730472047104031D432B200023087B
:1006C800F4002208F3002108F2002008F1000800D5
:1006D800210091122330F1000430F2008431982473
:1006E800833121001112B330F1000330F20084315C
:1006F8009224083023009F0090309D0024309E00F3
:100708003F309B009C01FA012000E1013230F300E8
:100718007308E200E001DF01DD0121009116080005
:10072800F2002100111A9C2B720823009A00B02BAA
:1007380011127208F1007A08A03E8600870171083C
:1007480081000130F1007108FA0732307A0203188B
:10075800FA0101302000E2022100111608003230AF
:10076800200062020318CD2B6108A03E8600870195
:10077800010823009A000130F00070082000E1070A
:10078800323061020318E1010130F0007008E2071D
:10079800CF2B210011122000111208002000580848
:1007A8005A02031DD92B57085902031CE22B57087C
:1007B8005902F10058085A3BF2000800570859023C
:1007C800F30058085A3BF4007308403EF10000302B
:1007D800743DF200080022008C018D018E011A3050
:1007E80021008C0060308D00BF308E008F302300D8
:1007F8008E0010308D0007308C0024008D018C0194
:1008080021009517013022009D000800F4007408AB
:10081800F300F30DF30D21001D08730683397306E9
:100828009D001D148530890B172C000021009D1494
:100838009D181C2C1C08F2001B08F100080023005E
:100848009D1C282C1D121D161908F000200059089F
:10085800203E860001308700700881000130D907EA
:100868000030DA3D3F30D9050030DA059112080032
:100878008331EF23843184318C24843184319E2464
:10088800843184317224843184317C2484318431EC
:100898006524843183316C23080020005708203EEA
:1008A8008600013087000108F1007108F20001306C
:1008B800D7070030D83D3F30D7050030D80572083B
:1008C8000800403029009E009F019A019901980173
:1008D80002309C008F309B009E1708003E0091015B
:1008E80092019301940195019601970190010800E6
:1008F800013021009D0080309E009F019B019C01DA
:1009080011170800640080010131890B872C00341D
:100918007230210099002200960108007208210017
:10092800E8007108E700080072082100E600710875
:10093800E500080016302100970008002000111378
:020948000800A5
:020000040001F9
:08000000FF3FFF3FFF3FFF3F00
:04000E00E4CFFFFF3D
:00000001FF
