:020000040800F2
:10000000380B0020390200084102000843020008B2
:1000100045020008470200084902000800000000ED
:100020000000000000000000000000004B0200087B
:100030004D020008000000004F02000851020008B5
:10004000530200085302000853020008530200083C
:10005000530200085302000853020008530200082C
:10006000530200085302000853020008530200081C
:10007000530200085302000853020008530200080C
:1000800053020008530200085302000853020008FC
:1000900053020008530200085302000853020008EC
:1000A00053020008530200085302000853020008DC
:1000B00053020008530200085302000853020008CC
:1000C00053020008530200085302000853020008BC
:1000D00053020008530200085302000853020008AC
:1000E000530200085302000853020008530200089C
:1000F000530200085302000853020008530200088C
:10010000530200085302000853020008530200087B
:100110005302000853020008F11A000853020008B5
:10012000530200085302000853020008530200085B
:10013000530200085302000853020008530200084B
:10014000530200085302000853020008530200083B
:10015000530200085302000853020008530200082B
:10016000530200085302000853020008530200081B
:10017000530200085302000853020008530200080B
:10018000530200085302000800F002F800F045F89E
:100190000AA090E8000C82448344AAF10107DA45E2
:1001A00001D100F03AF8AFF2090EBAE80F0013F0EF
:1001B000010F18BFFB1A43F001031847E431000098
:1001C00004320000103A24BF78C878C1FAD8520728
:1001D00024BF30C830C144BF04680C6070470000C1
:1001E0000023002400250026103A28BF78C1FBD840
:1001F000520728BF30C148BF0B607047642900F028
:10020000D980002070471FB503F099F89DE80300DE
:1002100000F052F91FBD10B510BD00F02FFA1146C5
:10022000FFF7F1FF02F054F900F04DFA03B4FFF7C5
:10023000F2FF03BC00F07EFA0948804709480047F6
:10024000FEE7FEE7FEE7FEE7FEE7FEE7FEE7FEE786
:10025000FEE7FEE704480549054A064B70470000E3
:10026000891A00088901000838050020380B002091
:10027000380700203807002070B5064600F000F966
:10028000056806F10B0020F00704B4429CBF002073
:1002900070BD2B466A68BAB11068A04210D304F151
:1002A000080188423CBF5068586007D35168101954
:1002B00041601168091B016058601460101D70BD19
:1002C00013465268002AE7D12146284600F0E0F89C
:1002D0000028DED170BD70B50446051F00F0D0F8CF
:1002E0000068002C14BF446870BD002C18BFAC42DD
:1002F0003CBF20466468F8D301680A18AA4218BFB8
:10030000456003D12A6805461144016028684119F7
:10031000A1421CBF6C6070BD6168696021680844BF
:10032000286070BD0FB41CB5074B06AA7B44694614
:100330000090059800F05FF90020694600F06EF922
:100340001CBC5DF814FB0000ED0200002DE9F0413B
:100350000E460446002020622046E168884730B3FC
:10036000252805D0D4E901219047206A401CF2E7F6
:10037000E168204600278847050018D0A5F1410014
:10038000192802D820354FF4006732462946204606
:100390002760FFF733FF40B1012804D0F61D26F097
:1003A00007060836D8E7361DD6E72846DAE7206A7A
:1003B000BDE8F0812DE9F04106460024106875295A
:1003C000314616A510D0AFF30080002802DA404273
:1003D00013A507E031688A0701D512A502E0490795
:1003E00004D511A5012401E0AFF3008000210A2209
:1003F00006F1240709E0B0FBF2FCB0FBF2F302FBCC
:100400001C00303078541846491C0028F3D123468C
:100410002A463046BDE8F04100F08FB800000000E9
:100420002D0000002B000000200000004FF0000213
:1004300000B5134694469646203922BFA0E80C50DA
:10044000A0E80C50B1F12001BFF4F7AF090728BFB5
:10045000A0E80C5048BF0CC05DF804EB890028BF31
:1004600040F8042B08BF704748BF20F8022B11F05A
:10047000804F18BF00F8012B7047704770477047D6
:1004800000487047DC040020704770477047704791
:1004900038B504460A4600206946AFF300800028BC
:1004A00008BF38BD02460099204600F0C5F801207B
:1004B00038BD012000F0DAB8F8B5AFF3008005468A
:1004C00000200C46102000BF0646A819A0420DD9F6
:1004D000324669460020AFF30080070008BF00F0F5
:1004E000C5F80098A04218BF0546C419FFF7C8FF19
:1004F00005600746F01D20F007004619284600F069
:100500000AF8B44208BFF8BDA21B31463868BDE8FE
:10051000F84000F091B800210160C0E90110704777
:100520001020704710B500F083F8006810BD10B5BA
:10053000044600F07DF8046010BD2DE9F0470D463B
:1005400099469246044600F124080168880604D5BD
:10055000E06921F01001216000E00120A84201DDE6
:10056000471B00E00027A1697A1902EB0900081A6D
:10057000A0612078C00602D42046AFF30080002698
:1005800008E0D4E901211AF806009047206A401CCF
:10059000761C20624E45F4DB2078C0060AD5204642
:1005A000AFF3008006E0D4E9012130209047206AB3
:1005B000401C2062381EA7F10107F4DC07E0D4E9F3
:1005C000012118F805009047206A401C2062281E6F
:1005D000A5F10105F3DC2046AFF30080207800068A
:1005E00002D50220BDE8F0870120FBE701694A1C23
:1005F00002610878704700B58FB0CDE90131002164
:10060000059105497944CDE9031011466846FFF785
:100610009DFE0FB000BD0000E5FFFFFF0A6802F875
:10062000010B0A607047000000487047D4040020A6
:1006300000487047D4040020034640688C460028D8
:1006400018BF88423CBF03464068F8D31868184476
:10065000884207D00CF1030020F00700001D411A6A
:10066000521A0146081D0A60FFF735BE10B500F0AA
:1006700039F8BDE8104000F02FB870477546FFF715
:10068000D3FFAE4605006946534620F00700854675
:1006900018B020B5FFF7DEFDBDE820404FF00006A2
:1006A0004FF000074FF000084FF0000B21F007015A
:1006B000AC46ACE8C009ACE8C009ACE8C009ACE89D
:1006C000C0098D46704710B50446AFF30080204640
:1006D000BDE81040FFF7AABD002801D000F02AB8FD
:1006E0007047000010B5012805D0002103A000F0DC
:1006F00027F8012010BD09A1F8E70000534947522F
:10070000544D454D3A204F7574206F6620686561E1
:1007100070206D656D6F7279000000003A204865A9
:100720006170206D656D6F727920636F7272757084
:100730007465640001491820ABBEFEE72600020084
:1007400070B505460C460A2000E06D1C00F011F85B
:1007500035B128780028F8D102E0641C00F009F8CF
:1007600014B120780028F8D1BDE870400A20AFF31A
:10077000008008B569468DF800000320ABBE08BDB7
:1007800021B1826842F00102826003E0826822F0B7
:1007900001028260704700000021084A1168084A7F
:1007A0001140D0E900231A4383681A43C3681A43EF
:1007B0001143044AC2F804137047000004230140A7
:1007C000E030FCFF002001400021016041608160B9
:1007D000C160704710B50121080200F04FFE0021F2
:1007E0004FF4807000F04AFE10BD0146C86C80B224
:1007F00070470246002013680B400BB1012000E057
:100800000020704730B50246002000235068104C8D
:1008100020400D790C6844EA05242043506090681C
:100820000C4C2040D1E903542C438D682C434D7966
:1008300044EA450420439060D06A20F470000C7DA7
:10084000641EE4B2234340EA0350D06230BD00008E
:10085000FFFEFFFCFDF7FFC0F0B504460D4600208B
:100860000021092D11DDE068A5F10A0606EB460717
:10087000072606FA07F18843A5F10A0606EB4606A5
:1008800003FA06F10843E0600CE0206905EB450738
:10089000072606FA07F1884305EB450603FA06F139
:1008A00008432061072A0FDA606B561E06EB8607A5
:1008B0001F2606FA07F18843561E06EB860605FA40
:1008C00006F10843606322E00D2A0FDA206BD61F81
:1008D00006EB86071F2606FA07F18843D61F06EBAC
:1008E000860605FA06F10843206310E0E06AA2F1EB
:1008F0000D0606EB86071F2606FA07F18843A2F1CC
:100900000D0606EB860605FA06F10843E062F0BD27
:10091000816841F080418160704700210160017170
:1009200041718160C1600161012101757047000062
:1009300000B58DB007A8FFF7F0FF03A8FFF744FF4D
:100940000121084600F05AFD0121022000F056FD69
:1009500003208DF80800FF20019001A9134800F042
:1009600062FB03208DF80800019001A9104800F0F7
:100970005AFB0121080200F071FDFFF72BFF002058
:10098000039004908DF820008DF821000A900B90C0
:1009900003A8FFF701FF07A90648FFF733FF01216E
:1009A0000448FFF7EDFE0DB000BD0000000002405E
:1009B00000040240002001402DE9F843002000908F
:1009C00000254AE0AFB2E8B200F0CAFC40F6FF7082
:1009D00001F052F800243DE00026B0462AE004F180
:1009E00008000122824091B2294800F08BFB4F2081
:1009F00001F042F8042C04D1082001F01DFF064448
:100A00000AE0052C04D1092001F016FF064403E09A
:100A1000E0B201F011FF064404F108000122824017
:100A200091B21B4800F070FB40F6FF7001F024F813
:100A300008F10108B8F10A0FD1DB0A2096FBF0F0AB
:100A40001FFA80F9202F02DA124820F81790381D7B
:100A500087B2641C082CBFDB6D1C042DB2DB0E4872
:100A60000078012804D0022806D003280CD107E022
:100A7000012001F041F907E0022001F03DF903E017
:100A8000032001F039F900BF00BFBDE8F883000082
:100A900000000240540000209500002039B1084AAF
:100AA0001268012383401A43054B1A6006E0044A8A
:100AB0001268012383409A43014B1A60704700007B
:100AC0000074004010B50121480700F0B7FC002178
:100AD0004FF0005000F0B2FC10BD000030B5002215
:100AE00000230A4C226840F6FE748440A243D1E9F8
:100AF00000452C438D682C43CD6844EA050303FA76
:100B000000F42243014C226030BD0000007400401C
:100B100008B500220092054A009200F10802009BED
:100B20001A440092009A116008BD00000074004051
:100B300008B500220092054A009200F11402009BC1
:100B40001A440092009A116008BD00000074004031
:100B50000021016041608160C16070470346062149
:100B600006221248018812480288ABB1012B1BD122
:100B70003AB94EF6EE60814201D100207047012063
:100B8000FCE739B94EF6EE60824201D10120F5E76B
:100B90000020F3E7AB20F1E709B90020EEE70AB93E
:100BA0000120EBE7AB20E9E70020E7E70080000841
:100BB00000C0000810B508240221102000F080F9C0
:100BC0000446082C01D0204610BD0021074800F043
:100BD000DFF90446082C01D02046F5E70221182051
:100BE00000F06EF904462046EEE7000000800008A1
:100BF0002DE9F0474FF0060A062600250027A846F3
:100C00004FF0FF397748B0F800A077480688BAF16E
:100C1000000079D0A0F56E40EE3868B3A0F588509A
:100C20001138002871D14EB90221102000F048F986
:100C30000446082C1FD02046BDE8F0874EF6EE6033
:100C4000864211D10221102000F03AF90446082C06
:100C500001D02046F0E70021634800F099F90446EE
:100C6000082C08D02046E7E7FFF7A4FF0446082C2D
:100C700001D02046E0E7B1E07EBB002522E05948E4
:100C8000C0885A4931F81510884201D10FFA85F908
:100C90004D4515D0554931F81500554900F0AAF8D1
:100CA0008046B8F1010F0BD0504931F8150050497A
:100CB000098800F0CFF80746082F01D03846BBE777
:100CC000681C85B2032DDADB0021464800F060F98C
:100CD0000446082C02D02046AEE708E00221182086
:100CE00000F0EEF80446082C20D02046A4E74FF68A
:100CF000FF70864213D10221182000F0E1F804466B
:100D0000082C03D0204697E711E05FE0002135482A
:100D100000F03EF90446082C08D020468CE7FFF787
:100D200049FF0446082C01D0204685E756E036B935
:100D3000FFF740FF0446082C47D020467CE74FF6DB
:100D4000FF70864208D10221182000F0B9F804464D
:100D5000082C3AD020466FE7002522E02248C088C0
:100D6000224931F81510884201D10FFA85F94D4515
:100D700015D01E4931F815001D4900F03BF880469A
:100D8000B8F1010F0BD0194931F81500184909883D
:100D900000F060F80746082F01D038464CE7681C81
:100DA00085B2032DDADB00210F4800F0F1F804468C
:100DB000082C01D020463FE70221102000F080F8E7
:100DC0000446082C01D0204636E707E0FFF7F2FE84
:100DD0000446082C01D020462EE700BF00BF0820A3
:100DE0002AE700000080000800C00008A8000020DA
:100DF0009C0000202DE9F04706460F46002445F2EE
:100E000055584FF00109124DAA460020FFF7A6FEE3
:100E10000446AB2C01D1BDE8F0870D4800EB843AC5
:100E2000601C0B49891E01EB80350AE0B5F8008093
:100E3000B04505D135F8020C38804FF0000904E0C8
:100E40002D1F0AF102008542F0D800BF4846E2E7B4
:100E5000008000082DE9F04706468846082700254F
:100E6000154CDFF858900120FFF778FE0546AB2DB2
:100E700001D1BDE8F087104800EB8534681C0E49AD
:100E8000891E01EB803913E02068401C78B9414687
:100E9000204600F07DF80746082F01D03846E8E7E5
:100EA0003146A01C00F074F807463846E1E7241DDF
:100EB0004C45E9D38020DCE70080000800C0000832
:100EC00070B504460A460026082502B909E0012A41
:100ED00001D1160205E0022A01D1160201E04FF409
:100EE000407600F08FF80546082D28D11548006897
:100EF00020F44070134908600846006830430860D9
:100F00000846006820F0F80008600846006844F0D1
:100F1000020108430B4908600846006840F480302D
:100F2000086000F06FF805460648006820F00200EF
:100F3000044908600846006820F0F8000860284668
:100F400070BD0000103C024008201049096801F4FF
:100F50008031B1F5803F01D1012015E00B490968CE
:100F600001F0100109B105200EE00849096801F0FF
:100F7000EF0109B1062007E00449096801F0020108
:100F800009B1072000E00820704700000C3C024037
:100F900030B502460C46082500F034F80546082D09
:100FA00019D10E48006820F440700C4908600846CA
:100FB000006840F4807008600846006840F0010056
:100FC0000860148000F01EF805460448006820F010
:100FD000010002490860284630BD0000103C024074
:100FE0000548006800F0004028B1044802490C3967
:100FF0000860034808607047103C024023016745C1
:10100000AB89EFCD08B508200090FFF79DFF009059
:1010100002E0FFF799FF00909DF800000128F8D04A
:101020009DF8000008BDF0B50A4600210023002409
:1010300000BF3DE0012505FA01F3156805EA030448
:101040009C4234D105684F000326BE40B54305607D
:1010500015794E00B5400668354305601579012DB8
:1010600002D01579022D16D185684F000326BE40A7
:10107000B543856055794E00B54086683543856037
:10108000456801268E40B5434560456896798E4097
:10109000B6B235434560C5684F000326BE40B54330
:1010A000C560D5794E00B540C6683543C560491C5A
:1010B0001029BFD3F0BDF0B5002300244D07ED0E7D
:1010C00002FA05F3CE1000F1200555F826504E0720
:1010D000F70E0F26BE40B543CF1000F1200646F8AC
:1010E0002750CE1000F1200555F8265045EA03049C
:1010F000CE1000F1200545F82640F0BD01460869F4
:1011000080B2704741837047018370471CB501214D
:10111000084600F073F901208DF8040000208DF8D6
:1011200006008DF807008DF805004FF47F40009011
:1011300069460448FFF777FF4FF47F410148FFF706
:10114000E3FF1CBD000002401CB50121022000F09D
:1011500055F90121042000F051F901208DF8040017
:1011600000208DF806008DF807008DF80500E020BE
:10117000009069461248FFF756FFE0211048FFF73C
:10118000C1FF00208DF804008DF806008DF80700DF
:101190008DF805000120009069460A48FFF743FFDB
:1011A0004FF47040009069460548FFF73CFFC021AE
:1011B0000348FFF7A7FF20210148FFF7A5FF1CBD4B
:1011C00000040240000802401CB50121022000F08A
:1011D00015F90121042000F011F901208DF8040017
:1011E00000208DF806008DF807008DF805001C2002
:1011F000009069460648FFF716FF1C210448FFF7D8
:1012000083FF00F069FD012000F076FD1CBD0000A9
:10121000000402401CB52046FFF79AFC0121084655
:1012200000F0ECF803208DF80400302000906946AF
:101230000C48FFF7F8FE0121480700F0EFF8FFF730
:1012400041FC21460020FFF749FC21461020FFF712
:1012500045FC01210020FFF721FC01211020FFF7B0
:101260001DFC1CBD0000024000B58BB00121022016
:1012700000F0C4F80121084600F0D0F802208DF8F3
:10128000280000208DF82A004FF480600990022089
:101290008DF8290009A91A48FFF7C5FE01220A2185
:1012A0001748FFF708FF0020ADF81A00F920079053
:1012B0000020ADF81800ADF8200006A94FF08040DE
:1012C00000F0BEFC002003906020ADF80400012077
:1012D000ADF806000020ADF810000821C80600F0A7
:1012E000A3FC0121880700F019FC01A94FF0804000
:1012F00000F04AFC0121880700F01FFC0BB000BD84
:101300000004024070B52DED048B05460C462046C6
:1013100001F02AFD41EC190B9FED0F0B53EC102B44
:1013200001F072FD41EC180B01F0DAFC0446B4F553
:10133000805F01D340F6FF74012D04D1A1B20020DB
:10134000FFF7E6FB05E0022D03D1A1B20020FFF775
:10135000EFFBBDEC048B70BD2D431CEBE236EA3F86
:1013600010B5044634B1012C0AD0022C13D0032C42
:1013700022D11BE04FF440711048FFF7C3FE1BE081
:101380004FF400710D48FFF7BDFE4FF480710B481C
:10139000FFF7BAFE10E04FF480710848FFF7B2FE85
:1013A0004FF400710548FFF7AFFE05E04FF44071C0
:1013B0000248FFF7A9FE00BF00BF10BD00040240B5
:1013C0001CB50121022000F019F801208DF804005D
:1013D00000208DF806008DF807008DF805004FF409
:1013E0004070009069460448FFF71DFE4FF44071BD
:1013F0000148FFF787FE1CBD0004024029B1064AE0
:1014000012680243044B1A6004E0034A12688243E4
:10141000014B1A60704700003038024029B1064A7B
:1014200012680243044B1A6004E0034A12688243C4
:10143000014B1A60704700004038024029B1064A4B
:1014400012680243044B1A6004E0034A12688243A4
:10145000014B1A60704700002038024029B1064A4B
:1014600012680243044B1A6004E0034A1268824384
:10147000014B1A60704700004438024029B1064A07
:1014800012680243044B1A6004E0034A1268824364
:10149000014B1A607047000024380240F0B500216B
:1014A00000220024022500260223324F3F6807F065
:1014B0000C0121B1042905D0082937D105E02E4FB0
:1014C000076036E02D4F076033E02A4F3F1F3F682B
:1014D000C7F38056274F3F1F3F6807F03F036EB1A9
:1014E000264FB7FBF3F7DFF88CC0ACF1040CDCF847
:1014F00000C0CCF3881C07FB0CF40CE01E4FB7FBBC
:10150000F3F7DFF870C0ACF1040CDCF800C0CCF3EA
:10151000881C07FB0CF4174F3F1F3F68C7F30147B8
:101520007F1C7D00B4FBF5F7076002E0124F0760F7
:1015300000BF00BF0F4F3F6807F0F0010909104FCF
:101540007A5C0768D74047600A4F3F6807F4E0516C
:10155000890A0B4F7A5C4768D7408760054F3F6820
:1015600007F46041490B064F7A5C4768D740C76073
:10157000F0BD0000083802400024F40040787D01EE
:10158000000000202DE9F04F2DED068BA1B00027C3
:10159000FBE03C46F8B2FFF7E3FE0F2000F06CFAE8
:1015A0000025EEE00026B14629E005F10800012201
:1015B000824091B27A48FFF7A5FD4F2000F05CFA17
:1015C000042D04D1082001F037F906440AE0052D66
:1015D00004D1092001F030F9064403E0E8B201F03B
:1015E0002BF9064405F108000122824091B26C48B3
:1015F000FFF78AFDFF2000F03FFA09F10109B9F178
:101600000A0FD2DB0A2096FBF0FA01A840F824A0CA
:1016100050F82410634830F81400643081427DDDB6
:1016200001A850F824105F4830F814006430081AFC
:1016300000EE100AF8EEC00A5B4830F81410594862
:1016400030F814006430081A00EE100AB8EEC00A30
:1016500080EE801A11EE10BA584601F0FFFD41EC01
:10166000190B9FED520B53EC102B01F0CDFB41EC0D
:10167000180B01F035FB4F49095D4F4A02EB411150
:1016800008554C48005D401C4A4908550846005D15
:101690000F2801D1002008554848005D401C4749EB
:1016A00008550846005D0F2801DD0F20085500266B
:1016B000B04606E0404800EB4810005D064408F1E3
:1016C00001083E48005D4045F4DC3C48005D96FB67
:1016D000F0F03B4921F8140001203A4921F81400A8
:1016E000374830F81400642804DD6420344921F8B8
:1016F000140025E0324830F8140008B3304931F8BE
:10170000140001F031FB41EC1A0B9FED2F0B53EC51
:10171000102B01F079FB41EC190B00E022E0B0EE58
:10172000490AF0EE690A00F0A3FBB0EE408AF0EE41
:10173000608A51EC180B01F0D3FA214921F814000A
:10174000234830F814000F2804DD03201D4921F838
:10175000140014E01E4830F81400401C1C4921F805
:1017600014000CE0002013490855144908550220C4
:10177000144921F814000020154921F81400241DF3
:101780006D1C082DFFF60EAF7F1C042FFFF601AF76
:10179000FF2000F071F921B0BDEC068BBDE8F08FA1
:1017A000000002405400002014000020000000004F
:1017B000000059407404002094020020940400208A
:1017C000D4010020140200205A643BDF4F8DA73F54
:1017D0005402002070B55C48FFF790FC04465B485B
:1017E000FFF78CFC054604F4005018B10820584956
:1017F000087002E009205649087004F4805018B1BE
:101800000B205449087002E00A205249087004F481
:10181000004018B901205049087009E004F48040E4
:1018200018B102204C49087002E003204A490870B0
:101830004A48808F01280FD100F04EFA022000F0B4
:101840005BFA022046490870A0213F48FFF75AFC86
:1018500040213D48FFF758FC4048408F01280FD1F8
:1018600000F03AFA012000F047FA01203C490870E4
:10187000C0213548FFF746FC20213348FFF744FCE0
:101880003648C08F01280FD100F026FA032000F05F
:1018900033FA03203249087060212B48FFF732FCED
:1018A00080212948FFF730FC2D480078012804D01A
:1018B000022806D0032844D123E0002029490860EB
:1018C0003FE005F00100C0B923480078012804D0AA
:1018D000022807D003280FD109E04FF47A7021497C
:1018E000086009E04FF496601E49086004E04FF478
:1018F000FA601C49086000BF02E000201949086036
:101900001FE005F00100C0B913480078012804D099
:10191000022807D003280FD109E04FF4FA601149DB
:10192000086009E04FF416600E49086004E04FF4C7
:101930007A600C49086000BF02E000200949086095
:1019400000BF00BF70BD000000040240000802405C
:101950009700002096000020940000201402002030
:10196000950000209800002010B5044608E014F807
:10197000011B054800F05EFA4FF6FF7000F07CF89E
:1019800020780028F3D110BD004800400CB500209D
:10199000019000903448006840F48030324908607B
:1019A00000BF3148006800F4003000900198401CEE
:1019B0000190009818B90198B0F5A06FF1D12A48AC
:1019C000006800F4003010B10120009001E0002018
:1019D00000900098012846D123484030006840F02C
:1019E00080502149403108602048006840F4804020
:1019F0001E4908601C48083000681B49083108600F
:101A00000846006840F4004008600846006840F45A
:101A1000A05008601648091F0860081F006840F0C1
:101A20008070091F086000BF0F48006800F0007058
:101A30000028F9D040F205600E4908600A480830D5
:101A4000006820F003000849083108600846006873
:101A500040F00200086000BF03480830006800F052
:101A60000C000828F8D10CBD00380240007000407E
:101A700019544007003C024001B500BF0098411EC8
:101A800000910028FAD108BD10B51548006840F44F
:101A90007000134908601348006840F001001149C4
:101AA000086000200F49083108600E4800680E49A0
:101AB00008400C4908600D48091D0860081F0068AF
:101AC00020F48020091F0860002006490C310860BE
:101AD000FFF75CFF4FF0006001498039086010BDDE
:101AE00088ED00E000380240FFFFF6FE10300024D1
:101AF00010B50121084800F02CF858B10121064822
:101B000000F018F87D21880700F097F800210248BE
:101B100000F013F810BD00000010004021B1028851
:101B200042F08002028004E002884FF67F731A4080
:101B300002807047CA430282704721B1028842F096
:101B40000102028004E002884FF6FE731A40028010
:101B5000704730B50246002000230024158A05EAAC
:101B60000103958905EA010413B10CB1012000E0DD
:101B7000002030BD1AB183890B43838102E0838941
:101B80008B4383817047000070B50024002200233E
:101B9000058C4FF6FF6635400584028C8388848B64
:101BA0004FF68F752C404FF6FC752C400D882C435A
:101BB0004FF6FF552A408D894FF6FF7606EA052538
:101BC0002A434D8806EA05252A43154DA84202D02E
:101BD000144DA8421DD14FF2FF752A40CD894FF612
:101BE000FF7606EA05252A434FF6FF352A408D8801
:101BF00006EA05252A434EF6FF752B404DF6FF7584
:101C00002B400D8A06EA05152B434D8A06EA051579
:101C10002B43838084838D68C563028470BD00007C
:101C200000000140000401400A460021818B4FF66C
:101C3000F7731940114381837047C16370470000F7
:101C400000220288184B98420ED0184B98420BD0B5
:101C5000B0F1804F08D0164B984205D0154B9842F2
:101C600002D0154B984204D14FF68F731A404B881F
:101C70001A43124B984207D0114B984204D04FF6AA
:101C8000FF431A400B891A4302804B68C3620B88DA
:101C90000385054B984202D0044B984201D18B7AC0
:101CA0000386012383827047000001400004014045
:101CB0000004004000080040000C004000100040FC
:101CC000001400404FF0FF3141600021018001818C
:101CD000418081727047000010B51C210448FFF755
:101CE00013FA0020034908704870887010BD000086
:101CF000000402401000002010B50446012C04D05E
:101D0000022C0AD0032C18D10FE004210C48FFF755
:101D1000F9F901200B4908700FE008210848FFF786
:101D2000F1F901200749487007E010210448FFF746
:101D3000E9F901200349887000BF00BF10BD000011
:101D4000000402401000002021B1828942F40052B8
:101D5000828104E082894DF6FF731A4082817047C8
:101D60002DE9FF4705460E460024A14600BFA046C8
:101D7000B08900B100BF2C8A24F44054F088044399
:101D80002C82AC8941F20C608443B08831890843CD
:101D9000718908430443AC81AC8A24F44074B0894F
:101DA0000443AC826846FFF779FB2048854202D0A5
:101DB0001F48854202D1DDF80C9001E0DDF8089063
:101DC000A88900F4004040B109EBC90000EB0910FC
:101DD00031684900B0FBF1F707E009EBC90000EBFF
:101DE000091031688900B0FBF1F76420B7FBF0F00F
:101DF00004012009642101FB1078A88900F4004047
:101E000040B1322000EBC800B0FBF1F000F0070059
:101E1000044308E0322000EB08106421B0FBF1F02D
:101E200000F00F0004432C81BDE8FF870010014043
:101E300000140140C1F308028280704703B4019886
:101E40004100009850EAC12018BF04204A0D18BF75
:101E500040F0010040F2FF72B2EB515F08BF40F06A
:101E60000200012808BF052002B0704700000000F2
:101E700070B52DED020B2DED0A8B82B00D98C40FBD
:101E800020F00045AE48854248D3AE48854219D37C
:101E90000C99C5F31300084309D09DED0C0B02B05B
:101EA000BDEC0A8B02B0BDE8704000F009BA002C0E
:101EB00014BF9FEDA50B9DED0C0B02B0BDEC0A8B82
:101EC00002B070BD9FEDA20B53EC102B9DED0C0BDF
:101ED00051EC100B01F096F80AD20220FEF727FB16
:101EE00002B0BDEC0A8B02B0BDE8704000F0F4B95E
:101EF0009FED990B53EC102B9DED0C0B51EC100B3F
:101F000000F046FF0AD20220FEF711FB02B0BDEC42
:101F10000A8B02B0BDE8704000F0EEB990489FED2A
:101F200092BBA8425CD29248854219D2914878442B
:101F300000EBC40090ED000B53EC102B9DED0C0B4F
:101F400051EC100B01F0A0F841EC1A0B8A487844D0
:101F500000EBC40090ED009BC4F10100041B36E0CF
:101F60009FED870B53EC102B9DED0C0B51EC100BE0
:101F700000F04AFF41EC100B8348784400EBC400AA
:101F800090ED001B51EC100B53EC112B00F06CFC8E
:101F900000F076FE044600F0D0FE41EC180B9FEDF9
:101FA0007C0B53EC102B00F02FFF9DED0C1B53EC22
:101FB000112B01F05DF841EC1A0B9FED770B51EC02
:101FC000180B53EC102B00F01FFF41EC190B51ECD8
:101FD0001A0B53EC192B01F057F8CDE90C011BE05B
:101FE0006F48854217D29FED700B53EC102B9DED7F
:101FF0000C0B51EC100B00F037FC53EC1B2B01F0D9
:1020000001F808D29DED0C0B53EC1B2B51EC100B7F
:1020100000F02AFC6EE000249DED0C0B53EC102B1D
:1020200051EC100B00F0F0FE41EC180B604805215C
:10203000B0EE480AF0EE680A784400F0C5F853ECB8
:10204000182B51EC100B00F0DFFE9DED0C1B53EC38
:10205000112B01F00DF841EC180B9FED570B5CB301
:1020600053EC182B51EC100B01F00EF89DED0C0BFE
:1020700041EC1C0B53EC182B51EC100B00F0C4FE80
:1020800053EC1C2B00F0A4FC53EC192B00F0F0FFD8
:1020900053EC1A2B00F0F8FF53EC1B2B00F0E8FF79
:1020A000CDE900016FF47F70844226DB01EB045020
:1020B00001909DED000B00E753EC102B51EC180B39
:1020C00000F0E2FF9DED0C0B41EC190B53EC182BCB
:1020D00051EC100B00F098FE53EC192B00F078FC3B
:1020E0009DED0C1B53EC112B00F0CEFF53EC1B2B82
:1020F00000F0BEFF41EC100BDFE608464FF07A51CE
:1021000001EB04519FED2E0B084453EC102B019072
:102110009DED000B51EC100B00F076FE0D4645ECEA
:10212000100B044651EC100BFFF788FE042808BF83
:1021300000F0E2F845EC104BBFE6000000000000A4
:10214000422E86400000F07F0000000000000000EA
:10215000EF39FAFE422E864051302DD5104987C006
:10216000422ED63F00000000000000000000F03FBB
:10217000B2A2F03F26140000161400000000000078
:10218000FE822B654715F73FCA13000000000000D0
:102190000000E0FE422EE63F763C7935EF39EA3D1D
:1021A0000000303E000000009C7500883CE4377E53
:1021B0003C13000000000000000000000000004090
:1021C000000000000000700170B504462DED028B88
:1021D0004D1E00EBC500B0EE408AF0EE608A90ED37
:1021E000000B35F0060017D053EC182B51EC100BF8
:1021F00000F00AFE41EC100B6D1E04EBC50090EDE3
:10220000001B51EC100B53EC112B00F02DFB41EC9B
:10221000100B35F00600E7D1022D36D0042D1CD06E
:10222000062D1CBFBDEC028B70BD53EC182B51EC7E
:10223000100B00F0E9FD94ED0A1B53EC112B00F09C
:1022400013FB53EC182B00F0DFFD94ED081B53EC4F
:10225000112B00F009FB41EC100B53EC182B51EC47
:10226000100B00F0D1FD94ED061B53EC112B00F088
:10227000FBFA53EC182B00F0C7FD94ED040B53EC64
:10228000102B00F0F1FA41EC100B53EC182B51EC31
:10229000100B00F0B9FD94ED021B53EC112B00F074
:1022A000E3FA53EC182B00F0AFFD94ED001B53EC58
:1022B000112B00F0D9FABDEC028B41EC100B70BD74
:1022C00010B553EC102B51EC100B00F0CDFA41EC93
:1022D000100B10BD000000009FED050B10B553EC76
:1022E000102B51EC100B00F08FFD41EC100B10BDCA
:1022F00000000000000000709FED050B10B553ECCE
:10230000102B51EC100B00F07FFD41EC100B10BDB9
:10231000000000000000001031B50B4C9DF80020BB
:102320000AA10D48FDF7FEFF0B48FFF71DFB0098C3
:1023300000F074FA054600E0646860680028FBD18C
:102340006560284638BD0000A00000206164646517
:10235000642025640D0A0000B40400200020044914
:1023600002E0421CD0B249684A68002AF9D170479D
:10237000A000002070B505462A460CA10F48FDF7C5
:10238000D1FF0E48FFF7F0FA0D4C0AE060680078C4
:10239000A84205D1606800F015F86060012070BDAA
:1023A000646860680028F1D100BFF8E764656C6577
:1023B0007465642025640D0A00000000B404002048
:1023C000A000002070B504460CB9002070BD6568FF
:1023D0002046FDF780FF2846F8E700000EB50121F2
:1023E0001020FFF71BF86846FFF76CFC40F2A310C3
:1023F000ADF800007820019069460C48FFF720FCFA
:10240000012211460948FFF7B5FB00210748FFF7F5
:1024100094FB362000F01F020121914042099200F6
:1024200002F1E022C2F8001100BF0EBD0010004012
:1024300000B587B001218804FEF7F0FF01210220DA
:10244000FEF7DCFF4FF48060059002208DF8180045
:102450008DF8190000208DF81A0001208DF81B005E
:1024600005A91048FEF7DFFD07220A210D48FEF7F7
:1024700022FE4FF4E13001900020ADF80800ADF8E5
:102480000A00ADF80C00ADF810000820ADF80E0001
:1024900001A90548FFF764FC01210348FFF754FC3C
:1024A00007B000BD00040240004800400246074952
:1024B00006E048680078904201D1012070474968E1
:1024C00048680028F5D100BFF8E70000A000002010
:1024D0002DED0A8B8AB0002700BFFEF729FAFEF720
:1024E00015FEFFF7A5FFFEF76BFFFEF793FEFEF765
:1024F0006BFEFEF729FEFFF771FFFEF771FDFEF799
:1025000077FBFEF7B1FEFEF757FA202102A8FDF790
:102510008DFF5EE1FFF736F8FFF75CF9AD48408FBD
:1025200003280CD1AB48808F032808D1A948C08F5D
:10253000032804D1A8A0FFF717FAFEF73DFA0024FC
:102540001BE0A44830F81400012804D0A14830F85A
:102550001400032809D1E0B2FFF7A8FF60B9E0B288
:1025600001900198FFF7D8FE06E0E0B2FFF79EFF6A
:1025700010B1E0B2FFF7FEFE641C1D2CE1DBFFF79B
:10258000EDFE00287CD098480078082803D19748B1
:10259000406805780BE094480078092807D1934EED
:1025A00002E070680578766870680028F9D102A8A2
:1025B000405D50B9FA214807FFF73FFB01218C48E5
:1025C000FFF7BBFA012002A948558A480078012884
:1025D00013D0022802D0032863D137E005EBC500F1
:1025E00000EB05108449096801EB800808EBD870FE
:1025F00041100120FEF786FE53E07F48006800F09E
:102600009CFB41EC1A0B284600F0AEFB41EC1C0B86
:102610009FED7A0B53EC102B00F0F6FB41EC1B0BFB
:1026200053EC1A2B00F020F941EC190B9FED750BC0
:1026300053EC102B00F0CCF941EC180B00F050FBE0
:10264000804641460120FEF75DFE2AE06A480068A8
:1026500000F073FB41EC1A0B284600F085FB41ECBF
:102660001C0B9FED6A0B53EC102B00F0CDFB41ECE3
:102670001B0B53EC1A2B00F0F7F841EC190B00E0A0
:102680002FE09FED600B53EC102B00F0A1F941EC13
:10269000180B00F025FB804641460120FEF732FE74
:1026A00000BF00BF5B4800780A280AD15A4830F8BA
:1026B000150000EB800202EB40110220FEF722FE23
:1026C0000CE0544800780B2808D1534830F8150026
:1026D000322200FB02F10220FEF714FE781CC7B282
:1026E00077E0202102A8FDF7A1FE424800780128EA
:1026F00013D0022802D0032861D137E005EBC500D2
:1027000000EB05103C49096801EB800808EBD87024
:1027100041100120FEF7F6FD51E03748006800F057
:102720000CFB41EC1A0B284600F01EFB41EC1C0B85
:102730009FED320B53EC102B00F066FB41EC1B0BB2
:1027400053EC1A2B00F090F841EC190B9FED2D0B78
:1027500053EC102B00F03CF941EC180B00F0C0FAE0
:10276000804641460120FEF7CDFD28E02248006862
:1027700000F0E3FA41EC1A0B284600F0F5FA41ECC0
:102780001C0B9FED220B53EC102B00F03DFB41EC9A
:102790001B0B53EC1A2B00F067F841EC190B9FED63
:1027A000190B53EC102B00F013F941EC180B00F04F
:1027B00097FA804641460120FEF7A4FD00BF00BF06
:1027C00000214FF08040FFF738FA00210220FEF789
:1027D00099FD9FE61402002043616C696272617486
:1027E0006F6E0D0A0000000097000020A00000207E
:1027F0000010004094000020980000205A643BDF45
:102800004FD554400000000000000040D34D62103E
:1028100058D5644096000020D401002031B508202E
:10282000FDF72AFD041E00D138BD9DF80000207080
:10283000002060602046F7E710B50446002301221F
:1028400021460848FEF708F80648FEF761F800BF81
:1028500002210448FDF7CDFF0028F9D00148FDF71B
:10286000C4FF10BD0020014010B591EA030F48BF1E
:1028700083F0004300F11084841A71EB030C05D23D
:10288000121943EB0C03001B61EB0C01DFF824E190
:102890004FEA1154A4EB135C1EEA430F18BF9EEAE3
:1028A000445F73D023EA0E03DCF1200E21EA0451C9
:1028B00043F4801332D322FA0CFE10EB0E0023FAFD
:1028C0000CFE41EB0E01CCF1200E03FA0EFE10EBD4
:1028D0000E0051F10001B1F5801FCCF1200E32D273
:1028E00001EB045112FA0EF2BDE8104058BF7047D8
:1028F000401C38BF5FEA420218BF7047002814BF6F
:1029000020F0010041F100014FEA410313F5001FDF
:1029100038BF7047A1F1C04100F06EBB012A43EB04
:102920000302ACF1200CDCF11F0E32BF4FF0000EA1
:1029300023FA0CF310EB030041EB0451B4EB115FED
:10294000D0D0A1EB045101F5801149085FEA3000B5
:1029500001EB04510ED350F1000038BF12FA0EFE05
:1029600008D1BDE81040C9E7401C38BF5FEA420209
:10297000CAD1C3E7BDE810404FEA410313F5001F79
:1029800038BF7047A1F1C04100F036BB9EEA445FFA
:1029900008D011EA5E0FBDE8104004BF01F000410D
:1029A00000207047BDE8104070B500F0D7FA00BFB6
:1029B00064FBBE3E0000E0FF491058BFC1F140413A
:1029C0005B1058BFC3F140438B42EFF30080704768
:1029D0002DE9C04130B4DFF8A0C23CEA111418BFA1
:1029E0003CEA131400F0EC8081EA03051CEA1114A0
:1029F00044EAD57418BF1CEA131500F0C780A4EB95
:102A000005044FF0004545EAC12145EAC32341EAE8
:102A1000505143EA525304F17F74994204F5003453
:102A20004FEAC0204FEAC22208BF904200F09C80CB
:102A30004FEA13650FF24016765D4FEA134506FB29
:102A400005F7C7F1807706FB07F74FEAD737A7FBF3
:102A500003687642C8F58038A7FB06CE38BFA8F1D8
:102A6000010807FB08E64FF0000EA6FB028CE6FB10
:102A700003CEDCF1000CCEF1004E38BFAEF1010EFA
:102A8000A6FB0C584FF000074FF00005E6FB0E8741
:102A9000A1FB08C6A0FB07CE16EB0E0645F100050C
:102AA000E1FB076515F1E04E7EBFA4F580345FEAD7
:102AB00046066D4116F1800745F100054FEA1727DC
:102AC0004FEA066647EA0567A6F1DE46B6F1805F83
:102AD0004FEA15251FD9384624F0010C05EBC471C7
:102AE000BCF1FE6F01EB0C1102D8F0BCBDE8008117
:102AF00024425CBF01F5801E9EEAC47F02D4F0BC74
:102B0000BDE80081244238D4F0BCA1F1C041BDE849
:102B1000004100F071BA4FEAD22242EA43524FEA32
:102B2000D323A7FB02864FEAD02040EA415007FB9F
:102B300003661EEA0E0F4FEAD12105FB026658BF5D
:102B4000A6EB0056B6EB00564FEA520E4EEAC37E95
:102B500018EB0E0E56EB530EBDD518EB02085E4176
:102B60007F1C55F10005B6E74FF480154FF00007C4
:102B70004FF000064FF00008ADE7F0BC4FF000004A
:102B800001F1C04101F00041BDE8008111EA0C1FD4
:102B90000CEA131500D00CE013EA0C1F00F025809E
:102BA0004FF00000F0BC81EA030101F00041BDE8F4
:102BB0000081F0BCBDE8004181EA030100F01CBACD
:102BC000F0BCBDE8004170B500F0C8F9097EFC3EDC
:102BD00000F007B881EA03014FF0000001F0004166
:102BE000704781EA030100F007BAF0BCBDE800417C
:102BF0004FF0000021497047FFFDFBF9F7F5F4F2B3
:102C0000F0EEEDEBE9E8E6E4E3E1E0DEDDDBDAD887
:102C1000D7D5D4D3D1D0CFCDCCCBCAC8C7C6C5C4E5
:102C2000C2C1C0BFBEBDBCBBBAB9B8B7B6B5B4B3FC
:102C3000B2B1B0AFAEADACABAAA9A8A8A7A6A5A4E7
:102C4000A3A3A2A1A09F9F9E9D9C9C9B9A999998AB
:102C50009797969595949393929191908F8F8E8E4E
:102C60008D8C8C8B8B8A89898888878786858584DB
:102C700084838382828181800000FF070000F87FC7
:102C80004FEA41034FEA5353A3F58063D3F11E0388
:102C9000C8BFD3F1210C0CDD4FF0004242EAC12243
:102CA00042EA505232FA03FC8CEAE17CACEBE17070
:102CB0007047102BC4BF0020704703F5787CBCF12F
:102CC000FF3F04D06FF0004282EA2100704770B5E8
:102CD00000F044F94992248000207047F2E7000098
:102CE0004FEA1153A3F58063D3F11E03A8BFD3F1BC
:102CF000200C08DB4FF0004242EAC12252EA505257
:102D000032FA03F0704709420BD4102BC4BF0020E5
:102D1000704703F5787CBCF1FF3F05D04FF0FF30E2
:102D200070474FF00000704770B500F017F900BF12
:102D30004992248000207047F0E710F0004248BF1D
:102D40004042B0FA80F310FA03F10AD0C3F11D0338
:102D500003F580634FEA415002EB035202EBD121AD
:102D600070474FF000007047B0FA80F310FA03F19B
:102D70000AD0C3F11D0303F580634FEA41504FEAC7
:102D8000035202EBD12170474FF000007047000062
:102D900051EA030C17D41CF5801F58BFBCF5801FE7
:102DA00000F10680994218BF704708BF90427047F3
:102DB00007D711F5801F58BF13F5801F19D499420A
:102DC0007047894270471CF5801F08D5BCF5801FED
:102DD000F7D58B4218BF704708BF824270474FF447
:102DE000001C1CEB410F38BF1CEB430F01D28B4280
:102DF000704770B500F0B2F8922449004FF00051CE
:102E00004FF08053FFF7D8BDDFF848C170B51CEA1A
:102E1000111E1EBF1CEA13159EEA0C0F95EA0C0F3B
:102E200000F06F8081EA030423EA4C134EEAD47E5B
:102E300021EA4C1141F4801143F48013AE44A1FB0C
:102E4000024CA0FB0365AEF17F7E361955EB0C05F5
:102E5000A1FB034C4CF10003A0FB021C16EB0C067B
:102E6000654153F10003094218BF46F0010613F40F
:102E7000007F0BD14FEA03314FEA0530340341EABA
:102E8000155140EA16506FF003020AE04FEAC321E1
:102E90004FEAC520F40241EA555140EA56506FF01E
:102EA000020202EB2E4201EB025585EACE710AD0F6
:102EB0005FEA440C18BF24F0004450F1000041F1D7
:102EC000000120EAD47040F2FE7C624500D270BD61
:102ED000A84214BF4FF080444FF04044002E08BF7A
:102EE0000024BEF1806FA8BFA1F1C041BDE87040D1
:102EF00080F282804FF0000001F1C04101F00041FA
:102F000070479EEA0C0F0CEA131518BF95EA0C0FD8
:102F100006D04FF0000081EA030E0EF0004170BDB4
:102F200000F01CF88900013E00F007B800F009B875
:102F30004FEA430C5FEA5C5C08D081EA030100F0D1
:102F40005BB84FEA410C5FEA5C5CF6D14FF00000E1
:102F5000014970470000FF070000F87F0EF1020EE4
:102F60002EF0030E5EF8046B364205D4012A43EBC3
:102F7000030515F5001F12D8012841EB010C1CF5C3
:102F8000001F0CD80ED14FEAD17C15F5001F0CEBB9
:102F90004C0C0CF1020C08BF4CEBD37C04E04FF05E
:102FA000080C01E04FEAD37C0CEB4C0526FA05F641
:102FB00006F00706B6F1040C06D20EEB860CBDE84F
:102FC00070404CF0010C6047DFE80CF0090B020286
:102FD0004FF000414FF00000A1F5002170BD1946EF
:102FE0001046012851EB010418BFD4F5001484BF2A
:102FF000002001F0004170BD0808A0F500114FEA63
:103000003101704753EA010C17D41CF5801F58BFDB
:10301000BCF5801F00F106808B4218BF704708BFC7
:103020008242704707D713F5801F58BF11F5801FE4
:1030300019D48B4270479B4270471CF5801F08D5FE
:10304000BCF5801FF7D5994218BF704708BF904262
:1030500070474FF4001C1CEB430F38BF1CEB410FB3
:1030600001D2994270470FB40CBC03BCFFF7C1BE3C
:1030700091EA030F10B581F000413FF5FDAB83F0FD
:10308000004300F009B8000010B591EA030F48BFF3
:1030900083F000433FF5F0AB841A71EB030C07D2C9
:1030A00012198CF0004C43EB0C03001B61EB0C017C
:1030B000DFF8A4E14FEA1154A4EB135C1EEA430FBE
:1030C00018BF9EEA445F00F0B08023EA6E035242CC
:1030D00021EA0451C3EB6E0338BF5B1EDCF1200E06
:1030E00025D322FA0CFE10EB0E0043FA0CFE41EB46
:1030F0000E01CCF1200E03FA0EFE10EB0E0051F182
:103100000001CCF1200E29D412FA0EF201EB045189
:10311000BDE8104058BF7047401C1CBFB2F1004FC3
:10312000704700280CBF491C20F00100704712EBCB
:10313000020E43EB030218BF4FF0010E4EEA4202AB
:10314000ACF1200CDCF11E0E54D943FA0CFE10EB4E
:103150000E0051F1FF31CCF11E0ED5D50EF1010E4E
:1031600012FA0EFE404141EB010101EB445C5FEAC3
:103170005C5C10D910EBDE7001EB045138BFBEF17E
:10318000004FBDE8104018BF704700280CBF491C15
:1031900020F00100704730D24FEAD42C11F5001115
:1031A00024F400641BD0B1FA81F20B3AA41AA41ED5
:1031B000D2F12003914030FA03F31943904001EB20
:1031C000CC71002C01EB0451BDE81040A8BF704742
:1031D00001F1C0414FF0000001F000417047B0FA2A
:1031E00080F310FA03F100D110BDE41A173C480532
:1031F000C90AE4E701EB045110BD491001EB045189
:10320000BDE810404FEA300002E04FF00001704787
:103210004A0008BF0042F8D0B2F5001F28BF70472F
:1032200001F000414FF0000070479EEA445F07D074
:1032300011EA5E0FBDE8104004BF00210020704776
:10324000BDE8104070B5FFF789FE00BF40DFF63ED5
:1032500083F00041104670470000E0FF43004FEA52
:10326000D30C4FEA3C0C43401FBF40070CF16051A8
:1032700013F0FE4F70471CF0006F03D100200CF0DC
:10328000004170470CF0004343EA507010B540EA2B
:10329000CC0000F00EF800BF000000924FEA0001E1
:1032A000FFF7AABE4FF000414FF00000A1F500214A
:1032B00070470EF1020E2EF0030E5EF8044B24420E
:1032C00004D44FEA4102B2F17F4F11D84FEA4003D4
:1032D000B3F17F4F0CD80ED14FEAD07CB2F17F4FC3
:1032E0000CEB4C0C0CF1020C08BF4CEBD17C04E055
:1032F0004FF0080C01E04FEAD17C0CEB4C0324FAB0
:1033000003F404F00704B4F1040C06D20EEB840CB1
:10331000BDE810404CF0010C6047DFE80CF00708F6
:1033200002024FF00040A0F5800010BD08464200A8
:1033300018BFD2F1807288BF00F0004010BD4FF07E
:103340004070E1EE100A7047000000000000E03F0E
:10335000000000000000E0BF0000E0FE422EE63F5B
:103360000000E0FE422EE6BF763C7935EF39EA3DBB
:10337000763C7935EF39EABD3E5555555555C53F33
:1033800093BDBE166CC166BF2CDE25AF6A56113FD9
:10339000F16BD2C541BDBBBED0A4BE726937663EDB
:1033A000C033000800000020A8000000C40100088D
:1033B00068340008A8000020900A0000E00100081E
:1033C00000000000010203040102030406070809CB
:1033D00000000000DC05DC05DC05DC05DC05DC05A7
:1033E000DC05DC05DC05DC05DC05DC05DC05DC05D5
:1033F000DC05DC05DC05DC05DC05DC05DC05DC05C5
:10340000DC05DC05DC05DC05DC05DC05DC05DC05B4
:10341000DC05DC05840384038403840384038403C0
:103420008403840384038403840384038403840364
:103430008403840384038403840384038403840354
:103440008403840384038403840384038403840344
:10345000840384030001000000000000000000005D
:08346000000000000000000064
:040000050800018965
:00000001FF
