:100000000C9449010C9474010C9474010C947401C7
:100010000C9474010C9474010C9474010C9474018C
:100020000C9474010C9474010C9474010C9474017C
:100030000C9474010C943F3B0C9474010C94740167
:100040000C9474010C9474010C945A480C9474012F
:100050000C94454A0C94DB4A0C9474010C94740182
:100060000C9474010C9474010C9444400C9474012D
:100070000C947E4A0C94284B0C9474010C947401DB
:100080000C9474010C9474010C9474014D093E0994
:100090003E096309410950094109440953096309AB
:1000A000630947095609470947095C094A0959097B
:1000B00063095F095F095F096309630963096309EC
:1000C00062093D362E362E3683363136403631368D
:1000D0003436433683368336373646363736373608
:1000E0004C363A36493683364F364F364F3683369E
:1000F00083368336833652367136673667368336B3
:100100006936733669366B367536833683366D36A7
:1001100077366D366D367B366F36793683367D367B
:100120007D367D368336833683368336823620426B
:10013000440020534400204C5400204D54002048DB
:10014000540020524D0020435000204342002043E1
:100150005900204F4800204348005043320041439B
:1001600043004558540054523100545232002D334C
:10017000002D32002D31002B30002B31002B3200AE
:100180002B33002B34002043004323002044004441
:100190002300204500204600462300204700472337
:1001A000002041004123002042004D535400534C95
:1001B000560053594E0046524500AA01AE01B60101
:1001C000B2012E01320136013A013E0142014601DF
:1001D0004A014E01520156015A015E016201660157
:1001E0006A016E017101740177017A017D0180015C
:1001F0008301860189018C018F019201950198018B
:100200009B019E01A101A401A7010000210024007F
:1002100027002A0000002200250028002B000000F3
:10022000200023002600290002020202020202022C
:100230000404040404040404030303030303030386
:1002400001010101010101010102040810204080A7
:1002500001020408102040800102040810204080A0
:10026000010204081020408000000001020008097B
:10027000000000000403070600000000000000006A
:1002800000000000000000005A0EDC3EF743A34CC3
:10029000FC4311241FBECFEFD0E4DEBFCDBF13E07F
:1002A000A0E0B1E0E8ECFFE900E00BBF02C007907E
:1002B0000D92A63EB107D9F71BBE14E2A6EEB3E03D
:1002C00001C01D92A43DB107E1F712E0C0E9D2E000
:1002D00004C02297FE010E949C4FC838D107C9F77D
:1002E0000E94394D0C94D74F0C940000A0E0B0E070
:1002F000ECE7F1E00C94A84FEC01A880B980CA802B
:10030000DB80A114B104C104D10441F484E2A82E1D
:1003100089EDB82E8BE5C82E87E0D82EC601B50131
:100320002DE133EF41E050E00E947F4F27EA31E4B6
:1003300040E050E00E940B4F7B018C01C601B501EB
:100340002DE133EF41E050E00E947F4FCA01B90137
:100350002CEE34EF4FEF5FEF0E940B4F6E0D7F1DC1
:10036000801F911F97FF04C06150704080409048EB
:10037000688379838A839B839B01AC015F77B90192
:10038000CA01CDB7DEB7EAE00C94C44F0E947601F3
:1003900008958FE792E00E947601089560937F02AE
:1003A0007093800280938102909382020895FB01F2
:1003B000DC0105900D920020E1F70895FC01148204
:1003C000138290E0672B09F091E090838181981768
:1003D00079F08281882319F4913009F49383928112
:1003E000913021F48081882309F494838081828371
:1003F000808181830895AF92BF92CF92DF92EF9276
:10040000FF920F931F93482F9091E70380E0209174
:10041000E60330E0282B392B442321F0413009F04A
:1004200056C056C040919C1E50919D1EE9EFF3E0CE
:1004300060E070E081E0E82EF12C012D112D138297
:10044000C901062E02C0969587950A94E2F7982F67
:10045000917090838181981761F18281882349F599
:10046000913039F5938386818F5F8683813019F0CF
:100470008230F9F40DC057016801062E04C0AA0CA1
:10048000BB1CCC1CDD1C0A94D2F74A295B2911C085
:10049000168257016801062E04C0AA0CBB1CCC1C96
:1004A000DD1C0A94D2F7D601C501809590954823AA
:1004B0005923808181836F5F7F4F3B966031710547
:1004C00009F0BDCF40939C1E50939D1E02C002C0F8
:1004D000A901CA011F910F91FF90EF90DF90CF907B
:1004E000BF90AF9008952F923F924F925F926F927C
:1004F0007F928F929F92AF92BF92CF92DF92EF92B4
:10050000FF920F931F93DF93CF9300D000D000D0C2
:10051000CDB7DEB7BC019091E70380E02091E60300
:10052000222E3324282A392A009199060983402F44
:1005300050E01091DC151E83E9EFF3E09A01A4E08E
:10054000220F331FAA95E1F73D832C838091DB15A1
:1005500090E029E035E0DC01A29FC001A39F900D4F
:10056000B29F900D11240C811D81080F191F0B5F84
:10057000184F1D830C832801380148015801CC24F1
:10058000DD2491E0E92EF12C012D112D9A01275146
:100590003D4F3B832A8347505D4F3C2D1382C10161
:1005A0000C2C02C0969587950A94E2F7282F2170AB
:1005B00020838181281709F48EC08281882309F065
:1005C00088C0213009F085C0238389818C3031F0C7
:1005D0008E3021F08F3011F08D30A1F5CB01032E3C
:1005E00002C0969587950A94E2F780FF03C092E0D7
:1005F000968302C0A1E0A6838681813021F08230FB
:1006000009F065C010C0D801C70104C0880F991F48
:10061000AA1FBB1F3A95D2F7682B792BAA81BB8101
:100620008C91D2013DC01682D801C70104C0880F49
:10063000991FAA1FBB1F3A95D2F780959095682302
:10064000792345C0CB010C2C02C0969587950A945E
:10065000E2F780FF0AC0D5019C91DA018C918917DD
:1006600018F4B3E0B68302C022E02683868182308C
:1006700099F08330C9F0813051F5D801C70104C029
:10068000880F991FAA1FBB1F3A95D2F7682B792BA9
:10069000DA018C91D30104C0AA81BB818C91D40171
:1006A0008C93B1E0BE8315C01682D801C70104C087
:1006B000880F991FAA1FBB1F3A95D2F78095909576
:1006C00068237923DA018C91AC81BD81E9CF21E0E7
:1006D0002E83808181830894C11CD11C3B96089491
:1006E000411C511C0894611C711C0894811C911CB4
:1006F0008C819D8101969D838C830894A11CB11CE3
:1007000090E1C916D10409F048CFAE81A093DC1561
:10071000CB0126960FB6F894DEBF0FBECDBFCF91AA
:10072000DF911F910F91FF90EF90DF90CF90BF90DE
:10073000AF909F908F907F906F905F904F903F9081
:100740002F900895BF92CF92DF92EF92FF920F9376
:100750001F93CF93DF939091E70380E02091E6030E
:10076000C22EDD24C82AD92A2091BE054091051643
:1007700050910616C9EAD4E060E070E0B1E0EB2EDB
:10078000F12C012D112DBB24B3941B82C601062E22
:1007900002C0969587950A94E2F7982F91709883F6
:1007A0008981981709F444C08A81882309F040C0E0
:1007B0009130F1F59B838E818F5F8E832223B9F078
:1007C000D801C701062E04C0880F991FAA1FBB1F9E
:1007D0000A94D2F7AC0140955095EFEAF4E0B0826C
:1007E0003B9685E0EF35F807D1F71E8221C08130B6
:1007F00019F08230E9F40DC0D801C701062E04C0FB
:10080000880F991FAA1FBB1F0A94D2F7482B592B98
:100810000FC01E82D801C701062E04C0880F991F81
:10082000AA1FBB1F0A94D2F780959095482359239D
:10083000888189836F5F7F4F2B966031710509F046
:10084000A4CF5093061640930516DF91CF911F91C8
:100850000F91FF90EF90DF90CF90BF90089581E0CF
:100860000E94FB01AC0190939B1E80939A1E20E096
:1008700030E0CA01022E02C0969587950A94E2F7ED
:1008800080FF02C0822F08952F5F3F4F2031310536
:1008900081F7089581E00E94FB01AC019093991EBD
:1008A0008093981E60E020E030E0CA01022E02C072
:1008B000969587950A94E2F780FF05C0613011F4A0
:1008C000822F089561E02F5F3F4F2031310569F796
:1008D00080E00895F82FE92F50911C1E30911D1EC5
:1008E00020919E1E222381F0213051F48DB38093FC
:1008F000A01E9DB380919F1E809589238DBB04C04F
:100900008FB7F8948093A01E5CBD3DBD2C98EEBDC2
:1009100000000DB407FEFDCF8EB5FEBD00000DB486
:1009200007FEFDCF8EB57EBD00000DB407FEFDCFE6
:100930008EB56EBD00000DB407FEFDCF8EB54EBD69
:1009400000000DB407FEFDCF8EB52C9A222339F09E
:100950008091A01E213011F48DBB08958FBF0895A2
:10096000AC015F7060911C1E30911D1E20919E1E77
:10097000222381F0213051F48DB38093A01E9DB3CA
:1009800080919F1E809589238DBB04C08FB7F894FA
:100990008093A01E6CBD3DBD2B985EBD00000DB4C4
:1009A00007FEFDCF8EB54EBD00000DB407FEFDCF96
:1009B0008EB52B9A222339F08091A01E213011F49C
:1009C0008DBB08958FBF089540911C1E30911D1E50
:1009D00020919E1E222381F0213051F48DB380930B
:1009E000A01E9DB380919F1E809589238DBB04C05E
:1009F0008FB7F8948093A01E4CBD3DBD2B981EBCB4
:100A000000000DB407FEFDCF8EB51EBC00000DB476
:100A100007FEFDCF8EB52B9A222339F08091A01EC0
:100A2000213011F48DBB08958FBF089540911C1E95
:100A300030911D1E20919E1E222381F0213051F401
:100A40008DB38093A01E9DB380919F1E80958923B6
:100A50008DBB04C08FB7F8948093A01E4CBD3DBDE4
:100A60005C9A1EBC00000DB407FEFDCF8EB51EBC07
:100A700000000DB407FEFDCF8EB51EBC00000DB406
:100A800007FEFDCF8EB580933F1E1EBC00000DB447
:100A900007FEFDCF8EB51EBC00000DB407FEFDCFD6
:100AA0008EB58093401E5C98222339F08091A01E61
:100AB000213011F48DBB08958FBF08956F927F92FE
:100AC0008F929F92AF92BF92CF92DF92EF92FF925E
:100AD0000F931F93CF93DF934091BE0540935A0627
:100AE00000914006009359063091370630935B061B
:100AF0009091B30590935C062091870520935D0645
:100B00008091DF0580935E061091960650E0602F7D
:100B100070E0E32FF0E0A92FB0E0C82FD0E030E084
:100B2000112351F0440F551F660F771F660F771F73
:100B3000842F862B80680EC080919302879588272A
:100B40008795440F551F842B8160660F771F660FB2
:100B5000771F862B43E0EE0FFF1F4A95E1F78E2BA0
:100B600094E0AA0FBB1F9A95E1F78A2BB5E0CC0F52
:100B7000DD1FBA95E1F78C2BA6E0220F331FAA9553
:100B8000E1F7822B80934A06A091C702B091C80278
:100B9000A130B10519F45091930204C050E01097B0
:100BA00009F451E050934E06A330B10519F4409179
:100BB000930205C040E0A230B10509F441E0409342
:100BC0005206A430B10519F46091930205C08091DA
:100BD0009205811181E0682F6093530680911A1E5F
:100BE000882321F081E080934F0606C08091EA05BA
:100BF00080934F068091F5058093500620919D05C6
:100C00002093540681E090E000908B0502C0880F8D
:100C1000991F0A94E2F7782F80935F0680918005F0
:100C200080935506A330B10541F4809199068D302B
:100C300021F4809193028093550630910B063093F6
:100C40005606002331F0809199068C3011F481E032
:100C50000EC08091DF15882341F48091131E8823F4
:100C600021F480917006882329F08091930280936B
:100C7000600602C010926006A530B10521F481E043
:100C80008093570602C01092570680916F06882302
:100C900019F08091930202C08091A80580935806B4
:100CA00080914F06E82EFF24F6E0EE0CFF1CFA952B
:100CB000E1F78091500690E09695982F88279795B8
:100CC0008795E82AF92A8091510690E0E82AF92AC6
:100CD0009091600680E0E82AF92A922F990F990FE7
:100CE000990F80E0E82AF92A20915506922F9295D3
:100CF000907F80E0E82AF92A932F9295990F907EB1
:100D000080E0E82AF92A20915706922F9295990FB0
:100D1000990F907C80E0E82AF92A20915806922FBA
:100D200097959927979580E0E82AF92A872F90E0F0
:100D3000880F991FE82AF92A852F90E025E0880F6F
:100D4000991F2A95E1F7E82AF92A942F990F80E054
:100D5000E82AF92A962F990F990F80E0E82AF92AB4
:100D6000F0924C06E0924B0680919906C82FD0E095
:100D700041E050E0CA010C2E02C0880F991F0A946E
:100D8000E2F79093620680936106A230B10509F400
:100D900076C0A330B1053CF4109789F0A130B105BD
:100DA00009F035C22EC0A430B10509F41DC2A4302B
:100DB000B1050CF409C1159709F029C21AC2112313
:100DC000A9F0FE01EC56FD4F8081CE58D94F288105
:100DD00090E002C0880F991F2A95E2F700900C1E40
:100DE00002C0440F551F0A94E2F7CDC080919302D0
:100DF00090E000900C1E02C0880F991F0A94E2F741
:100E000002C2332341F000909A0602C0AA0FBB1F12
:100E10000A94E2F70BC08091D405882361F000901A
:100E20000C1E02C0AA0FBB1F0A94E2F7B09345063E
:100E3000A0934406ECC130919B061123B1F0FE0152
:100E4000EC56FD4F8081CE58D94F288190E002C0EA
:100E5000880F991F2A95E2F73F7002C0AA0FBB1FA7
:100E60003A95E2F78A279B27CEC18091930290E0C2
:100E70003F7002C0880F991F3A95E2F7C4C133232F
:100E800009F07AC11123A1F48091E115682F70E077
:100E90008091E215482F50E04F705070E0E0F0E094
:100EA00020E030E081E0A82EB12CC12CD12C6EC006
:100EB0009091E115992309F44EC08091E215482FD5
:100EC00050E04F70507060E070E020E030E0E92FBB
:100ED000F0E001E0A02EB12CC12CD12C10C0C90132
:100EE000840F951F3501460104C0660C771C881CD1
:100EF000991C8A95D2F7662977292F5F3F4FE21711
:100F0000F3076CF780919302FE01EC56FD4FE081F0
:100F1000CE58D94F288140E050E0882311F441E0B9
:100F200050E080919C068F7002C0440F551F8A9537
:100F3000E2F740955095642375238E2F90E002C010
:100F4000880F991F2A95E2F768277927709345063D
:100F5000609344065CC140919302FE01EC56FD4F44
:100F60008081CE58D94F288190E002C0880F991F08
:100F70002A95E2F750E020919C062F7002C0440FA2
:100F8000551F2A95E2F7842795273DC1C901840F93
:100F9000951F3501460104C0660C771C881C991CFE
:100FA0008A95D2F7E629F7292F5F3F4F621773071B
:100FB0006CF78091930220E030E0882311F421E067
:100FC00030E080919C0601C1002379F020916306F6
:100FD000283008F0A2C085759D7D909345068093CA
:100FE00044062F5F2093630612C1112309F4AEC09B
:100FF0002091DB1530E0FE01E750FD4F9080FE01AF
:1010000014E0EE0FFF1F1A95E1F789E095E0AC01BF
:10101000249FC001259F900D349F900D1124E80F4F
:10102000F91FEB5FF84F20E030E060E070E040E057
:1010300050E08E01000F111FA1E0AA2EB12CC12C8F
:10104000D12C080F191F0B53194F80819816C0F42B
:10105000D8018D919C91022E02C0969587950A9495
:10106000E2F780FF25C0D601C501022E04C0880F1B
:10107000991FAA1FBB1F0A94D2F7482B592B28C0CF
:10108000D8018D919C91022E02C0969587950A9465
:10109000E2F780FF0DC0D601C501022E04C0880F03
:1010A000991FAA1FBB1F0A94D2F7682B792B10C077
:1010B000D601C501022E04C0880F991FAA1FBB1FAD
:1010C0000A94D2F780959095482359236823792371
:1010D0002F5F3F4F31962031310509F0B6CF609335
:1010E0004806709349064093460650934706309150
:1010F0006306DE01AC56BD4FFE01EE58F94F3830A5
:1011000098F08C91208190E002C0880F991F2A9559
:10111000E2F786279727842B952B9093450680939B
:1011200044061092630673C08C91208190E002C047
:10113000880F991F2A95E2F78427952790934506F3
:10114000809344063F5F3093630661C03323A1F46C
:101150008091E115682F70E08091E215482F50E0F2
:101160004F705070E0E0F0E020E030E011E0A12EA0
:10117000B12CC12CD12C0CC000909A0602C0440F97
:10118000551F0A94E2F750934506409344063FC02A
:10119000C901840F951F3501460104C0660C771CF8
:1011A000881C991C8A95D2F7E629F7292F5F3F4FB3
:1011B000621773076CF78091930220E030E0882378
:1011C00011F421E030E080919B068F7002C0220F65
:1011D000331F8A95E2F720953095E223F323F093AD
:1011E0004506E093440613C08091930690919406BF
:1011F0000AC0809193069091940620910516309133
:101200000616822793279093450680934406809183
:10121000440690914506B70140914A060E946A042F
:10122000DF91CF911F910F91FF90EF90DF90CF90C2
:10123000BF90AF909F908F907F906F90089581E0C6
:101240008093231E089581E08093241E089581E0F9
:101250008093251E0895909168068917A1F5862F21
:1012600090E0FC01B297EB31F10568F5EA5BFF4FC6
:10127000EE0FFF1F0590F491E02D09941092261EA9
:1012800008951092271E08951092281E0895109216
:10129000291E089510922A1E089510922B1E08955B
:1012A00010922C1E08951092301E089510922F1E39
:1012B000089510922E1E089510922D1E08951092DA
:1012C000311E0895129A08954F925F926F927F9205
:1012D0008F929F92AF92BF92CF92DF92EF92FF9246
:1012E0000F931F93CF93DF938091DB15882E992462
:1012F00089E095E09C01829EC001839E900D929EA4
:10130000900D1124B5ECEB2EB6E0FB2EE80EF91E85
:1013100067ED70E1EC01C756D44FABEA4A2EA5E168
:101320005A2E40E050E03C01D7018D919C91FB0189
:10133000918380838881D2018C93888950968C9385
:10134000509788A190968C93E0EFFFEF4E0E5F1EB2
:10135000609788816096D2018C93E0E1F0E04E0EB8
:101360005F1E9A01F4E0220F331FFA95E1F7C901DD
:10137000860D971DE5E0AE2EE7E0BE2EA80EB91E45
:10138000F901E95EFE4E25E0C22E28E0D22EC80EFD
:10139000D91E8C010B5F164F9C012B5F354F90E0DF
:1013A000D5018D915D018083E050FF4FD6018D9175
:1013B0006D018083E050FF4FD8018D918D018083B6
:1013C000E050FF4FD9018D919D0180839F5FEF5FBA
:1013D000F240903129F74F5F5F4FE2E0F0E0EE0E10
:1013E000FF1E6E5F7F4F21960894411C511C4031B7
:1013F000510509F099CF89E095E0889E9001899E7A
:10140000300D989E300D1124F901E054F94F808180
:101410008093D21081818093D31083818093D510E3
:1014200082818093D410EA53FB4F81918093981569
:101430008081809399153297908190939715339678
:10144000808180939A15D901AB5FB44FE7E1F5E154
:10145000292F30E02E0F3F1F02C08D918193E2179C
:10146000F307D9F7DF91CF911F910F91FF90EF9084
:10147000DF90CF90BF90AF909F908F907F906F90B4
:101480005F904F9008954F925F926F927F928F92EC
:101490009F92AF92BF92CF92DF92EF92FF920F9303
:1014A0001F93CF93DF938091DB15882E992467EDEE
:1014B000E62E60E1F62E89E095E09C01829EC00157
:1014C000839E900D929E900D1124BC016B53794F19
:1014D000CBEAD5E159E9452E5BE0552E480E591E61
:1014E00020E030E03C01D7018D919C91FB0191837C
:1014F00080838881D2018C93888950968C935097F1
:1015000088A190968C93E0EFFFEF4E0E5F1E6097E0
:1015100088816096D2018C93E0E1F0E04E0E5F1E70
:10152000C90144E0880F991F4A95E1F7FC01E95E83
:10153000FE4E860D971D05E0A02E07E0B02EA80EEA
:10154000B91E15E0C12E18E0D12EC80ED91E8C018F
:101550000B5F164FAC014B5F554F90E08081D5017A
:101560008D935D01E050FF4F8081D6018D936D0119
:10157000E050FF4F8081D8018D938D01E050FF4FE7
:101580008081DA018D93AD019F5FEF5FF240903172
:1015900029F72F5F3F4FE2E0F0E0EE0EFF1E6E5F97
:1015A0007F4F21960894411C511C2031310509F0D0
:1015B0009ACF89E095E0889E9001899E300D989E93
:1015C000300D1124F901E054F94F8091D21080833D
:1015D0008091D31081838091D51083838091D41022
:1015E0008283EA53FB4F80919815819380919915DE
:1015F00080839091971532979083339680919A15B6
:101600008083E7E1F5E1D901AB5FB44F292F30E0EA
:101610002E0F3F1F02C081918D93E217F307D9F778
:10162000DF91CF911F910F91FF90EF90DF90CF90BE
:10163000BF90AF909F908F907F906F905F904F90F2
:1016400008958091E4158823C9F48091DB1590E01A
:1016500029E035E0829FF001839FF00D929FF00D0D
:101660001124E054F94FE953FB4F80818093E11539
:1016700080919B069291891B8093E2154091990677
:101680008091DB1590E029E035E0829FF001839F97
:10169000F00D929FF00D1124E054F94FE40FF11D6D
:1016A000E751FB4FE081E03199F0E13118F4EC3083
:1016B00091F408C0E83119F0E03269F405C01092E5
:1016C0008B05089581E001C082E080938B05089529
:1016D00083E080938B0508958F929F92AF92BF9283
:1016E000CF92DF92EF92FF920F931F93CF93DF93EE
:1016F0008091DB1590E029E035E0AC01429FC0010C
:10170000439F900D529F900D1124DC01AB51B94FB6
:10171000C0E0D0E0F1E08F2E912CE5ECAE2EE6E0BB
:10172000BE2EA80EB91E71E0C72ED12CE12CF12CD3
:1017300011961C921E9284010C2E02C0000F111FE4
:101740000A94E2F7F50160E070E0808191818023E6
:101750009123892B91F0A7019601062E04C0220F38
:10176000331F441F551F0A94D2F78D919C911197F6
:10177000822B932B11969C938E936F5F7F4F3296A3
:101780006031710511F721961296C031D10581F6AD
:10179000DF91CF911F910F91FF90EF90DF90CF904D
:1017A000BF90AF909F908F900895CF92DF92FF925D
:1017B0000F931F93CF93DF9381E08093DC1580918B
:1017C0004006882309F477C08091BE05882309F07C
:1017D00072C08091DB15C82FD0E080919906482F08
:1017E00050E0FA01A4E0EE0FFF1FAA95E1F789E0AF
:1017F00095E0C89F9001C99F300DD89F300D1124EE
:10180000E20FF31FEB5FF84F1081DA01AA0FBB1F45
:10181000A20FB31FA054B94F15968D919C911697A6
:10182000BC017695679580FF14C0F901E40FF51FA0
:10183000E756F44F81E090E0008002C0880F991FC6
:101840000A94E2F7862B972B16969C938E93159706
:1018500004C016967C936E931597DA0134E0AA0FB4
:10186000BB1F3A95E1F789E095E09C01C29FC0015A
:10187000C39F900DD29F900D1124A80FB91FAB5F8D
:10188000B84F20E030E0FA01E80FF91FE756F44FB7
:101890000CC02817390711F41C9304C011968C91C1
:1018A00011978C932F5F3F4F1196808190E08217A4
:1018B00093077CF75BC08091DB1590E029E035E071
:1018C000AC01429FC001439F900D529F900D112487
:1018D000BC016B5F784FDC01AB53B94FEC01C756CD
:1018E000D44F40E050E021E0C22ED12C8C01FB010E
:1018F000F0808D919C9111979C013695279580FFE2
:101900000DC0C601088002C0880F991F0A94E2F733
:10191000822B932B11969C938E9303C011963C932C
:101920002E93FA0184E0EE0FFF1F8A95E1F7E00F96
:10193000F11FEB5FF84F20E030E00AC028173907AD
:1019400011F4F08202C0818180832F5F3F4F319676
:10195000888190E0821793078CF74F5F5F4F605F3D
:101960007F4F129621964031510509F6DF91CF91B4
:101970001F910F91FF90DF90CF9008954F925F924B
:101980006F927F928F929F92AF92BF92CF92DF928F
:10199000EF92FF920F931F93DF93CF93CDB7DEB7F4
:1019A000A0970FB6F894DEBF0FBECDBF81E0809345
:1019B000DC1580914006882309F492C08091BE0511
:1019C000882309F08DC08091DB15E82EFF248091DB
:1019D0009906082F10E0F801EE0FFF1F89E095E04F
:1019E0009C01E29EC001E39E900DF29E900D112499
:1019F000E80FF91FE054F94F25813681F801E80F0F
:101A0000F91FE756F44FD0804D2D50E0F801A4E0C7
:101A1000EE0FFF1FAA95E1F7E80FF91FE40FF51F7E
:101A2000EB5FF84FC080C9010D2C02C096958795D9
:101A30000A94E2F7220F331F80FF17C021604F5F27
:101A40005F4F81E090E0A0E0B0E0042E04C0880F7A
:101A5000991FAA1FBB1F0A94D2F741505040BC01E6
:101A6000609570956223732301C0B901000F111FA7
:101A700089E095E0DC01EA9EC001EB9E900DFA9EA4
:101A8000900D1124F801E80FF91FE054F94F768307
:101A90006583980163E0220F331F6A95E1F7FA012D
:101AA000E20FF31FE80FF91FEC5FF84F40E050E042
:101AB0006D2D70E0D901A80FB91FAB5FB84F9B0126
:101AC0002F5F3F4F6417750711F4CC9202C08081DD
:101AD00081834F5F5F4F31974217530799F7A2C039
:101AE0008091DB1590E029E035E0FC01E29FC00128
:101AF000E39F900DF29F900D112455ECC52E56E0FA
:101B0000D52EC80ED91E8E010F5F1F4F49E9842EB6
:101B10004BE0942E880E991E35E0A32E37E0B32EAD
:101B2000A80EB91EEE24FF243C01D6018D919C9194
:101B3000F80191838083D4015C90452D50E0F7013A
:101B400024E0EE0FFF1F2A95E1F7E60DF71DE40FE5
:101B5000F51FEB5FF84F40809C01052C02C03695C5
:101B600027950A94E2F7BC01660F771F20FF19C082
:101B700061604F5F5F4F81E090E0A0E0B0E0042E35
:101B800004C0880F991FAA1FBB1F0A94D2F74150A7
:101B900050408095909586239723F8019183808308
:101BA00003C0D8016D937C93F80180819181D601A7
:101BB0008D939C93D70184E0AA0FBB1F8A95E1F710
:101BC000A40FB51FA60DB71DAC5FB84F20E030E0E5
:101BD000452D50E0BA016F5F7F4F4217530719F44C
:101BE000F501408204C08C9111968C9311972F5F60
:101BF0003F4F11972617370781F70894E11CF11C16
:101C000022E030E0C20ED31E0E5F1F4F0894811CED
:101C1000911C40E150E0A40EB51E50E1E516F10420
:101C200009F083CFA0960FB6F894DEBF0FBECDBFEC
:101C3000CF91DF911F910F91FF90EF90DF90CF90A8
:101C4000BF90AF909F908F907F906F905F904F90DC
:101C500008952091690630916A0680E690E0AC0113
:101C6000249FC001259F900D349F900D11246CE39B
:101C700070E00E94364F9B0140E050E060E874E85D
:101C80008EE190E00E947F4F30938900209388007E
:101C90000895E1E8F0E010828081809380008081E7
:101CA0008A6080830E94290EEFE6F0E080818260E6
:101CB00080830895CF92EF920F9380E580931C1E4E
:101CC00010921D1E83E49EE162E143E124E105E1FF
:101CD00056E1E52E37E1C32E0E94693E0F91EF9049
:101CE000CF9008958091381E882389F080913E1E00
:101CF000882369F40E94A24860933A1E70933B1EA9
:101D000080933C1E90933D1E81E080933E1E0E9476
:101D1000A24820913A1E30913B1E40913C1E5091AA
:101D20003D1E621B730B840B950B6A307105810598
:101D3000910528F0129A10923E1E1092381E0895B6
:101D40000E94A2482091F5033091F6034091F703D9
:101D50005091F803621B730B840B950B6630710571
:101D60008105910508F470C00E94A2486093F503B4
:101D70007093F6038093F7039093F80340911C1E31
:101D800030911D1E20919E1E222381F0213051F49E
:101D90008DB38093A01E9DB380919F1E8095892353
:101DA0008DBB04C08FB7F8948093A01E4CBD3DBD81
:101DB0005C9A1EBC00000DB407FEFDCF8EB580936B
:101DC000EB031EBC00000DB407FEFDCF8EB5809363
:101DD000ED031EBC00000DB407FEFDCF8EB5809351
:101DE000EF031EBC00000DB407FEFDCF8EB580933F
:101DF000F1031EBC00000DB407FEFDCF8EB580932D
:101E0000F3035C98222339F08091A01E213011F455
:101E10008DBB01C08FBF93B1947090931E1EEBEEEB
:101E2000F3E0A6EEB3E020818181281709F42C931A
:101E30003296119683E0E53FF807A9F780911F1EBF
:101E4000981711F49093201E40911C1E30911D1E76
:101E500020919E1E222381F0213051F48DB3809376
:101E6000A01E9DB380919F1E809589238DBB04C0C9
:101E70008FB7F8948093A01E4CBD3DBD5C9A1EBCEC
:101E800000000DB407FEFDCF8EB58093EC031EBCA1
:101E900000000DB407FEFDCF8EB58093EE031EBC8F
:101EA00000000DB407FEFDCF8EB58093F0031EBC7D
:101EB00000000DB407FEFDCF8EB58093F2031EBC6B
:101EC00000000DB407FEFDCF8EB58093F4035C983F
:101ED000222339F08091A01E213011F48DBB01C066
:101EE0008FBF83B1847080931F1E0895DF92EF929D
:101EF000FF920F931F93CF93DF930E94A00E009148
:101F0000E803E090E903D090EA0310E0C80174E030
:101F1000969587957A95E1F7817080934006B80190
:101F2000687070708CEB95E00E94DE01B8016470FF
:101F3000707085E396E00E94DE01FF24B7016870AF
:101F400070708AE296E00E94DE01B70160787070DE
:101F50008FE196E00E94DE01B7016074707080E945
:101F600095E00E94DE01B701607270708BE995E028
:101F70000E94DE01B8016078707089E595E00E94EA
:101F8000DE01B8016170707084E695E00E94DE01A8
:101F9000B701607170708AE795E00E94DE01B801B8
:101FA0006270707085E895E00E94DE01B80160748F
:101FB00070708DED95E00E94DE010072107081EB73
:101FC00095E0B8010E94DE01B7016470707088EE80
:101FD00095E00E94DE01B7016270707083EF95E0BA
:101FE0000E94DE01CD2DD0E0BE016470707086EAE3
:101FF00095E00E94DE0121E0E222FF2482ED95E0DF
:10200000B7010E94DE01BE01627070708EEF95E034
:102010000E94DE01BE016170707089E096E00E944E
:10202000DE016091201E8FE695E070E00E94DE01E7
:102030007091E70360E08091E60390E0682B792BD4
:1020400084E196E00E94DE011092CB051092CA0551
:1020500063E0D695C7956A95E1F7CE018170682F48
:102060008093C7058091C805681711F18091C90553
:10207000882371F4613061F46093CA050E94A2481C
:102080006093CE057093CF058093D0059093D105D2
:102090009091C905913041F48091C705882321F4BE
:1020A0009093CB051092CC058091C7058093C9050C
:1020B0008091C7058093C8058091C9058823B1F038
:1020C0000E94A2482091CE053091CF054091D005C5
:1020D0005091D105621B730B840B950B695E7340A5
:1020E0008040904018F081E08093CC05ECEFF3E065
:1020F000108211823B9684E0EC3AF807C9F7DF9131
:10210000CF911F910F91FF90EF90DF9008950F9363
:102110001F9303E41EE1C80164E040E00E947C3D9F
:10212000C80160E071E00E94774E1F910F91089501
:1021300083E49EE169E071E00E94774E08950F9379
:102140001F9303E41EE1C80160E040E00E947C3D73
:10215000C8016AE171E00E94774EC80160E041E089
:102160000E947C3D0E949810C80160E041E00E94FE
:102170007C3DC8016BE271E00E94774E1F910F9188
:1021800008950F931F9303E41EE1C80160E040E04F
:102190000E947C3DC8016AE371E00E94774EC8014D
:1021A00060E041E00E947C3D0E949810C80160E020
:1021B00041E00E947C3DC8016CE471E00E94774ED2
:1021C0001F910F9108952F923F924F925F926F92BD
:1021D0007F928F929F92AF92BF92CF92DF92EF92B7
:1021E000FF920F931F93DF93CF93CDB7DEB7AC97DA
:1021F0000FB6F894DEBF0FBECDBFDE015D96E5E9F8
:10220000F3E080E101900D928150E1F7DE0111963B
:10221000EDE8F3E088E001900D928150E1F783E46E
:102220009EE160E040E00E947C3D83E49EE16DE53C
:1022300071E00E94774E83E49EE160E041E00E94FD
:102240007C3D83E49EE16EE671E00E94774EDD24E2
:1022500001E0E02EF12C1DE1412E512C4C0E5D1EB3
:10226000BDE26B2E712C6C0E7D1E4E010894811CFC
:10227000911CA9E0AA2EB12CAC0EBD1E4CC0C7010A
:10228000002E02C0880F991F0A94E2F760E070E008
:1022900040E00E946A0464EF71E080E090E00E94F8
:1022A000B0480F5F1F4F0031110549F78201F80157
:1022B000B701019002C0660F771F0A94E2F78F0101
:1022C00080E090E040E00E946A0464EF71E080E00A
:1022D00090E00E94B0480615170549F78401F801FF
:1022E000A701019002C0440F551F0A94E2F78F0125
:1022F00080E090E060E070E00E946A0464EF71E0CA
:1023000080E090E00E94B0480A151B0541F7D39485
:10231000F2E0DF1619F000E010E0B1CFF1E16F2E2E
:10232000712C6C0E7D1EE1E0AE2EB12CC12CD12C97
:10233000DE011996E5E8F3E088E001900D92815006
:10234000E1F7D301E9E7F3E08CE001900D928150D1
:10235000E1F70E94A00E1091EA0300E08091E903EA
:10236000482F50E0402B512B9090E803F30160E0A0
:1023700070E020E030E0CA01022E02C096958795F9
:102380000A94E2F7908180FF0CC01501260104C079
:10239000220C331C441C551C9A95D2F762297329D0
:1023A0000FC01501260104C0220C331C441C551C0F
:1023B0009A95D2F7D201C10180959095682379232F
:1023C0002F5F3F4F31962C303105A9F6FE0139962B
:1023D00040E050E020E030E0892C9924C401022E36
:1023E00002C0959587950A94E2F7908180FF0CC012
:1023F0001501260104C0220C331C441C551C9A955F
:10240000D2F7422953290FC01501260104C0220C1E
:10241000331C441C551C9A95D2F7D201C1018095FA
:102420009095482359232F5F3F4F3196283031052F
:10243000A9F6F090E703EE248091E60390E08E2960
:102440009F290E946A0474CF8FE090E00E9409499E
:102450005E985F9A85E090E00E94094908958FE0B8
:1024600090E00E9409495F985E9A85E090E00E94A2
:10247000094908958BE491E26BE740E020916706FB
:102480000E94FF4708950F931F930BE411E2C801C8
:1024900068EF70E00E944642C8016AEF70E00E9457
:1024A0004642C8016CEF70E00E944642C8016BEFE3
:1024B00070E00E9446421F910F910895282F645F9B
:1024C0008BE491E20E9417480895282F645F8BE403
:1024D00091E240E00E940B4808958091221E8823DB
:1024E000D1F11092221E809195062091DB15882350
:1024F000C1F04091950630E089E095E0289FF00119
:10250000299FF00D389FF00D1124E054F94FE40F8E
:10251000F11DEC5BFB4F8091670660810E946512A4
:10252000089530E089E095E0289FF001299FF00DA3
:10253000389FF00D1124E054F94FEB53FB4F80818D
:10254000E55CF440E80FF11DEB5BFB4F8091670603
:1025500060810E94651208959F92AF92BF92CF92C0
:10256000DF92EF92FF920F931F93CF93DF938091AF
:102570009606882349F080911A1E882329F010922C
:102580001A1E81E0809313038091D505882331F1D1
:10259000809199068D3011F58091C7029091C80203
:1025A0000397E1F490E080911A1E882309F491E0EA
:1025B00090931A1E992379F00E946D1211E01093E6
:1025C000C602109296068BE491E26CEF70E00E94D6
:1025D000064610936A0581E08093130380911A1ECA
:1025E000882309F442C180918805882369F080918D
:1025F00009038F5F80930903883018F087E0809388
:10260000090381E0809313038091E005882361F042
:1026100080910903815080930903883010F0109253
:10262000090381E0809313038091EB05882331F146
:1026300080911B1E815080931B1E833610F01092D8
:102640001B1E40911B1E8091DB1590E029E035E0B8
:10265000829FF001839FF00D929FF00D1124E054B2
:10266000F94FE40FF11DEB5BFB4F80916706608132
:1026700040E50E945E1281E0809313038091EC0597
:102680008823C9F040911B1E8091DB1590E029E062
:1026900035E0829FF001839FF00D929FF00D112491
:1026A000E054F94FE40FF11DEB5BFB4F809167069F
:1026B00060810E9465128091F605882339F180912E
:1026C0001B1E8F5F80931B1E833618F083E680935A
:1026D0001B1E40911B1E8091DB1590E029E035E028
:1026E000829FF001839FF00D929FF00D1124E05422
:1026F000F94FE40FF11DEB5BFB4F809167066081A2
:1027000040E50E945E1281E0809313038091F705FB
:102710008823C9F040911B1E8091DB1590E029E0D1
:1027200035E0829FF001839FF00D929FF00D112400
:10273000E054F94FE40FF11DEB5BFB4F809167060E
:1027400060810E94651280913806882329F01092DA
:102750001B1E81E0809313038091C602882309F435
:1027600084C0C9EFD3E0EE24FF242CE0B22E99E020
:10277000C92E95E0D92E9924939483E6A82E0E2D88
:1027800080914206909143060E2C02C09695879543
:102790000A94E2F7182F117018838981181709F429
:1027A00059C08A81882309F042C0113009F03FC026
:1027B000809109038B9DC00111246E2D680F20911B
:1027C0001B1E8091DB1590E08C9DF0018D9DF00D1E
:1027D0009C9DF00D1124E054F94FE20FF11DEB5BCD
:1027E000FB4F60838091670640E50E945E128091F6
:1027F0001B1E8F5F80931B1E1093DC15843610F018
:10280000A0921B1E8091DB1590E020911B1E215091
:102810008C9DF0018D9DF00D9C9DF00D1124EB57CA
:10282000F44F2083243608F01082909213038A819B
:10283000813071F48881882359F4809109038B9D3C
:10284000C0011124080F80916706602F0E94651255
:1028500088818A83888189830894E11CF11C2B96E6
:1028600080E1E816F10409F08ACFDF91CF911F9142
:102870000F91FF90EF90DF90CF90BF90AF909F901F
:1028800008950F931F93CF93DF93C0E0D0E0082FFC
:1028900010E006C083E49EE161EA0E94724D219639
:1028A000C017D107BCF3DF91CF911F910F9108950D
:1028B0000F931F9303E41EE1C80160E040E00E9413
:1028C0007C3DC8016FE771E00E94774EC80160E06F
:1028D00041E00E947C3D0E949810C80160E041E008
:1028E0000E947C3DC80160E971E00E94774EC801FA
:1028F00061E041E00E947C3D8EE00E944114C801ED
:102900006FE041E00E947C3DC80162E971E00E94F5
:10291000774E8091DB1590E029E035E0829FF00151
:10292000839FF00D929FF00D1124E857F44F6081C2
:102930006F5FC80141E00E947C3DC8016BED0E94C1
:10294000724D1F910F910895409199068091DB156A
:1029500090E029E035E0829FF001839FF00D929F87
:10296000F00D1124E054F94FE40FF11DE751FB4F36
:10297000E081E03199F0E13118F4EC30B9F505C0AF
:10298000E831D1F0E03291F522C083E49EE160E0CD
:102990000E94403D83E49EE164E016C083E49EE132
:1029A00060E00E94403D83E49EE161E00E94403D82
:1029B00083E49EE162E008C083E49EE160E00E945F
:1029C000403D83E49EE161E00E94403D089583E440
:1029D0009EE160E00E94403D83E49EE163E00E944E
:1029E000403D83E49EE162E00E94403D089583E41F
:1029F0009EE165E00E94403D83E49EE160E971E074
:102A00000E94774E80916506882359F4609169068B
:102A100070916A0683E49EE14AE050E00E94014E14
:102A2000089583E49EE16BED0E94724D83E49EE184
:102A30006BED0E94724D83E49EE16BED0E94724D3E
:102A40000895EF92FF920F931F93DF93CF93CDB72B
:102A5000DEB727970FB6F894DEBF0FBECDBF8091CB
:102A6000A805882391F08091C7029091C80202972F
:102A700061F08091BE05882341F483E49EE16BE020
:102A800041E00E947C3D0E94F7148091130388234B
:102A900009F4C5C38091A805882309F0C0C310922A
:102AA000130380916F06882309F4E0C083E49EE15C
:102AB00060E040E00E947C3D80916E06813021F014
:102AC000823009F0ACC36EC083E49EE164E971E03A
:102AD0000E94774EE091211EF0E0EC5EFC4F83E413
:102AE0009EE1608140E00E947C3DE091211EF0E08B
:102AF000EE0FFF1FE85DFC4F6081718183E49EE172
:102B00000E94774E83E49EE160E041E00E947C3DBC
:102B10000E94981083E49EE160E041E00E947C3DC9
:102B200080916506E82FF0E0EE0FFF1FE654FE4FA0
:102B3000659174918E010D5F1F4FC8010E94D701EE
:102B400083E49EE1B8010E94774E83E49EE164E055
:102B500041E00E947C3D60916B0670916C0683E4BD
:102B60009EE14AE050E00E94014E83E49EE169E06C
:102B700041E00E947C3D83E49EE1609167064AE06B
:102B800050E00E94124E83E49EE16DE041E00E941D
:102B90007C3D83E49EE1609168064AE050E00E943B
:102BA000124E3DC383E49EE165EA71E00E94774ED8
:102BB000E091211EF0E0EC5EFC4F83E49EE1608139
:102BC00040E00E947C3DE091211EF0E0EE0FFF1FEF
:102BD000E05DFC4F6081718183E49EE10E94774E4D
:102BE00083E49EE160E041E00E947C3D0E949810F9
:102BF00083E49EE160E041E00E947C3D80916406B8
:102C0000E82FF0E0EE0FFF1FE254FE4F6591749144
:102C10008E010F5F1F4FC8010E94D70183E49EE120
:102C2000B8010E94774E83E49EE164E041E00E9497
:102C30007C3D83E49EE166EB71E00E94774E83E485
:102C40009EE168E041E00E947C3D83E49EE166EB0A
:102C500071E00E94774E83E49EE16CE041E00E94C7
:102C60007C3D83E49EE166EB71E0F4C18091C70294
:102C70009091C8028230910571F0833091053CF447
:102C8000009709F476C2019709F0C9C2E6C1059719
:102C90000CF0C5C23FC083E49EE160E040E00E94CA
:102CA0007C3D83E49EE16AEB71E00E94774E83E411
:102CB0009EE160E041E00E947C3D0E94981083E428
:102CC0009EE162E041E00E947C3D60919A066F5B6C
:102CD00083E49EE10E94724D60919B0670E06F5FFD
:102CE0007F4F80919A0690E024E0880F991F2A95E3
:102CF000E1F7681B790B83E49EE14AE050E00E9413
:102D0000644E83E49EE169E041E00E947C3D0E94C4
:102D1000F71485C2809199068C3019F40E945814DA
:102D20007EC28091B305882309F456C083E49EE1F6
:102D300060E040E00E947C3D83E49EE16BEC71E04A
:102D40000E94774E83E49EE160E041E00E947C3D7A
:102D50000E94981083E49EE162E041E00E947C3D85
:102D600083E49EE160E971E00E94774E83E49EE196
:102D700065E041E00E947C3D87E00E94411483E4CD
:102D80009EE16EE041E00E947C3D83E49EE162E9C9
:102D900071E00E94774E409199068091DB1590E09A
:102DA00029E035E0829FF001839FF00D929FF00DA6
:102DB0001124E054F94FE40FF11DE750FB4F6081FF
:102DC0006C5F83E49EE141E00E947C3D83E49EE1F0
:102DD0006BED0E94724D23C280911A1E882309F464
:102DE000BEC083E49EE160E040E00E947C3D83E45D
:102DF0009EE16CED71E00E94774EE091211EF0E0C3
:102E0000EC5EFC4F83E49EE1608140E00E947C3DEB
:102E1000E091211EF0E0EE0FFF1FE05EFC4F6081AD
:102E2000718183E49EE10E94774E83E49EE160E03D
:102E300041E00E947C3D0E94981083E49EE161E0A5
:102E400041E00E947C3D60911B1E70E06F5F7F4FF0
:102E500083E49EE14AE050E00E94644E83E49EE1F8
:102E600064E041E00E947C3D20911B1E8091DB15B7
:102E700090E019E0E12E15E0F12E8E9DF0018F9D7E
:102E8000F00D9E9DF00D1124E054F94FE20FF11D5D
:102E9000EB5BFB4F80816CE00E942A4FE92FF0E052
:102EA000EE0FFF1FEE50FE4F659174918E010F5F84
:102EB0001F4FC8010E94D70183E49EE1B8010E9420
:102EC000774E20911B1E8091DB1590E08E9DF001C6
:102ED0008F9DF00D9E9DF00D1124E054F94FE20FEF
:102EE000F11DEB5BFB4F80816CE00E942A4F682F45
:102EF00083E49EE170E04AE050E00E94644E83E487
:102F00009EE169E041E00E947C3D8091DB1590E00C
:102F10008E9DF0018F9DF00D9E9DF00D1124EB57BD
:102F2000F44F608170E06F5F7F4F83E49EE14AE081
:102F300050E00E94644E83E49EE16DE041E00E9417
:102F40007C3D80910903E82FF0E0EE0FFF1FEE516A
:102F5000FE4F659174918E010D5F1F4F75C083E424
:102F60009EE160E040E00E947C3D83E49EE16DEEE6
:102F700071E00E94774E83E49EE160E041E00E94B0
:102F80007C3D0E94981083E49EE160E041E00E9455
:102F90007C3D60919A066F5B83E49EE10E94724DD6
:102FA00060919B0670E06F5F7F4F80919A0690E082
:102FB000E4E0880F991FEA95E1F7681B790B83E439
:102FC0009EE14AE050E00E94644E83E49EE165E0A9
:102FD00041E00E947C3D409199068091DB1590E094
:102FE00029E035E0829FF001839FF00D929FF00D64
:102FF0001124E054F94FE40FF11DE752FB4F6081BB
:1030000070E06F5F7F4F83E49EE14AE050E00E94F2
:10301000644E83E49EE168E041E00E947C3D0E94B2
:10302000A41483E49EE16CE041E00E947C3D809129
:103030009906E82FF0E0EE0FFF1FEE53FE4F65916B
:1030400074918E010B5F1F4FC8010E94D70183E46A
:103050009EE1B8010E94774EE2C083E49EE160E009
:1030600040E00E947C3D83E49EE16EEF71E00E94AF
:10307000774EE091211EF0E0EC5EFC4F83E49EE190
:10308000608140E00E947C3DE091211EF0E0EE0F67
:10309000FF1FE85EFC4F6081718183E49EE10E9426
:1030A000774E83E49EE160E041E00E947C3D0E9417
:1030B000981083E49EE160E041E00E947C3D6091D5
:1030C0000D1E70910E1E6F5F7F4F83E49EE14AE0FC
:1030D00050E00E94014E83E49EE164E041E00E94E2
:1030E0007C3D60919B0662956F706F5B83E49EE10F
:1030F0000E94724D20919B06622F70E06F5F7F4FA0
:10310000822F82958F7090E044E0880F991F4A9536
:10311000E1F7681B790B83E49EE14AE050E00E94EE
:10312000644E83E49EE168E041E00E947C3D809132
:10313000121E90E022E034E0829FF001839FF00DA8
:10314000929FF00D1124E95FF94E6081718183E453
:103150009EE14AE050E00E94014E83E49EE16DE072
:1031600041E00E947C3D60910C1E70E06F5F7F4FDC
:1031700050C083E49EE160E040E00E947C3D83E437
:103180009EE16FE072E00E94774E83E49EE160E092
:1031900041E00E947C3D0E94981083E49EE160E043
:1031A00041E00E947C3D83E49EE160E272E00E9487
:1031B000774E60910D1E70910E1E83E49EE14AE0F1
:1031C00050E00E94014E83E49EE168E041E00E94ED
:1031D0007C3D83E49EE165E272E00E94774E60915F
:1031E0009B0662956F706F5B83E49EE10E94724D57
:1031F00020919B06622F70E06F5F7F4F822F829538
:103200008F7090E034E0880F991F3A95E1F7681BC2
:10321000790B83E49EE14AE050E00E94644E2796D9
:103220000FB6F894DEBF0FBECDBFCF91DF911F91D7
:103230000F91FF90EF900895EF92FF921F93CF931D
:10324000DF93EC017B0181E00E94144A182F80E09B
:103250000E94144A880F991F282F212B80910A035E
:10326000821769F1E22FF0E090E0880F991F880F34
:10327000991FE82BF92BEB55FC4FE081E13019F455
:10328000CE0DDF1D1AC0EF3FC1F4809140068823A8
:1032900081F08091211E813041F0813010F0823028
:1032A00061F4CA30D1054CF006C0C031D1052CF014
:1032B00002C0209711F0CE19DF0920930A03CE0136
:1032C000DF91CF911F91FF90EF900895EF92FF92C1
:1032D0000F931F93CF93DF938091B305882309F455
:1032E000DBC08091C7029091C802039709F0D4C057
:1032F0008091BE052091DB15882309F46BC0822FD5
:1033000090E0B9E0EB2EB5E0FB2E8E9D80018F9D05
:10331000100D9E9D100D11240054194FF80183814A
:1033200090E061E070E00E941C19F80183838091B5
:10333000DB15482F50E04E9DF0014F9DF00D5E9D36
:10334000F00D1124E054F94F8381823010F481E0B4
:10335000838389E095E0489FF001499FF00D589FD5
:10336000F00D1124E054F94F8381873010F087E08D
:103370008383C9E0D5E04C9F90014D9F300D5C9F49
:10338000300D1124F901E054F94FBF016D5F7F4FFB
:1033900093818091931E981709F47EC09093931E99
:1033A00081E0809313038093DC15F901E754F44F17
:1033B000DB014F5F5F4F4C9F90014D9F300D5C9F35
:1033C000300D11242054394F8C918193E217F3076B
:1033D000D9F762C0822F90E020919906A9E0EA2EE9
:1033E000A5E0FA2E8E9D80018F9D100D9E9D100DE3
:1033F00011240054194F020F111D07501B4FF801E3
:10340000808190E061E070E00E941C19F8018083E7
:103410008091DB15482F50E080919906282F30E0ED
:103420004E9DF0014F9DF00D5E9DF00D1124E20FB9
:10343000F31FE754F44F8081823010F481E08083E1
:1034400089E095E0489FF001499FF00D589FF00DED
:103450001124E20FF31FE754F44F8081873010F0FE
:1034600087E0808389E095E0489FF001499FF00D57
:10347000589FF00D1124E20FF31FE754F44F908191
:10348000F901ED57F14E8081981731F0908381E07A
:10349000809313038093DC15809199068C3009F09A
:1034A00048C08091C7029091C802039709F041C0BB
:1034B0008091DB1590E0F9E0EF2EF5E0FF2E8E9D78
:1034C00080018F9D100D9E9D100D11240857144FE3
:1034D000F801808190E061E070E00E941C19F80121
:1034E00080838091DB15482F50E04E9DF0014F9D69
:1034F000F00D5E9DF00D1124E857F44F20812E3021
:1035000008F02DE089E095E0489FF001499FF00D1B
:10351000589FF00D1124E857F44F20838091821EAC
:10352000281709F415C32093821E81E08093DC15CF
:103530000DC38091C7029091C802019709F0F7C0AE
:103540008091A805882309F0F2C080916F06882336
:1035500009F0EDC08091211E813009F44FC0813007
:1035600020F0823009F0F4C279C0809140068823AF
:1035700039F080910D1E90910E1E6AE070E006C039
:1035800080910D1E90910E1E61E070E00E941C194A
:1035900090930E1E80930D1E40910D1E50910E1E95
:1035A000F3E0483E5F0710F047EE53E050930E1EE5
:1035B00040930D1E8091801E9091811E48175907DF
:1035C00009F4C6C25093811E4093801E8091121E42
:1035D00090E022E034E0829FF001839FF00D929F03
:1035E000F00D1124E95FF94EE40FF51F92819093DD
:1035F0009C0680919B06891769F5A7C280914006B9
:1036000090919C06882329F0892F90E060E170E07A
:1036100004C0892F90E061E070E00E941C19809343
:103620009C0640919C0647FD4FE740939C06242F43
:1036300030E080917E1E90917F1E2817390709F493
:1036400087C230937F1E20937E1E80919B06841735
:1036500009F47BC281E08093DD1577C2809140063A
:103660009091121E882399F0892F90E022E034E097
:10367000829F8001839F100D929F100D1124095F7E
:10368000194EF801808191816AE070E012C0892FA3
:1036900090E022E034E0829F8001839F100D929F92
:1036A000100D1124095F194EF8018081918161E0AC
:1036B00070E00E941C19F801918380838091121E92
:1036C00090E022E034E0829FF001839FF00D929F12
:1036D000F00D1124E95FF94E8081918123E0883E4D
:1036E000920710F087EE93E0918380838091121E01
:1036F00090E022E034E0829FF001839FF00D929FE2
:10370000F00D1124E95FF94E0190F081E02D8091D8
:103710007C1E90917D1EE817F90709F419C2F093F9
:103720007D1EE0937C1E81E08093131E0FC280916A
:103730001A1E882309F41DC18091211E813091F148
:10374000813038F0823009F499C0833009F000C22A
:10375000F5C08091400640911B1E882329F0842FDC
:1037600090E06AE070E004C0842F90E061E070E0D7
:103770000E941C1980931B1E80911B1E843608F02A
:1037800083E680931B1E282F30E080917A1E909153
:103790007B1E2817390709F4DBC130937B1E209369
:1037A0007A1ED3C1809140062091DB1540911B1EEB
:1037B0008823B1F030E089E095E0289F8001299FBF
:1037C000100D389F100D11240054194F040F111DB6
:1037D0000B5B1B4FF801808190E06CE070E015C03E
:1037E00030E089E095E0289F8001299F100D389FE7
:1037F000100D11240054194F040F111D0B5B1B4FAA
:10380000F801808190E061E070E00E941C19F801ED
:1038100080838091DB15282F30E080911B1EA82F1C
:10382000B0E089E095E0289FF001299FF00D389FD6
:10383000F00D1124EA0FFB1FEB5FF44FE081E7FD71
:10384000EFE789E095E0AC01249FC001259F900D32
:10385000349F900D1124A80FB91FAB5FB44FEC93A8
:10386000F0E08091781E9091791EE817F90709F42D
:103870006FC1F093791EE093781E67C18091400676
:103880002091DB15882399F0822F90E029E035E024
:10389000829F8001839F100D929F100D11240B5762
:1038A000144FF801808190E06AE070E012C0822F2E
:1038B00090E029E035E0829F8001839F100D929F68
:1038C000100D11240B57144FF801808190E061E036
:1038D00070E00E941C19F80180838091DB15482F4D
:1038E00050E089E095E0489FF001499FF00D589F16
:1038F000F00D1124EB57F44F2081243608F023E615
:1039000089E095E0489FF001499FF00D589FF00D28
:103910001124EB57F44F2083E22FF0E08091761EC4
:103920009091771EE817F90709F412C1F093771EFA
:10393000E093761E81E08093DF1508C18091090332
:1039400090E061E070E00E941C19883008F087E088
:1039500080930903282F30E08091741E9091751E8A
:103960002817390709F4F4C03093751E2093741E8C
:10397000ECC080916F06882309F4AAC08091211EB3
:103980008130D9F1813038F0823009F45BC0833066
:1039900009F0DEC076C080916E068130B9F4809166
:1039A000650690E061E070E00E941C19982F81117B
:1039B00091E09093650680916D1E981709F4C8C038
:1039C00090936D1E81E0809366067FC0823009F07F
:1039D000BFC08091640690E061E070E00E941C1915
:1039E000982F811191E09093640680916C1E981736
:1039F00009F4AEC090936C1E67C080916B069091E5
:103A00006C0661E070E00E941C199C018E319105EA
:103A100018F42EE130E005C08B3F910510F02AEF3D
:103A200030E030936C0620936B068091721E90916B
:103A3000731E2817390709F48BC03093731E209327
:103A4000721E42C08091670690E061E070E00E94C3
:103A50001C19882311F481E003C0813108F080E152
:103A600080936706282F30E08091701E9091711E20
:103A70002817390709F46CC03093711E2093701E0B
:103A800023C08091680690E061E070E00E941C19FC
:103A9000682F882311F461E003C0813108F060E1F0
:103AA00060936806262F30E080916E1E90916F1E05
:103AB0002817390709F44CC030936F1E20936E1EEF
:103AC0008BE491E20E941F4281E0809370063EC029
:103AD0008091690690916A0661E070E00E941C196D
:103AE00090936A06809369068F31910530F48EE1D8
:103AF00090E090936A0680936906809169069091A0
:103B00006A068A3F910530F08AEF90E090936A064A
:103B1000809369062091690630916A0680916A1E39
:103B200090916B1E2817390799F030936B1E2093E4
:103B30006A1E0E94290E8091C7029091C8020297C6
:103B400021F08091A805882319F081E08093130368
:103B5000DF91CF911F910F91FF90EF900895CF9239
:103B6000DF92EF92FF920F931F937B018C012BEA60
:103B7000C22E2FE1D22E980144275527205BC60183
:103B8000622F0E94A23E5527412F302F2F2DC601B4
:103B9000622F0E94243FC6016E2D0E94243F1F9178
:103BA0000F91FF90EF90DF90CF9008952F923F926A
:103BB0004F925F926F927F928F929F92AF92BF923D
:103BC000CF92DF92EF92FF920F931F93DF93CF93E9
:103BD00000D00F92CDB7DEB73324C32CDD24EE2402
:103BE000FF24C701B60120E035E040E050E00E942C
:103BF0000B4F262E79838A839B830E94AF1D10E092
:103C00008BEA9FE160E00E94243F8BEA9FE160E045
:103C10000E94243F8BEA9FE16FE00E94243F8BEAE1
:103C20009FE168E10E94243F8BEA9FE161E00E94EE
:103C3000243F8BEA9FE160E00E94243F1F5F103128
:103C4000F9F68BEA9FE16FE00E94243F8BEA9FE147
:103C500068E10E94243F8BEA9FE161E00E94243FDB
:103C60008BEA9FE160E00E94243F8BEA9FE160E0E5
:103C70000E94243F8BEA9FE160E00E94243F00E025
:103C800010E08BEA9FE160E00E94243F0F5F1F4F2E
:103C90000A311105B1F78BEA9FE10E94673F6AE0A4
:103CA00070E080E090E00E94B048C701B6012AE0D1
:103CB00030E040E050E00E940B4F5B016C01089443
:103CC000A11CB11CC11CD11C86017501B7E0EE0C12
:103CD000FF1C001F111FBA95D1F782E090E0A0E011
:103CE000B0E0A80EB91ECA1EDB1E25013601A7E0F2
:103CF000440C551C661C771CAA95D1F78DEF9FEFDD
:103D0000AFEFBFEFA80EB91ECA1EDB1EC801B70178
:103D10000E94AF1D88240DC08BEA9FE168E20E94DB
:103D2000243F939490E19916B9F78394A8E08A16FA
:103D300011F09924F1CF8BEA9FE10E94673F6AE07E
:103D400070E080E090E00E94B04880E890E0A0E061
:103D5000B0E0E80EF91E0A1F1B1FE414F504060567
:103D60001705A1F6F5E06F2E712C812C912C6A0CB1
:103D70007B1C8C1C9D1CE7E0660C771C881C991C26
:103D8000EA95D1F7C801B7010E94AF1D44240DC0C8
:103D90008BEA9FE160E00E94243F539490E1591622
:103DA000B9F74394A8E04A1611F05524F1CF8BEAF5
:103DB0009FE10E94673F6AE070E080E090E00E942F
:103DC000B04880E890E0A0E0B0E0E80EF91E0A1FDD
:103DD0001B1FE614F70408051905A1F677E0672E06
:103DE000712C812C912C6A0C7B1C8C1C9D1C67E017
:103DF000660C771C881C991C6A95D1F7C801B7011D
:103E00000E94AF1D44240DC08BEA9FE160E00E9438
:103E1000243F539490E15916B9F74394A8E04A1609
:103E200011F05524F1CF8BEA9FE10E94673F6AE0D1
:103E300070E080E090E00E94B04880E890E0A0E070
:103E4000B0E0E80EF91E0A1F1B1FE614F704080570
:103E50001905A1F6370148018601750189E090E056
:103E6000A0E0B0E0E80EF91E0A1F1B1F57E0EE0CA1
:103E7000FF1C001F111F5A95D1F7C401B3010E9406
:103E8000AF1DCC240DC08BEA9FE160E00E94243F6F
:103E9000D39490E1D916B9F7C394A8E0CA1611F0EB
:103EA000DD24F1CF8BEA9FE10E94673F6AE070E07A
:103EB00080E090E00E94B04880E890E0A0E0B0E0B0
:103EC000680E791E8A1E9B1E6E147F048006910662
:103ED000A1F6622D79818A819B8160587B4F8F4F3B
:103EE0009F4F0E94AF1D10E08BEA9FE160E00E94AF
:103EF000243F1F5F1038C1F78BEA9FE10E94673FA4
:103F00006AE070E080E090E00E94B048232D2695A2
:103F10002695269581E090E0A0E0B0E004C0880FEF
:103F2000991FAA1FBB1F2A95D2F79C01AD01809152
:103F3000961E9091971E822B932B9093971E8093A1
:103F4000961E60E070E040E00E946A04339490E8BE
:103F5000391609F042CE22243324812C40E8942ED5
:103F600042E0A42EB12C31E0432E512C612C712C57
:103F70004CC0C801B7010E94AF1DDD248BEA9FE150
:103F800060E00E94243FD394A0E8DA16B9F78BEAE8
:103F90009FE10E94673F6AE070E080E090E00E944D
:103FA000B048C39480E890E0A0E0B0E0E80EF91ECD
:103FB0000A1F1B1F98E0C916E1F6A3019201022C0B
:103FC00004C0220F331F441F551F0A94D2F780915B
:103FD000941E9091951E822B932B9093951E809307
:103FE000941E60E070E040E00E946A040894211C86
:103FF000311C80E094E0A0E0B0E0880E991EAA1E7B
:10400000BB1E90E12916310421F085017401CC24F6
:10401000B0CF60E070EC82E090E00E94AF1D8BEAD0
:104020009FE160E00E94243F8BEA9FE168E70E94E5
:10403000243F8BEA9FE161E00E94243F8BEA9FE1ED
:1040400061E00E94243F8BEA9FE10E94673F6AE0A3
:1040500070E080E090E00E94B04869EF7FEF83E07D
:1040600090E00E94AF1D8BEA9FE160E00E94243F38
:104070008BEA9FE161E00E94243F8BEA9FE162E0CE
:104080000E94243F8BEA9FE10E94673F6AE070E054
:1040900080E090E00E94B0480F900F900F90CF9179
:1040A000DF911F910F91FF90EF90DF90CF90BF9025
:1040B000AF909F908F907F906F905F904F903F90C8
:1040C0002F900895CF92DF92EF92FF920F931F935C
:1040D000CF93DF93162F90E0A0E0B0E0BC01CD01BC
:1040E00020E035E040E050E00E940B4F6B017C0186
:1040F00085E290E0A0E0B0E0C80ED91EEA1EFB1EEB
:10410000C0E0D0E0012F10E021C0C701B6010E943D
:10411000AF1D8BEA9FE160E00E94243F8BEA9FE1A4
:1041200060E00E94243F8BEA9FE10E94673F6AE0C3
:1041300070E080E090E00E94B048219680E095E039
:10414000A0E0B0E0C80ED91EEA1EFB1E0C171D072A
:10415000E4F6DF91CF911F910F91FF90EF90DF90E8
:10416000CF900895BF92CF92DF92EF92FF920F937C
:104170001F93CF93DF93B62E90E0A0E0B0E0BC0198
:10418000CD0120E035E040E050E00E940B4F7B0184
:104190008C0185E290E0A0E0B0E0E80EF91E0A1F75
:1041A0001B1FC0E0D0E0CB2CDD2421C0C801B7012B
:1041B0000E94AF1D8BEA9FE16C2F0E94243F8BEA87
:1041C0009FE16B2D0E94243F8BEA9FE10E94673F95
:1041D0006AE070E080E090E00E94B048219680E0C4
:1041E00095E0A0E0B0E0E80EF91E0A1F1B1FCC16F8
:1041F000DD06E4F6DF91CF911F910F91FF90EF90D4
:10420000DF90CF90BF9008950F931F9360E070EC04
:1042100082E090E00E94AF1D0BEA1FE1C8016091AF
:1042200065060E94243FC80160916B060E94243FEE
:10423000C801609167060E94243FC801609168062A
:104240000E94243FC801609164060E94243FC80177
:104250000E94673F6AE070E080E090E00E94B04812
:104260001F910F910895809166068823A9F180918E
:104270006506882319F0813069F505C00E94431254
:104280000E94490E27C080916F008D7F80936F0040
:104290001092890010928800109281008091810014
:1042A000809380008BE491E260E37BE30E942E42E6
:1042B0008BE491E26FE179E00E9434428BE491E279
:1042C00063E279E00E9440428BE491E267E279E0A8
:1042D0000E943A421092660680917006882351F03F
:1042E0008091CA05882331F00E9404211092700643
:1042F0000E94871080916F06882311F41092700637
:1043000008959F92AF92BF92CF92DF92EF92FF9269
:104310000F931F93CF93DF932091121E30E042E062
:1043200054E0249FF001259FF00D349FF00D1124DF
:10433000E95FF94E90812181E250FC4F91932083F7
:10434000E82EFF2400E010E080EA90E0A0E0B0E07A
:10435000E80EF91E0A1F1B1F8AE0EE0CFF1C001F4F
:10436000111F8A95D1F7AA24BB246501C2E0D4E0CD
:10437000C801B7010E94AF1D9924D601C501890D5E
:10438000911DA11DB11D2091121E30E02C9FF00146
:104390002D9FF00D3C9FF00D1124E95FF94EE80FC1
:1043A000F91F8BEA9FE162810E94243F939490E879
:1043B000991619F78BEA9FE10E94673F6AE070E067
:1043C00080E090E00E94B04880E890E0A0E0B0E09B
:1043D000E80EF91E0A1F1B1FA80EB91ECA1EDB1EFF
:1043E00090E0A91694E0B90690E0C90690E0D906DD
:1043F00009F0BECFDF91CF911F910F91FF90EF9009
:10440000DF90CF90BF90AF909F9008950F931F9330
:10441000162F90E0A0E0B0E0BC01CD0120E035E037
:1044200040E050E00E940B4F610F711D811D911DF6
:104430006B5D7F4F8F4F9F4F0E94AF1D0BEA1FE1B7
:10444000C8010E94673FC80160E570E041E050E0AC
:104450000E94783FC8010E94B53E1F910F910895B8
:1044600060E070EC82E090E00E94AF1D8BEA9FE17B
:104470000E94673F8BEA9FE162E540E40E947C3F37
:104480008BEA9FE10E94B53E811181E08093650631
:104490008BEA9FE10E94B53E90E08E31910518F4C1
:1044A0008EE190E005C08B3F910510F08AEF90E01F
:1044B00090936C0680936B068BEA9FE10E94B53E59
:1044C000882311F481E003C0813108F080E18093FA
:1044D00067068BEA9FE10E94B53E882311F481E0D4
:1044E00003C0813108F080E1809368068BEA9FE188
:1044F0000E94B53E811181E08093640608950E9478
:104500003022109271061092A5021092A40210920D
:104510006E0610926F0680E00E945B490E94034F76
:1045200010926D0680916B0690916C0690936A06CE
:104530008093690680916506882319F0813069F5BA
:1045400005C00E9443120E94490E089580916F0099
:104550008D7F80936F0010928900109288001092D6
:10456000810080918100809380008BE491E260E380
:104570007BE30E942E428BE491E26FE179E00E949E
:1045800034428BE491E263E279E00E9440428BE4A2
:1045900091E267E279E00E943A4208956F927F9239
:1045A0008F929F92AF92BF92CF92DF92EF92FF9243
:1045B0000F931F93CF93DF93C82EDD24EE24FF24A7
:1045C00080EA90E0A0E0B0E0C80ED91EEA1EFB1E13
:1045D0003AE0CC0CDD1CEE1CFF1C3A95D1F7882488
:1045E0009924540122E0622E24E0722EC701B60104
:1045F0000E94AF1D8BEA9FE10E94673F970144270D
:104600005527205B8BEA9FE1622F40E80E947C3FA8
:1046100010E00091121EC02FD0E08BEA9FE10E94B3
:10462000B53EA5019401210F311D411D511DC69DAF
:10463000F001C79DF00DD69DF00D1124E95FF94EF4
:10464000E20FF31F82831F5F103819F780E890E0B4
:10465000A0E0B0E0C80ED91EEA1EFB1E880E991E0F
:10466000AA1EBB1E90E0891694E0990690E0A90668
:1046700090E0B90609F0BACF8091121E90E022E0D6
:1046800034E0829FF001839FF00D929FF00D112482
:10469000E95FF94EE150FC4F908180E02291EE5F9E
:1046A000F34030E0822B932B91838083DF91CF9175
:1046B0001F910F91FF90EF90DF90CF90BF90AF9040
:1046C0009F908F907F906F9008952F923F924F927E
:1046D0005F926F927F928F929F92AF92BF92CF9292
:1046E000DF92EF92FF920F931F93DF93CF9300D04F
:1046F00000D000D0CDB7DEB7682E77248824992467
:10470000C401B30120E035E040E050E00E940B4FCF
:1047100069837A838B839C830E94AF1D8BEA9FE120
:104720000E94673F89819A81AB81BC819D014427AA
:104730005527205B8BEA9FE1622F40E80E947C3F77
:104740004424552409E0A02E05E0B02EEE24FF24D9
:104750008091DB15882319F411E0E12EF12C8BEA0E
:104760009FE10E94B53E8C018BEA9FE10E94B53E1D
:10477000F201EE0FFF1FEA9C9001EB9C300DFA9CBA
:10478000300D1124E20FF31FE054F94FD82ECC2442
:1047900010700C291D291683058300E010E080911C
:1047A000DB15882311F401E010E08BEA9FE10E9401
:1047B000B53E0A9DF0010B9DF00D1A9DF00D1124E0
:1047C000E40DF51DE756F44F808300E010E0809182
:1047D000DB15882311F401E010E08BEA9FE10E94D1
:1047E000B53E0A9DF0010B9DF00D1A9DF00D1124B0
:1047F000E40DF51DE755F44F808300E010E0809153
:10480000DB15882311F401E010E08BEA9FE10E94A0
:10481000B53E0A9DF0010B9DF00D1A9DF00D11247F
:10482000E40DF51DE754F44F808300E010E0809123
:10483000DB15882311F401E010E08BEA9FE10E9470
:10484000B53E0A9DF0010B9DF00D1A9DF00D11244F
:10485000E40DF51DE757F44F80830894411C511C6B
:1048600090E14916510409F071CF00E010E0809109
:10487000DB15882311F401E010E08BEA9FE10E9430
:10488000B53E29E035E0029FF001039FF00D129F35
:10489000F00D1124E054F94F808300E010E0809186
:1048A000DB15882311F401E010E08BEA9FE10E9400
:1048B000B53E29E035E0029FF001039FF00D129F05
:1048C000F00D1124E054F94F818300E010E0809155
:1048D000DB15882311F401E010E08BEA9FE10E94D0
:1048E000B53E29E035E0029FF001039FF00D129FD5
:1048F000F00D1124E054F94F838300E010E0809123
:10490000DB15882311F401E010E08BEA9FE10E949F
:10491000B53E29E035E0029FF001039FF00D129FA4
:10492000F00D1124E054F94F828300E010E08091F3
:10493000DB15882311F401E010E08BEA9FE10E946F
:10494000B53E29E035E0029FF001039FF00D129F74
:10495000F00D1124EA57F44F808300E010E08091BD
:10496000DB15882311F401E010E08BEA9FE10E943F
:10497000B53E29E035E0029FF001039FF00D129F44
:10498000F00D1124E957F44F808300E010E080918E
:10499000DB15882311F401E010E08BEA9FE10E940F
:1049A000B53E29E035E0029FF001039FF00D129F14
:1049B000F00D1124E857F44F8083C401B3012AE0BD
:1049C00030E040E050E00E940B4F7B018C010894E6
:1049D000E11CF11C011D111DA7E0EE0CFF1C001FC6
:1049E000111FAA95D1F788249924F9E02F2EF5E01C
:1049F0003F2EC801B7010E94AF1D8BEA9FE10E94C4
:104A0000673F980144275527205B8BEA9FE1622F7F
:104A100040E80E947C3F5401772429C0CC24DD2447
:104A20008091DB15882319F471E0C72ED12C8BEA15
:104A30009FE10E94B53EC29CF001C39CF00DD29C48
:104A4000F00D1124E40DF51DAD81BE81EA0FFB1FB1
:104A5000EB5FF84F80831196BE83AD835097F1F6DC
:104A600073940894A11CB11CB8E07B1649F01E8217
:104A70001D82250164E0440C551C6A95E1F7CECFF8
:104A800080E890E0A0E0B0E0E80EF91E0A1F1B1FCE
:104A9000A8E0B0E08A0E9B1EB0E18B16910409F0ED
:104AA000A8CF69817A818B819C8160587B4F8F4F21
:104AB0009F4F0E94AF1D8BEA9FE10E94673F8BEAE8
:104AC0009FE160E570E040E850E00E94783F10E030
:104AD00059E0E52E55E0F52ECC24DD248091DB1540
:104AE000882319F441E0C42ED12C8BEA9FE10E9467
:104AF000B53ECE9CF001CF9CF00DDE9CF00D112454
:104B0000E054F94FE10FF11DEB5BFB4F80831F5F1A
:104B1000103811F726960FB6F894DEBF0FBECDBF42
:104B2000CF91DF911F910F91FF90EF90DF90CF9089
:104B3000BF90AF909F908F907F906F905F904F90BD
:104B40003F902F9008952F923F924F925F926F92D5
:104B50007F928F929F92AF92BF92CF92DF92EF920D
:104B6000FF920F931F93DF93CF9300D000D0CDB768
:104B7000DEB7882E9924AA24BB24C501B40120E005
:104B800035E040E050E00E940B4F362E272E8983FF
:104B90009A830E94AF1D66247724B9E0CB2EB5E03E
:104BA000DB2E8091DB1590E0F301EE0FFF1F79E023
:104BB000E72E75E0F72E9C012C9DC0012D9D900DD8
:104BC0003C9D900D1124E80FF91FE054F94F6581C9
:104BD00016818BEA9FE10E94243F8BEA9FE1612FBF
:104BE0000E94243F8091DB1590E08C9DF0018D9D0B
:104BF000F00D9C9DF00D1124E60DF71DE756F44FC6
:104C00008BEA9FE160810E94243F8091DB1590E058
:104C10008C9DF0018D9DF00D9C9DF00D1124E60DF5
:104C2000F71DE755F44F8BEA9FE160810E94243F16
:104C30008091DB1590E08C9DF0018D9DF00D9C9D89
:104C4000F00D1124E60DF71DE754F44F8BEA9FE1B8
:104C500060810E94243F8091DB1590E08C9DF001E3
:104C60008D9DF00D9C9DF00D1124E60DF71DE7576D
:104C7000F44F8BEA9FE160810E94243F8BE491E234
:104C80000E94FA470894611C711C30E1631671049C
:104C900009F087CF8091DB1590E08E9DF0018F9D0C
:104CA000F00D9E9DF00D1124E054F94F8BEA9FE129
:104CB00060810E94243F8091DB1590E08E9DF00181
:104CC0008F9DF00D9E9DF00D1124E054F94F8BEA5D
:104CD0009FE161810E94243F8091DB1590E08E9DD1
:104CE000F0018F9DF00D9E9DF00D1124E054F94FC1
:104CF0008BEA9FE163810E94243F8091DB1590E065
:104D00008E9DF0018F9DF00D9E9DF00D1124E054BD
:104D1000F94F8BEA9FE162810E94243F8091DB156D
:104D200090E08E9DF0018F9DF00D9E9DF00D112461
:104D3000EA57F44F8BEA9FE160810E94243F809103
:104D4000DB1590E08E9DF0018F9DF00D9E9DF00D86
:104D50001124E957F44F8BEA9FE160810E94243FC0
:104D60008091DB1590E08E9DF0018F9DF00D9E9D52
:104D7000F00D1124E857F44F8BEA9FE160810E9407
:104D8000243F8BEA9FE10E94673F6AE070E080E089
:104D900090E00E94B0488BE491E20E94FA47C5017E
:104DA000B4012AE030E040E050E00E940B4F7B016C
:104DB0008C010894E11CF11C011D111D67E0EE0C33
:104DC000FF1C001F111F6A95D1F7AA24BB2459E0CC
:104DD000452E55E0552EC801B7010E94AF1D650153
:104DE000992429C08091DB1590E0849DF001859D78
:104DF000F00D949DF00D1124E60DF71D8B819C8123
:104E0000E80FF91FEB5FF84F8BEA9FE160810E948A
:104E1000243FAB81BC811196BC83AB83509711F7C3
:104E20008BE491E20E94FA4793940894C11CD11C30
:104E3000B8E09B1649F01C821B82360144E0660CE8
:104E4000771C4A95E1F7CECF8BEA9FE10E94673F3E
:104E50006AE070E080E090E00E94B04880E890E076
:104E6000A0E0B0E0E80EF91E0A1F1B1FA8E0B0E0AA
:104E7000AA0EBB1EB0E1AB16B10409F0ACCF632D96
:104E8000722D89819A8160587B4F8F4F9F4F0E946E
:104E9000AF1D10E039E0E32E35E0F32E8091DB15F5
:104EA00090E08E9DF0018F9DF00D9E9DF00D1124E0
:104EB000E054F94FE10FF11DEB5BFB4F8BEA9FE1F3
:104EC00060810E94243F1F5F103841F78BE491E21C
:104ED0000E94FA478BEA9FE10E94673F6AE070E018
:104EE00080E090E00E94B0480F900F900F900F90DC
:104EF000CF91DF911F910F91FF90EF90DF90CF90B6
:104F0000BF90AF909F908F907F906F905F904F90E9
:104F10003F902F900895AF92BF92CF92DF92EF9281
:104F2000FF920F931F938F3708F08FE700D000D0C8
:104F3000682F70E080E090E02AEF3FE040E050E032
:104F4000EDB7FEB7218332834383548320E030E002
:104F500040E050E01FE7E12EF12C012D112DAA2495
:104F6000BB2465010E947A4E8B011F701061309145
:104F70001C1E20911D1E80919E1E0F900F900F9061
:104F80000F90882381F0813051F48DB38093A01E5F
:104F90009DB380919F1E809589238DBB04C08FB7E0
:104FA000F8948093A01E3CBD2DBD5D9885E090E0F7
:104FB0000E9409491EBD00000DB407FEFDCF8EB54D
:104FC0000EBD00000DB407FEFDCF8EB55D9A809139
:104FD0009E1E882339F09091A01E813011F49DBB54
:104FE00001C09FBF1F910F91FF90EF90DF90CF9076
:104FF000BF90AF9008956F927F928F929F92AF92E1
:10500000BF92CF92DF92EF92FF920F931F93CF93B5
:10501000DF9381E00E94FB01909343068093420658
:1050200080919606882349F080916F06882329F0A5
:1050300010926F0681E0809313038091C7029091D4
:10504000C802059711F01092040680916F0688231C
:1050500011F410926E0680917205882361F08091A0
:10506000211E8F5F8093211E843010F01092211E2C
:1050700081E08093130380915C05882321F4809163
:10508000231E882399F181E0809396061092C60230
:10509000109271061092A5021092A40280E090E096
:1050A00011E0FC01EE0FFF1FEA55FD4F1182108247
:1050B000FC01E055F94F1082FC01E356F94F1083D3
:1050C00001968031910569F71092820610926A0567
:1050D000109295068BE491E26AEF70E00E9406461A
:1050E000109A1093361E119A1093371E80916705FF
:1050F000882321F080914006882341F08091241E6E
:10510000882321F48091251E8823D1F10E943A1230
:105110008091241E882319F010926A0507C080919F
:10512000251E882319F081E080936A0580916A0525
:105130008F5F80936A05813019F0823009F50EC0C7
:105140008093C602109296068BE491E26CEF70E0B9
:105150000E94064610981092361E12C01092C60287
:1051600011E01093960610926A05109271068BE476
:1051700091E26BEF70E00E940646109A1093361E83
:105180008091BE05882309F442C08091930588234D
:1051900079F084E090E09093C8028093C70281E0A8
:1051A0008093130310921A1E10926F061092131E12
:1051B00080910C06882321F080919B060E9464094F
:1051C00080910106882339F080919B060E94430A52
:1051D00081E08093DC158091A905882309F4E5C05E
:1051E00080919606882309F0E0C081E080936F06E5
:1051F00080916E068F5F80936E061092211E833021
:1052000008F4D0C010926E0610926F06CBC0809149
:105210002D068823C1F08091C7029091C8020197A2
:1052200029F41092C8021092C70206C081E090E0F3
:105230009093C8028093C70281E080931303109279
:105240001A1E10926F06809122068823C1F0809169
:10525000C7029091C802039719F482E090E002C05F
:1052600083E090E09093C8028093C70281E080932E
:10527000130310921A1E10926F061092131E809143
:105280009305882311F00E94D50B80919E058823F9
:1052900011F00E94BE0C80917D05882309F449C05D
:1052A000809180058F5F80938005813021F082306E
:1052B00009F03FC020C081E191E19093AF06809357
:1052C000AE068091DB1590E029E035E0829FF00189
:1052D000839FF00D929FF00D1124E054F94FEB568F
:1052E000FF4F8FE7808334968EE1808334968083EE
:1052F000349680831EC01092AF061092AE06809145
:10530000DB1590E029E035E0829FF001839FF00DEE
:10531000929FF00D1124E054F94FEB56FF4F80E5BA
:105320008083349680833496808334968083109271
:10533000800580910106882319F1809104068F5F12
:1053400080930406813019F08230D1F40FC080912F
:10535000C7029091C802909398068093970685E0C3
:1053600090E09093C8028093C7020AC0809197068C
:10537000909198069093C8028093C70210920406F9
:105380008091C7029091C802059711F0109204060F
:1053900080916F06882311F410926E068091AA0501
:1053A000882319F081E0809313038091C7029091C4
:1053B000C8020397029708F033C780914206909184
:1053C0004306892B11F410924106809140068823F0
:1053D00079F08091420690914306892B49F081E053
:1053E0008093691E10921A1E0E942F0480939906C2
:1053F0008091691E882349F080911806882329F03E
:1054000081E0809313031092691E809140068823E7
:1054100051F08091CA05882331F08CE08093990681
:1054200081E0809313038091BE05882351F0809121
:105430007D05882331F08DE08093990681E080938B
:10544000130380913706882309F457C080911A1EF0
:10545000882309F052C08091C7029091C802049736
:1054600009F44BC080919606882309F446C0209128
:10547000DB1530E060919906C62FD0E0BE016E5872
:10548000794FDB011C91FE01EE0FFF1F89E095E0D3
:10549000289FA001299F500D389F500D1124E40F23
:1054A000F51FE054F94F81E090E0A0E0B0E004C0C7
:1054B000880F991FAA1FBB1F1A95D2F78095909548
:1054C000258136818223932396838583FB01808106
:1054D000FE0194E0EE0FFF1F9A95E1F7E40FF51F30
:1054E000E054F94FE80FF11DEB5BFF4FC750DD4F64
:1054F0008881808381E08093DC1580913806882341
:1055000009F444C080911A1E882309F03FC080919D
:10551000C7029091C8020497C9F18091960688232A
:10552000A9F520E030E069E075E041E01FE058E1D6
:105530008091DB1590E0D901AA0FBB1F869FF00177
:10554000879FF00D969FF00D1124AE0FBF1FA05442
:10555000B94F16961C921E921597E054F94FE20F20
:10556000F31FE750FB4F4083B09710837096508332
:10557000B09710822F5F3F4F20313105C9F683E08D
:10558000809309034093DC15409313038091B40585
:10559000882321F48091B505882319F081E0809358
:1055A000130380918805882309F45FC080911A1E37
:1055B000882309F05AC081E0809313038093DC159F
:1055C00080918B058F5F80938B05843011F410924E
:1055D0008B05E0918B05F0E0EB51FD4F5081809100
:1055E000BE050091DB15882361F1202F30E089E0B2
:1055F00095E0289FF001299FF00D389FF00D1124B0
:10560000E054F94F518320E030E049E055E08091CB
:10561000DB1590E0849FD001859FB00D949FB00D65
:105620001124A054B94FFD01E20FF31FE751FB4FC6
:1056300011968C9180832F5F3F4F2031310539F7D0
:1056400014C040919906202F30E089E095E0289F12
:10565000F001299FF00D389FF00D1124E054F94F0F
:10566000E40FF11DE751FB4F508340919906809163
:10567000DB1590E029E035E0829FF001839FF00D7B
:10568000929FF00D1124E054F94FE40FF11DE75102
:10569000FB4F9081E0918B05F0E0EB51FD4F808155
:1056A0009817B1F0903189F0913118F49C3081F461
:1056B00008C0983119F0903259F405C010928B054A
:1056C00007C081E003C082E001C083E080938B05C6
:1056D0008091DF05882309F47EC080911706882316
:1056E00009F479C08091BE050091DB15882309F08B
:1056F00042C010E080919906C82FD0E00E942F048C
:1057000049E055E0049F9001059F300D149F300D36
:105710001124C20FD31FC756D44F88838091DB1545
:1057200090E0849FF001859FF00D949FF00D11246F
:10573000E054F94F108220E030E08091DB1590E0DA
:10574000849FD001859FB00D949FB00D1124A0546B
:10575000B94FFD01E20FF31FE752FB4FE0818C913F
:105760008E1718F4EC932093E0152F5F3F4F2031F4
:10577000310519F72BC010E00E942F0429E035E015
:10578000029FF001039FF00D129FF00D1124E054D1
:10579000F94F808320E030E049E055E08091DB154F
:1057A00090E0849FD001859FB00D949FB00D11248F
:1057B000A054B94FFD01E20FF31FE752FB4F8C914C
:1057C00080832F5F3F4F2031310541F781E0809387
:1057D00013038093DC158091C7029091C802833037
:1057E000910509F08AC180911806882311F0109262
:1057F00041068091DF05882309F0E9C080914006C9
:10580000882309F0E4C080911A1E882309F0DFC0C4
:1058100080919606882311F12091DB1530E080916C
:105820009906C82FD0E0CC0FDD1F89E095E0AC01D0
:10583000249FC001259F900D349F900D1124C80F07
:10584000D91FC054D94F8D819E810E9473029E83BF
:105850008D8380919B0680939C06B9C0809116062B
:10586000882309F4B4C080910B068823E9F00E94D4
:105870002F04873010F087E002C00E942F0480932D
:105880009A0680919A068295807F20919B06922F9E
:105890009F70890F80939C06281719F081E08093F0
:1058A000DD151092E11593C00E944A04882309F483
:1058B00049C01092151E0E944A04182F0E942F04FE
:1058C000181B1093E1150E942F0490919A0692954F
:1058D000907F980F9093E21590939C0681E08093BF
:1058E00041068093E4158091CA05882309F466C0B7
:1058F0001092E415C0E0D0E019C01C2F8091E21591
:105900008C0F61E00E940622082F882371F080919D
:10591000E2158C0F60E00E9406229091E215190FAB
:10592000181B812F602F0E94622021966091E11543
:10593000862F90E08C179D0704F78091E2150E9456
:10594000B2203CC0809141068823C1F51092E41535
:105950000E942F0440919A064295407F480F409341
:105960009C068091CA058823C1F08091DB1590E0E8
:1059700029E035E0829FF001839FF00D929FF00DAA
:105980001124E054F94FEA53FB4F8191481B842FB7
:1059900060810E9462201092E1158091DB1590E0F9
:1059A00029E035E0829FF001839FF00D929FF00D7A
:1059B0001124EA57F44F80818093E31590919B0660
:1059C00080919C06981719F081E08093DD158091F5
:1059D000151E882301F19091E1159923E1F0809142
:1059E000E3158F5F8093E315981710F41092E31579
:1059F0008091E3159091E215890F80939C06909118
:105A00009B06981719F081E08093DD151092151E02
:105A100081E0809313038091BE05882309F400C4BC
:105A200080919E05882309F4FBC380914006009174
:105A3000DB15409199068823D1F0802F90E029E072
:105A400035E0829FF001839FF00D929FF00D1124AD
:105A5000E054F94FE40FF11DE753FB4F80818F5F56
:105A600080838150833008F4DBC31082D9C3802F38
:105A700090E029E035E0829FF001839FF00D929F36
:105A8000F00D1124E054F94FE40FF11DE753FB4FE3
:105A900080818F5F80838150833008F01082409135
:105AA00099068091DB1590E029E035E0829FF001B6
:105AB000839FF00D929FF00D1124E054F94FE40FF5
:105AC000F11DE753FB4F608120E030E049E055E0F5
:105AD0008091DB1590E0849FF001859FF00D949FED
