:020000040800F2
:10000000106100207902000841210008511B0008FE
:100010003D210008B50700087F5B000800000000D4
:100020000000000000000000000000004332000853
:10003000AB170008000000000D2200084D33000837
:10004000930200089302000893020008930200083C
:10005000930200089302000893020008930200082C
:10006000930200089302000893020008930200081C
:10007000930200089302000893020008930200080C
:1000800093020008930200089302000893020008FC
:1000900093020008930200089302000893020008EC
:1000A000B933000893020008930200089302000885
:1000B00093020008930200089302000893020008CC
:1000C00093020008930200089302000893020008BC
:1000D00093020008930200089302000893020008AC
:1000E000930200089302000893020008930200089C
:1000F00093020008D9330008930200088D14000809
:10010000930200089302000893020008930200087B
:10011000930200089302000893020008930200086B
:10012000930200089302000893020008930200085B
:10013000930200089302000893020008930200084B
:10014000930200089302000893020008FD210008B2
:10015000930200089302000893020008930200082B
:10016000930200089302000893020008930200081B
:10017000930200089302000893020008930200080B
:10018000930200089302000800F002F800F065F8FE
:100190000AA090E8000C82448344AAF10107DA45E2
:1001A00001D100F05AF8AFF2090EBAE80F0013F0CF
:1001B000010F18BFFB1A43F00103184784D2000057
:1001C000A4D2000010F8013B0A4413F0030408BF56
:1001D00010F8014B1D1108BF10F8015B641E05D01B
:1001E00010F8016B641E01F8016BF9D1002D15D0D8
:1001F00010F8014B03F00C030C2BA1EB04040ABF15
:1002000010F8013BA4EB8314A4EB032405F10103D4
:1002100014F8016B5B1E01F8016BF9D5914238BFF0
:1002200010F8013BD1D3704700230024002500269D
:10023000103A28BF78C1FBD8520728BF30C148BF49
:100240000B607047642900F07F80002070471FB565
:1002500007F089F91FBD10B510BD00F005FA114671
:10026000FFF7F5FF06F07CFE00F023FA03B4FFF77A
:10027000F2FF03BC00F02AFA09488047094800470A
:10028000FEE7FEE7FEE7FEE7FEE7FEE7FEE7FEE746
:10029000FEE7FEE704480549054A064B70470000A3
:1002A0005133000889010008105B00201061002014
:1002B000105D0020105D00200FB41CB5074B06AA8E
:1002C0007B4469460090059800F03BF900206946A0
:1002D00000F04AF91CBC5DF814FB0000A502000008
:1002E0002DE9F0410E460446002020622046E168D8
:1002F000884730B3252805D0D4E901219047206AEA
:10030000401CF2E7E168204600278847050018D026
:10031000A5F14100192802D820354FF40067324674
:10032000294620462760FFF78DFF40B1012804D001
:10033000F61D26F007060836D8E7361DD6E728460C
:10034000DAE7206ABDE8F0812DE9F0410646002495
:1003500010687529314616A510D0AFF3008000282B
:1003600002DA404213A507E031688A0701D512A5D9
:1003700002E0490704D511A5012401E0AFF3008094
:1003800000210A2206F1240709E0B0FBF2FCB0FBD1
:10039000F2F302FB1C00303078541846491C002848
:1003A000F3D123462A463046BDE8F04100F06AB852
:1003B000000000002D0000002B00000020000000C5
:1003C00030B505460B462A4613F8014B12F8010BCF
:1003D00008B1A042F8D01CB1002802D06D1CF1E792
:1003E000284630BD032A40F2308010F0030C00F0A4
:1003F000158011F8013BBCF1020F624498BF11F85F
:1004000001CB00F8013B38BF11F8013BA2F1040217
:1004100098BF00F801CB38BF00F8013B11F003038F
:1004200000F0A780083AC0F0088051F8043B083A71
:1004300051F804CBA0E80810F5E7121D5CBF51F895
:10044000043B40F8043BAFF30080D20724BF11F80F
:10045000013B11F801CB48BF11F8012B24BF00F874
:10046000013B00F801CB48BF00F8012B704702F0B8
:10047000FF0343EA032242EA024200F0AEB87047AB
:10048000704770472DE9F0470D469946924604465D
:1004900000F124080168880604D5E06921F0100104
:1004A000216000E00120A84201DD471B00E0002799
:1004B000A1697A1902EB0900081AA0612078C00628
:1004C00002D42046AFF30080002608E0D4E90121E1
:1004D0001AF806009047206A401C761C20624E45A0
:1004E000F4DB2078C0060AD52046AFF3008006E092
:1004F000D4E9012130209047206A401C2062381E38
:10050000A7F10107F4DC07E0D4E9012118F80500A0
:100510009047206A401C2062281EA5F10105F3DCEB
:100520002046AFF300802078000602D50220BDE807
:10053000F0870120FBE7000001694A1C026108788E
:10054000704700B58FB0CDE9013100210591054913
:100550007944CDE9031011466846FFF7C1FE0FB09C
:1005600000BD0000E5FFFFFF0A6802F8010B0A600A
:10057000704710B5203AC0F00B80B1E81850203A0F
:10058000A0E81850B1E81850A0E81850BFF4F5AF33
:100590005FEA027C24BFB1E81850A0E8185044BFBD
:1005A00018C918C0BDE810405FEA827C24BF51F82A
:1005B000043B40F8043B08BF7047D20728BF31F81E
:1005C000023B48BF11F8012B28BF20F8023B48BF6F
:1005D00000F8012B70474FF000020429C0F0128090
:1005E00010F0030C00F01B80CCF1040CBCF1020FE6
:1005F00018BF00F8012BA8BF20F8022BA1EB0C01BB
:1006000000F00DB85FEAC17C24BF00F8012B00F8B0
:10061000012B48BF00F8012B70474FF0000200B5D6
:10062000134694469646203922BFA0E80C50A0E815
:100630000C50B1F12001BFF4F7AF090728BFA0E8C3
:100640000C5048BF0CC05DF804EB890028BF40F88F
:10065000042B08BF704748BF20F8022B11F0804FD1
:1006600018BF00F8012B7047754600F02BF8AE4616
:1006700005006946534620F00700854618B020B5AE
:10068000FFF708FEBDE820404FF000064FF00007DE
:100690004FF000084FF0000B21F00701AC46ACE82A
:1006A000C009ACE8C009ACE8C009ACE8C0098D4697
:1006B000704710B50446AFF300802046BDE81040F7
:1006C000FFF7D4BD00487047B05A002001491820F8
:1006D000ABBEFEE7260002007047000030B50346BF
:1006E0000C4600210BE00C48456818782038C00003
:1006F00015F810000844C1B2481CC1B25B1C187840
:100700000028F0D1481EC1B2551A05EBD57004EB94
:100710006000C0B230BD00008C1D002070B50546E1
:100720000C4607480560204600F00EF800BF04485C
:1007300000680028FBD10021024802F078FE70BD5D
:100740001C000020002000403EB50446002118484F
:1007500002F06DFE00220121154802F04EFF022C2E
:1007600002D10B20019004E0012C02D142F6DF609F
:1007700001900520ADF800000020ADF80800ADF8AC
:10078000020069460A4802F041FF0121084802F0D0
:100790004BFE0121064802F03BFE012211460448AF
:1007A00002F02BFF0121024802F041FE3EBD000095
:1007B0000020004000BFFEE72DE9F04186B0012196
:1007C000042001F08FFD01A801F0A6F94FF411609B
:1007D000019001208DF8080000208DF80A008DF8A6
:1007E0000B0003208DF8090001A9404801F01CF915
:1007F00001A801F091F94FF40050019000208DF80C
:10080000080001A9394801F00FF90021384802F029
:100810000EFE0121080401F0B5FD03A802F038FF27
:1008200040F24730ADF80C0040F2E7300490002071
:10083000ADF80E0003A92E4802F0E8FE0122114691
:100840002B4802F0DAFE18212A4B1B68C3F3022062
:10085000042400250346C3F1070CBCF1040F01D9A1
:10086000A44601E0C3F1070C674603F1040CBCF198
:10087000070F02D24FF0000C01E0A3F1030C664613
:100880004FF0010C0CFA07FCACF1010C0CEA040C63
:100890000CFA06FC4FF0010808FA06F8A8F1010866
:1008A00008EA05084CEA080200BF002908DA100728
:1008B000040E10480C3001F00F031B1FC45403E05A
:1008C0001007030E0C48435400BF1820012181403B
:1008D0004209920002F1E022C2F8001100BF01219A
:1008E000034802F0A4FD06B0BDE8F0810008024014
:1008F000004001400CED00E000E400E010B500F025
:1009000021F80D4908800846007800F0400060B9E1
:100910000A480089401C09490881084600890228C4
:1009200008D101200649087004E00020034908812D
:100930000349087010BD0000A000002010460020F0
:10094000A200002070B500244FF480711A4801F015
:10095000DFF84FF40061184801F0DAF8022002F0E5
:10096000EDFC4FF40061144801F0D4F8022002F0CD
:10097000E5FC002518E04FF6FF7000EA4404102162
:100980000D4801F0C5F84FF400510B4801F0B7F8DD
:10099000012801D144F001041021074801F0BAF800
:1009A000022002F0CBFC6D1C0D2DE4DB102102486F
:1009B00001F0AEF8204670BD000802407FB500216E
:1009C0004C4805F042FC4C480088C0F308004B49F5
:1009D0000860494800680968401A494908600020D1
:1009E000484908600221282000F0E0FE0221302062
:1009F00000F0DCFE0221382000F0D8FE0221402069
:100A000000F0D4FE0221482000F0D0FE0221502048
:100A100000F0CCFE00243DE0002014237F222121A1
:100A2000009002F061FF6420604335490968B0FB23
:100A3000F1F6324634A101A8FFF73EFC7F220021E7
:100A400001A8FFF74BFE06460120314B01AA2121E8
:100A50000090304603F0DEF92E4B4FF400722E4921
:100A6000244805F007FE2D490870002507E02A4AB2
:100A700051592B4A2244501900F00AFF2D1DB5F59B
:100A8000007FF4D31F48006800F500701D4908601E
:100A900004F500741A4800688442BDD31D4B174802
:100AA0001D490268134805F0E5FD1C4908700AE07D
:100AB00012480068401C11490860FF210F48006877
:100AC000401E154A11540D48007800F0030000281C
:100AD000EED1002409E0104A11590A4A1268104B5D
:100AE0001A44101900F0D4FE241D04480068844202
:100AF000F1D37FBDC41D00200000002008000020AD
:100B0000040000200C0000202564252500000000C2
:100B10008C1D002014000020EC2D0020110000206E
:100B20000000020870B506460C4604F080008028DC
:100B300008D104F07F0000EB800106F58E7000EB19
:100B4000C10507E004F07F0000EB800106F55D7051
:100B500000EBC10504F07F00287004F08000C0099C
:100B600068702946304604F0C9FC002070BD70B59D
:100B700006460C4604F08000802808D104F07F006F
:100B800000EB800106F58E7000EBC10505E004EB7B
:100B9000840106F55D7000EBC1050020A87004F02B
:100BA0007F002870C4F3C01068702946304604F0F6
:100BB0007DFC002070BD70B505460C4604F0800039
:100BC000802805D104F07F01284604F091FE02E060
:100BD000284604F067FE002070BD2DE9F04106466E
:100BE0000D4690461F4605F08000802808D105F08C
:100BF0007F0000EB800106F58E7000EBC10407E07A
:100C000005F07F0000EB800106F55D7000EBC1048C
:100C100005F07F00207005F08000C0096070C4F806
:100C20000880E770607808B12078E080022F01D159
:100C3000002020712146304604F0ECFB0020BDE886
:100C4000F0812DE9F04105460E461746984606F01C
:100C50007F0000EB800105F55D7000EBC104E760EB
:100C6000C4F814800020A061607006F07F0020703E
:100C7000E878012800D12761207820B9214628464C
:100C800004F0ECFA03E02146284604F098FC00202A
:100C9000BDE8F08108B500220092009A61F30A12C3
:100CA000009202691268009B1A4303691A6008BD2A
:100CB00070B506460C4604F08000802808D104F088
:100CC0007F0000EB800106F58E7000EBC10505E0AA
:100CD00004EB840106F55D7000EBC1050120A870EE
:100CE00004F07F002870C4F3C010687029463046B5
:100CF00004F033FC002070BD2DE9F04107460D469D
:100D00001646984605F07F0000EB800107F58E70CF
:100D100000EBC1040120607005F07F002070E660E8
:100D200026610020A061C4F81480207820B92146F3
:100D3000384604F093FA03E02146384604F03FFCBD
:100D40000020BDE8F0811CB50446204604F051FAAD
:100D5000E068C0680090204604F0F4FD03280BD141
:100D60000020A0704FF40070A080009820F4705014
:100D700000F51050009009E00120A0704020A080F4
:100D8000009820F4705000F5A05000900098E168A1
:100D9000C86000200190019820F4005000F5005038
:100DA00001900198E168486101201CBDF8B5054635
:100DB000002400200090284604F003FE064690E040
:100DC00006F0010000287DD0E1B2284600F002FBC9
:100DD0000090009800F0010030B3012000FA04F701
:100DE0002869406BB8432969486300200090009847
:100DF00020F00100401C009005F1180050F824007C
:100E000000998160E1B239480068426828469047FD
:100E1000E878012808D13CB940F21110405D04285F
:100E200002D1284604F0C5FA0098C0F3C00060B1B2
:100E300000200090009820F008000830009005F194
:100E4000180050F82400009981600098C0F3001049
:100E500060B100200090009820F010001030009049
:100E600005F1180050F82400009981600098C0F343
:100E7000801060B100200090009820F040004030C9
:100E8000009005F1180050F8240000998160009846
:100E9000C0F3400060B100200090009820F00200F4
:100EA000801C009005F1180050F824000099816022
:100EB0000098C0F3C01028B12146284600F09EFAE1
:100EC000002000E00BE00090009820F080008030CF
:100ED000009005F1180050F8240000998160641C0E
:100EE0007608002E7FF46CAF0120F8BDD4000020FE
:100EF0007CB50446002500200190204604F069FDE1
:100F000006466FE006F00100002869D0E9B22046ED
:100F100004F067FD0190019800F00100C8B30020C3
:100F20000190019820F00100401C019004F1540050
:100F300050F8250001998160E078012817D104F16B
:100F4000540050F825000069009005EB850104F578
:100F50005D7000EBC10080680099C1F31201411A75
:100F600005EB850204F55D7000EBC2008161E9B21A
:100F70001E480068026820469047E078012808D1A2
:100F80003DB940F21110005D052802D1204604F061
:100F900010FA0198C0F3400060B100200190019860
:100FA00020F00200801C019004F1540050F825004C
:100FB000019981600198C0F3C00088B10B480068B6
:100FC00081682046884700200190019820F00800A1
:100FD0000830019004F1540050F825000199816017
:100FE0006D1C7608002E8DD101207CBDD400002020
:100FF0003EB50446A07A70B1D4F80C010090009878
:1010000020F002000090009820F00100009000996C
:10101000D4F80C01016000200190019820F001003B
:10102000401C01902069406801998843216948600B
:10103000084800688169204688470020029002988D
:1010400020F0004000F1004002900298E168486101
:1010500001203EBDD40000207CB504460020019054
:10106000019820F0100010300190E068806901992B
:101070008843E1688861E068006A0090009800F0A9
:101080000F0000EB800104F55D7000EBC1050098D6
:10109000C0F3434007282DD2DFE800F02C04051DE3
:1010A0001E2C1F0027E00098C0F30A1090B1009892
:1010B000C0F30A122046E96804F09DFCE868009934
:1010C000C1F30A110844E860A8690099C1F30A1144
:1010D0000844A8610FE00EE00DE0082204F2CC51B4
:1010E000204604F088FCA8690099C1F30A1108445D
:1010F000A86100E000BF00BFE06880690199084373
:10110000E168886101207CBD38B504460848006864
:10111000C1682046884700200090009820F0080011
:10112000083000900098E1684861012038BD000057
:10113000D40000201FB50446002000904FF48970B1
:10114000005D009023480068416920468847206977
:101150008068019000200390039820F4006000F55F
:10116000006003900398E1684861A07A70B3019829
:1011700000F0010050B340F21510005D012825D1A8
:101180009DF80000032821D100200290029820F051
:101190000100401C0290D4F80C0100680299084339
:1011A000D4F80C110860029820F00200801C029014
:1011B000D4F80C01006802990843D4F80C110860B7
:1011C0000548006840F0060003490860012004B0AB
:1011D00010BD0000D400002010ED00E030B587B055
:1011E0000446002002900690059004900390019020
:1011F000029820F00100401C02902069406802998A
:101200008843216948600021204604F071FB0025D5
:101210000BE0FF2104F1180050F82500816004F173
:10122000540050F8250081606D1C6078A842F0D809
:101230004FF0FF312069816106986FF30F00401C69
:101240000690069880B200F58030069006992069D5
:10125000C161059820F0080008300590059820F03D
:101260000100401C0590059820F00200801C0590AC
:10127000059920694161049820F00100401C049008
:10128000049820F0080008300490049820F0020030
:10129000801C049004992069016120690068039012
:1012A000039820F4FE6003900399206901602046B2
:1012B00004F07FF800200190019820F4805000F5A0
:1012C000805001900198E168486104480068016914
:1012D00020468847012007B030BD0000D400002020
:1012E0002DE9F04106460F463946304604F098FB9A
:1012F00001214FF4897081550021801C8155002502
:1013000011E005EB850106F58E7000EBC1040120AC
:1013100060702570E5800020E0704020A060002013
:10132000E06060616D1C7078A842EAD8002510E08A
:1013300005EB850106F55D7000EBC10400206070CF
:101340002570E580E0704020A0600020E0606061D2
:101350006D1C7078A842EBD8304603F039FF304658
:1013600003F066FD0021304604F0C2FB304603F076
:10137000F2FD304604F085FABDE8F08138B5044648
:101380000020009007480068C169204688470098FF
:1013900020F4801000F5801000900098E16848610A
:1013A000012038BDD400002038B50446002000904C
:1013B00007480068016A20468847009820F400101A
:1013C00000F5001000900098E1684861012038BDE8
:1013D000D400002030B5024615692B6915696C6B85
:1013E00024FA01F505F0010543EAC51302F11805D9
:1013F00055F82150AD6805EA030030BD2DE9F843EA
:1014000007460E4600250020009006EB860107F5F2
:101410008E7000EBC104D4E90501451AA068A8420A
:1014200000D2A568E81C4FEA900807F1180050F8B0
:101430002600806900901BE0D4E90501451AA068E8
:10144000A84200D2A568E81C4FEA9008ABB2F2B2FD
:101450003846E16804F073FBE0682844E060A06966
:101460002844A06107F1180050F826008069009018
:10147000009880B2404506D9D4E90510884202D2CE
:1014800060690028D8D10120BDE8F88310B50D4966
:101490000D4800F0FBF8A0B10A490B4800F01AF81B
:1014A00000BF0A490A4800F055FB0028F9D0012185
:1014B000074800F0B9FB0021034800F025F802F0CE
:1014C000D1FC10BD00800028B860024084000700F5
:1014D000005800400246094B9A4201D2084801E0F8
:1014E0000648103801F000531BB1064B0B40C36097
:1014F00002E0044B0B408360704700001064024020
:10150000006002407D0F7D0F21B1026842F00102B0
:10151000026003E0026822F00102026070470000EE
:10152000016821F0010101600021016041608160DA
:10153000C1600161212141614A49884204D13D21B4
:10154000484A103A91608CE046491831884205D1EA
:101550004FF47461434A103A916082E0414930315E
:10156000884205D14FF474113E4A103A916078E0F8
:101570003C494831884205D14FF07461394A103AEC
:1015800091606EE037496031884204D13649354A6E
:10159000103AD16065E033497831884204D133494B
:1015A000304A103AD1605CE02E499031884204D133
:1015B0002F492C4A103AD16053E02A49A831884279
:1015C00005D14FF03D51274A103AD16049E02949F1
:1015D000884204D13D21274A083A116041E025495B
:1015E0001831884205D14FF47461224A083A1160DB
:1015F00037E020493031884205D14FF474111D4A3B
:10160000083A11602DE01B494831884205D14FF05E
:101610007461184A083A116023E016496031884223
:1016200004D11149134A121F11601AE0114978318F
:10163000884204D10D490F4A121F116011E00D4973
:101640009031884204D10A490A4A121F116008E009
:101650000849A831884204D14FF03D51054A121F74
:1016600011607047106002403D000020400F0020D4
:1016700000003D2010640240014600200A6802F08C
:1016800001020AB1012000E00020704770B5024657
:10169000002000240025124EB24201D2114B01E07D
:1016A0000F4B103B104E0E4036B11E2606EAD124D9
:1016B000166806EA040502E0566906F0800501F0A6
:1016C00000560EB15C6800E01C68084E344004EA25
:1016D000010616B10DB1012000E0002070BD000030
:1016E00010640240006002403C0F3C0F7D0F7D0FF4
:1016F00010B501F080034BB122B1436943F0800380
:10170000436103E0436923F08003436180290BD0E8
:101710002AB1036801F01E042343036004E0036858
:1017200001F01E04A343036010BD000010B50022A9
:101730000268134B1A40CC680B6823434C6923435F
:101740008C692343CC6923430C6A23434C6A2343AB
:101750008C6A23434C6B23438C6B23431A430260F4
:10176000426922F00702D1E90B3423431A43426154
:101770000B6943604B6883608B68C36010BD0000D9
:101780003F801CF041607047002101604160816032
:10179000C160016141618161C16101624162816237
:1017A000C1620163416381637047704770B504464D
:1017B0000A460026082502B909E0012A01D11602CD
:1017C00005E0022A01D1160201E04FF4407600F054
:1017D00099F80546082D28D11548006820F4407076
:1017E00013490860084600683043086008460068EE
:1017F00020F0F80008600846006844F00201084341
:101800000B4908600846006840F48030086000F02A
:1018100079F805460648006820F00200044908608F
:101820000846006820F0F8000860284670BD0000F7
:10183000103C024008201049096801F48031B1F5DC
:10184000803F01D1012015E00B49096801F010012A
:1018500009B105200EE00849096801F0EF0109B15E
:10186000062007E00449096801F0020109B10720D8
:1018700000E00820704700000C3C0240034800686C
:1018800040F000400149086070470000103C0240F1
:1018900030B502460C46082500F034F80546082D00
:1018A00019D10E48006820F440700C4908600846C1
:1018B000006840F4007008600846006840F00100CD
:1018C0000860146000F01EF805460448006820F027
:1018D000010002490860284630BD0000103C02406B
:1018E0000548006800F0004028B1044802490C395E
:1018F0000860034808607047103C024023016745B8
:10190000AB89EFCD08B508200090FFF793FF00905A
:1019100002E0FFF78FFF00909DF800000128F8D04B
:101920009DF8000008BD000010B50446354884420B
:1019300008D10121084600F0E5FC0021012000F05B
:10194000E1FC5EE03048844208D10121022000F031
:10195000D9FC0021022000F0D5FC52E02B48844243
:1019600008D10121042000F0CDFC0021042000F06A
:10197000C9FC46E02648844208D10121082000F035
:10198000C1FC0021082000F0BDFC3AE0214884425F
:1019900008D10121102000F0B5FC0021102000F03A
:1019A000B1FC2EE01C48844208D10121202000F027
:1019B000A9FC0021202000F0A5FC22E01748844269
:1019C00008D10121402000F09DFC0021402000F0C2
:1019D00099FC16E01248844208D10121802000F0D1
:1019E00091FC0021802000F08DFC0AE00D4884422B
:1019F00007D10121801500F085FC0021A01500F021
:101A000081FC10BD000002400004024000080240BA
:101A1000000C024000100240001402400018024076
:101A2000001C024000200240F0B50A4600210023BD
:101A3000002400BF3DE0012505FA01F3156805EA21
:101A400003049C4234D105684F000326BE40B543D1
:101A5000056015794E00B540066835430560157977
:101A6000012D02D01579022D16D185684F0003266D
:101A7000BE40B543856055794E00B5408668354314
:101A80008560456801268E40B54345604568967976
:101A90008E40B6B235434560C5684F000326BE4050
:101AA000B543C560D5794E00B540C6683543C560BD
:101AB000491C1029BFD3F0BDF0B5002300244D0709
:101AC000ED0E02FA05F3CE1000F1200555F8265070
:101AD0004E07F70E0F26BE40B543CF1000F120068B
:101AE00046F82750CE1000F1200555F8265045EA5B
:101AF0000304CE1000F1200545F82640F0BD024653
:101B0000002013690B400BB1012000E0002070475A
:101B100041837047018370474FF6FF7101600021D8
:101B2000017141718171C1717047000070B5064843
:101B300044682546054908600146086880F308881E
:101B400000BFA84770BD00000000020808ED00E0DB
:101B500000BFFEE770B502460024002500230020E8
:101B6000958A138B1B0445EA030626F07F4404EA9A
:101B700001068E4201D1012000E0002070BD21B19C
:101B8000028842F00102028004E002884FF6FE73F0
:101B90001A400280704721B1828842F4006282803C
:101BA00004E082884FF2FF731A4082807047000081
:101BB00010B504461348844209D10121480500F0BC
:101BC000D1FB00214FF4001000F0CCFB18E00E48D0
:101BD000844209D10121880500F0C4FB00214FF4A3
:101BE000800000F0BFFB0BE00848844208D10121CF
:101BF000C80500F0B7FB00214FF4000000F0B2FB75
:101C000010BD00000054004000580040005C00403F
:101C100021B1028842F48072028004E002884FF60B
:101C2000FF631A400280704721B1028842F40072BB
:101C3000028004E002884FF6FF531A40028070478A
:101C40000CB50246002000230193009300920B0F75
:101C5000019321F07F41019B1BB1009B1433009342
:101C600003E0090C009B18330093009B1B680B409A
:101C70000BB1012000E000200CBD00002DE9FF4762
:101C800004460D460026B1460427DFF8CC80A6881E
:101C90004FF6C0700640684600F094FBDDF80880FF
:101CA0002E48B8FBF0F01FFA80F946EA0906A68034
:101CB00020884FF6FE7108402080002628492868B9
:101CC00088420CD828684000B8FBF0F087B2042F97
:101CD00000DA04273E4309F10100208427E0E88868
:101CE0004BF6FF71884206D1286800EB4000B8FB34
:101CF000F0F087B209E0286800EBC00101EB0010AA
:101D0000B8FBF0F087B247F48047C7F30B0008B97F
:101D100047F0010747F4004006434FF4967009FB73
:101D200000F04FF47A7190FBF1F0401C2084A68300
:101D3000208840F00100208026884FF6F5300640CC
:101D4000A8886989084306432680A8892989084309
:101D50002081BDE8FF87000000127A0040420F009A
:101D6000A086010012B141F0010101E001F0FE0185
:101D7000018270470182704741F288310160002181
:101D800081804BF6FF71C1800021018141814FF4B8
:101D9000804181817047000010B590B02748FFF75F
:101DA000BFFB00BF2548FFF767FC0028FAD101A858
:101DB000FFF7EAFC4FF06060019021480290214853
:101DC000039000200A900B904020049040F20140C4
:101DD0000590002006904FF4806007900020089046
:101DE00009900C900D900E900F9001A91348FFF7E9
:101DF0009DFC012210211148FFF77AFC2F200321BE
:101E0000002807DA0A07140E0F4A00F00F031B1F01
:101E1000D45403E00A07130E0C4A135400BF2F20BA
:101E200000F01F02012191404209920002F1E022DC
:101E3000C2F8001100BF10B010BD0000B860024031
:101E400010580040AC56002018ED00E000E400E01F
:101E500010B504460D48007B48B90C48806830B185
:101E60000B48007818B901212046FEF721FF812197
:101E70002046FEF71DFF06480078022805D11F23E3
:101E8000024A01212046FEF7DCFE10BD5C56002010
:101E9000E900002010B504462B4840682B494860F3
:101EA0002948806888600121204602F0FEF91F2839
:101EB00010D125480068264988420BD12248407B32
:101EC000012807DC2048807B012803DB1E48807B3B
:101ED00010280CDD1C49487B2022052100F0E0FD84
:101EE00002201C4908702046FFF7B2FF2AE016487E
:101EF000417B00F10F02204600F04AFB002803DA84
:101F00002046FFF7A5FF1DE013480078022819D0EE
:101F100011480078012815D00F480078032811D007
:101F20000E480088002806DD0C4802880C4920462F
:101F300000F0E0F806E00948008818B900212046C2
:101F400000F0B8F810BD00005C5600207C56002060
:101F500055534243E9000020E8000020E60000203D
:101F60005C46002070B505460C460C4800780228F7
:101F700007D181212846FEF79BFE00200749087003
:101F80000BE004F08000802807D104480078012885
:101F900003D00121284600F08DF870BDE900002033
:101FA00070B504460D4610480078022804D0032876
:101FB00011D0042814D10DE00C48417B00F10F0230
:101FC000204600F0E5FA002803DA0121204600F05F
:101FD00071F806E000BF0021204600F06BF800E039
:101FE00000BF00BF70BD0000E80000205C5600206C
:101FF00070B504460D460D48007810B1012812D185
:1020000003E02046FFF746FF0EE00948417B00F160
:102010000F02204600F0BCFA002803DA0121204616
:1020200000F048F800E000BF00BF70BDE8000020ED
:102030005C5600200021014A11707047E800002022
:1020400010B5044600200C4908700C4908700C4873
:10205000006801680020884701212046FEF7ABFD9B
:1020600081212046FEF7A7FD1F23064A01212046B5
:10207000FEF7E7FD10BD0000E8000020E9000020A9
:102080007C0000205C56002010B504460020064964
:1020900008700120054908701F23054A01212046C8
:1020A000FEF7CFFD10BD0000E8000020E900002091
:1020B0005C56002070B505460C460A480A4908607F
:1020C000084604730020094908700D23064A81213F
:1020D0002846FEF711FE1F23054A01212846FEF778
:1020E000B0FD70BD555342537C560020E8000020DF
:1020F0005C56002070B506460D4614460C488068B4
:10210000A04202D20A48806800E0204684B2094812
:102110008068001B07498860002008730420064976
:10212000087023462A4681213046FEF7E5FD70BD42
:102130005C5600207C560020E800002000BFFEE72F
:102140007047000000F01F0201219140024A43093C
:1021500042F823107047000080E100E070B50021D4
:1021600000230F22C4781CB3174C246804F4E064E5
:10217000C4F5E064C4F30721C1F10404E3B20A41E9
:1021800044789C40E1B28478144021430C07210E2E
:102190000E4C05786155047804F01F050124AC400D
:1021A00005786D11AD0005F1E025C5F8004109E0A5
:1021B000047804F01F050124AC40054D0678761123
:1021C00045F8264070BD00000CED00E000E400E0A2
:1021D00080E100E002490143024A116070470000BB
:1021E0000000FA050CED00E0024A0A400243024BEF
:1021F0001A60704780FFFF1F08ED00E010B502482D
:1022000002F0B8F910BD00001C400020704700002B
:1022100010B52C4801F080FF2F20FFF793FF00221C
:1022200010212948FFF764FA10212748FFF752F9D7
:1022300000212548FFF768F92348FFF771F90021CD
:102240002248FFF7A8FC01F075FD00211F48FFF7A9
:1022500096FC1E48FFF7ACFC00214FF4001000F084
:1022600041F800214FF4800000F03CF84FF4007179
:102270001748FFF74FFC00214FF4805000F082F820
:10228000144800F029FD1248FFF74EFB1248FFF7F3
:102290004BFB1248FFF748FB0021114801F0C7F83B
:1022A000002201210E4801F0A8F91820FFF74AFF8B
:1022B00001210B4801F0B8F8094801F0C5F8FFF713
:1022C000DDFA10BD1C400020B860024000580040FC
:1022D00000040240003001400008024000000240BB
:1022E0000040014029B1064A12680243044B1A60BB
:1022F00004E0034A12688243014B1A6070470000F1
:102300003038024029B1064A12680243044B1A6071
:1023100004E0034A12688243014B1A6070470000D0
:102320001038024029B1064A12680243044B1A6071
:1023300004E0034A12688243014B1A6070470000B0
:102340003438024029B1064A12680243044B1A602D
:1023500004E0034A12688243014B1A607047000090
:102360004038024029B1064A12680243044B1A6001
:1023700004E0034A12688243014B1A607047000070
:102380002038024029B1064A12680243044B1A6001
:1023900004E0034A12688243014B1A607047000050
:1023A0004438024029B1064A12680243044B1A60BD
:1023B00004E0034A12688243014B1A607047000030
:1023C00024380240F0B50021002200240225002616
:1023D0000223324F3F6807F00C0121B1042905D0D8
:1023E000082937D105E02E4F076036E02D4F0760F2
:1023F00033E02A4F3F1F3F68C7F38056274F3F1FE8
:102400003F6807F03F036EB1264FB7FBF3F7DFF8E5
:102410008CC0ACF1040CDCF800C0CCF3881C07FBCA
:102420000CF40CE01E4FB7FBF3F7DFF870C0ACF113
:10243000040CDCF800C0CCF3881C07FB0CF4174F2D
:102440003F1F3F68C7F301477F1C7D00B4FBF5F7D2
:10245000076002E0124F076000BF00BF0F4F3F68E8
:1024600007F0F0010909104F7A5C0768D740476010
:102470000A4F3F6807F4E051890A0B4F7A5C4768BE
:10248000D7408760054F3F6807F46041490B064F0E
:102490007A5C4768D740C760F0BD0000083802404A
:1024A0000024F40000127A005401002070B50646A2
:1024B0000C461546601907490968884207D9212248
:1024C0000521304600F0ECFA4FF0FF3070BD0020DF
:1024D000FCE700004401002030B504460A4650786D
:1024E00000F0010010B10E4B07210CE00D48006810
:1024F000C06904EBC40500EB85031879411D107910
:10250000884200DC11790848018004E0481E81B24D
:10251000585C064D68540029F8D1002030BD0000F9
:10252000947500087C000020E60000205C46002036
:1025300010B502460B4608210648018005E0481EFA
:1025400081B20548405C054C60540029F7D1002059
:1025500010BD0000E6000020A37500085C460020C6
:1025600010B502460B4608210648018005E0481ECA
:1025700081B20548405C054C60540029F7D1002029
:1025800010BD0000E60000209B7500085C4600209E
:1025900070B505460E461446384805602078232855
:1025A0004AD00DDC1A283DD005DCB0B1032819D083
:1025B00012285AD11BE01B281ED01E2855D120E01E
:1025C0002A2848D004DC25283BD028284DD13DE0DE
:1025D0002F2845D05A2848D129E02146304600F01E
:1025E00085FA70BD2146304600F00EFAF9E7214623
:1025F0003046FFF771FFF4E72146304600F06EFAEF
:10260000EFE7207900F0030020B92146304600F0C2
:1026100065FAE6E720220521304600F041FA4FF046
:10262000FF30DEE721463046FFF79AFFD9E7214623
:102630003046FFF77DFFD4E72146304600F0A0F991
:10264000CFE72146304600F055F9CAE7214630462B
:1026500000F0D8F8C5E72146304600F097FAC0E709
:102660002146304600F06AFABBE7202205213046B9
:1026700000F016FA4FF0FF30B3E7000050010020E1
:102680002DE9F041054624480068B0F5805F02D28C
:102690002148006801E04FF4805004461F4800685C
:1026A000B4FBF0F086B21E4800681C490968B0FB14
:1026B000F1F71C48006833463A461B49D0F810C071
:1026C0002846E047002808DA11220421284600F0B5
:1026D000E7F94FF0FF30BDE8F0812346124A81212F
:1026E00012480068FEF708FB0D48006820440C49BA
:1026F000086009480068001B074908600C488068AA
:10270000001B0B4988600448006810B90320094980
:1027100008700020DFE700004C010020400100208D
:10272000480100207C0000205C4600205001002071
:102730007C560020E80000202DE9F04105462A489B
:102740000068B0F5805F02D22748006801E04FF4CE
:102750008050044625480068B4FBF0F086B2244857
:10276000006822490968B0FBF1F722480068334647
:102770003A462149D0F814C02846E047002808DA34
:1027800003220421284600F08BF94FF0FF30BDE80A
:10279000F081174800682044154908601248006815
:1027A000001B1149086015488068001B13498860A8
:1027B0000D48006828B9002111480068FFF77AFC2D
:1027C00010E009480068B0F5805F02D20648006852
:1027D00001E04FF4805083B2074A012108480068A5
:1027E000FEF72FFA0020D2E74C0100204001002024
:1027F000480100207C0000205C4600207C56002020
:102800005001002070B505460C463348007800287A
:102810005AD13248007B00F08000802808D02F4930
:10282000487B2022052100F03BF94FF0FF3070BDBE
:102830002B48006881682846884738B13A2202212F
:10284000284600F02DF94FF0FF30F0E7A0780006A1
:10285000E17840EA0140217940EA012061790843AA
:1028600020490860207AE17940EA01201E49086089
:102870000846008882B21B4801682846FFF716FE0A
:10288000002802DA4FF0FF30D1E702201249087029
:1028900014480068154909684843124908601248FD
:1028A00000681249096848430F4908600B4880686E
:1028B0000968884208D00949487B2022052100F098
:1028C000EFF84FF0FF30B2E74FF48050084908802E
:1028D0002846FFF7D5FEAAE7E80000205C56002056
:1028E0007C000020480100204C0100204001002015
:1028F000E600002070B504460D461C4800681C4ADE
:102900001C4943682046984738B13A2202212046A4
:1029100000F0C6F84FF0FF3070BD16480068401E4A
:10292000000E1549087013480068401E000C4870DE
:1029300010480088401E000A88700E480078401E2B
:10294000C8700B480068000E087109480068000C48
:10295000487107480088000A887105480078C871E6
:102960000820064908800020D6E700007C000020EF
:1029700040010020440100205C460020E6000020C9
:102980007CB505460E46002404E000201B4908558E
:10299000601C84B20C2CF8DB1948006801AA694657
:1029A00043682846984738B13A220221284600F069
:1029B00077F84FF0FF307CBD08201049C8700098B0
:1029C000401E000E08710098401E000C48710098CF
:1029D000401E000A88710098401EC87102200872CB
:1029E0000198000C48720198000A88720198C87218
:1029F0000C20044908800020DDE700005C46002030
:102A00007C000020E600002010B50346002204E010
:102A100000201E4CA054501CC2B2122AF8DB7020B9
:102A20001A4C20700C20E07119480078194C247859
:102A3000A04221D01848164C247810F83400134CCA
:102A4000A0701548124C247800EBC40040790F4C5C
:102A5000207311480E4C247800EBC40000790B4C15
:102A600060730B480078401C094C207020460078A9
:102A7000042801D1002020701220084C2080087901
:102A8000122801DC08792080002010BD5C4600205F
:102A90003C0100203D0100208C560020E600002073
:102AA00030B50C4B0C4C247803F834101302094C4D
:102AB000094D2D7804EBC5046360074B1B785B1C44
:102AC000054C237023461B78042B01D1002323706F
:102AD00030BD00008C5600203D0100200246002041
:102AE000014B188070470000E600002070B50446D6
:102AF0000D460F48806840B10D49487B20220521D2
:102B0000FFF7CEFF4FF0FF3070BD0A4800688168C4
:102B10002046884738B13A2202212046FFF7C0FFFD
:102B20004FF0FF30F0E700200349088000BFEBE7DB
:102B30005C5600207C000020E600002070B50546B1
:102B40000C46607800F00200022807D124220521FB
:102B50002846FFF7A5FF4FF0FF3070BD08480088FA
:102B600082B2084801682846FFF7A0FC002802DA74
:102B70004FF0FF30F1E700200349088000BFECE789
:102B80004C01002048010020E600002070B50546F9
:102B90000C464348007800287BD14248007B00F077
:102BA0008000802808D13F49487B20220521FFF77B
:102BB00077FF4FF0FF3070BD3B48006881682846C2
:102BC000884738B13A2202212846FFF769FF4FF0C3
:102BD000FF30F0E734480068C1682846884738B1BC
:102BE000272202212846FFF75BFF4FF0FF30E2E784
:102BF000A0780006E17840EA0140217940EA01200E
:102C00006179084329490860207AE17940EA012086
:102C1000274908600846008882B22448016828468F
:102C2000FFF744FC002802DA4FF0FF30C3E71F48EB
:102C300000682049096848431C4908601C4800682E
:102C40001C49096848431A490860164880680968A1
:102C5000884208D01349487B20220521FFF720FF36
:102C60004FF0FF30A7E701200D49087010480068B9
:102C7000B0F5805F03D20E48006802E009E04FF42F
:102C8000805083B20C4A01210C480068FDF7D9FF3F
:102C900003E02846FFF750FD8DE700208BE700009A
:102CA000E80000205C5600207C0000204801002045
:102CB0004C010020400100205C4600205001002013
:102CC00021B1028842F04002028004E002884FF6FF
:102CD000BF731A400280704710B504461148844201
:102CE00008D101218014FFF75DFB0021A014FFF73C
:102CF00059FB16E00C48844208D101210014FFF76B
:102D000031FB00212014FFF72DFB0AE00748844225
:102D100007D10121C013FFF725FB0021E013FFF7C6
:102D200021FB10BD0030014000380040003C004055
:102D30000246002013890B400BB1012000E0002067
:102D400070470146888970478181704710B500221D
:102D5000028802F441520B884C8823438C88234319
:102D6000CC8823430C8923434C8923438C892343F8
:102D7000CC8923431A430280838B4FF2FF74234094
:102D800083830B8A038210BD4FF6FF62914204D009
:102D9000028842F48072028004E002884FF6FF63EA
:102DA0001A40028070470021018041808180C180EB
:102DB000018141818181C181072101827047000029
:102DC00070B505462C034FF400711148FEF7A0FEC4
:102DD000202000F061F8C4F3074000F05DF8C4F370
:102DE000072000F059F8E0B200F056F84FF40071F7
:102DF0000748FEF78FFE00BF80210648FFF798FFC7
:102E00000128F9D000BF00F007F80028FBD170BD01
:102E1000000402400030014010B500F003F800F05B
:102E2000010010BD10B500244FF400710B48FEF7EF
:102E30006FFE052000F030F800F014F8C4B24FF433
:102E400000710648FEF766FE00BF80210448FFF7C8
:102E50006FFF0128F9D0204610BD00000004024099
:102E60000030014010B500BF02210A48FFF760FFA3
:102E70000028F9D000210748FFF766FF00BF0121B5
:102E80000448FFF755FF0028F9D00248FFF759FF23
:102E900010BD00000030014010B5044600BF022103
:102EA0000948FFF745FF0028F9D021460648FFF7FB
:102EB0004BFF00BF01210448FFF73AFF0028F9D07B
:102EC0000148FFF73EFF10BD0030014010B54FF440
:102ED00000710C48FEF71CFE0420FFF7DDFF4FF4E5
:102EE00000710848FEF716FE00BF80210648FFF774
:102EF0001FFF0128F9D000BFFFF78EFF0028FBD18C
:102F000010BD0000000402400030014010B54FF435
:102F100000710C48FEF7FCFD0620FFF7BDFF4FF4E3
:102F200000710848FEF7F6FD00BF80210648FFF754
:102F3000FFFE0128F9D000BFFFF76EFF0028FBD18C
:102F400010BD0000000402400030014070B504468E
:102F50000D46FFF7DBFF4FF400711348FEF7D8FD75
:102F60000220FFF799FFC4F30740FFF795FFC4F372
:102F70000720FFF791FFE0B2FFF78EFF2846FFF72B
:102F80008BFF4FF400710848FEF7C4FD00BF80219D
:102F90000648FFF7CDFE0128F9D000BFFFF73CFF40
:102FA0000028FBD170BD0000000402400030014049
:102FB00010B50446FFF7AAFF4FF400710D48FEF765
:102FC000A7FD0120FFF768FF2046FFF765FF4FF4DC
:102FD00000710848FEF79EFD00BF80210648FFF7FC
:102FE000A7FE0128F9D000BFFFF716FF0028FBD18C
:102FF00010BD0000000402400030014000B587B061
:1030000001210220FFF76EF905A8FEF785FD3820A3
:10301000059002208DF8180000208DF81A0001207C
:103020008DF81B0002208DF8190005A93348FEF722
:10303000FBFC05A8FEF770FD4FF4407005900120E1
:103040008DF8180000208DF81A0001208DF81B0063
:1030500002208DF8190005A92848FEF7E5FC052295
:1030600003212648FEF728FD052204212348FEF708
:1030700023FD052211462148FEF71EFD4FF4007185
:103080001E48FEF747FD4FF480711C48FEF742FDD5
:1030900001210803FFF776F91948FFF71DFE68467E
:1030A000FFF781FE0020ADF800001020ADF80C0005
:1030B0004FF48270ADF802000020ADF80400022049
:1030C000ADF806000120ADF808000020ADF80E00B4
:1030D0004FF40070ADF80A0069460948FFF736FE64
:1030E00001210748FFF7ECFD4FF480710448FFF71A
:1030F0004BFE0020FFF75CFF07B000BD000402405C
:10310000003001402DE9F04104460E4617460025E7
:103110004FF400711548FEF7FBFC0320FFF7BCFEDF
:10312000C4F30740FFF7B8FEC4F30720FFF7B4FE6F
:10313000E0B2FFF7B1FE03E0FFF794FE70556D1C9F
:10314000BD42F9D34FF400710848FEF7E3FC00BF1D
:1031500080210748FFF7ECFD0128F9D000BFFFF7F9
:103160005BFE0028FBD1BDE8F081000000040240B6
:10317000003001402DE9F04105460E461746002477
:1031800008E006EB04312A1910034FF48052FFF7D0
:10319000B9FF641CBC42F4D3BDE8F0812DE9F041D5
:1031A00006460F469046FFF7B1FE002411E03019A5
:1031B000FFF706FE002508E005EB0432B95C321982
:1031C00005EB0230FFF7C2FE6D1CB5F5805FF3DB47
:1031D000641C4445EBD3FFF779FEBDE8F08103465C
:1031E000782008604FF48050106000207047002065
:1031F000704710B50446FEF773FB002010BD014672
:10320000002070470146002070472DE9F041074635
:103210000E4614461D46A01C2A463146FFF7AAFF5B
:103220000020BDE8F0812DE9F04107460E46144626
:103230001D46A01C2A463146FFF7B0FF0020BDE81E
:10324000F08170470CB50020019000903448006870
:1032500040F480303249086000BF3148006800F413
:10326000003000900198401C0190009818B9019816
:10327000B0F5A06FF1D12A48006800F4003010B119
:103280000120009001E0002000900098012846D124
:1032900023484030006840F08050214940310860A8
:1032A0002048006840F440401E4908601C4808302F
:1032B00000681B49083108600846006840F4004077
:1032C00008600846006840F4A05008601648091FCE
:1032D0000860081F006840F08070091F086000BF88
:1032E0000F48006800F000700028F9D040F2056037
:1032F0000E4908600A480830006820F003000849B9
:10330000083108600846006840F00200086000BF0D
:1033100003480830006800F00C000828F8D10CBD04
:10332000003802400070004008544007003C024052
:103330000148007870470000A200002001B500BFDE
:103340000098411E00910028FAD108BD7047000086
:1033500010B51548006840F4700013490860134820
:10336000006840F001001149086000200F49083151
:1033700008600E4800680E4908400C4908600D4876
:10338000091D0860081F006820F48020091F0860DC
:10339000002006490C310860FFF754FF4FF0006031
:1033A00001498039086010BD88ED00E00038024016
:1033B000FFFFF6FE1030002410B50121054800F093
:1033C0000BF928B10121034800F02EF8FDF796FA19
:1033D00010BD00000040014010B501210A4800F076
:1033E000FBF880B10121084800F01EF8074800688A
:1033F00028B106480068401E0449086003E0002127
:10340000014800F014F810BD002000401C0000200E
:1034100021B1028842F08002028004E002884FF667
:103420007F731A4002807047CA430282704721B1FD
:10343000028842F00102028004E002884FF6FE7327
:103440001A4002807047000010B504465548844277
:1034500008D101210846FEF7A5FF00210120FEF753
:10346000A1FF9DE0B4F1804F08D101210846FEF78D
:1034700079FF00210120FEF775FF91E04A48844260
:1034800008D101210220FEF76DFF00210220FEF786
:1034900069FF85E04548844208D101210420FEF7F8
:1034A00061FF00210420FEF75DFF79E0404884427F
:1034B00008D101210820FEF755FF00210820FEF762
:1034C00051FF6DE03B48844208D101211020FEF7F6
:1034D00049FF00211020FEF745FF61E03648844295
:1034E00008D101212020FEF73DFF00212020FEF71A
:1034F00039FF55E03148844208D101210220FEF70E
:1035000051FF00210220FEF74DFF49E02C48844284
:1035100009D101210804FEF745FF00214FF4803056
:10352000FEF740FF3CE02748844209D101214804CE
:10353000FEF738FF00214FF40030FEF733FF2FE095
:103540002148844209D101218804FEF72BFF002184
:103550004FF48020FEF726FF22E01C48844208D169
:1035600001214020FEF7FEFE00214020FEF7FAFE7A
:1035700016E01748844208D101218020FEF7F2FEB0
:1035800000218020FEF7EEFE0AE01248844207D1B7
:1035900001218015FEF7E6FE0021A015FEF7E2FEF0
:1035A00010BD000000000140000400400008004081
:1035B000000C0040001000400014004000040140D6
:1035C0000040014000440140004801400018004014
:1035D000001C00400020004030B5024600200023BF
:1035E0000024158A05EA0103958905EA010413B14F
:1035F0000CB1012000E0002030BD1AB183890B43DB
:10360000838102E083898B43838170470022028893
:10361000184B98420ED0184B98420BD0B0F1804F07
:1036200008D0164B984205D0154B984202D0154B46
:10363000984204D14FF68F731A404B881A43124BAD
:10364000984207D0114B984204D04FF6FF431A40DE
:103650000B891A4302804B68C3620B880385054BB4
:10366000984202D0044B984201D18B7A0386012301
:1036700083827047000001400004014000040040C4
:1036800000080040000C0040001000400014004002
:103690004FF0FF3141600021018001814180817242
:1036A0007047000010B586B0044601210220FEF7E5
:1036B00019FE4FF44060009001208DF806000220B2
:1036C0008DF8040069461848FEF7AEF904220A2175
:1036D0001548FEF7F1F904220B211348FEF7ECF927
:1036E00001218805FEF72EFE1048FEF761FA02A8B8
:1036F000FEF742FB02944FF48040ADF81400002026
:10370000ADF80C00ADF81000ADF812004BF6FF70EC
:10371000ADF80E0002A90548FEF7B0FA01210348F2
:10372000FEF72DFA06B010BD00040240005800401C
:103730002DE9F04104460D4616461F46208840F408
:103740008070208044F620602349086008E0224809
:103750000068401E2049086010B90120BDE8F081D2
:10376000A08A00F001000028F1D01FB1208840F4A9
:1037700080602080A6B925F00100208244F62060F8
:103780001549086007E014480068401E12490860A7
:1037900008B90120E2E7A08A00F002000028F2D078
:1037A000012E15D145F00100208244F620600A491F
:1037B000086007E008480068401E0749086008B92B
:1037C0000120CBE705492046FEF7C4F90028F1D0D7
:1037D000208B0020C2E70000AC1D00200200030087
:1037E000014644F620600D4A106007E00B4800686F
:1037F000401E0A4A106008B901207047888A00F00C
:1038000080000028F2D0888A00F004000028EDD063
:10381000088840F4007008800020EEE7AC1D00200E
:103820002DE9F04106460F4614461D4600231A4670
:1038300039463046FFF77CFF2146304600F009F854
:103840002946304600F005F83046FFF7C9FFBDE8CD
:10385000F08170B504460D4629462046FEF78AFAE7
:1038600070BD00002DE9F04104460D46174698460C
:10387000069E31461348FDF785FF00BF4FF4003127
:103880002046FEF7DDF90028F8D101212046FEF799
:10389000BFF900BF0C492046FEF75CF90028F9D0BB
:1038A000002229462046FEF75DFA00BF0749204660
:1038B000FEF750F90028F9D001210248FDF724FE57
:1038C000BDE8F081B86002400100030082000700FB
:1038D00010B504464FF48062214602480068FCF7A8
:1038E00081FD10BDB01D00202DE9F84305460C46B2
:1038F00017469846DDF82090802D01DA402C01DB38
:10390000BDE8F883E819802802DBC5F1800087B2A2
:1039100004EB0800402803DBC4F140001FFA80F8E4
:1039200000260CE0A01983B2E81982B2A01981B276
:103930002846CDF8009000F006F8701CC6B2464547
:10394000F0DD00BFDCE72DE9FF4F04460D461646CB
:103950001F46802C00DB7F24802E00DB7F26402D3D
:1039600000DB3F25402F00DB3F27B44201DA301B4C
:1039700000E0A01B0FFA80FBBD4201DA781B00E0DB
:10398000E81B0FFA80F9B44201DA012001E04FF0A0
:10399000FF300390BD4201DA012001E04FF0FF301B
:1039A0000290CB4501DD594601E0C9F1000108460E
:1039B00001EBD071491009B20191BBF1000F1ED18A
:1039C000AF4204DA0FFA87FA2F461FFA8AF5A642A9
:1039D00004DA0FFA86FA26461FFA8AF40FFA85F8F7
:1039E00009E01FFA88F120460D9A00F051F808F11D
:1039F00001000FFA80F8B845F3DDBDE8FF8FB9F19B
:103A0000000F1DD1AF4204DA0FFA87FA2F461FFAD2
:103A10008AF5A64204DA0FFA86FA26461FFA8AF4D5
:103A20000FFA84F809E01FFA88F029460D9A00F091
:103A30002FF808F101000FFA80F8B045F3DDDCE75C
:103A400022E0294620460D9A00F022F8B44202D125
:103A5000BD4200D119E001980090CBF1000100981F
:103A6000884207DD0198A0EB090000B2019003989D
:103A7000204484B20098484506DA0198584400B2C0
:103A800001900298284485B2DBE700BF00BFB4E78D
:103A9000F0B503461446802B01DA402900DBF0BD67
:103AA0002348007920B10CB9012000E00020044631
:103AB000012C1ED10846CD1701EB5575ED1003EB17
:103AC000C5151C4E3668755D0A46CE1701EB567655
:103AD000F610A1EBC6070126BE403543EEB2CD1766
:103AE00001EB5575ED1003EBC515124F3F687E5580
:103AF0001CE0CD1701EB5575ED1003EBC5150D4E10
:103B00003668755D0A46CE1701EB5676F610A1EBC6
:103B1000C6070126BE40B5430846CE1701EB5676D0
:103B2000F61003EBC616034F3F68BD5500BFB6E75E
:103B3000B41D0020B01D002010B504460CB90020B3
:103B400000E0FF2002464FF4806102480068FCF765
:103B50008EFC10BDB01D0020014A108051807047BE
:103B6000B41D002010B500216B48FDF7CDFC00BF4F
:103B70006948FDF781FD0028FAD100216748FDF76B
:103B8000FEFF00216548FEF706F86548FFF78AFD4D
:103B9000AE23002278216148FFF742FE00231A4637
:103BA00078215E48FFF73CFE1023002278215B4815
:103BB000FFF736FE4023002278215848FFF730FEF9
:103BC0008123002278215548FFF72AFECF230022C7
:103BD00078215248FFF724FEA023002278214F4885
:103BE000FFF71EFEA623002278214C48FFF718FE9F
:103BF000A823002278214948FFF712FE3F23002224
:103C000078214648FFF70CFED32300227821434851
:103C1000FFF706FE00231A4678214048FFF700FE12
:103C2000D523002278213D48FFF7FAFD80230022AA
:103C300078213A48FFF7F4FDD9230022782137484C
:103C4000FFF7EEFDF123002278213448FFF7E8FD6D
:103C5000DA23002278213148FFF7E2FD1223002207
:103C600078212E48FFF7DCFDDB23002278212B484A
:103C7000FFF7D6FD3023002278212848FFF7D0FD3A
:103C80008D23002278212548FFF7CAFD1423002246
:103C900078212248FFF7C4FD2023002278211F4805
:103CA000FFF7BEFD00231A4678211C48FFF7B8FD38
:103CB000AF23002278211948FFF7B2FDB02300227C
:103CC00078211648FFF7ACFD00231A4678211348E7
:103CD000FFF7A6FD1023002278211048FFF7A0FD72
:103CE0001048FFF72BFB1048FFF7DCFC01210B48C5
:103CF000FDF751FFFEF750F840200C4908700020F6
:103D0000FFF71AFF00F0AEF800200949088048804C
:103D10000120487110BD0000B8600240005800400A
:103D2000A0860100FFFF0F00801A0600AC5600209D
:103D3000B41D002010B5B023002278210748FFF7FA
:103D40006FFD00231A4678210448FFF769FD102310
:103D5000002278210148FFF763FD10BD00580040A4
:103D60002DE9F04707460C469046294800882178FF
:103D70000844802805DA26484088617808444028AD
:103D800002DB0020BDE8F087A7F12000C0006168D9
:103D900011F810A001252EE0A7F1200005EBC000CE
:103DA000616831F81090002622E029FA06F000F050
:103DB000010058B1164A5288324491B2144A12880E
:103DC0002A4490B24246FFF763FE10E0B8F1000FBC
:103DD00001D1012300E000231A460D4B5B883344D8
:103DE00099B20B4B1B882B4498B2FFF751FE761CFF
:103DF000082EDAD36D1C0AF101008542CCD30448A9
:103E0000008821780844024908803846BAE7000053
:103E1000B41D00202DE9F04106460F4614461D460C
:103E2000DDF8188018E039463046FFF795FE207817
:103E300042462946FFF794FF2178884202D0207835
:103E4000BDE8F08120782038C000696811F81000C2
:103E50003044401CC6B2641C20780028E3D120788E
:103E6000EEE7000008B540F20140044B4022782103
:103E700000900348FFF7F6FC08BD0000AC56002098
:103E80000058004070B504460D46D4F8E4052946B4
:103E9000426820469047002070BD70B504460D462C
:103EA0004FF48970005D022802D0032812D100E08F
:103EB00000BF688801280CD100214FF48C7001519B
:103EC000D4F8E4052946826820469047204600F051
:103ED0005EF804E02946204600F021F800BF00BF4C
:103EE00070BD2DE9F04106460C46154600272B46CD
:103EF000224600213046FCF7A4FE3846BDE8F0819A
:103F00002DE9F04106460C46154600272B46224671
:103F100000213046FCF7F0FE3846BDE8F08170B570
:103F200004460D4680212046FCF7C2FE00212046B3
:103F3000FCF7BEFE204601F03CFA70BD70B50446A9
:103F40000025052140F21110015500231A4619469B
:103F50002046FCF776FE204601F02BFA284670BD7D
:103F60002DE9F04104460E4615460027C4F83C51A1
:103F7000C4F83851022140F2111001552B46324647
:103F800000212046FCF7B8FE3846BDE8F08170B548
:103F900004460025042140F21110015500231A4661
:103FA00019462046FCF7A8FE204601F002FA2846F2
:103FB00070BD70B505460E46002E51D105F58E74C4
:103FC00040F21110405D02283DD1A168E0698842AD
:103FD00011D9A168E069401AE061E878012803D1AD
:103FE000D4E902100844E060A08B82B22846E16860
:103FF000FFF786FF27E0A168206AB0FBF1F201FB22
:10400000120078B9A168206A88420BD3D4E908016C
:10401000884207D2002211462846FFF771FF002090
:10402000606210E0D5F8E405C06848B14FF48970CB
:10403000405D032804D1D5F8E405C16828468847C7
:104040002846FFF77BFF4FF48B70405D012816D1A7
:10405000284600F04BFB00214FF48B7041550EE0D9
:10406000D5F8E405406950B14FF48970405D0328EC
:1040700005D1D5F8E405314642692846904700202D
:1040800070BD70B505460E46A6BB05F55D7440F2E1
:104090001110405D03283DD1A168E069884217D91D
:1040A000A168E069401AE061E878012803D1D4E909
:1040B00002100844E060A368E069984201D2E06918
:1040C00000E0A06882B22846E168FFF70AFF21E01D
:1040D000D5F8E405006948B14FF48970405D0328C4
:1040E00004D1D5F8E4050169284688472846FFF73A
:1040F0004EFF0FE0FFE7D5F8E405806950B14FF4BB
:104100008970405D032805D1D5F8E4053146826900
:1041100028469047002070BD0146002070470000EF
:1041200070B504460D46E888012804D0294620468B
:10413000FFF7F5FE1AE04FF48970005D022802D007
:1041400003280DD105E0012209492046FFF708FFA9
:104150000BE0012204F588712046FFF701FF04E01F
:1041600029462046FFF7DBFE00BF00BF70BD000000
:10417000DC000020F8B504460E46708800120828BE
:104180006CD2DFE800F06B0416226B6B6166A078DE
:10419000D4F8EC150A68694690470546F08840282F
:1041A00004D04FF48970005D012801D108200090EF
:1041B00059E0A078D4F8E4158A6A69469047054624
:1041C00002216970C4F8F0554DE0B078062834D269
:1041D000DFE800F0030B131B232BA078D4F8EC15B9
:1041E0004A686946904705462CE0A078D4F8EC155B
:1041F0008A6869469047054624E0A078D4F8EC1513
:10420000CA686946904705461CE0A078D4F8EC15CA
:104210000A6969469047054614E0A078D4F8EC1581
:104220004A696946904705460CE0A078D4F8EC1539
:104230008A6969469047054604E031462046FFF703
:104240006EFEF8BD00BF0EE031462046FFF767FE68
:10425000F7E731462046FFF762FEF2E73146204697
:10426000FFF75DFEEDE700BFBDF8000088B1F08804
:1042700078B1F088BDF80010884202DDBDF800007A
:1042800000E0F0880090BDF8002029462046FFF7A6
:1042900067FE00BFD5E70146002002E0421CD0B215
:1042A000491C0A78002AF9D17047024601EB8103C4
:1042B00002F55D7000EBC300008B80B27047000018
:1042C00070B504460D464FF48970005D022802D097
:1042D000032813D100E000BF01200C4908604FF40F
:1042E0008C70005920B10846006840F00200086058
:1042F000022206492046FFF733FE04E02946204605
:10430000FFF70DFE00BF00BF70BD0000E000002001
:104310002DE9F04104460D4617460026FCB1204623
:10432000FFF7B9FF022101EB400038803A783046B0
:10433000711CCEB22A5403223046711CCEB22A54CC
:104340000AE014F8012B3046711CCEB22A54002228
:104350003046711CCEB22A5420780028F1D1BDE835
:10436000F0812DE9F04104460F4615461E46DDF862
:104370001880204600F0FCFC002000F0B1FC204634
:10438000FFF7CAFEC4F8E465C4F8E885C4F8EC5544
:1043900039462046FCF7A4FFD4F8E81508688047A2
:1043A000204600F0D1FCBDE8F08110B50446D4F8F9
:1043B000E405016A20468847002010BD10B5044678
:1043C000D4F8E405416A20468847002010BD70B546
:1043D00004460D4629462046FDF7E2FD002070BD4B
:1043E00070B504460D4629462046FDF701FE002023
:1043F00070BD70B504460D4681212046FCF792FB46
:1044000001212046FCF78EFB2046FDF713FE00201D
:1044100070BD00000246202008800148704700005F
:104420001801002070B504460D4629462046FFF7C6
:10443000E0FF0223402281212046FCF7CEFB02232D
:10444000402201212046FCF7C8FB2046FDF7F8FD7D
:10445000002070BD70B505460C46207800F0600065
:10446000002849D020287BD16078FE2802D0FF2880
:104470003AD125E06088E0B9E088012819D1207898
:1044800000F08000802814D1374909688869804786
:104490003649087008460078002804DD01222846C5
:1044A000FFF75EFD0BE021462846FFF738FD0220AE
:1044B00070BD21462846FFF732FD0220F8E719E0DB
:1044C000608850B9E08840B9207800F080008028EA
:1044D00003D02846FDF7D8FD05E021462846FFF722
:1044E0001EFD0220E4E705E021462846FFF717FD00
:1044F0000220DDE700BF34E0607801280ED00A28F2
:1045000002D00B2829D105E0012219492846FFF7DE
:1045100027FD22E0A078164908701EE02179284680
:10452000FCF749FB21792846FCF7FCFA207900F0DA
:104530008000802806D12179022340222846FCF7FA
:104540004CFB05E02179022340222846FCF745FB7D
:1045500021792846FDF706FD00BF00BF01E0FFE717
:1045600000BF00BF0020A3E77C000020380100202E
:10457000390100207CB505460024284601F00EFADA
:10458000002865D0284601F014FA0190019808B976
:1045900000207CBD0198C0F3C04018B12846FCF74C
:1045A000A7FC04430198C0F3804018B12846FCF7EB
:1045B000FDFB04430198C0F3400050B1002000907F
:1045C000009820F00200801C00900098E968486183
:1045D00000BF0198C00F18B12846FCF709FD04433D
:1045E0000198C0F3C02018B12846FCF7A3FD04438E
:1045F0000198C0F3C00018B12846FCF785FD0443BC
:104600000198C0F3001018B12846FCF725FD0443BB
:104610000198C0F3003018B12846FCF7DFFD0443D1
:104620000198C0F3403018B12846FCF78CFB0443D6
:104630000198C0F3005018B12846FCF79FFE0443D0
:104640000198C0F3405018B12846FCF7ADFE044372
:1046500020469EE790F8CC250A7090F8CD254A7048
:1046600090F8CE3590F8CF2503EB02224A8090F8DF
:10467000D03590F8D12503EB02228A8090F8D2350C
:1046800090F8D32503EB0222CA80CB884FF4A072A6
:104690001350012340F211121354704710B5044611
:1046A0000023402219462046FCF797FA00234022B7
:1046B00080212046FCF791FA01214FF489700155C1
:1046C000A078D4F8E82551688847002010BD10B5BF
:1046D0000446D4F8E8150869804740F21310015DDC
:1046E000401E015503210155002010BD014603481D
:1046F000026808694260002070470000A4000020A2
:1047000010B50446D4F8E405C06920B1D4F8E40536
:10471000C16920468847002010BD70B504460D468B
:10472000A88818BBE88808BBA87800F07F064FF47B
:104730008970005D032804D129462046FFF7EFFB6E
:1047400018E04FF48A70065531462046FCF7A2FA6D
:104750002046FFF71CFC26B102214FF48970015559
:1047600008E001214FF48970015503E029462046F5
:10477000FFF7D5FB70BD70B504460D46D4F8E405CF
:104780002946026820469047D4F8E8158868804793
:10479000002070BD70B504460D46A87830490870F9
:1047A00008460078012804DD29462046FFF7B7FBBC
:1047B00055E04FF48970005D022802D0032848D1EB
:1047C00017E02748007880B12548007884F8100168
:1047D00003214FF489700155214801782046FFF7E5
:1047E000CAFF2046FFF7D3FB02E02046FFF7CFFBCE
:1047F00034E01B48007880B902214FF489700155DC
:104800001748007884F81001154801782046FFF712
:1048100039FB2046FFF7BBFB1AE094F81001104962
:104820000978884211D094F810112046FFF72AFB2E
:104830000B48007884F81001094801782046FFF7FA
:104840009AFF2046FFF7A3FB02E02046FFF79FFBFD
:1048500004E029462046FFF762FB00BF00BF70BDA1
:10486000E4000020F8B504460D46002668880128BB
:104870000DD101214FF48C700151D4F8E405294683
:104880008268204690472046FFF781FB39E0688820
:10489000022836D12879A0BB206940680090A888FA
:1048A0000612062E22D2DFE806F02103090F151B9F
:1048B000009820F070001030009017E0009820F071
:1048C00070002030009011E0009820F0700030302F
:1048D00000900BE0009820F070004030009005E060
:1048E000009820F070005030009000BF00BF0548D5
:1048F0000099016001214FF48B7001552046FFF7AC
:1049000046FBF8BDA40000201CB5044669462046BD
:10491000FFF7A0FE9DF8000000F01F0020B1012865
:1049200007D002280FD109E06946204600F016F8AA
:1049300011E06946204600F0F9F80CE0694620468F
:1049400000F046F807E09DF8000000F080012046E6
:10495000FCF7AEF900BF00BF00201CBD70B50546D6
:104960000C46002660780A2829D2DFE800F01923D7
:10497000281E280A0528140F21462846FFF7FAFBAF
:1049800022E021462846FFF7C8FE1DE021462846C2
:10499000FFF700FF18E021462846FFF7C1FB13E0B0
:1049A00021462846FFF78CFC0EE021462846FFF7FB
:1049B00059FF09E021462846FFF76FFA04E0214637
:1049C0002846FFF7ACFA00BF00BF304670BD0000BC
:1049D0002DE9F04105460E4600273479707800280D
:1049E00057D001282BD0032875D14FF48970405D32
:1049F000022802D003281BD107E02CB1802C03D061
:104A000021462846FCF754F917E0708830B92CB1DC
:104A1000802C03D021462846FCF74AF9D5F8E40556
:104A200031468268284690472846FFF7B0FA04E0EE
:104A300031462846FFF773FA00BF00BF70E04FF41D
:104A40008970405D022802D003281BD107E02CB1F9
:104A5000802C03D021462846FCF72AF917E07088FD
:104A600078B95CB1802C09D021462846FCF77FF844
:104A7000D5F8E40531468268284690472846FFF776
:104A800086FA04E031462846FFF749FA00BF00BF26
:104A900046E04FF48970405D022802D0032837D1E8
:104AA00007E02CB1802C03D021462846FCF700F902
:104AB00033E004F08000802812D104F07F0000EB86
:104AC000800105F58E7000EBC100807820B10120D7
:104AD0001549086016E022E000201349086011E043
:104AE00004F0800070B904EB840105F55D7000EB03
:104AF000C100807818B101200B49086002E0002055
:104B000009490860022208492846FFF729FA04E00B
:104B100031462846FFF703FA00BF00BF00E000BFA0
:104B200000BF3846BDE8F081D800002070B50446CB
:104B30000D4600264FF48970005D032814D12879B2
:104B400001280CDCD4F8E405294682682046904709
:104B5000E88840B93EB92046FFF719FA03E0294634
:104B60002046FFF7DCF904E029462046FFF7D7F995
:104B700000BF00BF304670BD10B504464FF48970C9
:104B8000015D401C01550421401E0155D4F8E81573
:104B9000C8688047002010BD70B505460C462DB989
:104BA0002246064906A0FFF7B3FB04E0224603496C
:104BB00003A0FFF7ADFB014870BD00001C460020BC
:104BC0004D534320436F6E6669670000704770471E
:104BD0000246122008800148704700003C00002077
:104BE00070477047704770477047000070B50546C2
:104BF0000C462DB92246064906A0FFF789FB04E0C2
:104C00002246034903A0FFF783FB014870BD000063
:104C10001C4600204D534320496E746572666163E3
:104C2000650000000246042008800148704700002B
:104C30005800002070B505460C462246024903A0E4
:104C4000FFF766FB004870BD1C460020426C6163A4
:104C50006B20636F72706F726174696F6E00000019
:104C600070B505460C462DB92246064906A0FFF749
:104C70004FFB04E02246034903A0FFF749FB01482C
:104C800070BD00001C460020444420626F6F746CAD
:104C90006F6164657200000070B505460C462DB961
:104CA0002246064906A0FFF733FB04E022460349EB
:104CB00007A0FFF72DFB014870BD00001C46002037
:104CC0003030303030303030303031410000000092
:104CD0003030303030303030303031420000000081
:104CE0001CB5044601210846FDF7FCFA4FF480602C
:104CF000009002208DF8050001208DF804000020AE
:104D00008DF806008DF8070069460548FCF78CFE13
:104D10000021084600F006F8C82000F07BF81CBD12
:104D20000000024070B505460C462CB94FF4806176
:104D30000448FCF7EDFE04E04FF480610148FCF705
:104D4000E9FE70BD0000024038B504464FF4C06073
:104D5000FDF740FA43208DF8000001208DF8010096
:104D60008DF802008DF803006846FDF7F7F938BDAD
:104D70001CB5044601210846FDF7B4FA4FF4D050A3
:104D8000009003208DF8050002208DF8040000201B
:104D90008DF806008DF8070069460E48FCF744FEC2
:104DA0000A2209210B48FCF787FE0A220B21094839
:104DB000FCF782FE0A220C210648FCF77DFE012149
:104DC0008803FDF7DFFA01218020FDF7ABFA00F040
:104DD00003F81CBD0000024008B500214FF0006040
:104DE000FDF702FA4FF4A060FDF7F4F92D208DF8DD
:104DF000000001208DF8010000208DF80200012044
:104E00008DF803006846FDF7A9F901210802FDF7B6
:104E100099FA08BD10B5044601212046FBF77EFC37
:104E200010BD10B5044602212046FBF777FC10BDEB
:104E30003EB5044600250020029001900090207AA3
:104E400001283DD1E068806B0190019820F480300A
:104E50000190607A28B1019820F4801000F580104C
:104E600001900198E168886300200290E068C068C2
:104E70000290029820F040000290029820F48000F6
:104E80000290029820F400300290029820F4002052
:104E900002900298E168C860204600F061F9E0786D
:104EA000012843D1009820F01E000A30009000989D
:104EB00020F02000203000900098E168886035E004
:104EC000E068C0680290029820F0400040300290F4
:104ED0000298E168C860204600F042F90020019085
:104EE000019820F4803000F580300190019820F482
:104EF000802000F580200190019820F4002000F52A
:104F000000200190019820F4001000F5001001909D
:104F1000607A28B1019820F4801000F5801001908B
:104F20000198E16888631420FFF774FFE078012896
:104F30000FD1E06880680090009820F01E000A30D1
:104F40000090009820F02000203000900098E16848
:104F5000886028463EBD70B588B004460026002013
:104F6000079006900590049003900021D4F80C015E
:104F70000160206900680690069820F4C0500690F1
:104F8000069920690160E07A01283DD1032120467D
:104F900000F0F8FC4020E1684862059880B200F516
:104FA0008000059005986FF30F004030059005983C
:104FB000E1688862059800EB1041049861F30F00E6
:104FC0000490049880B200F5800004900498E16891
:104FD000C1F80401049800EB104161F30F00049044
:104FE000049880B204900499E068C0F8081104980D
:104FF00000EB104161F30F000490049880B204901C
:105000000499E068C0F80C111021204600F070FCF3
:10501000204600F047FC00212069016120694161C0
:10502000491E2069816100212069C16100252CE0B1
:1050300004F1180050F82500006807900798C00F89
:1050400070B100200790079820F0804000F1804068
:105050000790079820F0006000F10060079001E0E1
:105060000020079004F1180050F82500079901600E
:10507000002104F1180050F825000161FF2104F11E
:10508000180050F8250081606D1C6078A842CFD8C8
:1050900000252CE004F1540050F825000068019030
:1050A0000198C00F70B100200190019820F080405D
:1050B00000F180400190019820F0006000F1006054
:1050C000019001E00020019004F1540050F8250007
:1050D00001990160002104F1540050F8250001619C
:1050E000FF2104F1540050F8250081606D1C6078A8
:1050F000A842CFD800200390039820F4807000F5D8
:1051000080700390206900690399884308432169EE
:105110000861E07801281DD100200290029820F05B
:105120000100401C0290029820F00200801C0290B6
:105130004021029861F38A000290029820F48030A6
:1051400000F580300290029861F359400290029974
:1051500020690163204600F047FB304608B070BD6F
:10516000F8B50446002600250020009000BF03206B
:10517000FFF757FEE06800690090681C0546134978
:10518000884201D90020F8BD0098C00F0028EED059
:105190000025009820F00100401C00900098E16874
:1051A000086100BFE06800690090681C0546074977
:1051B000884200D904E0009800F001000028F1D1F5
:1051C00000BF0320FFF72DFE3046DCE7400D030053
:1051D00008B50146002000220092009A22F0010248
:1051E000521C0092CA689268009B9A43CB689A60EE
:1051F00008BD0EB501460020002200920A6992689F
:1052000002928A6912680192029AC2F3410232B193
:10521000012A05D0022A09D0032A0DD101E000BFDE
:1052200000BF019A6FF30A02019205E0019A6FF341
:105230000A02D21C019200BF00BF019B8A69136061
:10524000009A22F4807202F5807200920A69526814
:10525000009B9A431A430B695A600EBDFEB5024685
:10526000002000240025029500954D78012D52D193
:1052700093691D6802951D6900954D6955B9009D9A
:1052800025F07F050095009D25F4C01505F5002546
:10529000009516E08E684D69B54207D98D684D615D
:1052A0000E7A009D66F30605009504E00E7D009DD4
:1052B00066F306050095009D25F4C01505F500254B
:1052C0000095009D1D61D578012D06D10F7802F162
:1052D000180555F827500E696E61029D25F080650E
:1052E00005F180650295029D25F0004505F1004518
:1052F0000295029D1D60D578002D59D14D69002D74
:1053000056D00E780125B5402C4315696D6B2543A9
:10531000166975634CE00E7802F1540555F8265075
:105320002D6802950E7802F1540555F826502D6926
:1053300000954D695DB90E7A009D66F306050095EE
:10534000009D25F4C01505F5002500950CE08D683D
:105350004D610E7A009D66F306050095009D25F4CB
:10536000C01505F5002500950F7802F1540555F894
:105370002750009E2E61D578012D06D10F7802F1BD
:10538000540555F827500E696E61029D25F0806521
:1053900005F180650295029D25F0004505F1004567
:1053A00002950F7802F1540555F82750029E2E60A1
:1053B000FEBD0EB500210191019921F04041A1F1FE
:1053C00080410191019921F4C01101F50021019161
:1053D000019921F07F0118310191019A416D0A6113
:1053E000C178012915D10021009100F2CC51426D04
:1053F0005161416D09680091009921F0004101F16E
:10540000004100914FF080210091009A416D0A60A7
:1054100000BF0EBD3CB5024600200024019400945C
:105420004C78012C0CD10D7802F1180454F8253079
:105430000D780124AC40009D64F30F0500950BE04E
:105440000D7802F1540454F825300D780124AC4055
:10545000009D64F31F4500951C680194019CC4F3F2
:10546000C034E4B90D89019C65F30A040194CD7838
:10547000019C65F3934401948D79019C65F39954E3
:105480000194019C24F0805404F180540194019C07
:1054900024F4004404F500440194019C1C60146948
:1054A000E469009D2C431569EC613CBD38B50346A9
:1054B0000020002400944C78012C05D10D7803F1D4
:1054C000180454F8252004E00D7803F1540454F82E
:1054D000252014680094009C24F400140094CC78D7
:1054E000032C02D0CC78022C05D1009C24F08054EF
:1054F00004F180540094009C146038BD3CB5024611
:1055000000200024019400944C78012C0CD10D78DB
:1055100002F1180454F825300D780124AC40009DA8
:1055200064F30F0500950BE00D7802F1540454F874
:1055300025300D780124AC40009D64F31F45009593
:10554000019C24F400440194019C1C601469E469EA
:10555000009DAC431569EC613CBD38B503460A4675
:105560000020002400945478012C18D1157803F100
:10557000180454F825100C680094009CE40F2CB11A
:10558000009C24F0804404F180440094009C24F4A6
:10559000001404F500140094009C0C600EE01578D3
:1055A00003F1540454F825100C680094009C24F472
:1055B000001404F500140094009C0C6038BDFEB586
:1055C00005460C46002600270020029001906078D6
:1055D00001287ED1217805F1180050F821000068DB
:1055E0000290217805F1180050F82100006901901F
:1055F000606948B901986FF3120001900121019888
:1056000061F3DC40019017E06169019861F31200D9
:1056100001906069401EA1680844B0FBF1F1019857
:1056200061F3DC400190E078012805D1019820F079
:10563000C04000F100500190227805F1180050F8A8
:10564000220001990161E878012807D1227805F14B
:10565000180050F82200216941610DE0E07801282E
:105660000AD0606940B12178012000FA01F7286969
:10567000406B384329694863E078012813D12869D1
:10568000806800900098C0F3002030B9029820F0A4
:10569000005000F10050029005E0029820F0805088
:1056A00000F180500290029820F0806000F180604C
:1056B0000290029820F0004000F100400290227811
:1056C00005F1180050F8220002990160E0780128E5
:1056D00000E008E06CD1A08A83B222782846E16815
:1056E00000F02DFA64E0217805F1540050F8210013
:1056F00000680290217805F1540050F821000069FB
:105700000190606950B9A168019861F3120001909D
:105710000121019861F3DC40019013E0A068401E74
:1057200061690844A168B0FBF1F1019861F3DC40C4
:1057300001900198C0F3C940A1684843019960F302
:1057400012010191227805F1540050F822000199CC
:105750000161E878012806D1227805F1540050F85B
:10576000220021694161E07801280ED1607930B1D1
:10577000029820F0005000F10050029005E00298DD
:1057800020F0805000F180500290029820F080605C
:1057900000F180600290029820F0004000F100408B
:1057A0000290227805F1540050F82200029901601D
:1057B0003046FEBD08B500210091491EC268516007
:1057C0006FF08041C2685161009921F0004101F100
:1057D00000410091009921F4006101F50061009100
:1057E0000099C268916108BD38B5044600250020C3
:1057F0000090E16888616FF08040E1684861204670
:10580000FFF7D8FFE07820B9009820F010001030A2
:105810000090009820F4006000F50060009000986F
:1058200020F4805000F580500090009820F4005043
:1058300000F500500090009820F4802000F58020B2
:105840000090009820F4002000F5002000900098BF
:1058500020F0080008300090009820F4801000F537
:1058600080100090009820F4001000F500100090C7
:10587000E0688069009988430843E16888612846A8
:1058800038BD08B50146002000220092009A22F09F
:105890000102521C0092CA689268009B1A43CB68AE
:1058A0009A6008BDF8B50446002500260020009047
:1058B000009820F01000103000900098E168086116
:1058C00000BFE06800690090701C064607498842E6
:1058D00000D904E00098C0F300100028F1D100BF07
:1058E0000320FFF79EFA2846F8BD0000400D030094
:1058F000F8B504460D4600260027002000900098C9
:1059000020F0200020300090009865F38A1000906D
:105910000098E168086100BFE06800690090781CA9
:1059200007460749884200D904E00098C0F34010B8
:105930000028F1D100BF0320FFF773FA3046F8BD0D
:10594000400D030008B5014600200A6992680092E4
:10595000009AC2F3410232B1012A06D0022A07D0CE
:10596000032A07D102E0032004E000BF022001E087
:10597000012000BF00BF08BD0146C868406900F0B3
:105980000100704708B5026912680092009A61F33D
:1059900001020092009B0269136008BD00B5024637
:1059A0001046FFF7E9FF012801D0012000BD0020CB
:1059B000FCE701460020CA685069CA689269104035
:1059C00070470146086982690869C069024090B25F
:1059D00070470146086982690869C0690240100C75
:1059E0007047024602F1540353F821309868136956
:1059F0005B6918407047F0B503460024D01CC717F8
:105A000000EB9777BD10D3F8D06000BF03E030689B
:105A10000860641C091DAC42F9D30846F0BD0000C3
:105A200070B502460C46002300200025D5700125E4
:105A3000957040259580012C0CD14FF0A043012595
:105A4000D57208251570042555709D15D580022541
:105A500015720AE04CB9254B0025D5720C2515703E
:105A6000062555704FF4A065D580D36003F5006519
:105A70001561002110E003F5106505EB411602F1F8
:105A8000180545F8216003F5306505EB411602F174
:105A9000540545F82160491C55788D42EBD803F533
:105AA000806555614035C2F8CC50002108E003F50F
:105AB000A06505EB411602F1900545F82160491CEF
:105AC00015788D42F3D8002108E003F5805505EBE9
:105AD000013602F1D00545F82160491C15788D4248
