:020000040800F2
:1000000000000320414300083D420008414200082F
:1000100045420008494200084D4200080000000027
:100020000000000000000000000000005142000835
:100030005542000800000000594200085D420008D7
:100040009143000891430008914300089143000840
:100050009143000891430008914300089143000830
:100060009143000891430008914300089143000820
:100070009143000891430008914300089143000810
:100080009143000891430008914300089143000800
:1000900091430008914300089143000891430008F0
:1000A0009143000861420008914300089143000811
:1000B0006D420008914300089143000891430008F5
:1000C00091430008914300089143000891430008C0
:1000D00091430008914300089143000891430008B0
:1000E00091430008914300089143000891430008A0
:1000F0009143000891430008914300089143000890
:10010000914300089143000891430008914300087F
:10011000914300089143000891430008914300086F
:100120009143000879420008914300089143000878
:10013000854200089143000891430008914300085C
:10014000914300089143000891430008914300083F
:10015000914300089143000891430008914300082F
:10016000914300089143000891430008914300081F
:1001700091430008914300089143000800000000EB
:1001800091430008914300089143000891430008FF
:1001900091430008914300089143000891430008EF
:0C01A000914300089143000891430008BF
:1001B00010B5054C237833B9044B13B10448AFF3A1
:1001C00000800123237010BD80000020000000008B
:1001D000406C000808B5034B1BB103490348AFF35B
:1001E000008008BD0000000084000020406C000872
:1001F00081F0004102E000BF83F0004330B54FEAD8
:1002000041044FEA430594EA050F08BF90EA020F44
:100210001FBF54EA000C55EA020C7FEA645C7FEAD7
:10022000655C00F0E2804FEA5454D4EB5555B8BFFA
:100230006D420CDD2C4480EA020281EA030382EA6B
:10024000000083EA010180EA020281EA0303362DFD
:1002500088BF30BD11F0004F4FEA01314FF4801CD0
:100260004CEA113102D0404261EB410113F0004FE2
:100270004FEA03334CEA133302D0524263EB430399
:1002800094EA050F00F0A780A4F10104D5F1200E37
:100290000DDB02FA0EFC22FA05F2801841F1000192
:1002A00003FA0EF2801843FA05F359410EE0A5F166
:1002B00020050EF1200E012A03FA0EFC28BF4CF097
:1002C000020C43FA05F3C01851EBE37101F000454D
:1002D00007D54FF0000EDCF1000C7EEB00006EEB5A
:1002E0000101B1F5801F1BD3B1F5001F0CD34908E4
:1002F0005FEA30004FEA3C0C04F101044FEA44523B
:1003000012F5800F80F09A80BCF1004F08BF5FEAC1
:10031000500C50F1000041EB045141EA050130BDA1
:100320005FEA4C0C404141EB010111F4801FA4F144
:100330000104E9D191F0000F04BF01460020B1FA99
:1003400081F308BF2033A3F10B03B3F120020CDAD1
:100350000C3208DD02F1140CC2F10C0201FA0CF0AF
:1003600021FA02F10CE002F11402D8BFC2F1200C14
:1003700001FA02F120FA0CFCDCBF41EA0C019040CA
:10038000E41AA2BF01EB0451294330BD6FEA040413
:100390001F3C1CDA0C340EDC04F11404C4F12002FE
:1003A00020FA04F001FA02F340EA030021FA04F310
:1003B00045EA030130BDC4F10C04C4F1200220FA67
:1003C00002F001FA04F340EA0300294630BD21FAA5
:1003D00004F0294630BD94F0000F83F4801306BF6B
:1003E00081F480110134013D4EE77FEA645C18BF5F
:1003F0007FEA655C29D094EA050F08BF90EA020FF6
:1004000005D054EA000C04BF1946104630BD91EAED
:10041000030F1EBF0021002030BD5FEA545C05D1F0
:100420004000494128BF41F0004130BD14F580042F
:100430003CBF01F5801130BD01F0004545F0FE41A3
:1004400041F470014FF0000030BD7FEA645C1ABFD8
:10045000194610467FEA655C1CBF0B46024650EA0F
:10046000013406BF52EA033591EA030F41F400213B
:1004700030BD00BF90F0000F04BF0021704730B5C1
:100480004FF4806404F132044FF000054FF0000196
:1004900050E700BF90F0000F04BF0021704730B557
:1004A0004FF4806404F1320410F0004548BF40422C
:1004B0004FF000013EE700BF42004FEAE2014FEA81
:1004C00031014FEA02701FBF12F07F4393F07F4F5C
:1004D00081F06051704732F07F4208BF704793F05F
:1004E0007F4F04BF41F40021704730B54FF4607472
:1004F00001F0004521F000411CE700BF50EA010275
:1005000008BF704730B54FF000050AE050EA01021D
:1005100008BF704730B511F0004502D5404261EB8D
:1005200041014FF4806404F132045FEA915C3FF4CE
:10053000D8AE4FF003025FEADC0C18BF03325FEA6B
:10054000DC0C18BF033202EBDC02C2F1200300FA1C
:1005500003FC20FA02F001FA03FE40EA0E0021FA41
:1005600002F11444BDE600BF70B54FF0FF0C4CF42F
:10057000E06C1CEA11541DBF1CEA135594EA0C0FE1
:1005800095EA0C0F00F0DEF82C4481EA030621EA1C
:100590004C5123EA4C5350EA013518BF52EA033557
:1005A00041F4801143F4801338D0A0FB02CE4FF009
:1005B0000005E1FB02E506F00042E0FB03E54FF039
:1005C0000006E1FB03569CF0000F18BF4EF0010E31
:1005D000A4F1FF04B6F5007F64F5407404D25FEA2D
:1005E0004E0E6D4146EB060642EAC62141EA5551E0
:1005F0004FEAC52040EA5E504FEACE2EB4F1FD0C22
:1006000088BFBCF5E06F1ED8BEF1004F08BF5FEA9F
:10061000500E50F1000041EB045170BD06F0004651
:1006200046EA010140EA020081EA0301B4EB5C04FE
:10063000C2BFD4EB0C0541EA045170BD41F48011F6
:100640004FF0000E013C00F3AB8014F1360FDEBF1B
:10065000002001F0004170BDC4F10004203C35DAF7
:100660000C341BDC04F11404C4F1200500FA05F37A
:1006700020FA04F001FA05F240EA020001F000421B
:1006800021F0004110EBD37021FA04F642EB060191
:100690005EEA430E08BF20EAD37070BDC4F10C04BB
:1006A000C4F1200500FA04F320FA05F001FA04F27F
:1006B00040EA020001F0004110EBD37041F100016B
:1006C0005EEA430E08BF20EAD37070BDC4F1200576
:1006D00000FA05F24EEA020E20FA04F301FA05F2DE
:1006E00043EA020321FA04F001F0004121FA04F286
:1006F00020EA020000EBD3705EEA430E08BF20EA56
:10070000D37070BD94F0000F0FD101F0004640008F
:1007100041EB010111F4801F08BF013CF7D041EA11
:10072000060195F0000F18BF704703F00046520015
:1007300043EB030313F4801F08BF013DF7D043EAE6
:100740000603704794EA0C0F0CEA135518BF95EA9C
:100750000C0F0CD050EA410618BF52EA4306D1D123
:1007600081EA030101F000414FF0000070BD50EA42
:10077000410606BF1046194652EA430619D094EACC
:100780000C0F02D150EA013613D195EA0C0F05D1B6
:1007900052EA03361CBF104619460AD181EA03010A
:1007A00001F0004141F0FE4141F470014FF00000C2
:1007B00070BD41F0FE4141F4780170BD70B54FF05D
:1007C000FF0C4CF4E06C1CEA11541DBF1CEA1355DD
:1007D00094EA0C0F95EA0C0F00F0A7F8A4EB0504BF
:1007E00081EA030E52EA03354FEA013100F08880B6
:1007F0004FEA03334FF0805545EA131343EA12637F
:100800004FEA022245EA111545EA10654FEA002633
:100810000EF000419D4208BF964244F1FD0404F5EC
:10082000407402D25B084FEA3202B61A65EB030548
:100830005B084FEA32024FF480104FF4002CB6EB05
:10084000020E75EB030E22BFB61A754640EA0C0085
:100850005B084FEA3202B6EB020E75EB030E22BFC5
:10086000B61A754640EA5C005B084FEA3202B6EB06
:10087000020E75EB030E22BFB61A754640EA9C00C5
:100880005B084FEA3202B6EB020E75EB030E22BF95
:10089000B61A754640EADC0055EA060E18D04FEA53
:1008A000051545EA16754FEA06164FEAC30343EAF3
:1008B00052734FEAC2025FEA1C1CC0D111F4801FC0
:1008C0000BD141EA00014FF000004FF0004CB6E7B9
:1008D00011F4801F04BF01430020B4F1FD0C88BF58
:1008E000BCF5E06F3FF6AFAEB5EB030C04BFB6EB63
:1008F000020C5FEA500C50F1000041EB045170BD56
:100900000EF0004E4EEA113114EB5C04C2BFD4EB82
:100910000C0541EA045170BD41F480114FF0000E06
:10092000013C90E645EA060E8DE60CEA135594EA82
:100930000C0F08BF95EA0C0F3FF43BAF94EA0C0F85
:100940000AD150EA01347FF434AF95EA0C0F7FF4FA
:1009500025AF104619462CE795EA0C0F06D152EA4E
:1009600003353FF4FDAE1046194622E750EA410632
:1009700018BF52EA43067FF4C5AE50EA41047FF443
:100980000DAF52EA43057FF4EBAE12E74FF0FF3CA8
:1009900006E000BF4FF0010C02E000BF4FF0010C79
:1009A0004DF804CD4FEA410C7FEA6C5C4FEA430CF2
:1009B00018BF7FEA6C5C1BD001B050EA410C0CBF41
:1009C00052EA430C91EA030F02BF90EA020F0020A3
:1009D000704710F1000F91EA030F58BF994208BF0A
:1009E00090422CBFD8176FEAE37040F001007047C7
:1009F0004FEA410C7FEA6C5C02D150EA013C07D11E
:100A00004FEA430C7FEA6C5CD6D152EA033CD3D068
:100A10005DF8040B704700BF8446104662468C4662
:100A20001946634600E000BF01B5FFF7B7FF002895
:100A300048BF10F1000F01BD4DF808EDFFF7F4FFBE
:100A40000CBF012000205DF808FB00BF4DF808ED49
:100A5000FFF7EAFF34BF012000205DF808FB00BF6C
:100A60004DF808EDFFF7E0FF94BF012000205DF88E
:100A700008FB00BF4DF808EDFFF7CEFF94BF012043
:100A800000205DF808FB00BF4DF808EDFFF7C4FF3C
:100A900034BF012000205DF808FB00BF4FEA41028F
:100AA00012F5001215D211D56FF47873B3EB6252C0
:100AB00012D94FEAC12343F0004343EA505311F0E7
:100AC000004F23FA02F018BF404270474FF0000079
:100AD000704750EA013005D111F0004008BF6FF0B7
:100AE000004070474FF00000704700BF4A0011D22D
:100AF00012F5001211D20DD56FF47873B3EB625278
:100B00000ED44FEAC12343F0004343EA505323FA83
:100B100002F070474FF00000704750EA013002D1F8
:100B20004FF0FF3070474FF0000070474FEA41022E
:100B3000B2F1E04324BFB3F5001CDCF1FE5C0DD93B
:100B400001F0004C4FEAC0024CEA5070B2F1004F85
:100B500040EB830008BF20F00100704711F0804F88
:100B600021D113F13872BCBF01F00040704741F44D
:100B700080114FEA5252C2F11802C2F1200C10FA51
:100B80000CF320FA02F018BF40F001004FEAC12335
:100B90004FEAD32303FA0CFC40EA0C0023FA02F3D9
:100BA0004FEA4303CCE77FEA625307D150EA0133AF
:100BB0001EBF4FF0FE4040F44000704701F000407F
:100BC00040F0FE4040F40000704700BF53B94AB9FE
:100BD000002908BF00281CBF4FF0FF314FF0FF3045
:100BE00000F072B9ADF1080C6DE904CE00F006F822
:100BF000DDF804E0DDE9022304B070472DE9F04799
:100C0000089E04468846002B4BD18A42154667D978
:100C1000B2FA82F24AB1C2F1200701FA02F320FAD5
:100C200007F7954047EA030894404FEA154E230C16
:100C3000B8FBFEF71FFA85FC0EFB178843EA084352
:100C400007FB0CF1994209D9EB1807F1FF3080F04E
:100C50001B81994240F21881023F2B445B1AA4B2D7
:100C6000B3FBFEF00EFB103344EA034400FB0CFC24
:100C7000A44509D92C1900F1FF3380F00781A44560
:100C800040F2048102382C4440EA0740A4EB0C04F3
:100C900000271EB1D4400023C6E900433946BDE811
:100CA000F0878B4209D9002E00F0EB800027C6E9BF
:100CB000000138463946BDE8F087B3FA83F7002FC4
:100CC00047D18B4202D3824200F2FA80841A61EB50
:100CD000030301209846002EE0D0C6E90048DDE776
:100CE00002B9FFDEB2FA82F2002A40F08F80491B7F
:100CF0004FEA154E1FFA85F80127B1FBFEFC230CC5
:100D00000EFB1C1143EA014308FB0CF1994207D981
:100D1000EB180CF1FF3002D2994200F2CD808446EC
:100D2000591AA3B2B1FBFEF00EFB101443EA0444BF
:100D300008FB00F8A04507D92C1900F1FF3302D2B7
:100D4000A04500F2B6801846A4EB080440EA0C4027
:100D50009FE7C7F1200CBB4022FA0CFE4EEA030EBF
:100D600001FA07F420FA0CF521FA0CF34FEA1E48B9
:100D70002543B3FBF8F92C0C08FB19331FFA8EFA44
:100D800044EA034309FB0AF49C4202FA07F200FA20
:100D900007F10BD91EEB030309F1FF3080F08780C8
:100DA0009C4240F28480A9F1020973441B1BADB23E
:100DB000B3FBF8F008FB103345EA034400FB0AFAE2
:100DC000A24508D91EEB040400F1FF336BD2A24503
:100DD00069D90238744440EA0940A0FB0289A4EBB7
:100DE0000A044C45C2464B4654D351D0002E69D01C
:100DF000B1EB0A0564EB030404FA0CFCFD40FC4073
:100E00004CEA0505C6E90054002747E7C2F1200374
:100E100020FA03F7954001FA02F021FA03F34FEAB2
:100E2000154E3843010CB3FBFEF71FFA85F80EFB95
:100E3000173341EA034107FB08F38B4204FA02F43B
:100E400007D9691807F1FF3C2FD28B422DD9023FF9
:100E50002944CB1A81B2B3FBFEF00EFB103341EAFA
:100E6000034100FB08F38B4207D9691800F1FF3CEE
:100E700017D28B4215D902382944C91A40EA0747CC
:100E80003BE73746304609E70746E7E61846FBE604
:100E90004145ABD2B8EB020A69EB0E0201381346AA
:100EA000A4E76046E9E7184695E76746D1E781463B
:100EB0007CE702382C4447E7ACF1020C2B442FE7C7
:100EC000384608E73746E9E6704700BFF0B585B019
:100ED000002301221D4F1E4EADF80C301C468DF82C
:100EE0000A308DF80E301D468DF8082000224FF490
:100EF0008051304604F052F80A2002F079FA642357
:100F000064F05F0C009303AA032302A911488DF833
:100F100009C0ADF80C508DF80E5005F083F8012291
:100F20004FF48051304604F039F80A2002F060FA9C
:100F3000BDF80D3040345BBAE4B2C3F30B03802C30
:100F400027F8023BD2D105B0F0BD00BF5C03002002
:100F50000004024068130020014B33F81000704772
:100F60005C03002038B5104C104D20464FF48061D2
:100F700004F00EF80E4B4FF400611870204604F098
:100F800007F80C4B4FF480511870284604F000F815
:100F90004FF400610446284603F0FAFF064B40EA8E
:100FA0004400187038BD00BF00040240000C02402D
:100FB000620300206103002060030020014B1878C9
:100FC000704700BF62030020014B1878704700BFD4
:100FD00061030020014B1878704700BF60030020B8
:100FE00004281FD8DFE800F0090E131803000022C0
:100FF0004FF400610C4803F0D1BF002201210A48E0
:1010000003F0CCBF00220221074803F0C7BF002233
:101010008021054803F0C2BF00224FF480710248CE
:1010200003F0BCBF704700BF0000024004281FD877
:10103000DFE800F0090E1318030001224FF40061ED
:101040000C4803F0ABBF012211460A4803F0A6BFCB
:1010500001220221074803F0A1BF01228021054897
:1010600003F09CBF01224FF48071024803F096BF49
:10107000704700BF000002402DE9F047224C234D8D
:1010800082B00126884608274FF000090A468246AA
:10109000214628462660C4E90176C4F80C90CDF8B4
:1010A000049004F051FF304603F0C4F90223424695
:1010B000214628462360C4E90176C4F80C9004F068
:1010C00043FF03234246214628462360C4E90177B3
:1010D000C4F80C9004F038FF4FF4087301934FF0FC
:1010E000040C019B6760214642462846A660C4F86E
:1010F00000C0E36004F028FF5146284602B0BDE876
:10110000F04704F03BBF00BF9C0000208C20002073
:1011100008B50A2003F0FCF800B908BD092003F067
:10112000F7F800280CBF0220012008BD38B5104B8D
:10113000104D1868D5F88840FFF7BEF900220E4B15
:10114000FFF712FAFFF7D2FC04F0E04444F0206409
:1011500044EA8014094AC5F88840D5F88C301278E2
:1011600023F4F853013A43EA0223C5F88C3038BD22
:10117000501700200038024000406C402C00002036
:10118000F0B50024A1B0214614A83022CDE90A44CC
:10119000CDE90C44CDE90344CDE90544079405F0BD
:1011A00047FD294B294AD3F88C1021F44001C3F89C
:1011B0008C10D3F88C1021F44011C3F88C100194DA
:1011C000196C41F0805119641B6C03F0805301933A
:1011D000019B0294136843F440431360136803F4C3
:1011E0004043029301264FF4803302254FF48001DF
:1011F000082202980F91CDE9086304274FF4A873E1
:1012000008A8109211930E951295139703F0D0FF32
:101210004FF00F0C4FF4A0524FF48053052103A858
:10122000CDE90623CDF80CC00495059404F0D4F95B
:10123000E2220A2314A814971C96CDE9182304F07F
:1012400089FA21B0F0BD00BF0038024000700040B4
:101250002DE9F84FAC4CAD4AA36A180248BF43F0E1
:101260007F431360AA4A636A13601368190203D5A7
:10127000136843F07F4313601368002B02DA13688E
:101280005B421360A34EA44D33881268FF2BD5E94F
:1012900000AB5CD8A14F57F823C047F82320BAEB26
:1012A0000C006BF1000110EB020841F10009C5E9E7
:1012B000008901339BB2B3F5807F08BF00233380E0
:1012C0004FEA182646EA0966002E4FEA292777F1E9
:1012D0000003236A924923F07F45B8BF00261B0212
:1012E00048BF45F07F4505F58003B3F5000F0E605C
:1012F0004FF0000032D9DFF84482FFF771FE98F812
:10130000003003F0FD02012A32D003F0FB03022B70
:1013100072D0844C844E2268336843F82250FFF721
:1013200059FE022840F0BD803268216852F8213011
:101330001B1342F8213023687C4901332360226863
:101340000B689A4201D300232360BDE8F88F1AEBA3
:1013500002084BF10009C5E90089AAE7DFF8DC8142
:10136000FFF764FE98F8003003F0FD02012ACCD1AB
:101370006C4C6D4E2268336843F82250FFF72AFE0A
:10138000022865D13268216852F821301B1342F8D7
:101390002130062002F0BCFF012871D02368634E83
:1013A000634F01332360226833689A4224BF0023CD
:1013B000236022683B689A42C7D1032002F09EFC5A
:1013C00098F800000328C0D1FFF730FE2168236899
:1013D0003268584D3960013393422B604FF006005C
:1013E00024BF00232B6002F093FF002800F0AC80A4
:1013F000052388F80030A8E7DFF8448198F800302A
:10140000002BA2D00025474C484E494FDFF834A1AD
:10141000A94623683268013323602368934228BFBA
:10142000C4F8009022683B689A4205D098F80030D2
:101430000135AB42EDDC88E7DAF8003023600420A8
:1014400002F05CFC98F800300135AB42E1DC7CE74F
:10145000FFF7C0FD012807D13268216852F821301A
:101460001B1442F8213094E7FFF7B4FD002890D117
:101470003268216852F821301B1542F8213088E784
:101480002D4E2268336843F82250FFF7A3FD02284F
:1014900013D13268216852F821301B1342F82130F1
:1014A0007CE7FFF797FD012813D13268216852F8D5
:1014B00021301B1442F821303DE7FFF78BFD012856
:1014C00014D13268216852F821301B1442F82130BF
:1014D00064E7FFF77FFD00287FF42DAF32682168B5
:1014E00052F821301B1542F8213024E7FFF772FD36
:1014F00000287FF453AF3268216852F821301B1561
:1015000042F821304AE700BF541F0020A01A0020F3
:10151000B8000020F01E002000170020EC1A002068
:10152000BC000020C40000200400002000000020B7
:10153000C0130020CC00002008000020D0000020B4
:101540002D000020C80000200120DFF88C90FFF75C
:101550006DFD0220FFF744FD99F8001000292BD003
:101560002A683B689A4225BF3068C0189A1A821AC6
:10157000490092FBF1F29B1A44BF32689B18104A53
:1015800013600A20236002F0C3FE30B1092002F08C
:10159000BFFE002814BF012002200A4A0A4B11880E
:1015A0000A4C0B4A19800B4989F80000022320706D
:1015B000116088F80030C8E6014A2B681360E0E744
:1015C000C8000020EC1E0020C0200020D014002005
:1015D000DC000020000020418A2000202DE9F84F87
:1015E000AC4CAD4AA368180248BF43F07F43136078
:1015F000AA4A636813601368190203D5136843F09D
:101600007F4313601368002B02DA13685B42136098
:10161000A34EA44D33881268FF2BD5E900AB5CD8EC
:10162000A14F57F823C047F82320BAEB0C006BF109
:10163000000110EB020841F10009C5E900890133FE
:101640009BB2B3F5807F08BF002333804FEA182692
:1016500046EA0966002E4FEA292777F1000323683E
:10166000924923F07F45B8BF00261B0248BF45F0D2
:101670007F4505F58003B3F5000F0E604FF00000C5
:1016800032D9DFF84482FFF7ABFC98F8003003F062
:10169000FD02012A32D003F0FB03022B72D0844CEE
:1016A000844E2268336843F82250FFF793FC0228E7
:1016B00040F0BD803268216852F821301B1342F897
:1016C000213023687C490133236022680B689A42E9
:1016D00001D300232360BDE8F88F1AEB02084BF119
:1016E0000009C5E90089AAE7DFF8DC81FFF79EFC65
:1016F00098F8003003F0FD02012ACCD16C4C6D4EFD
:101700002268336843F82250FFF764FC022865D151
:101710003268216852F821301B1342F8213006202C
:1017200002F0F6FD012871D02368634E634F013348
:101730002360226833689A4224BF00232360226812
:101740003B689A42C7D1032002F0D8FA98F800000B
:101750000328C0D1FFF76AFC216823683268584D1E
:101760003960013393422B604FF0060024BF002301
:101770002B6002F0CDFD002800F0AC80052388F836
:101780000030A8E7DFF8448198F80030002BA2D0A1
:101790000025474C484E494FDFF834A1A94623683D
:1017A0003268013323602368934228BFC4F8009055
:1017B00022683B689A4205D098F800300135AB4268
:1017C000EDDC88E7DAF800302360042002F096FAB6
:1017D00098F800300135AB42E1DC7CE7FFF7FAFB1B
:1017E000012807D13268216852F821301B1442F8D1
:1017F000213094E7FFF7EEFB002890D13268216892
:1018000052F821301B1542F8213088E72D4E22680E
:10181000336843F82250FFF7DDFB022813D132680A
:10182000216852F821301B1342F821307CE7FFF782
:10183000D1FB012813D13268216852F821301B14E2
:1018400042F821303DE7FFF7C5FB012814D132688B
:10185000216852F821301B1442F8213064E7FFF769
:10186000B9FB00287FF42DAF3268216852F821308F
:101870001B1542F8213024E7FFF7ACFB00287FF46A
:1018800053AF3268216852F821301B1542F82130DD
:101890004AE700BF541F0020A01A0020B800002013
:1018A000F01E002000170020EC1A0020BC000020D1
:1018B000C40000200400002000000020C01300200D
:1018C000CC00002008000020D00000202D000020C7
:1018D000C80000200120DFF88C90FFF7A7FB022052
:1018E000FFF77EFB99F8001000292BD02A683B688F
:1018F0009A4225BF3068C0189A1A821A490092FB92
:10190000F1F29B1A44BF32689B18104A13600A20F8
:10191000236002F0FDFC30B1092002F0F9FC002840
:1019200014BF012002200A4A0A4B11880A4C0B4AB4
:1019300019800B4989F8000002232070116088F893
:101940000030C8E6014A2B681360E0E7C8000020B9
:10195000EC1E0020C0200020D0140020DC0000205D
:10196000000020418A2000202DE9F04F2DED028B50
:10197000B34E9FEDB48AB44F002383B03380FFF79A
:1019800023FBDFEDB27A00284AF66C4242F61B33A5
:101990004FF0040014BF14461C4618BFB0EE678A0F
:1019A00002F0B6FC012800F0FE80A94BDFF8CCC2A3
:1019B0001A68BCF80030DFF8C8E23F2B4FEAE27546
:1019C000DEE900AB00F2E880DFF8B88258F8239037
:1019D00048F82320BAEB09006BEBE97112EB000821
:1019E00045EB0109CEE9008901339BB24FEA98101B
:1019F00040EA8960402B08BF00234FEAA911002864
:101A0000ACF8003071F10003B8BF0020001307EEFE
:101A1000900AF8EEE77A8F4C8F4DDFF86C92DFF882
:101A20006CB2DFF86CA217EE900AFEF745FD7CA3BE
:101A3000D3E90023FEF798FDFFF730F800B207EE78
:101A4000900AF8EEE77A04F1200817EE900AFEF704
:101A500033FD75A3D3E90023FEF786FDFFF766F893
:101A600001900AE0DBF800301B03CBF80030DBF814
:101A7000003045F8043BA0454DD054F8041F33888E
:101A8000764A0B4407EE903A07EE101A1268DDED25
:101A9000016A3978F8EEE77AB8EEC77A01F0FB0010
:101AA000E7EE267A0228FDEEE77A17EE903AA2EBEF
:101AB0000303C9F80030D9F8003031D0002B06DA22
:101AC000674AD9F8003012681344C9F80030654BF2
:101AD0001A68002A04DA62491A6809680A441A6016
:101AE000D9F80020DAF8003053F82230CBF8003073
:101AF000FFF770FA0228B5D0FFF76CFA012840D141
:101B0000DBF800301B04CBF80030DBF8003045F880
:101B1000043BA045B1D103B0BDEC028BBDE8F08F12
:101B2000002B06DA4E4AD9F8003012681344C9F87F
:101B300000304D4BD9F800201B689A420BD24B481D
:101B4000D9F800200068824205D9D9F80020D31ABC
:101B50000344C9F80030D9F80030002B06DA404AB7
:101B6000D9F8003012681344C9F800300629B7D1FB
:101B70003F4BD9F800201B6853F82230CBF80030D7
:101B8000B6E7FFF727FA00287FF471AFDBF80030E3
:101B90001B05CBF800306AE712EB0A0845EB0B098E
:101BA000CEE9008920E73D78002D7FF4FEAEDFF816
:101BB000E4A0304ADAF800B0B2F900002E4B07EE8C
:101BC00090BAF8EE677A07EE100AC7EE888AB8EE88
:101BD000C77AC3ED008A17EE100AFEF76DFC14A356
:101BE000D3E90023FEF7C0FC804618EE900A894630
:101BF000FEF762FC02460B4640464946FEF7B4FC3F
:101C00000DA3D3E90023FEF7F9FAFEF76FFF0BF1FE
:101C10000102A24288BF2A46CAF800203080C4E6EA
:101C20007B5961749CDFE63FFCA9F1D24D62503FC5
:101C3000C5C4C4C4C4C424400000000000B0944023
:101C400088200020006C2C46D0000020006C2C471F
:101C5000A01A002008000020DC160020C40000208C
:101C60000000002088140020C8000020C0130020BD
:101C700008000020EC1E0020D80000209C17002047
:101C8000801400205C150020D40000208420002057
:101C900004000020B00000202DE9F04F2DED028B54
:101CA000CB4E9FEDCC8ACC4F002383B03380FFF71F
:101CB0008BF9DFEDCA7A00284FF0040018BFB0EEB0
:101CC000678A02F025FB012800F00381C44CC54B54
:101CD000C54AD3F800C01388C44D3F2B4FEAEC79B6
:101CE000D5E9000100F2EE80DFF830A35AF823E0D6
:101CF0004AF823C0B0EB0E0061EBEE711CEB000A5A
:101D000049EB010BC5E900AB01339BB24FEA9A10D6
:101D1000402B40EA8B6008BF00234FEAAB1100283C
:101D2000138071F10003B8BF0020001307EE900A82
:101D3000F8EEE77A17EE900AFEF7BEFB9CA3D3E914
:101D40000023FEF711FCFEF7A9FE00B207EE900A91
:101D5000F8EEE77A17EE900AFEF7AEFB96A3D3E90A
:101D60000023FEF701FCFEF7E1FE2378019001332A
:101D7000DBB2042B00F0E38023709D4C9D4DDFF817
:101D8000A092DFF8A0B2DFF8A0A204F120080AE0D8
:101D9000DBF800301B03CBF80030DBF8003045F8EF
:101DA000043FA0454DD054F8041F3388924A0B4499
:101DB00007EE903A07EE101A1268DDED016A3978E5
:101DC000F8EEE77AB8EEC77A01F0FB00E7EE267A84
:101DD0000228FDEEE77A17EE903AA2EB0303C9F86A
:101DE0000030D9F8003031D0002B06DA834AD9F818
:101DF000003012681344C9F80030814B1A68002A79
:101E000004DA7E491A6809680A441A60D9F8002081
:101E1000DAF8003053F82230CBF80030FFF7DAF868
:101E20000228B5D0FFF7D6F8012840D1DBF8003002
:101E30001B04CBF80030DBF8003045F8043FA04528
:101E4000B1D103B0BDEC028BBDE8F08F002B06DAF8
:101E50006A4AD9F8003012681344C9F80030694B57
:101E6000D9F800201B689A420BD26748D9F80020A5
:101E70000068824205D9D9F80020D31A0344C9F872
:101E80000030D9F80030002B06DA5C4AD9F800306F
:101E900012681344C9F800300629B7D15B4BD9F852
:101EA00000201B6853F82230CBF80030B6E7FFF76C
:101EB00091F800287FF471AFDBF800301B05CBF8F8
:101EC00000306AE710EB0C0A41EB090BC5E900ABE7
:101ED0001AE73B78424C002B7FF4F9AE25784C4A48
:101EE0004C4BB2F9000007EE905AF8EE677A07EE15
:101EF000100AC7EE888A0135B8EEC77AC3ED008AAA
:101F000017EE100AFEF7D8FA2DA3D3E90023FEF747
:101F10002BFB804618EE900A8946FEF7CDFA024662
:101F20000B4640464946FEF71FFB27A3D3E9002393
:101F3000FEF764F9FEF7DAFD25703080C7E600236E
:101F40002370354DDFF8E4801C4606E0013345F888
:101F500024300134082C3FF410AFFFF72FF860B1A4
:101F600055F8243058F8242093424FEA8401EDDBE1
:101F7000C4BF03F1FF336B50EBE7032002F0C8F955
:101F80000028EDD155F8242058F82410531A002BBE
:101F9000B8BF5B42042B4FEA8400DAD98A4203DBE4
:101FA000D7DD053A2A50D4E705322A50D1E700BFE1
:101FB0007B5961749CDFE63FFCA9F1D24D62503F32
:101FC000C5C4C4C4C4C424400000000000B0944090
:101FD00088200020006C2C46D0000020006C2C478C
:101FE000B4000020A01A00209C17002080140020BC
:101FF00008000020B8160020C400002000000020C7
:1020000088140020C8000020C01300200800002011
:10201000EC1E0020D80000200C0000205C150020E1
:10202000D40000208420002004000020981F0020FD
:102030002DE9F04703202DED028B02F069F900280D
:1020400000F0C680B4490B78012B00F0B380B34E8A
:10205000F7EE007AB0EE678AC6ED007A042002F04F
:1020600057F90128AE4F22D13B7803BBAD4BB3F9F2
:102070000030092B40F32781AB4D0024012604E0FA
:1020800045F824300134082C6ED0A0B201F0EAFDEE
:1020900007EE900AF8EE677A67EE887AFDEEE77A47
:1020A00017EE903A002BEBD145F82460EAE7FEF7F3
:1020B00085FF044618EE100AFEF7FEF980468946B1
:1020C000002C6AD0994CB4F9000007EE900AF8EEA3
:1020D000E77A17EE900AFEF7EFF985A3D3E900231C
:1020E000FEF742FA84A3D3E90023FEF787F84B46B4
:1020F0004246FEF739FAFEF719FD08EE100A0320F2
:1021000002F006F98A4B98B31B88B4F90000C01A94
:1021100007EE900AF8EEE77A17EE900AFEF7CCF990
:1021200077A3D3E90023FEF71FFA0022814BFEF7C5
:1021300065F8FEF7FBFC30603B78002B9CD07A4DB5
:1021400000244FF00108A0B201F08CFD0028CCBFA4
:1021500045F8240045F824800134082CF3D13C785C
:1021600004F0FB04022C41D0BDEC028BBDE8F087EB
:10217000B4F900001B88984200F3918080F2B1808E
:10218000C01A07EE900AF8EEE77A17EE900AFEF70B
:1021900093F95DA3D3E90023C5E7032002F0B8F863
:1021A00000288FD1644B614C188807EE900AF8EE36
:1021B000677A8EE7614B40F6C4120020C3E9002223
:1021C000C3E90222C3E90422C3E9062208703EE7FC
:1021D000FEF7F4FE00286FD14F4B1A78002A40F02A
:1021E000848001221A70B3EE048A67E0544DD6ED64
:1021F000007A95ED007A77EEC77AF0EEE77A17EE7F
:10220000900AFEF759F942A3D3E90023FEF73CFCFC
:102210000028A9D0FEF7D8FE0746002840F09E808F
:1022200096ED008A474ADFF83091F0EE007AB4EE7E
:10223000E78A0126F1EE10FA99F800301670C0F224
:10224000CD80B342DFF80CA13F4B00F02D811B780D
:10225000013B4FEA0328F6EE007A68EE277A3B4E00
:10226000CAED007A17EE900AFEF726F9384B0022E5
:10227000FEF77AF9D6F88840FEF738FC04F0E04320
:1022800043F0206343EA8013C6F88830D6F88C30D8
:1022900023F4F85343EA0803C6F88C3098E0C01AD8
:1022A00007EE900AF8EEE77A17EE900AFEF704F9C7
:1022B0000FA3D3E9002336E7B0EE008A174E4FF0A4
:1022C00080433360CAE618EE100AFEF7F5F80AA359
:1022D000D3E90023FEF748F9FEF728FC08EE100AC0
:1022E000CAE64FF07E53336026E7B3EE048AE5E793
:1022F0004613E0AC7946733F9A9999999999D93FD9
:102300004613E0AC7946633FB41980E64CB3693FAD
:102310007B14AE47E17A743FC0000020941F002078
:10232000D00000209E170020981F0020EC1E0020E7
:10233000C02000200000F03F802000200C00002082
:10234000DC0000202D0000202C000020003802407E
:1023500000406C4050170020C1000020644B96EDF7
:10236000008A1B78F0EE007AB4EEE78A013BF1EECA
:1023700010FA4FEA032658DAF7EE007AB4EEE78A4D
:10238000F1EE10FA5FDBF6EE007A68EE277A594A32
:10239000594B5A4FC2ED007A17EE900A1C70FEF7A7
:1023A0008BF8574B0022FEF7DFF8D7F88840FEF78E
:1023B0009DFB04F0E04343F0206343EA8013C7F839
:1023C0008830D7F88C3023F4F8533343C7F88C3077
:1023D00085ED008ABDEC028BBDE8F087002B3CD078
:1023E000434BDFF810A11B78013B1F02434E8AEDDF
:1023F000008A18EE100AFEF75FF8414B0022FEF744
:10240000B3F8D6F88840FEF771FB04F0E04343F0E0
:10241000206343EA8013C6F88830D6F88C3023F462
:10242000F8533B43C6F88C30D2E7F5EE007A68EEFD
:10243000277A304A304BC2ED007A042217EE900A18
:102440001A702E4FABE72B4A2B4B82ED008A0122EC
:102450002A4F1A7018EE100AA1E7254BDFF894A056
:10246000264FDAF8000004221A70FEF725F8244BF4
:102470000022FEF779F8D7F88840FEF737FB04F022
:10248000E04343F0206343EA8013C7F88830D7F86D
:102490008C3023F4F85343F44073C7F88C304FF476
:1024A000407789F80060A1E7144E1C70DAF800004C
:1024B000FEF702F8124B0022FEF756F8D6F88840D5
:1024C000FEF714FB04F0E04343F0206343EA80137B
:1024D000C6F88830D6F88C3023F4F85343F4807370
:1024E000C6F88C304FF4807889F80070B3E600BFEE
:1024F0002C000020501700202D0000200038024042
:1025000000406C40000000002DE9F04F2DED028BE3
:10251000002499B001F062FFFEF732FECDE91144CC
:10252000CDE91344DFF868B307941594DBF8303035
:10253000CA48DFF86083CA4DCA4EDFF85C93DFF803
:102540005CA343F01003CBF83030DBF8303003F0FD
:1025500010030793079B0894DBF8303043F0200307
:10256000CBF83030DBF8303003F020030893089BC1
:102570000994DBF8303043F08003CBF83030DBF8DF
:10258000303003F080030993099B0A94DBF8303064
:1025900043F00403CBF83030DBF8303003F00403B1
:1025A0000A930A9B0B94DBF8303043F00103CBF81D
:1025B0003030DBF8303003F001030B930B9B0C94AD
:1025C000DBF8303043F00203CBF83030DBF830304A
:1025D00003F002030C930C9B0D94DBF8303043F0B6
:1025E0004003CBF83030DBF8303003F040030D937C
:1025F0000D9B0E94DBF8303043F00803CBF83030FD
:10260000DBF8303003F008030E93224648F6B7118A
:102610000E9B02F0C3FC224641F20301924802F0F5
:10262000BDFC22464FF4A051904802F0B7FC7E2337
:1026300011A98E4811930127CDE9124402F086FBBF
:1026400048F6B71311A98548CDE91137CDE91344F0
:1026500002F07CFB482311A980481193CDE9124474
:1026600002F074FB41F2030311A97F481193CDE9F5
:102670001274149402F06AFB4FF4406311A97A4873
:102680001193CDE9124402F061FB4FF4C05311A93C
:1026900077481193CDE9124402F058FB4FF4A05350
:1026A00011A972481193CDE91274149402F04EFBF3
:1026B0004FF4E05311A96F481193CDE9124402F091
:1026C00045FB0694DBF8303043F48003CBF8303020
:1026D000DBF8303003F4800322462146069339208C
:1026E000069B02F027F9392002F05AF922462146CA
:1026F0003C2002F01FF93C2002F052F95E4A5F4B89
:1027000013600423D3601393102313614FF0400C24
:102710004FF4006E4FF480534FF4807BC2F814C026
:10272000C2F820E04FF0070C4FF0030E536211A9DE
:1027300002231046CDE914CE1193CDE91633C2F829
:1027400018B057609460D4619462CDF848C003F02B
:10275000D9FBDFF84CC14A49C8F808404FF4804221
:102760004046C8E900C1C8F81020C8F80C40C8E9C4
:102770000544C8E9074402F015FC2146404602F032
:10278000D1FC2146404602F0F1FC4FF008088023BE
:10279000C022DFF810E1C5F800E04FF400314AF63E
:1027A000444CC5E917382846FF23C5E911B7C5F8D9
:1027B00020C0AA630192296500916B666C636F600B
:1027C000C5E90F44AC60C5E90444C5E90644EC64BE
:1027D000C5E9154703F0E8F80223019A00997360F0
:1027E0008023DFF8C4C0C6F844B0C6E917383046C5
:1027F000FF237366C6E90E24C6E91414C6F800C0A8
:1028000074633464B7603461B461C6E91274B76547
:1028100003F0CAF81B4A1C4911604FF482704FF450
:10282000007C4FF0300E0A2150601046C2E906CEFF
:10283000D1629460C2E903445461C2E908449462DD
:1028400003F0B0FB114ADFF864E094604FF4E13C20
:102850000C211046C2E900EC516129E00000024061
:10286000F81F0020D4140020000402400008024099
:10287000000C0240001802408C200020400100A003
:10288000A086010068130020003800405417002083
:1028900000380240C4130020AC1A0020B81F0020EA
:1028A00000540040045801402458014000100140E9
:1028B000C2E90344C2E9064404F03AF88023C8227E
:1028C000D749C9F8183048464FF45273C9F80C205C
:1028D000C9F80010C9F804301194CDE912441494D9
:1028E000CDE90F44C9F80840C9E9044403F058FD94
:1028F0004FF4805311A94846119303F077FE0FA9B6
:102900004846CDE90F4403F0C9FF4FF08040322222
:1029100042F2D001CAF800005046CAF80C20CAF8AA
:102920000410CDE91144CDE91344CDE90F44CAF8B0
:102930000840CAF81040CAF8184003F031FD4FF4BF
:10294000805311A95046119303F050FE4146504662
:10295000DFF80483DFF810B303F0B8FD0FA9504689
:10296000CDE90F4403F09AFFAE48AF49C8F8000024
:102970004FF480324046C8F80420C8F8281011945B
:10298000CDE912441494C8F80840C8F8104088F8FB
:10299000184088F82040C8F82C40C8F80C40C8F807
:1029A0001C7088F83040C8F8144001F055FD06222C
:1029B000042311A9404613931192129701F0F0FEDF
:1029C0004FF45273994ACBF800204FF4FA61CBE9E7
:1029D000013458468023CBF81830CBF80C101194F2
:1029E000CDE912441494CDE90F44CBF8104003F024
:1029F000D7FC4FF4805311A95846119303F0F6FD0C
:102A00000FA95846CDE90F4403F048FF22460421A0
:102A1000874802F0C3FA4FF4FA7001F00BFD3A4612
:102A20000421834802F0BAFA64214FF48050FEF783
:102A300023FBFEF797FA00F027FDFEF769FB102253
:102A400000907C49284603F0EDF810227A49304680
:102A500003F088F8484603F027FD3846FEF7E6FA0B
:102A60000220FEF7E3FAFEF7A9FAB84200F0B783B6
:102A7000FEF7AAFA714B02931A46002840F0BE8373
:102A80006F4B13600320FEF7D1FA6E4A4FF07E536E
:102A90001360FEF74BFBFEF797FA6B4B03931A4656
:102AA000002840F0A68304231370FEF73FFB0023A9
:102AB000DFF8B8A1654D664CDFF8B491DFF8B4B12A
:102AC000644E654FDFED658A019301F0E1FB0A205A
:102AD00001F01EFC002840F09D81009B23B1604B5B
:102AE0001A78002A00F02283FEF7F0F9384601F048
:102AF00065FD6421384601F0FDFD384601F04CFECD
:102B000080B200F091FB8046384601F0D5FD2A885E
:102B10007F2A00F2B68139F81210206829F8128055
:102B2000401A40442060C01120EAE07000B2A0F2D8
:102B3000FF7007EE900A013292B2802AF8EEE77A2F
:102B40000ABF00232A802B8017EE900AFDF7B4FC01
:102B500031A3D3E90023FDF707FDFDF7E7FF07EEFB
:102B6000900AB7EE007AF4EEC77AF1EE10FACBF8DD
:102B7000000040F329828BED007A0120FEF7ECF98A
:102B800000F0EAFB6B887F2B00F2778103F1800174
:102B9000626839F811C029F81100A2EB0C02104448
:102BA000606001339BB2802B4FEAE01008BF002326
:102BB00020EAE0706B8083B2002008EE103AFEF746
:102BC000CBF900F07DFBAB887F2BB8EEC88A00F212
:102BD000508103F58071A26839F811C029F81100FD
:102BE000A2EB0C021044A060C01120EAE07080B299
:102BF00007EE900A9BED007A1A48F8EEE77A013367
:102C0000A7EE878A9BB2802B08BF0023BCEEC88A40
:102C100032E000BFAFF30080000108400002403FF7
:102C200000000140002201400100000F00040040AC
:102C300000000240541F0020BC16002000000020AD
:102C4000D0720300501700202C000020A41A00208E
:102C50002C140020D00000200817002000000000E5
:102C6000D01400202814002090140020C40000205C
:102C7000A0170020AC000020AB8018EE103A40F600
:102C8000FF719BB28B4228BF0B4602881B099A1A20
:102C9000002AB8BF5242012A04D97C4A038013801B
:102CA0007B4A1380FFF7C4F97A4B1B68B3F5001F0A
:102CB0004FF0040040F2D880FEF792F9019B002B00
:102CC00000F0C281072001F023FB034618B93278D7
:102CD000002A40F0A881072001F01AFB012800F02B
:102CE000E581082001F014FB002840F0958133783D
:102CF000032B3AD06849694A4FF0030886F80080F0
:102D00004FF07E531360D1F88830039A03F0E0430C
:102D100043F0206343F46253C1F888301078D1F84F
:102D20008C30013823F4F85343EA0023C1F88C3087
:102D30000220FEF77BF90120FEF752F94046FEF72C
:102D40004FF9574ADAF8003013600A2001F0E0FA30
:102D5000002840F0D781DAF80030002B00F0EE8137
:102D6000DAF800304F4A013B13600B2001F0D0FA33
:102D7000002840F04A81307800F0FB00022800F083
:102D800099800C2001F0C4FA002840F0C980337803
:102D9000012B00F0CF80052B7FF497AE0A2001F0C5
:102DA000B7FA034630B1092001F0B2FA002814BF87
:102DB000012302233C4A13703C4A01201370FEF7A2
:102DC00035F90320FEF732F90220FEF709F9374AF8
:102DD000117806233370324B002900F0C6811A683F
:102DE000304B1B689A4280F0F5819A1A490092FB99
:102DF000F1F29B1A02D5029A126813442C4A13600E
:102E0000CAF8003001F044FA0A2001F081FA0028E3
:102E10003FF463AE092001F07BFA009B002800F02C
:102E20009381012B3FF460AE1F4B1B78012B3FF6C3
:102E30005BAE1E4B4FF001021A700123022000937B
:102E4000174B1A68174B1B689A4280F092819A1AA6
:102E500092FBF0F29B1A02D5029A12681344144AAC
:102E60001360CAF800303FE6FEF7E0F80023019354
:102E700028E7A2681044A060B6E66268104460606B
:102E80008FE62068404420604DE600BF802000208F
:102E9000EC1E0020BC00002000380240501700202B
:102EA000CC000020C0130020D01400208A20002075
:102EB000C80000204FF00101BB4A3170BB494FF000
:102EC0007E530B60D2F88830039903F0E04343F05F
:102ED000206343F46253C2F88830D2F88C3009780A
:102EE00023F4F853013943EA0123C2F88C30FEF78A
:102EF0009DF80120FEF774F8DAF80020AC49DAF802
:102F000000300A60002B00F09980DAF80030A94AFE
:102F1000013B0C20136001F0FBF900283FF437AFB0
:102F2000012000F0D3FE01287FF4CFAD3378012BD0
:102F30007FF431AF0A2001F0EBF9034630B10920EC
:102F400001F0E6F9002814BF012302239A4A137006
:102F50009A4A01201370FEF769F80320FEF766F81D
:102F60000220FEF73DF8032000F0C8FE0299DAF8CF
:102F70000020D1F800E08F49DAF800300A60022121
:102F800031708E498A48097801337345036024BF44
:102F90000023036061B19A4296BF02EB0E0CD31A74
:102FA000ACEB0303490093FBF1F3D31A48BF73441E
:102FB000834A84491360844ACAF8003012880A8020
:102FC000824A834B136080E5BFEE007AF4EEC77A45
:102FD000F1EE10FA3FF5CFADFDF76EFA6EA3D3E92F
:102FE0000023CDE90401FDF74FFD00283FF4C5ADF6
:102FF000DDE904016AA3D3E90023FDF727FD0028DA
:103000003FF4BBADCBED008AB7E5002000F05EFEDB
:1030100001287FF4B6AEAEE6022000F057FE01288C
:103020007FF4A3AE63E601203370FDF7FFFF0220BB
:10303000FDF7FCFF0320FDF7F9FF52E6029B5D4A16
:103040001B68013B13609CE60321574A31705749C6
:103050004FF07E530B60D2F88830039903F0E043C1
:1030600043F0206343F46253C2F88830D2F88C30C6
:10307000097823F4F853013943EA0123C2F88C306C
:103080000220FDF7D3FF0120FDF7AAFFDAF80020A8
:103090004749DAF800300A60002B63D0DAF80030D4
:1030A000444A013B1360012301930BE6082001F021
:1030B0002FF901287FF415AE3278002A7FF411AE83
:1030C000394A3A4B30704FF07E511960D2F888304F
:1030D000039903F0E04343F0206343F46253C2F8E2
:1030E0008830D2F88C30097823F4F853013943EA58
:1030F0000123C2F88C30FDF773FF2D4ADAF8003057
:103100001360EEE5092001F003F90A2001F000F94F
:10311000002833D1029B1A68DAF8003003EB9203DF
:10312000934200D99B1A234A13601EE62349204B81
:103130000A700092224A1B68136092E6029B1D4AA5
:103140001B68013B136010E6022B3FF4CDAC1A4B19
:103150001B78022B3FF6C8AC184A02231370009369
:1031600004206DE6029B1B689AE7154A1B681360F2
:1031700046E60299096819448A1A69E6092001F0AD
:10318000C7F80028C6D0029B1A68DAF8003003EBB3
:1031900052039342C6D8C6E79A9999999999A9BFBB
:1031A0009A9999999999A93F00380240501700209F
:1031B000CC000020C0130020D01400208A20002062
:1031C000C8000020C0200020EC1E0020DC000020F1
:1031D00000002041029800681844821A06E6FDF7B4
:1031E000F3FE094B02931A4658B945F6480313609B
:1031F00048E401231370FDF799FF58E4034B136073
:1032000040E4034B13603DE40000002040CB0D0080
:10321000206101000368B3F1804F00D0704700F0D7
:103220008BBD00BF704700BF214A224B1168083197
:10323000F0B4CC1A002808BF0120C02CD4BF116004
:1032400013601D4A1C4D1D4EC8BF19461368D1F8A6
:1032500000C088808B4204BFC2F800C063462A4683
:10326000192412E01A6817688F42978808BFC2F8BD
:1032700000C0874203D21868086000201960B2427B
:1032800012D0013CA4B2136874B11F688F429F88AA
:1032900008BFC3F800C0874203D21068086000204E
:1032A0001160B3422D68DDD1A888F0BC704700BF23
:1032B00048000020E00000203000002038030020FB
:1032C000214A224B11680831F0B4CC1A002808BFFB
:1032D0000120C02CD4BF116013601D4A1C4D1D4E2F
:1032E000C8BF19461368D1F800C088808B4204BF5C
:1032F000C2F800C063462A46192412E01A6817680B
:103300008F42978808BFC2F800C0874203D218686E
:10331000086000201960B24212D0013CA4B21368C8
:1033200074B11F688F429F8808BFC3F800C08742EE
:1033300003D21068086000201160B3422D68DDD10F
:10334000A888F0BC704700BF4C000020A8010020F6
:103350003800002040030020214A224B1168083128
:10336000F0B4CC1A002808BF0120C02CD4BF1160D3
:1033700013601D4A1C4D1D4EC8BF19461368D1F875
:1033800000C088808B4204BFC2F800C063462A4652
:10339000192412E01A6817688F42978808BFC2F88C
:1033A00000C0874203D21868086000201960B2424A
:1033B00012D0013CA4B2136874B11F688F429F8879
:1033C00008BFC3F800C0874203D21068086000201D
:1033D0001160B3422D68DDD1A888F0BC704700BFF2
:1033E0005000002070020020400000204803002010
:1033F00082B00190019B2BB1019B013B0193019B8A
:10340000002BF9D102B070471C4B70B51C4E53F81D
:103410002040182514F4000218BF01224FF48051F7
:10342000304601F0BBFD0823013BFDD101224FF4E2
:103430008061304601F0B2FD0822013AFDD14FF41F
:103440008061304601F0AAFD0823013BFDD1013D1A
:103450004FEA4404DED101224FF40041094801F053
:103460009DFD0822013AFDD14FF40041054801F0CD
:1034700095FD0823013BFDD170BD00BF5400002025
:1034800000080240000002402DE9F04FDFF8B09242
:10349000A94F9DB000264FF00108F0B2FFF7B4FF2E
:1034A0000221384601F074FD08FA06F52DB2B9F88C
:1034B0000430002840F07B822B439BB20421384625
:1034C000A9F8043001F064FD06F1080408FA04F4D8
:1034D00024B2B9F80430002840F0668223439BB23E
:1034E00008213846A9F8043001F052FDB9F802303D
:1034F000002840F056822B439BB210213846A9F891
:10350000023001F045FDB9F80230002840F0468253
:1035100023439BB220213846A9F8023001F038FD40
:10352000B9F80030002840F036821D43ADB240218A
:103530003846A9F8005001F02BFD0136B9F80030EB
:10354000002840F020821C43082EA9F80040A4D196
:10355000302200217948DFF8E4A103F069FB4FF045
:10356000000BD84639F8182012F0010300F022822F
:103570000F230B250C200A264FF00A0C1A931B93DD
:103580000C230E21CDE90C500B96092007264FF095
:10359000060EAAF800C011934FF00B0C0A231891E5
:1035A0000890199105200921CDE90E3CCDE905E6E9
:1035B00008230D270825CDE90931032405230190AF
:1035C0004FF0020B04200495CDE9020310970796F3
:1035D000254612975946012302F004073E4602F0A1
:1035E0000807149702F01007159702F020071697A6
:1035F00002F040071797970700F11482002E32D08F
:10360000069F0597099F069703EBC806049F0B4684
:10361000A34629460446054603980290CDF80CE0DF
:103620000198CDF804E0DDF81CE007970A9F0997A0
:10363000089F04970E9F0A970B9F08970F9F0E975E
:103640000C9F0B97119F0F970D9F0C97129F11972F
:10365000109F0D97199F1297189F1097374F4FF093
:103660001E0C27F816C0149F002F00F01F824FEA8F
:10367000C8063344314F13964FF0280B27F813B088
:10368000159B002B00F06D82139B069E039C0396F6
:103690000B44079E9C462B46DDE9015B0196059E87
:1036A00002960A9E0696089E0796099E05960B9E10
:1036B00001467046DDF810E004960F9E0A960C9EB7
:1036C00008960E9E09960D9E0B96129E0F96109EC2
:1036D0000C96119E0E96194E4FF0320726F81C706C
:1036E000169F002F00F015824FEAC806F7180D97B5
:1036F000099F13960B46069E069729460A9F039D2F
:103700000997A346049F029C0295054605980390DD
:103710000198CDF804E0DDF81CE007970E9F0A97AA
:10372000089F05960497054E0D9F4FF03C0C26F818
:1037300017C00B9E089605E000080240CC20002030
:10374000C4200020179F1FB3139E1E44B446059E3D
:103750000B462946054603980396069E0596099E44
:103760000696049EA346029C02900198CDF804E0C0
:10377000DDF81CE007960A9E0996089E04960F9EA7
:103780000A960C9E0896A64E4FF0460726F81C7027
:10379000160622D503EBC803A14F4FF0500CBBF126
:1037A000080F27F813C000F0B380069F059E059709
:1037B000099F06970B46049F2946054603980396E2
:1037C000A346029C02900198CDF804E0DDF81CE0CD
:1037D00007970A9F0997089F0497D7051ED503EB03
:1037E000C8038F4F4FF05A0CBBF1080F27F813C0D6
:1037F00000F08E80069F059E0597099F06970B4651
:10380000049F2946054603980396A346029C02900E
:103810000198CDF804E0DDF81CE00797960519D56E
:1038200003EBC8037E4F4FF0640CBBF1080F27F881
:1038300013C06DD00B46294605460398059E069F8A
:103840000396A346029C02900198CDF804E0DDF8AF
:103850001CE00597570515D503EBC803704F4FF0D3
:103860006E0CBBF1080F27F813C051D00B46059E14
:103870002946054603980396A346029C02900198A8
:10388000CDF804E0160511D503EBC803644F4FF0E3
:10389000780CBBF1080F27F813C039D00B46294626
:1038A00005460398A346029C02900198D7040DD5C3
:1038B00003EBC8035A4F8226BBF1080F27F81360A9
:1038C00026D0A346029C0B462946054696040BD5F6
:1038D00003EBC803524E8C20BBF1080F26F81300EF
:1038E00016D00B46A3462946500409D503EBC8035E
:1038F0004B4C9620BBF1080F24F8130008D00B4660
:10390000D20B05D003EBC8034549A02221F81320B0
:10391000BAF8003013B91423AAF80030BAF802300C
:1039200013B92823AAF80230BAF8043013B93C239B
:10393000AAF80430BAF8063013B95023AAF80630B2
:10394000BAF8083013B96423AAF80830BAF80A3074
:1039500013B97823AAF80A30BAF80C3013B98C23BB
:10396000AAF80C30BAF80E3013B9A023AAF80E301A
:1039700008F10108B8F1030F0AF1100A7FF4F2AD63
:103980001DB0BDE8F08F23EA0404082EA9F800401A
:103990007FF483ADDCE523EA0505C8E523EA0403EB
:1039A000B8E523EA0503A8E523EA040398E523EA3A
:1039B000050383E50A260B250E214FF0060CCDE901
:1039C0000C6507260D270C201A910496CDF81CC013
:1039D00066461B914FF00C0C0B21CDE9111C18977A
:1039E00009211090199709200A270B90CDE90E178D
:1039F000042007214FF0080C082502244FF0050E83
:103A000001904FF0010B0320CDE9091C042108951A
:103A1000CDE902012546CDE905E65946DCE500BFC2
:103A2000CC2000204FEAC8073B4413978C4F4FF03F
:103A3000140B27F813B0002E00F0BF80139B069ED6
:103A4000039C03960B44079E9C462B46DDE9015BD5
:103A50000196059E02960A9E0696089E0796099E66
:103A600005960B9E01467046DDF810E004960F9E09
:103A70000A960C9E08960E9E09960D9E0B96129E17
:103A80000F96109E0C96119E0E96189E0D961B9EDC
:103A900012961A9E1096199E1196714E4FF01E079F
:103AA00026F81C70149F002F7FF4E1AD159F002FA6
:103AB0003FF416AE059F03EBC8060B4629460546A4
:103AC00003980397069F0597099F0697049FA346AF
:103AD000029C02900198CDF804E0DDF81CE0079705
:103AE0000A9F0997089F04970E9F0A970B9F0897B4
:103AF0000F9F0E970C9F0B97119F0F970D9F0C9781
:103B0000574F4FF0320C27F816C0169F002F7FF446
:103B1000EBAD179F002F3FF43BAE03EBC803504EB5
:103B20004FF0460C26F813C0059E0B462946054665
:103B300003980396069E0596099E0696049EA34644
:103B4000029C02900198CDF804E0DDF81CE0079695
:103B50000A9E0996089E04960E9E0A960B9E08964B
:103B600016E6169B002B5ED0139B089F039CDDF886
:103B700008B05E1806990391014607980797059FBC
:103B800002970F9F2B46019D01900A980A970C9F60
:103B90000897099F0597119F0F970B9F06907046F6
:103BA000DDF810E004970D9F0C970E9F09972C4F9E
:103BB0004FF03C0C27F816C0C4E5149B002B3FF4D3
:103BC0005FAD069E139B0596099E069603EB010BBF
:103BD000049E29460446054603980290CDF80CE061
:103BE0000198CDF804E0DDF81CE007960A9E0996DE
:103BF000089E04960E9E0A960B9E08960F9E0E96A1
:103C00000C9E0B96119E0F960D9E0C96129E119671
:103C1000109E0D96199E1296189E1096104E2823EF
:103C200026F81B302CE5059E0B46294605460398D1
:103C30000396069E0596099E0696049EA346029C40
:103C400002900198CDF804E0DDF81CE007960A9E8A
:103C50000996089E04960E9E0A960B9E089671E59C
:103C6000CC20002038B50446FDF7AEF900284FF00F
:103C700000000CBF0B252C2500F04AFB30B90134A5
:103C800004EB8404A40005FB04F038BD012000F01F
:103C90003FFB38B904F110030B4A32F8134005FB1F
:103CA00004F038BD022000F033FB38B104F1080302
:103CB000054A32F8134005FB04F038BD024B33F8D7
:103CC000140005FB00F038BDCC20002001280DD0E9
:103CD00007D3022804D14FF48051074801F058B9A6
:103CE00070474FF48061044801F052B94FF400610D
:103CF000014801F04DB900BF00180240032808B583
:103D00000BD0042804D101220221094801F046F910
:103D10000848BDE8084002F0C7BB0122044811462C
:103D200001F03CF90348BDE8084002F0BDBB00BF0C
:103D300000040240B81F002010B5064C00222046A7
:103D4000012101F02BF9204600220221BDE810409C
:103D500001F024B90004024082B00C4B0021009114
:103D60005A6C42F480425A645A6C02F480420092C7
:103D7000009A01911A6C42F080521A641B6C03F095
:103D800080530193019B02B0704700BF003802408E
:103D900010B50168164A88B000239142CDE903337B
:103DA000CDE90533079301D008B010BD02F58B3281
:103DB0000193516C0F4841F480615164516C01F4DE
:103DC0008061019101990293136B43F02003136307
:103DD000136B03F0200302934FF48072032303A9B3
:103DE000029CCDE9032300F0B1FF08B010BD00BF75
:103DF000002201400014024070B50268184B88B0E0
:103E000000249A42CDE90344CDE90544079401D04A
:103E100008B070BD134D01942B6B134843F002039F
:103E20002B632B6B03F0020301934FF44073039356
:103E300012220123049205930322042303A9CDE94E
:103E40000623019E00F082FF02942B6C43F40013C2
:103E50002B642B6C03F400130293029B08B070BD1B
:103E600000540040003802400004024070B5016870
:103E7000184A88B000239142CDE90333CDE90533D8
:103E8000079301D008B070BD02F500320193116CA8
:103E9000114841F480411164116C01F48041019199
:103EA00001990293136B43F002031363136B03F046
:103EB000020302930322052303A94FF46045022461
:103EC000029ECDE90354CDE9062300F03FFF08B080
:103ED00070BD00BF003800400004024000B5036818
:103EE000244A934285B017D0B3F1804F2AD0224A9A
:103EF000934202D005B05DF804FB204B00220392F0
:103F00001A6C42F002021A641B6C03F00203039362
:103F1000039B05B05DF804FB0022184B0192596C1D
:103F200041F0010159645B6C03F00103019301212D
:103F30001920019B00F0FEFC192005B05DF804EB90
:103F400000F02EBD002203F50E330292196C41F0F1
:103F5000010119641B6C03F00103029301211C2071
:103F6000029B00F0E7FC1C2005B05DF804EB00F0BC
:103F700017BD00BF000001400004004000380240AF
:103F800070B50168184A88B000239142CDE9033327
:103F9000CDE90533079301D008B070BD02F5943226
:103FA0000193516C114841F010015164516C01F0C2
:103FB0001001019101990293136B43F00103136304
:103FC000136B03F0010302930322072303A94FF4A9
:103FD000C0650224029ECDE90354CDE9062300F01A
:103FE000B5FE08B070BD00BF0010014000000240E7
:103FF0002DE9F0412F4A86B014680023CDE9013342
:10400000CDE90333059314B106B0BDE8F0814FF05C
:104010000108294B0094C2F800809A6B274842EAB5
:1040200008029A639B6B03EA0803022703260C2508
:10403000009301A94FF63F03009ACDE90137CDE97E
:10404000046500F083FE01A91D480394CDE90187B2
:10405000CDE9046500F07AFE48F2331301A919484E
:1040600001930297CDE90465039400F06FFE4FF6CB
:10407000837301A9144801930297CDE90465039461
:1040800000F064FE4CF2037301A9104801930297FB
:10409000CDE90465039400F059FE602301A90C48A2
:1040A0000297CDE904650394019300F04FFE06B03A
:1040B000BDE8F081500300200038024000140240A7
:1040C000000802400018024000100240000C0240AC
:1040D000000402402DE9F0414D4A0368934288B044
:1040E000054639D04B4A934202D008B0BDE8F08172
:1040F000494B1A68002A6CD001321A60402702230B
:10410000464C47480026CDE9037303A906230793CD
:10411000CDE9056600F01AFE424A22604FF00073B6
:104120004FF480604FF480514FF48042636020610F
:104130004FF480732046A760E660C4E90866C4E9CE
:104140000512E36100F054FC00285AD16C67A563A6
:104150002C6708B0BDE8F0812F4B1A68002A44D0C4
:104160003427314C3148039700260132062703A932
:104170004FF002081A60CDE90667CDE9048600F029
:10418000E5FD402303A92A480393CDE90667CDE95D
:1041900004864FF4806700F0D9FDDFF89CC06660AC
:1041A0004FF480514FF480424FF480732046C4E9AD
:1041B0000266C4E90866C4F800C0C4E90471C4E931
:1041C000062300F015FCF8B92B686C67A5632C6713
:1041D00088E718490292486C40F480004864496CB2
:1041E00001F480010291029986E712490192486C1C
:1041F00040F480004864496C01F480010191019908
:10420000AEE7FFF70FF8A1E7FFF70CF8DCE700BF18
:10421000045801402458014054030020F41E00209B
:1042200000140240706402405C160020001002403E
:10423000000C02400038024028640240704700BF72
:10424000FEE700BFFEE700BFFEE700BFFEE700BFDE
:10425000704700BF704700BF704700BF00F0D8B87C
:10426000014802F071BA00BFAC1A0020014802F008
:104270006BBA00BFB81F0020014800F091BC00BF1E
:104280005C160020014800F08BBC00BFF41E00202B
:104290001D4870B500221021064600F07FFE032065
:1042A000FFF7A6F801221021304600F077FE032028
:1042B000FFF79EF80D25002400222021304600F053
:1042C0006DFE0320FFF794F84021304600F060FEB9
:1042D0006400012290424FF020010B48A4B208BFB5
:1042E000144300F05BFE0320FFF782F8013DE3D1A9
:1042F0002A462021044800F051FE044B1A88A242AD
:1043000018BF1C8070BD00BF000002405803002091
:10431000034B1B8843FA00F000F00100704700BF18
:1043200058030020054BD3F888204FF0006142F479
:104330007002C3F888209960704700BF00ED00E06C
:10434000DFF834D0002103E00C4B5B5843500431BC
:104350000B480C4B42189A42F6D30B4A02E000235A
:1043600042F8043B094B9A42F9D3FFF7DBFF02F016
:104370003BFCFEF7C9F8704700000320886C00087A
:10438000000000208000002080000020002100208C
:10439000FEE7000038B50E4A0E4B12781B68054642
:1043A0004FF47A70B0FBF2F0B3FBF0F000F006FBD4
:1043B00008B90F2D01D9012038BD0446024629460F
:1043C0004FF0FF3000F0B6FA034B20461D6038BDB9
:1043D00078000020740000207C00002008B50B4B02
:1043E0001A6842F400721A601A6842F480621A6015
:1043F0001A6842F480721A60032000F089FA0020E3
:10440000FFF7C8FFFFF7A8FC002008BD003C0240F2
:10441000034A044B11681B780B441360704700BFBC
:10442000FC20002078000020014B1868704700BF76
:10443000FC20002038B50446FFF7F6FF631C054654
:1044400002D0044B1B781C44FFF7EEFF401BA04238
:10445000FAD338BD78000020002800F09180F8B52C
:10446000056C0446002D00F08180236CDB0604D52A
:104470000023012084F83C30F8BD226C4D492368AC
:104480004D4D22F4885222F0020242F002022264D0
:104490004A6822F440324A604A68606802434A60CF
:1044A00058682169A768E66820F4807058605A68E7
:1044B00042EA01225A60586820F0407058605968FA
:1044C000A06A39435960996821F4006199609A683B
:1044D000A84242EA06029A6054D09968E56A21F03F
:1044E000706199609A6810439860996821F0405112
:1044F00099609A682A439A609968257E94F820000A
:1045000021F0020199609A6842EA45029A605A686D
:10451000002840D122F400625A60DA6AE56994F812
:104520003070666922F47002DA62D86A013D40EAAE
:104530000550D862986820F400709860996841EA44
:1045400047219960996821F4806199609A680020F8
:1045500042EA86229A606064236C23F0030343F0EE
:1045600001032364002384F83C30F8BDFFF710FCFE
:104570006564236C84F83C50DB063FF579AF7CE73B
:10458000012070479A6822F070629A609A6822F05F
:1045900040529A60B0E742F40062616A5A605A6819
:1045A00022F460425A605A68013942EA41325A6044
:1045B000B3E700BF002301400100000F10B490F8E2
:1045C0003C3083B00022012B01925CD002689368DA
:1045D000012180F83C10D90714D4324B324C1B68AF
:1045E0009168A4FB03439B0C03EB430341F00101DF
:1045F00091600193019B2BB1019B013B0193019BB6
:10460000002BF9D19368DB072CD5036C23F4E0630E
:1046100023F0010343F48073036453685C0505D5FC
:10462000036C23F4405343F480530364036C13F48A
:1046300080531CBF436C23F0060343646FF02201D8
:1046400000241A4B80F83C4011605968C9060ED10D
:1046500017498A420ED001F580718A421ED0154951
:104660008A4215D0002003B05DF8044B7047104B10
:104670009A42F7D1906810F04050F3D1936843F01C
:1046800080439360EFE7022003B05DF8044B70476E
:104690005B6803F01F030F2BECD9E3E75B68DB06D5
:1046A000E8D0DFE77400002083DE1B4300230140D5
:1046B000002001400022014090F83C30012B16D030
:1046C00003689A68012122F0010280F83C109A6088
:1046D0009B68DB0706D4036C23F4885323F00103A3
:1046E0000B430364002380F83C30184670470220D7
:1046F000704700BF03689A68520502D59B68DA05C7
:1047000040D470B50D460446FFF78EFE06466B1C7E
:10471000226825D113689807FCD56FF01203136047
:10472000236C43F400732364936813F0405F15D146
:10473000237E9BB9D36A13F4700F02D093685B0594
:104740000CD4236C23F480732364206C10F4805009
:1047500004D1236C43F00103236470BD002070BDBD
:1047600013689907D9D425B1FFF75EFE801BA842D4
:10477000CDD9236C002243F00403236484F83C2049
:104780000320EAE7036C002243F02003036480F86F
:104790003C200120704700BF0368D86C704700BF01
:1047A000F0B490F83C3082B00022012B019200F06E
:1047B00094800D688A6803680124092DAFB280F8DF
:1047C0003C4029D81C6905EB45064FF0070C0CFA54
:1047D00006FC24EA0C041C611C6902FA06F6264356
:1047E0001E614E68062E06EB86022AD8596B053AE2
:1047F0001F24944021EA04015963596B07FA02F21D
:104800000A435A633D4A93422DD0002380F83C303E
:10481000184602B0F0BC704707EB4706DC681E3E46
:104820004FF0070C0CFA06FC24EA0C04DC60DC6890
:1048300002FA06F62643DE604E68062E06EB860276
:10484000D4D90C2E31D8A2F123041F211A6BA14018
:1048500022EA01021A63196B07FA04F20A431A6387
:10486000264A9342D1D1122D2DD0254B9D4238D1CD
:10487000244A254B5168254C21F480015160516830
:1048800041F4000151601B68A4FB03239B0C03EB64
:1048900083035B000193019B002BB6D0019B013B7E
:1048A0000193019B002BF9D1AFE7A2F141011F2435
:1048B000DA6A8C4022EA0402DA62DC6A07FA01F260
:1048C0002243DA629EE70F4B5A6822F400025A60D4
:1048D0005A6842F480025A6097E7022002B0F0BCA6
:1048E0007047112D91D1074B5A6822F480025A600B
:1048F0005A6842F400025A6087E700BF0020014076
:1049000012000010002301407400002083DE1B43CE
:10491000074AD3684FF6FF010B40000243F0BF6324
:1049200000F4E06043F400330343D360704700BFFA
:1049300000ED00E0184BDB68C3F3022330B4C3F191
:104940000705042D03F1040428BF0425062C19D9FA
:10495000033B4FF0FF349C4022EA04044FF0FF3247
:10496000AA4021EA020101FA03F2224312010028BF
:10497000D2B20ADB00F1604000F5614080F800230C
:1049800030BC704700242346E8E7044B00F00F00DA
:1049900003441A7630BC704700ED00E0FCEC00E008
:1049A000002807DB00F01F0101234009024A8B4069
:1049B00042F82030704700BF00E100E00138B0F15C
:1049C000807F0ED2084B10B4084C5860F02084F859
:1049D00023000022072110469A6019605DF8044BFD
:1049E00070470120704700BF10E000E000ED00E0DC
:1049F000F8B50446FFF718FD002C54D002222368B6
:104A000084F835201A68002122F0010284F834105D
:104A100005461A6005E0FFF707FD401B05283BD857
:104A200023681A68D107F6D4D4E90126D4E90351E2
:104A3000324360691F682A43D4E906650A4302438A
:104A4000216A354832432A430A43616A38400429BF
:104A500042EA000229D01A605A6922F00702114383
:104A6000DAB22E485961103AA0FB021212092C4901
:104A700023F47F73895CE16523F00303032A88BF75
:104A800004333F228A4001250021A36508469A602D
:104A9000616584F83550F8BD03232022626518460D
:104AA00084F83530F8BD0120F8BDD4E90B0101438D
:104AB0000A43A56A1A605A6945F0040122F0070208
:104AC00011430028CCD07EB1B6F5005F16D0022D80
:104AD00003D9032DC4D1C201C2D50123402262658E
:104AE000184684F83530F8BD012D03D0F3D3022DDC
:104AF000B6D1F0E7B0F1C07FB2D1EEE7032DAFD869
:104B000001A252F825F000BFDB4A0008D74A00088E
:104B1000DB4A0008F54A00083F8010F0ABAAAAAAB9
:104B2000706C0008F0B490F83440012C35D090F847
:104B30003540866D0125AC4280F8345027D1046899
:104B40000227002580F8357045652568876825F4BB
:104B50008025402F256063600ABFA260A160E160EC
:104B6000C16D18BFE2603F238B40026CB3602368C5
:104B700043F0160323601AB1236843F0080323604F
:104B8000236843F0010323600020F0BC704700233A
:104B900080F83430F0BC022070470220F0BC70472F
:104BA000F0B583B00023876D0193C36D3D686549FF
:104BB00008229A402A4204460E6803D00168086819
:104BC000400759D401229A402A4203D021684969FA
:104BD000080674D404229A402A4203D02168096846
:104BE000890766D410229A402A4203D021680868B7
:104BF00000074BD420229A402A4214D0216808682A
:104C0000C00610D5BA6094F83520052A63D00B6829
:104C100013F4802F0B687ED0190340F18980E36B79
:104C20000BB120469847636D23B3636DDA071AD53D
:104C30000523226884F835301368434923F00103C3
:104C4000A1FB06161360B60A02E01368DB0704D561
:104C5000019B0133B3420193F7D90022012384F869
:104C6000342084F83530E36C23B1204603B0BDE82E
:104C7000F040184703B0F0BD086820F00400086059
:104C8000BA60626D42F0010262659BE7BA600A6831
:104C900012F4802F0A6818D1D20503D40A6822F0D2
:104CA00008020A60226C002AA4D020469047E36DD7
:104CB000A0E7BA60626D42F00402626592E7BA60F2
:104CC000626D42F00202626584E71103EAD5A26CCC
:104CD000002AEAD18EE70A68206C22F016020A60E8
:104CE0004A6922F080024A6138B30A6822F0080259
:104CF0000A603F22216D02FA03F300200122BB600B
:104D000084F8340084F835200029B3D0204603B05D
:104D1000BDE8F040084713F4807380D10A68012091
:104D200022F010020A6084F8343084F8350076E707
:104D3000636C002B7FF475AF75E7A26C002AD4D1A9
:104D4000D7E700BF74000020B5814E1B2DE9F04F5E
:104D5000D1F80080DFF828E283B0002403E00134BA
:104D6000102C00F09B800123A34008EA0302934229
:104D7000F5D1D1E9016526F010094FEA440C03236F
:104D800009F1FF3703FA0CF3012F6FEA030305FA69
:104D90000CF540F28680C7681F403D43C560076838
:104DA00006F003051F4005FA0CF33B430360F300D4
:104DB000D5D56C4D002301936B6C43F480436B6439
:104DC0006D6C24F0030305F4804503F180430195E5
:104DD00003F59C3304F003054FEA8509624D019FFA
:104DE000D3F808C00F2707FA09F7A8422CEA0707EB
:104DF0002DD005F58065A84200F084805B4DA84267
:104E000000F086805A4DA84200F08880594DA84293
:104E100000F08A80584DA84200F09280574DA84279
:104E200000F09480DFF85CC1604500F08380DFF81B
:104E300058C1604500F09080DFF850C160450CBF5C
:104E40004FF0090C4FF00A0C0CFA09F52F439F6044
:104E5000DEF80030D543F70354BF2B401343CEF8A0
:104E60000030DEF80430B70354BF2B401343CEF8B4
:104E70000430DEF80830F70254BF2B401343CEF85D
:104E80000830DEF80C30B60204F1010454BF2B40A8
:104E90001343102CCEF80C307FF465AF03B0BDE89F
:104EA000F08F876807EA030ACF6807FA0CF747EA2A
:104EB0000A078760D0F804A0C6F300172AEA020A9E
:104EC000A74047EA0A074760C7681F403D43B9F15A
:104ED000020FC5607FF463AF4FEAD40900EB890984
:104EE00004F00707D9F82050BF004FF00F0B0BFA62
:104EF00007FB25EA0B0A0D69BD4045EA0A05C9F81A
:104F000020504CE74FF0010C0CFA09F52F439EE7B7
:104F10004FF0020C0CFA09F52F4398E74FF0030C01
:104F20000CFA09F52F4392E74FF0040C0CFA09F53F
:104F30002F438CE74FF0070C0CFA09F52F4386E757
:104F40004FF0050C0CFA09F52F4380E74FF0060CE3
:104F50000CFA09F52F437AE74FF0080C0CFA09F523
:104F60002F4374E70038024000000240000802406E
:104F7000000C0240001002400014024000180240E1
:104F8000003C0140001C024000200240002402407E
:104F90000369194214BF01200020704702B90904B7
:104FA00081617047002800F09F80F8B590F83D308F
:104FB000044603F0FF02002B00F08F8023682422B8
:104FC00084F83D201A6822F001021A601A6842F43F
:104FD00000421A601A6822F400421A6000F09AFB3C
:104FE00061684B4B99424BD84A4B98427AD9226818
:104FF000494B5568A3FB00639B0C25F03F051D43FF
:105000005560156A013325F03F052B431362D569BE
:105010004900431EB3FBF1F30133C3F30B0325F443
:105020004F45042B38BF042325F0FF052B43D361E4
:10503000D4E907351068216920F0C0002B430343F1
:1050400013609068E568636920F4034020F0FF0076
:10505000294301439160D168A06921F0FF01034316
:105060000B43D3601168002341F00101202511603A
:105070001846236484F83D50236384F83E30F8BD1D
:10508000264B98422ED92268234B5668244FA3FB07
:1050900000539D0C26F03F062E434FF49673566046
:1050A00003FB05F3A7FB0353156AA6689B0925F0CC
:1050B0003F0501332B431362D56925F44F45013871
:1050C00025F0FF0596B901EB4101B0FBF1F001308D
:1050D000C0F30B00C0B90123A8E780F83C20FEF71D
:1050E0008BFE6BE70120F8BD0120704701EB8101C9
:1050F00001EB8101B0FBF1F00130C0F30B0000289F
:10510000E9D040F4404391E740F400438EE700BF0C
:10511000A08601007F841E0083DE1B43FF083D0044
:10512000D34D621090F83D20D2B2202A1AD10368E4
:1051300010B4242480F83D401C6824F001041C6055
:105140005C6A24F010045C625C6A2143596219684D
:105150005DF8044B41F001011960002380F83D2007
:105160001846704702231846704700BF90F83D303C
:10517000DBB2202B19D130B42422046880F83D2002
:10518000256825F001052560656A4FF6F0722A4012
:105190000A4392B26262226842F001022260002257
:1051A00080F83D3030BC10467047022210467047F0
:1051B000002800F032812DE9F0410368DD0782B05C
:1051C00004462FD5AC498A6802F00C02042A00F08C
:1051D000EA808A6802F00C02082A00F0E080636826
:1051E000B3F5803F00F0E980B3F5A02F00F078819F
:1051F000A14D2A6822F480322A602A6822F4802293
:105200002A60002B40F0DE80FFF70EF9064605E02D
:10521000FFF70AF9801B642800F2F2802B689B03D9
:10522000F6D423689F0775D41A0715D56369002B38
:1052300000F0A580914B904D01221A60FFF7F4F821
:10524000064605E0FFF7F0F8801B022800F2D88040
:105250006B6F9B07F6D5236858073BD5864A136CBE
:1052600013F0805340F0DB800193136C43F08053C4
:105270001364136C03F080530193019B0126804D4E
:105280002A68D10540F1AC80A368012B00F0C980E9
:10529000052B00F02F81784D2A6F22F001022A673A
:1052A0002A6F22F004022A67002B40F0BF80FFF72C
:1052B000BBF841F28837804606E0FFF7B5F8A0EB6F
:1052C0000800B84200F29C802B6F9807F5D4002E9E
:1052D00040F0DC80A069C8B1674DAA6802F00C02FA
:1052E000082A00F0D980674A00210228116000F0E6
:1052F0000B81FFF799F82C46054604E0FFF794F878
:10530000401B02287CD823689B01F7D4002002B000
:10531000BDE8F081584A916811F00C0F24D09168D3
:1053200001F00C0108291CD0E368002B00F09280EA
:10533000554B514D01221A60FFF776F8064604E0FE
:10534000FFF772F8801B02285AD82B689807F7D508
:105350002B68226923F0F80343EAC2032B60236819
:1053600062E752685602DFD4434A126895074BD56C
:10537000E268012A48D0012002B0BDE8F0813F4A2E
:105380003D4D1360FFF750F8064604E0FFF74CF878
:10539000801B022834D86B6F9F07F7D45BE74A68FD
:1053A00050027FF51CAF344A126891037FF53AAF83
:1053B0006268002A7FF436AFDDE72F4A136843F4B2
:1053C00080331360FFF730F82B4D064604E0FFF7FB
:1053D0002BF8801B642813D82B689A03F7D520E795
:1053E0002A6842F480722A60FFF71EF807462B688D
:1053F000DA053FF549AFFFF717F8C01B0228F6D9C9
:10540000032002B0BDE8F0811B4920690A6822F040
:10541000F80242EAC0020A6006E70120704700264F
:105420002DE7154A136F43F001031367FEF7FCFFE6
:10543000114D804641F2883705E0FEF7F5FFA0EBFD
:105440000800B842DCD82B6F9B07F6D5002E3FF43E
:1054500041AF1BE00C4A084D1360FEF7E5FF06461E
:1054600004E0FEF7E1FF801B0228C9D82B689907EA
:10547000F7D42368D8E600BF00380240800E4742C8
:10548000007000406000474200004742354A136CFC
:1054900023F0805313641DE701283FF46DAF6B6860
:1054A000E26903F4800191427FF465AF226A03F060
:1054B0003F0191427FF45FAF47F6C072616A1A40C4
:1054C0008A427FF458AFA26A03F4403191427FF4DC
:1054D00052AFE06A03F07063181A18BF01204BE75F
:1054E000204B1A6842F480221A601A6842F4803213
:1054F0001A6067E71B4B1A6F42F004021A671A6FB3
:1055000042F001021A6791E7FEF78EFF064605E0BA
:10551000FEF78AFF801B02283FF672AF2B689901C5
:10552000F6D4D4E90736D4E90902E16A0D4C3343D5
:1055300043EA8013520843EA0163013A0A4943EA05
:10554000024301226B600A60FEF76EFF054605E02C
:10555000FEF76AFF401B02283FF652AF23689A010C
:10556000F6D5D3E60038024060004742174908B537
:105570008B6803F00C03042B1BD0082B17D14A684F
:105580004B6813F4800302F03F0214D149681048BD
:10559000C1F38811A1FB0001FBF718FB0B4B5B6803
:1055A000C3F3014301335B00B0FBF3F008BD0848CF
:1055B00008BD084808BD4B680648C3F38813A3FB21
:1055C00000010023FBF702FBE8E700BF00380240C0
:1055D0000024F40000127A0060B1494A136803F015
:1055E0000F038B4208D2CBB21370136803F00F0382
:1055F0008B4201D00120704703682DE9F0419D07DF
:1056000014D55C0704D53F4CA26842F4E052A26076
:105610001A0704D53B4CA26842F46042A260394CA0
:105620008568A26822F0F0022A43A260DF070446E0
:105630000D4622D54268012A57D0931E012B314BCB
:105640001B6859D9990725D52E4EB36823F003035B
:105650001343B360FEF7E8FE41F28837804605E069
:10566000FEF7E2FEA0EB0800B84243D8B3686268D8
:1056700003F00C03B3EB820FF2D1214A136803F05D
:105680000F03AB4209D9EBB21370136803F00F0399
:10569000AB4202D00120BDE8F08123685A0706D54D
:1056A0001849E0688A6822F4E05202438A601B07C6
:1056B00012D4FFF75BFF134B134C9B681349144A3A
:1056C000C3F30313E35C20FA03F308681360FEF7E7
:1056D00061FE0020BDE8F0810A4A2169936823F445
:1056E000604343EAC1039360E3E7064B1B689E03F4
:1056F000AAD4CFE70320EDE79801A5D4CAE700BFFD
:10570000003C024000380240586C00087C00002039
:1057100074000020044B054A9B680549C3F38223AB
:105720000868D35CD840704700380240686C0008B5
:1057300074000020044B054A9B680549C3F34233BB
:105740000868D35CD840704700380240686C000895
:1057500074000020F0B50446006810F0430F83B0D9
:105760000FD110F00C0F6ED1850600F1BE8010F045
:10577000100004D0864B94F82C201A60002003B04F
:10578000F0BD844B844D00221A60FEF74DFE0646A4
:1057900004E0FEF749FE801B022851D82B6818014F
:1057A000F7D42368D90706D5D4E90112120742EAD3
:1057B0008112C5F884209A0715D57749E268D1F897
:1057C00084006568120600F0E04042EA8512024358
:1057D000C1F88420D1F88C00E26920F01F00013A62
:1057E0000243C1F88C205B0609D5201D0BC81B069F
:1057F000694A43EA801343EA0173C2F88430654B77
:10580000654D01221A60FEF70FFE064604E0FEF722
:105810000BFE801B022813D82B681F01F7D52068C8
:105820009FE70D46FEF700FE41F2883607462B6FD4
:105830009B0700F18E80FEF7F7FDC01BB042F6D942
:10584000032003B0F0BD554B534D00221A60FEF704
:10585000EBFD064604E0FEF7E7FD801B0228EFD8CB
:105860002B689800F7D42268510715D5D4E90403B2
:10587000D5F888101B0601F0E04143EA80130B4382
:10588000C5F88830D5F88C30216A23F4F8530139F3
:1058900043EA0123C5F88C30130714D53E4AA369A7
:1058A000D2F8881020691B0701F0706143EA801369
:1058B0000B43C2F88830D2F88C30616A23F440334D
:1058C0000B43C2F88C30354B334D01221A60FEF782
:1058D000ABFD064604E0FEF7A7FD801B0228AFD80B
:1058E0002B689F00F7D520683EE72B4B2C4D0022FC
:1058F00001921A6C42F080521A641B6C03F08053C0
:105900000193019B2B6843F480732B60FEF78CFDA1
:10591000064604E0FEF788FD801B022890D82B681D
:10592000D905F7D51C49A36A0A6F12F4407203F433
:10593000407011D082420FD00B6F1A4A23F440738B
:1059400001250020156010600B670B6FDA073FF52B
:1059500068AFA36A03F44070B0F5407F0CD00E49E5
:105960008A6822F4F8128A600B4A116FC3F30B03A2
:105970000B4313672068FAE60748826823F07041FA
:1059800022F4F81221F440710A438260ECE700BF70
:10599000E011474268004742003802407000474229
:1059A00000700040400E4742002800F0CC80F8B55F
:1059B00090F88130044603F0FF02002B00F0948041
:1059C000634B21681B686348022284F881200A68BF
:1059D000A0FB03031B0B22F480329B000A6002E051
:1059E0000A68D20308D513F1FF33F9D2D4F8843012
:1059F00043F04003C4F88430204600F021FA236AC3
:105A0000002B76D16368D4F824C0226C33F00200F6
:105A100000F08E80012AA26814BF00204FF40070AD
:105A2000012A00F08D80C0F09080032A00F28D8062
:105A30004FF40065D4E90E26676B21683B43D1F82B
:105A400000E0454F1A433243A66A23690EEA07076E
:105A50000F60324366690F68134333433B4343EAA5
:105A60000C5303432B430B604868A269636DE76CDA
:105A70003A4ED4E90BC520F4604020F00F00486096
:105A8000486842EA0C022A4302434A608A68D4F812
:105A900050C01640D4E911508E608E68A26D3B4311
:105AA00043EA0C033343013D2B43013843EA00230F
:105AB0008B60C868E36D4FF220052840C860CE684F
:105AC000D4E918051343334343EA05430138002260
:105AD00043EA00230125CB601046C4F8842084F8F3
