:020000040810E2
:1000000000800410AD2D10085D2A1008612A100828
:10001000652A1008692A10086D2A100800000000DF
:10002000000000000000000000000000712A10081D
:10003000752A100800000000792A10087D2A10088F
:10004000FD2D1008FD2D1008FD2D1008FD2D1008A8
:10005000FD2D1008FD2D1008FD2D1008FD2D100898
:10006000FD2D1008FD2D1008FD2D1008FD2D100888
:10007000FD2D1008FD2D1008A52A1008FD2D1008D3
:10008000FD2D1008FD2D1008FD2D1008FD2D100868
:10009000FD2D1008FD2D1008FD2D1008FD2D100858
:1000A000FD2D1008812A1008FD2D1008FD2D1008C7
:1000B000FD2D1008FD2D10088D2A1008FD2D1008AB
:1000C000FD2D1008FD2D1008FD2D1008B12A100877
:1000D000FD2D1008FD2D1008FD2D1008FD2D100818
:1000E000FD2D1008FD2D100800000000FD2D10084A
:1000F000FD2D1008FD2D1008FD2D1008FD2D1008F8
:10010000FD2D1008FD2D1008FD2D1008FD2D1008E7
:10011000FD2D1008FD2D1008FD2D1008FD2D1008D7
:10012000FD2D1008FD2D1008FD2D1008FD2D1008C7
:10013000FD2D1008FD2D1008FD2D1008FD2D1008B7
:10014000FD2D1008FD2D100800000000000000002B
:10015000FD2D1008FD2D1008FD2D1008FD2D100897
:10016000FD2D1008FD2D1008FD2D1008FD2D100887
:10017000FD2D1008FD2D1008FD2D100800000000B9
:10018000FD2D1008FD2D1008FD2D1008FD2D100867
:10019000FD2D1008FD2D1008FD2D1008FD2D100857
:1001A000FD2D1008FD2D1008FD2D1008FD2D100847
:1001B000FD2D1008FD2D1008FD2D1008FD2D100837
:1001C000FD2D1008FD2D1008FD2D1008FD2D100827
:1001D000FD2D1008FD2D1008FD2D1008FD2D100817
:1001E000FD2D1008FD2D1008FD2D1008FD2D100807
:1001F000FD2D1008FD2D1008FD2D1008FD2D1008F7
:10020000FD2D1008FD2D1008FD2D1008FD2D1008E6
:10021000992A1008FD2D1008FD2D1008FD2D10083D
:10022000FD2D1008FD2D1008FD2D1008FD2D1008C6
:10023000FD2D1008FD2D1008FD2D1008FD2D1008B6
:10024000FD2D1008FD2D1008FD2D1008FD2D1008A6
:10025000FD2D1008FD2D1008FD2D1008FD2D100896
:10026000FD2D1008FD2D1008FD2D1008FD2D100886
:10027000FD2D1008FD2D1008FD2D1008FD2D100876
:10028000FD2D1008FD2D1008FD2D100800000000A8
:08029000FD2D1008FD2D1008E2
:1002980010B5054C237833B9044B13B10448AFF3B8
:1002A80000800123237010BD7C180010000000009E
:1002B8008458100808B5034B1BB103490348AFF332
:1002C800008008BD00000000801800108458100845
:1002D80081F0004102E000BF83F0004330B54FEAEF
:1002E80041044FEA430594EA050F08BF90EA020F5C
:1002F8001FBF54EA000C55EA020C7FEA645C7FEAEF
:10030800655C00F0E2804FEA5454D4EB5555B8BF11
:100318006D420CDD2C4480EA020281EA030382EA82
:10032800000083EA010180EA020281EA0303362D14
:1003380088BF30BD11F0004F4FEA01314FF4801CE7
:100348004CEA113102D0404261EB410113F0004FF9
:100358004FEA03334CEA133302D0524263EB4303B0
:1003680094EA050F00F0A780A4F10104D5F1200E4E
:100378000DDB02FA0EFC22FA05F2801841F10001A9
:1003880003FA0EF2801843FA05F359410EE0A5F17D
:1003980020050EF1200E012A03FA0EFC28BF4CF0AE
:1003A800020C43FA05F3C01851EBE37101F0004564
:1003B80007D54FF0000EDCF1000C7EEB00006EEB71
:1003C8000101B1F5801F1BD3B1F5001F0CD34908FB
:1003D8005FEA30004FEA3C0C04F101044FEA445252
:1003E80012F5800F80F09A80BCF1004F08BF5FEAD9
:1003F800500C50F1000041EB045141EA050130BDB9
:100408005FEA4C0C404141EB010111F4801FA4F15B
:100418000104E9D191F0000F04BF01460020B1FAB0
:1004280081F308BF2033A3F10B03B3F120020CDAE8
:100438000C3208DD02F1140CC2F10C0201FA0CF0C6
:1004480021FA02F10CE002F11402D8BFC2F1200C2B
:1004580001FA02F120FA0CFCDCBF41EA0C019040E1
:10046800E41AA2BF01EB0451294330BD6FEA04042A
:100478001F3C1CDA0C340EDC04F11404C4F1200215
:1004880020FA04F001FA02F340EA030021FA04F327
:1004980045EA030130BDC4F10C04C4F1200220FA7E
:1004A80002F001FA04F340EA0300294630BD21FABC
:1004B80004F0294630BD94F0000F83F4801306BF82
:1004C80081F480110134013D4EE77FEA645C18BF76
:1004D8007FEA655C29D094EA050F08BF90EA020F0D
:1004E80005D054EA000C04BF1946104630BD91EA05
:1004F800030F1EBF0021002030BD5FEA545C05D108
:100508004000494128BF41F0004130BD14F5800446
:100518003CBF01F5801130BD01F0004545F0FE41BA
:1005280041F470014FF0000030BD7FEA645C1ABFEF
:10053800194610467FEA655C1CBF0B46024650EA26
:10054800013406BF52EA033591EA030F41F4002152
:1005580030BD00BF90F0000F04BF0021704730B5D8
:100568004FF4806404F132044FF000054FF00001AD
:1005780050E700BF90F0000F04BF0021704730B56E
:100588004FF4806404F1320410F0004548BF404243
:100598004FF000013EE700BF42004FEAE2014FEA98
:1005A80031014FEA02701FBF12F07F4393F07F4F73
:1005B80081F06051704732F07F4208BF704793F076
:1005C8007F4F04BF41F40021704730B54FF4607489
:1005D80001F0004521F000411CE700BF50EA01028C
:1005E80008BF704730B54FF000050AE050EA010235
:1005F80008BF704730B511F0004502D5404261EBA5
:1006080041014FF4806404F132045FEA915C3FF4E5
:10061800D8AE4FF003025FEADC0C18BF03325FEA82
:10062800DC0C18BF033202EBDC02C2F1200300FA33
:1006380003FC20FA02F001FA03FE40EA0E0021FA58
:1006480002F11444BDE600BF70B54FF0FF0C4CF446
:10065800E06C1CEA11541DBF1CEA135594EA0C0FF8
:1006680095EA0C0F00F0DEF82C4481EA030621EA33
:100678004C5123EA4C5350EA013518BF52EA03356E
:1006880041F4801143F4801338D0A0FB02CE4FF020
:100698000005E1FB02E506F00042E0FB03E54FF050
:1006A8000006E1FB03569CF0000F18BF4EF0010E48
:1006B800A4F1FF04B6F5007F64F5407404D25FEA44
:1006C8004E0E6D4146EB060642EAC62141EA5551F7
:1006D8004FEAC52040EA5E504FEACE2EB4F1FD0C39
:1006E80088BFBCF5E06F1ED8BEF1004F08BF5FEAB7
:1006F800500E50F1000041EB045170BD06F0004669
:1007080046EA010140EA020081EA0301B4EB5C0415
:10071800C2BFD4EB0C0541EA045170BD41F480110D
:100728004FF0000E013C00F3AB8014F1360FDEBF32
:10073800002001F0004170BDC4F10004203C35DA0E
:100748000C341BDC04F11404C4F1200500FA05F391
:1007580020FA04F001FA05F240EA020001F0004232
:1007680021F0004110EBD37021FA04F642EB0601A8
:100778005EEA430E08BF20EAD37070BDC4F10C04D2
:10078800C4F1200500FA04F320FA05F001FA04F296
:1007980040EA020001F0004110EBD37041F1000182
:1007A8005EEA430E08BF20EAD37070BDC4F120058D
:1007B80000FA05F24EEA020E20FA04F301FA05F2F5
:1007C80043EA020321FA04F001F0004121FA04F29D
:1007D80020EA020000EBD3705EEA430E08BF20EA6D
:1007E800D37070BD94F0000F0FD101F000464000A7
:1007F80041EB010111F4801F08BF013CF7D041EA29
:10080800060195F0000F18BF704703F0004652002C
:1008180043EB030313F4801F08BF013DF7D043EAFD
:100828000603704794EA0C0F0CEA135518BF95EAB3
:100838000C0F0CD050EA410618BF52EA4306D1D13A
:1008480081EA030101F000414FF0000070BD50EA59
:10085800410606BF1046194652EA430619D094EAE3
:100868000C0F02D150EA013613D195EA0C0F05D1CD
:1008780052EA03361CBF104619460AD181EA030121
:1008880001F0004141F0FE4141F470014FF00000D9
:1008980070BD41F0FE4141F4780170BD70B54FF074
:1008A800FF0C4CF4E06C1CEA11541DBF1CEA1355F4
:1008B80094EA0C0F95EA0C0F00F0A7F8A4EB0504D6
:1008C80081EA030E52EA03354FEA013100F08880CD
:1008D8004FEA03334FF0805545EA131343EA126396
:1008E8004FEA022245EA111545EA10654FEA00264B
:1008F8000EF000419D4208BF964244F1FD0404F504
:10090800407402D25B084FEA3202B61A65EB03055F
:100918005B084FEA32024FF480104FF4002CB6EB1C
:10092800020E75EB030E22BFB61A754640EA0C009C
:100938005B084FEA3202B6EB020E75EB030E22BFDC
:10094800B61A754640EA5C005B084FEA3202B6EB1D
:10095800020E75EB030E22BFB61A754640EA9C00DC
:100968005B084FEA3202B6EB020E75EB030E22BFAC
:10097800B61A754640EADC0055EA060E18D04FEA6A
:10098800051545EA16754FEA06164FEAC30343EA0A
:1009980052734FEAC2025FEA1C1CC0D111F4801FD7
:1009A8000BD141EA00014FF000004FF0004CB6E7D0
:1009B80011F4801F04BF01430020B4F1FD0C88BF6F
:1009C800BCF5E06F3FF6AFAEB5EB030C04BFB6EB7A
:1009D800020C5FEA500C50F1000041EB045170BD6D
:1009E8000EF0004E4EEA113114EB5C04C2BFD4EB9A
:1009F8000C0541EA045170BD41F480114FF0000E1E
:100A0800013C90E645EA060E8DE60CEA135594EA99
:100A18000C0F08BF95EA0C0F3FF43BAF94EA0C0F9C
:100A28000AD150EA01347FF434AF95EA0C0F7FF411
:100A380025AF104619462CE795EA0C0F06D152EA65
:100A480003353FF4FDAE1046194622E750EA410649
:100A580018BF52EA43067FF4C5AE50EA41047FF45A
:100A68000DAF52EA43057FF4EBAE12E74FEA4102BD
:100A7800B2F1E04324BFB3F5001CDCF1FE5C0DD9F4
:100A880001F0004C4FEAC0024CEA5070B2F1004F3E
:100A980040EB830008BF20F00100704711F0804F41
:100AA80021D113F13872BCBF01F00040704741F406
:100AB80080114FEA5252C2F11802C2F1200C10FA0A
:100AC8000CF320FA02F018BF40F001004FEAC123EE
:100AD8004FEAD32303FA0CFC40EA0C0023FA02F392
:100AE8004FEA4303CCE77FEA625307D150EA013368
:100AF8001EBF4FF0FE4040F44000704701F0004038
:100B080040F0FE4040F40000704700BF074BD3F8A8
:100B1800882042F47002C3F888201A694FF00161F6
:100B280042F004021A619960704700BF00ED00E0CE
:100B380010F0010210B518BF0122044640210E48EA
:100B480003F002FD14F0020218BF012280210A48B6
:100B580003F0FAFC14F0040206D14FF48071064841
:100B6800BDE8104003F0F0BC01224FF48071024848
:100B7800BDE8104003F0E8BC0018025830B4184D26
:100B8800184A2B5C03EB43140133DBB2032B0444F8
:100B980008BF002322F814102B5400F1210300F1A0
:100BA800420132F8133032F8100032F8112098421E
:100BB80006D993420FD9984228BF184630BC7047CF
:100BC800904202D99842F6D3F3E7934228BF1346DE
:100BD800184630BC7047904228BF104630BC70475A
:100BE800981800106C190010F0B40F4D0F4A2B5CC8
:100BF80052F820400F2B08D80D4E03EB001736F89B
:100C080017C026F81710A4EB0C040133DBB20F2B26
:100C1800214488BF00232B5442F82010081120EAF1
:100C2800E07080B2F0BC7047541E0010E818001045
:100C3800341A001070B5154C84B00026000160F01D
:100C48007F033246204601254FF480518DF8093044
:100C58008DF80A608DF8085003F076FC6423009341
:100C680003AA032302A90A4803F0F8FE20462A46ED
:100C78004FF4805103F068FC9DF80D309DF80E008C
:100C88001B0203F44073184304B070BD00040258FB
:100C9800D01E0010F8B504460020FFF7CBFF014630
:100CA8002046FFF76BFF01462046FFF79DFF25B260
:100CB8001F4F27F815000120FFF7BCFF04F10806B5
:100CC800F6B201463046FFF759FF01463046FFF7B6
:100CD8008BFF07EB450504F1100628820220FFF779
:100CE800A9FFF6B201463046FFF748FF01463046F5
:100CF800FFF77AFF28840320FFF79CFF1834E4B23B
:100D080001462046FFF73AFF01462046FFF76CFFF1
:100D180028860420FFF78EFF01462020FFF72EFFCC
:100D280001462020FFF760FFA7F84000F8BD00BF8C
:100D3800B004043030B400221B4D002411460420B6
:100D480002EB820305EB83030132042AC3F8A412E1
:100D5800C3F84413C3F8AC42C3F84C43A3F8B01229
:100D6800A3F8501383F8A00283F84003E8D10021C8
:100D78000D4D0024084601EB810305EB8303013187
:100D88000429C3F8F402C3F89403C3F8FC42C3F877
:100D98009C43A3F80003A3F8A00383F8F02283F888
:100DA8009023E8D130BC7047C810003801EB8101AE
:100DB80048B102EB82020901084B01EB82010B44A6
:100DC80093EDD30A70470B0102EB8202034803EB51
:100DD8008201084490EDAB0A704700BFC810003884
:100DE8002DE9F04F2DED028B4FF00009DFF8FC8262
:100DF8009FEDBB8A8DB0CB464FEA8B0AA82303FB35
:100E08000BF70AEB0B09534608EB0706BA464FEAFD
:100E180009195F4600259B467219AC0092F8A2306A
:100E2800012B0AD1631909EB83034344002182F89B
:100E3800A210C3F8A41283F8A012631909EB830364
:100E4800434493F8A032032B1AD8DFE803F03A6F33
:100E580022022C4405EB450309EB84040AEB8303C7
:100E680044444344D4F8A4121A6F9142C0F0EF806E
:100E78000022042384EDAB8AC4F8A42284F8A032AB
:100E88000135042DC8D1002F40F0D7804FF0010B59
:100E9800B2E70BEB05031B01924AD15C2C440129F4
:100EA800134409EB840400F0CD80DB79012B00F0BA
:100EB800C980444400220323C4F8A42284F8A03241
:100EC800DEE70BEB05031B01864AD15C134431B9FD
:100ED800DB7903F0FF020392002B00F0CF80631947
:100EE80005EB450209EB83030AEB820243444244C3
:100EF800D3F8A4025168884209D293EDAB7AF7EE91
:100F0800007AB4EEE77AF1EE10FAC0F2CF802C4402
:100F180009EB840444444FF07E53C4F8AC320022F9
:100F28000123C4F8A42284F8A032A9E70BEB050337
:100F38001B016C4AD15C2C44134400293FD1DB7956
:100F480003F0FF020392002B39D109EB840405EB6F
:100F5800450344440AEB83034344D4F8AC02D3ED7D
:100F68001D7ACDED087AFFF717FB01F100430690D3
:100F78000793DDE9060156A3D3E90023FFF764FBD5
:100F8800CDE90A010898FFF707FB0022564BFFF747
:100F9800A3F902460B46DDE90A01FFF755FB4EA30C
:100FA800D3E90023FFF77AFCFFF760FD039AC4F842
:100FB800A8020323C4F8A42284F8A03260E705EB52
:100FC800450309EB84040AEB830344444344D4F8FF
:100FD800A4129A6B91424AD3B06ED3ED1D7ACDED2F
:100FE800037AFFF7D9FA01F1004301930090DDE994
:100FF800000137A3D3E90023FFF726FBCDE9080159
:101008000398FFF7C9FA0022374BFFF765F9024644
:101018000B46DDE90801FFF717FB2FA3D3E90023EF
:10102800FFF73CFCFFF722FD00220223C4F8A802C8
:10103800C4F8A42284F8A03222E70DB0BDEC028BDC
:10104800BDE8F08F4444B36EC4F8AC3218E7D4ED71
:10105800AB6A93ED1D7AD4EDAA7AE6EE877AC4EDF1
:10106800AB7AD4F8A4320133C4F8A43208E7D4ED3B
:10107800AB6A93ED0F7AD3ED107AEEE72C4409EBC7
:10108800840405EB450344440AEB83034344D4F842
:10109800AC02D3ED1D7ACDED087AFFF77DFA01F1A8
:1010A800004304900593DDE9040164E7D3EDAB6ADE
:1010B80092ED027AD2ED037AE6EE877AC3EDAB7A47
:1010C800D3F8A4220132C3F8A422D9E6AFF30080F2
:1010D800FC2ABEC788E9F03E8470EE2CDEFFEFBF25
:1010E80000000000001000380000F03FC810003871
:1010F8002DE9F04F2DED028B8FB04FF0000ADFF88D
:1011080014B3DFEDC38ACDF814A00599C14C4FEA9A
:101118008109A82209EB010302FB01F24FEA031A35
:101128000BEB020302930B190393CBB204920193C6
:101138000024029B1A19A50092F8F231012B0AD15A
:101148002B190AEB83035B44002182F8F211C3F8E0
:10115800441383F840132B190AEB83035B4493F879
:101168004033032B1ED8DFE813F0CD000301B50090
:10117800040004992B1904EB440201EB82020AEBE8
:1011880083035B445A44D3F84403D2F8C01188421D
:10119800C0F09D8100210422C3EDD38AC3F8441313
:1011A80083F84023039B93F8F033032B2CD8DFE814
:1011B80003F0775B3F022E1909EB04080BEB480894
:1011C8000AEB86065E44019896EDD38AB8F8E07378
:1011D80000F042FDB8F8E0338F4A00FB03F082FBD1
:1011E80000320244C017BFB2A0EB6220384407EEB9
:1011F800900AF8EEE77A67EE887AFCEEE77A17EE5F
:10120800903A9BB2A6F8503325440AEB85055D4415
:10121800E1B2B5F850230198013401F051F8042CDB
:1012280087D1059B002B40F04381012305936CE790
:101238002E1909EB04080BEB48080AEB86065E44F6
:10124800019896EDD38AB8F8E07300F005FDB8F878
:10125800E033724A00FB03F082FB00320244C017FD
:10126800BFB2A0EBA220C1E72E1909EB04080BEBD3
:1012780048080AEB86065E44019896EDD38AB8F8CA
:10128800E07300F0E9FCB8F8E033654A00FB03F0CE
:1012980082FB00320244C017BFB2A0EBE220A5E7F0
:1012A8002B1909EB04020AEB830302F5F8725B447D
:1012B80093EDD37A3BF8122007EE902AF8EEE77AFE
:1012C80067EE877AFCEEE77A17EE902A92B2A3F8D7
:1012D800502399E709EB04031B01524AD15C012909
:1012E800134400F0EA80DB79012B00F0E6802B192B
:1012F8000AEB83035B4400210322C3F8441383F8F9
:1013080040234FE709EB04031B01464AD15C134411
:1013180029B9DB7903F0FF06002B00F0F880049967
:101328002B1904EB440201EB82020AEB83035B44B2
:101338005A44D3F84403D2F85411884209D293EDA1
:10134800D37AF7EE007AB4EEE77AF1EE10FAC0F24B
:10135800F6802B190AEB83035B444FF07E52C3F8E7
:101368004C2300210122C3F8441383F8402319E7D2
:1013780009EB04031B012B4AD15C05EB0408134459
:10138800002953D1DB7903F0FF06002B4ED1049AD4
:101398000AEB880804EB440302EB8303D8445B445C
:1013A800D8F84C03D3F8C471FFF7F6F801F10043FD
:1013B8000C900D93DDE90C0111A3D3E90023FFF78D
:1013C80043F9CDE908013846FFF7E6F80022164B45
:1013D800FEF782FF02460B46DDE90801FFF734F904
:1013E80009A3D3E90023FFF759FAFFF73FFB0323CB
:1013F800C8F84803C8F8446388F84033D2E600BF09
:10140800FC2ABEC788E9F03E8470EE2CDEFFEFBFF1
:1014180000000000C8100038030820800102108076
:1014280081000880001000380000F03F049A04EBA7
:10143800440302EB83030AEB8808D8445B44D8F8DA
:101448004413D3F88821914251D3029AD2F8B801B3
:10145800D3ED717ACDED087AFFF79EF801F10043DC
:1014680007930690DDE906013CA3D3E90023FFF7C3
:10147800EBF8064608980F46FFF78EF80022364B21
:10148800FEF72AFF02460B4630463946FFF7DCF8DE
:101498002FA3D3E90023FFF701FAFFF7E7FA0022A9
:1014A8000223C8F84803C8F8442388F8403379E68B
:1014B8000FB0BDEC028BBDE8F08F2B19029A0AEB36
:1014C80083035B44D2F8B821C3F84C236AE6D3ED12
:1014D800D36A92ED717AD3EDD27AE6EE877AC3EDCC
:1014E800D37AD3F844230132C3F844235AE6D8ED1B
:1014F800D36A93ED637AD3ED647AE6EE877AC8ED22
:10150800D37AD8F844330133C8F844334AE6049A06
:1015180005EB04080AEB880804EB440302EB830399
:10152800D8445B44D8F84C03D3F8C471FFF734F8B7
:1015380001F100430A900B93DDE90A013CE7D3ED82
:10154800D36A92ED567AD2ED577AC6E7AFF30080A8
:101558008470EE2CDEFFEFBF0000F03FFC2ABEC710
:1015680088E9F03E0E4B00224FF4FA71A3F8D0221E
:10157800A3F8D2229A7483F82A211A7583F82C21A9
:101588009A60C3F820215960C3F81C115A7483F873
:1015980029215A7583F82D211A7383F8242170475D
:1015A800C800043070B54FF48C729B4B02FB00F2FC
:1015B800134486B01B7C032B3BD8DFE803F0736130
:1015C8003C02954E4FF48C7505FB00650123AB7406
:1015D800044604F0ABF86B7C90FBF3F202FB1300BB
:1015E80040B26875687D462303FB04F444FA80F032
:1015F800063056F820308DF80430C3F30721C3F3C2
:1016080007421B0E8DF805108DF806208DF807305F
:101618009DF804409DF805109DF806209DF80730B8
:10162800002064F3070061F30F2062F3174063F3AF
:101638001F6006B070BD4FF48C72774B02FB00F24E
:1016480013445A7CD2B2012A68D09A7C02F0FF0176
:10165800002A73D1714C012244F82020597519755C
:101668009A746D494FF48C7303FB001346225B7D1B
:1016780002FB00F040FA83F0063051F82030BAE758
:101688004FF48C72644B02FB00F213449A7C52BBF9
:101698005A7C013A52B25A75DA7B012152B21A7554
:1016A8009974DEE74FF48C725B4B02FB00F2134433
:1016B8009A7C02F0FF01002A2BD05A7D013252B2E7
:1016C8005A755A7D597C52B28A42CADB0021597533
:1016D8001A7D013252B21A751A7DDC7B52B2A242CF
:1016E800BFDD1975BDE75A7D013A52B25A755A7D68
:1016F8001106B6D55A7C013A52B25A751A7D013A8A
:1017080052B21A751A7D1206ABD5DA7B52B21A7527
:10171800A7E70122597519759A74A2E7D97B01F0D8
:10172800FF0429B3997C01F0FF04002948D13B4903
:1017380041F820205C751C759A741AE0374951F8F5
:101748002020012A1ED0002A8BD15C7D013C64B286
:101758005C755C7D250684D51C7D013C64B21C75D6
:101768001C7D240652D45A7C013A52B25A7578E745
:101778001C754FF48C72284B02FB00F003449B69E4
:10178800019345E75A7D013252B25A755A7D5C7C05
:1017980052B2A242FFF665AF1A7D013252B21A75F3
:1017A8001A7DDC7B52B2A2421CDDDA7B52B21A757A
:1017B8005A7C023A52B200245A7541F8204050E748
:1017C800164C54F8201001290FD00029D1D1197DC9
:1017D800013949B21975197D0E06CAD51A7544F82A
:1017E8002020C6E700225A753BE71A7D013252B223
:1017F8001A751A7DD97B52B28A42BADDDA7B013A70
:1018080052B200211A7544F82010B2E701241A7563
:101818005C7541F8204024E7C8000430BC1800106B
:101828002DE9F043634E16F90080B8F1000F87B038
:10183800044630DB604D2A56002A2CDB5F49B1F89C
:10184800D0328DF80C0002F00F0262F07F024FF4E4
:1018580080705FFA88F803EB83038DF808208DF811
:101868000980ADF80A000B440298C3F830029DF8CD
:101878000C2083F83422B1F8D03201339BB2A1F89E
:10188800D032B1F8D032FF2203F01F03A1F8D032D2
:1018980032552A5501E04FF0C8084FF48C72474D75
:1018A80002FB04F215442A7B012A02D007B0BDE8E6
:1018B800F0836A7C002AF9D02A7C032A5DD04FF095
:1018C8000C0905E02B7D5BB219FB031343450CD1D2
:1018D8002046FFF767FE01902A7DC0F3072152B228
:1018E80019FB0212782AC0B2ECDC00274FF48C7284
:1018F800324B02FB04F213441A7C032A57D01F7D93
:101908007FB207EB470701EB8701C9B22B4B93F86E
:10191800D632002B49D09DF80650274B315540B29E
:101928001855264AB2F8D0328DF8111000F00F0081
:10193800012160F06F0003EB83038DF813108DF81D
:1019480010008DF81250134404988DF8144003F5D4
:101958000C71C3F830029DF814300B71B2F8D03214
:1019680001339BB2A2F8D032B2F8D03203F01F0391
:10197800A2F8D03207B0BDE8F08303F0D7FEEB7BC6
:10198800013390FBF3F202FB130000EB40008700E9
:101998002046FFF707FEFFB2C0F30721CB19782BCB
:1019A8000190EADC9DF80400A0E74025B5E739443A
:1019B800C9B2ABE70C00001008000010C8000430E2
:1019C8002DE9F041154F00254FF48C7606FB057480
:1019D800A846E37C022B0BD0E37C012B15D00DB17C
:1019E800BDE8F081012506FB0574E37C022BF3D1E9
:1019F800A3680133A360A26863689A42EFD3C4F86E
:101A080008802846FFF70CFFE9E7E37D002BE6D0C6
:101A18002846FFF705FF84F81780E0E7C800043080
:101A280010B58AB001A82422002103F077FE1248DD
:101A3800124B036001F0F2FAD8B9002301241A46C8
:101A480001A90D480393CDE90133CDE9044301F021
:101A58003FFB58B9012301A910220748049301F05C
:101A680037FB08B100F010FB0AB010BD00F00CFB0A
:101A7800F0E700F009FBE0E7BC1E0010007400402E
:101A880010B50168174A88B000239142CDE90333A5
:101A9800CDE90533079301D008B010BD124B1348A8
:101AA800D3F8E82042F00052C3F8E820D3F8E82041
:101AB80002F000520192019AD3F8E02042F00102AC
:101AC800C3F8E020D3F8E03003F00103029330229A
:101AD800032303A9029CCDE9032302F023FC08B0E9
:101AE80010BD00BF007400400044025800000258B6
:101AF8000C4B00B5D3F8D82042F00102C3F8D82027
:101B0800D3F8D83083B003F00103019300220221F7
:101B18000E20019B01F018FA0E2003B05DF804EBCB
:101B280001F048BA004402582DE9F04100248AB077
:101B3800CDE90544CDE90744334B0994D3F8E020B7
:101B4800DFF8D080314F324E42F00102C3F8E02076
:101B5800D3F8E02002F001020192019AD3F8E020C4
:101B680042F00802C3F8E020D3F8E02002F00802AF
:101B78000292029AD3F8E02042F00202C3F8E02071
:101B8800D3F8E02002F002020392039AD3F8E0208F
:101B980042F04002C3F8E020D3F8E03003F04003FD
:101BA8000493224640464021049B02F0CDFC38466F
:101BB80001224FF4825102F0C7FC224630464FF40E
:101BC800E07102F0C1FC0125404605A94023CDE99A
:101BD8000535CDE9074402F0A5FB384605A94FF4C1
:101BE80082530593CDE90654089402F09BFB4FF409
:101BF800E07305A93046CDE906540894059302F030
:101C080091FB0AB0BDE8F081004402580004025874
:101C180000180258000C02580E4B002201210A201D
:101C280083F849201A63DA629A629A8618605974AE
:101C38001A731A7499601A64DA639A63A3F84420D1
:101C4800586183F8251083F8202083F82420D9616F
:101C5800704700BF00000430024B00010344D888DD
:101C6800704700BF300004302DE9F047614FDFF8BE
:101C780090A1DFF890910024A5002B1907EB8303AE
:101C88001A7CD2B2012A62D02601BA19936A0133AA
:101C980093622B199B0003F1405808F58028BA1964
:101CA800906AD8F80010884219D300213B44916209
:101CB8005B7CD06A0344D362D36AB3F5806F05EBCB
:101CC800040307EB830328BFD1621A7B032A4CD095
:101CD8001B7BDBB2012B67D073D3022B5AD0002CAD
:101CE80072D006F1405303F58023196BD8F804200D
:101CF800914217D20022DA86254407EB85051A6B34
:101D0800AB689A4206D206F1405606F58026336B38
:101D180001333363002C63D0012C01D00134ABE7CD
:101D2800BDE8F087291907EB81011A6BD8F804E0A0
:101D3800B3F834C08968D8F80400A2EB0E0202FB9D
:101D48000CF2091AB2FBF1F292B2DA86D4E700215A
:101D580019749B68012B04F103034FEA03134FEA3C
:101D6800041694BFFA50F95093E7BB19DB6A002BAD
:101D7800B5D103F0DBFC8AFB00231A18C317C3EBA9
:101D88006223C3EB8323E21CC01A07EB021380B261
:101D98009880A4E7184ABB19D96AE31C07EB031318
:101DA80032F811209A809AE7BB19E21CDB6A39F8ED
:101DB8001330C3F57F73033307EB02129BB2938092
:101DC8008DE7BB190D4AE7E797F84830012B88D112
:101DD800B7F846309BB2FB863A6BBB689A4292D3FF
:101DE80097F84830012B99D1B7F846309BB2FB865B
:101DF80094E700BF00000430101000101008001015
:101E0800030820801000001038B5164C164B2360CC
:101E18004FF480004FF4003307224FF08061606078
:101E2800A360E26000234FF080424FF080752046A7
:101E38002361C4E90833C4E90A33C4E90E33C4E9A9
:101E48001033C4E91233C4E91433A365E261626351
:101E5800C4E9055102F09EFC2268136843F00103AF
:101E6800136038BD581F00100030014030B4134BC8
:101E7800134A1A604FF4800007224FF080654FF034
:101E8800E0444FF080415860DA60C3E9065400220C
:101E9800184630BC59639A60C3E90422C3E9082292
:101EA800C3E90A22C3E90E22C3E91022C3E91222B8
:101EB800C3E914229A6502F06DBC00BFD01E001061
:101EC80000380040F0B503683B4A8BB000249342C9
:101ED800CDE90544CDE9074409942AD0374A93420D
:101EE80001D00BB0F0BD364B3648D3F8E82042F4A9
:101EF8008042C3F8E820D3F8E82002F48042039235
:101F0800039AD3F8E02042F00202C3F8E020D3F8A5
:101F1800E03003F0020304930222052305A94FF4DD
:101F28006044049D0993CDE9054202F0FBF90BB02A
:101F3800F0BD234B244ED3F8F02042F48052C3F86E
:101F4800F020D3F8F02002F480520192019AD3F8DD
:101F5800E02042F00202C3F8E020D3F8E03003F0BA
:101F6800020302932823054605A90227059315486D
:101F7800029A06970523099302F0D4F9134A3260AE
:101F880026234022736030464FF480633361B26089
:101F9800F460C6E90544C6E90744746201F01AFB17
:101FA80039462246AE672320B56300F0CDFF2320D3
:101FB80001F000F80BB0F0BD0030014000380040DF
:101FC80000440258000402586C20001058000240D7
:101FD800294B00B5D3F8E02042F00072C3F8E020A6
:101FE800D3F8E03083B003F0007301200193019B24
:101FF80002F0AEFA02F0EEFA01220221002002F00D
:10200800AFFA1E4B1E4A1B68C3F30313072B2CD0D1
:10201800D2F8143143F00103C2F8143100F012FF72
:10202800FFF782FDFFF764FDFFF7EEFEFFF71EFFE7
:1020380000F0DAF800F05CFD00F094FD00F0CAFD55
:10204800FFF7EEFCFFF7E8FDFEF774FEFFF78AFAEC
:1020580000F058FE00210B4800F0F6FF1021094857
:1020680000F0F2FF00F05CF9FEE7D2F8043143F02B
:102078000103C2F80431D1E70044025800ED00E042
:1020880000640258BC1E0010704700BF032930B41A
:102098001BD901283DD0052951D103284BD00B016C
:1020A80001285BB201F10101C0F1050414D940F225
:1020B800FF30824228BF024601EB410143EA9213F6
:1020C8002E4D04EB4101920012E0D0B90431C9B29F
:1020D8000B015BB20131042440F6FF70824201EB30
:1020E800410128BF0246254D04EB410143EA122372
:1020F80005EB4100DBB2D2B205F81130427030BCBA
:10210800704706290CD1022820D00328C7D130BC3B
:1021180070470439C9B20B015BB201310524DBE712
:10212800032917D102281DD00328B8D10B015BB2AF
:1021380001310224BBE7044601462023B7E70729FB
:10214800DFD10328ABD104466023B0E70324042180
:102158003023ACE7042909D10228D6D1032406216B
:102168005023A4E70C4640230521A0E7032896D175
:10217800072984BF0839C9B2D8E700BFE420001096
:10218800F0B585B001230293029B052B26DC144E83
:10219800144D4FF48007B7610A2000F0B1FE002308
:1021A8000393039A029B9A4210DA46F2B6446423D8
:1021B800022201A92846ADF8044002F089FB039BDE
:1021C80001330393039A029B9A42F0DB4023B361E5
:1021D800029B01330293029B052BDCDD05B0F0BDA9
:1021E80000040258581F001030B5334BFF204FF63B
:1021F800FF71002283F8550083B01846A3F85610E3
:10220800134600EB42010B8620F812300132082AEF
:102218000B820B84F5D1A0F85030A0F84030A0F81C
:102228004430A0F84830A0F84C30A0F85230A0F85C
:102238004230A0F84630A0F84A30A0F84E3001935A
:10224800019B092B07DCFFF79BFF019B01330193DF
:10225800019B092BF7DD194A00238024FF2002EB9C
:10226800430102F813400133062B4870F7D10025CB
:10227800ECB2002210462146FFF708FF2146002253
:102288000120FFF703FF214600220220FFF7FEFE90
:10229800214600220320FFF7F9FE214600220420F0
:1022A800FFF7F4FE0135214600220520FFF7EEFE78
:1022B800082DDDD103B030BDE8030430E420001060
:1022C80010B4154CB4F856301BB2013301EB800141
:1022D80094F8543011D03BB1104BB4F8562023F881
:1022E80011205DF8044B7047B4F856300B4A5DF87E
:1022F800044B9B0022F81130704733B9074B5DF847
:10230800044B920023F811207047044B5DF8044BEE
:1023180023F81120704700BFE8030430C4180010E8
:10232800054A0649064B11604FF480029A61054838
:102338000C2202F047BD00BF5021001044210010BC
:1023480000040258581F001082B000230093009B1D
:10235800022B05DC009B01330093009B022BF9DD67
:10236800154B164A164840219961137815490133CF
:10237800DBB213701378092B04BF00231370137892
:1023880000220192C3F10803019A03EB430301EB16
:102398008301022A016005DC019B01330193019B43
:1023A800022BF9DD044B08484FF480029A610C2295
:1023B80002B002F007BD00BF00040258D418001094
:1023C80050210010E4200010581F00102DE9F04F94
:1023D800E24CE348B4F850302DED028B0022114650
:1023E80087B09B004FF0000B00F05AFE5D46B4F832
:1023F8005230DB4867199B000022102100F050FE84
:1024080097F86830012B00F03F8197F86830022B6D
:1024180000F0AC81AB0002AA181D02EBC50234F82B
:10242800131022F8021B01338342F8D1002D00F06B
:102438002481CA4A92F8543003F0FF06002B40F07A
:10244800C881C84B0DF1080C4FF0040A92F85510DA
:10245800FF2906F1010500F06A8192F8551049B28A
:102468006C00514504EB050100F0B68203EB8101D5
:102478004FEA06185FFA88F088724FF00000C872B9
:10248800BCF8087040F6FF7906F1050E4F454FEA93
:102498000A114FEA4E0028BF4F4649B200EB0E0919
:1024A80003EB890941EA172B5FFA8BFBFFB289F826
:1024B8000AB089F80B7092F85590B9F1FF0FE3460E
:1024C80000F0218192F855904FFA89F92C44B145D2
:1024D80003EB840400F08C825FFA88F84FF0000662
:1024E80084F808806672BBF8004040F6FF76B44274
:1024F80028BF3446704441EA142103EB8000C9B276
:10250800E4B2042D01720CF1020C44720AF1010AC2
:102518002E469BD10020DFF844C2064640F6FF7ED7
:1025280040F2FF3506EB0C080201B8F83010013014
:1025380071454FEA400628BF714652B2371803EB7F
:10254800870442EA11295FFA89F9C9B284F804902C
:102558006171B8F81010A94228BF294642EA9119BA
:102568008900C9B25FFA89F984F80290E170B8F875
:102578002010A94228BF294642EA91128900D2B206
:10258800C9B2082803F827206170CBD1BCF84020D5
:10259800AA4228BF2A469100C9B2C2F387129A7488
:1025A800D974BCF84420AA4228BF2A46910941F0B0
:1025B80010019200C9B2D2B29977DA77BCF84820F4
:1025C800AA4228BF2A46910941F020019200C9B2C7
:1025D800D2B283F82A1083F82B20BCF84C20AA42E8
:1025E80028BF2A46910941F030019200C9B2D2B2FF
:1025F80083F8361083F83720BCF84220AA4228BF57
:102608002A46910941F040019200C9B2D2B283F83A
:10261800421083F84320BCF84620AA4228BF2A4625
:10262800910941F050019200C9B2D2B283F84E101C
:1026380083F84F20BCF84A20AA4228BF2A469109AD
:1026480041F060019200C9B2D2B283F85A1083F8FF
:102658005B20BCF84E20954228BF1546AA0942F0D7
:102668007002AD00D2B2EDB283F8662083F86750ED
:1026780007B0BDEC028BBDE8F08F0125671997F80C
:102688006830012B7FF4C1AE02AB5FFA85FB03EB28
:10269800C5094FEA85080026019506EB080303F1F2
:1026A8002C0A34F8132097F86A3012B2F5B208EE03
:1026B800102A5946002003F0FF0E2A46002B40F04E
:1026C800A18134F81A507046ADB2FEF76FFBAD0029
:1026D80007EE905AB8EEC88AF8EEE77A40F6FF722D
:1026E800A7EE808A0136BDEEC88A18EE103A1BB2F2
:1026F80023EAE3739342A8BF1346042E29F8023B4A
:10270800CBD1019D92E6184F37F8166040F6FF7757
:10271800BE4228BF3E462C4448EA162803EB8404F0
:102728005FFA88F8F6B284F808806672DBE60E492C
:1027380031F81A1040F6FF7081424FEA450428BF6D
:1027480001464FEA0618601948EA112703EB800092
:10275800FFB2C9B28772C17292E600BFE8030430C3
:10276800BC1E0010E4200010C41800104FEA8508B1
:10277800C2465FFA85F9002708EB07022C3234F8C5
:102788001A3034F81260B6B2FAB249460120B600DF
:102798001FFA83FBFEF70AFB07EE906AB8EEE77AAA
:1027A80007EE90BAF8EEE77A02AAE7EE007A013768
:1027B800FCEEE77A17EE903A9BB2B3F5805F28BF3C
:1027C80040F6FF73042F22F81A300AF1010AD3D118
:1027D8002CE600208F4BDFF8409280460DF1060E64
:1027E80040F6FF7C40F2FF3743E092F855A04FFADD
:1027F8008AFA82456ED04FEA001A0AF0F00A85F884
:1028080008A085F8098002EB40003444B0F830A0F5
:10281800E24528BFE24603EB840541EA1A2B5FFA3A
:102828008BFB5FFA8AFA85F804B085F805A0B0F842
:1028380010A0BA4528BFBA4641EA9A1B4FEA8A0A4D
:102848005FFA8AFA5FFA8BFB85F802B085F803A075
:10285800008CB84228BF384641EA901180005FFAE0
:1028680080FAC9B2082E03F82410304685F801A072
:102878003BD03EF802AF461CE2454FEA00114FEA52
:10288800460428BFE24649B2A51941EA1A2B03EBD0
:1028980085055FFA8AFA5FFA8BFB85F80AB085F836
:1028A8000BA092F855A0BAF1FF0F9ED109EB040ACC
:1028B8003AF802ACBA4528BFBA4641EA9A1B4FEA31
:1028C8008A0A5FFA8BFB5FFA8AFA85F808B085F8FE
:1028D80009A098E741F00F0A5FFA8AFA85F808A07C
:1028E8006FF0030A85F809A08DE7B2F84010B942E5
:1028F80028BF39468800C0B2C1F387119974D874CB
:10290800B2F84410B94228BF3946880940F010008F
:102918008900C0B2C9B29877D977B2F84810B942DD
:1029280028BF3946880940F020008900C0B2C9B2E2
:1029380083F82A0083F82B10B2F84210B94228BF56
:102948003946880940F030008900C0B2C9B283F81E
:10295800360083F83710B2F84610B94228BF394616
:10296800880940F040008900C0B2C9B283F842002B
:1029780083F84310B2F84A10B94228BF394688098B
:1029880040F050008900C0B2C9B283F84E0083F805
:102998004F10B2F84C10B94228BF3946880940F0A8
:1029A80060008900C0B2C9B283F85A0083F85B108E
:1029B800B2F84E20974228BF1746BA0942F0700273
:1029C800BF00D2B2FFB283F8662083F8677007B001
:1029D800BDEC028BBDE8F08F4FEA061803EB8101CE
:1029E80048F00F00C0B288724FF0FF30C87247E558
:1029F80048F00F085FFA88F84FF0FF3684F808802F
:102A0800667270E534F81A309DB2C5EB8575FEF72D
:102A1800CDF95CE6E4200010C41800100268034BEE
:102A28009A4200D07047FFF78FBC00BF00300140CA
:102A3800074BD3F8F42042F00202C3F8F420D3F88D
:102A4800F43082B003F002030193019B02B0704797
:102A580000440258704700BFFEE700BFFEE700BF12
:102A6800FEE700BFFEE700BF704700BF704700BF2A
:102A7800704700BF00F032BA014802F083BC00BFC3
:102A8800D4210010014802F07DBC00BF5421001081
:102A9800014802F077BC00BF94210010014801F002
:102AA8003FB900BF6C200010014802F069BA00BFAE
:102AB800581F00100C4A08B5136833B1184469460A
:102AC800884208D81060184608BD084B136018449F
:102AD80069468842F6D902F0F7FD0C2303604FF0EF
:102AE800FF33184608BD00BFD81800102022001078
:102AF80000B51A4A1A4B136089B0F020642380216C
:102B08005060D36010460023916193600493019351
:102B1800C2E90433CDE905330793CDE9023302F066
:102B28005FFDC0B94FF4805304A90C48049302F028
:102B38005DFB68B9002301A908480393CDE9013377
:102B480002F06AFD08B1FFF79FFA09B05DF804FBCF
:102B5800FFF79AFAEEE7FFF797FAE3E7D4210010B8
:102B68000000014000B5194A194B136089B0F020E4
:102B7800142380215060D360104600239161936034
:102B8800049301931361CDE905330793CDE902332B
:102B980002F026FDB8B94FF4805304A90B480493FA
:102BA80002F024FB60B9002301A9084801930393AC
:102BB80002F032FD08B1FFF767FA09B05DF804FBCF
:102BC800FFF762FAEFE7FFF75FFAE4E75421001036
:102BD8000008004000B5194A194B136089B0F0206D
:102BE800642380215060D360104600239161936074
:102BF800049301931361CDE905330793CDE90233BB
:102C080002F0EEFCB8B94FF4805304A90B480493C2
:102C180002F0ECFA60B9002301A908480193039374
:102C280002F0FAFC08B1FFF72FFA09B05DF804FBCF
:102C3800FFF72AFAEFE7FFF727FAE4E794210010F5
:102C48000040014000B503682A4A934285B008D085
:102C5800294A934235D0294A93421AD005B05DF8E3
:102C680004FB274BD3F8F02042F00102C3F8F02010
:102C7800D3F8F03003F00103019300220221192058
:102C8800019B00F061F9192005B05DF804EB00F034
:102C980091B91B4BD3F8F02042F48032C3F8F020EE
:102CA800D3F8F03003F48033039300220121742019
:102CB800039B00F049F9742005B05DF804EB00F0BF
:102CC80079B90F4BD3F8E82042F00402C3F8E820A2
:102CD800D3F8E830002203F00403029311461E20C3
:102CE800029B00F031F91E2005B05DF804EB00F0FE
:102CF80061B900BF000001400008004000400140E9
:102D08000044025808B5054802F05AFA044802F08F
:102D180057FA0448BDE8084002F052BA542100109E
:102D2800D42100109421001038B5194A0368934241
:102D380006D0184A934215D0174A934208D038BD96
:102D4800164A13780133DBB2052B0FD0137038BD48
:102D5800FEF746F8FEF734FEFEF7CAF9BDE838403C
:102D6800FFF734BBBDE83840FEF77EBF0C4C0025AA
:102D780020781570FDF78EFF20780130C0B2082842
:102D880012BF207025702846BDE83840FDF7D0BE38
:102D9800000001400008004000400140DD1800101C
:102DA800DC180010DFF834D0002103E00C4B5B582E
:102DB800435004310B480C4B42189A42F6D30B4A45
:102DC80002E0002342F8043B094B9A42F9D3FDF78D
:102DD8009DFE02F07FFCFFF7FBF8704700800410AF
:102DE800BC581008000000107C1800107C18001057
:102DF8001C220010FEE7000038B50F4B1B780BB9FA
:102E0800012038BD0D494FF47A720546B2FBF3F341
:102E18000868B0FBF3F000F0DBF804460028EFD1B7
:102E28000F2DEDD8024629464FF0FF3000F08CF800
:102E3800034B20461D6038BD10180010000000101C
:102E48001418001030B5204C204AD4F8D830204D42
:102E580043F48043C4F8D830D4F8D83085B003F4AC
:102E680080430393039B136823F47F2323F4706345
:102E780043F401431360136843F001031360032014
:102E880000F050F801F0AEFBA369A2691149124C99
:102E9800C3F3032302F00F02CB5C8A5C03F01F0329
:102EA80020FA03F302F01F02D34000202B602360B6
:102EB800FFF7A2FF10B1012005B030BD0190FFF768
:102EC800B7FD019805B030BD0044025800440240E7
:102ED800040000109C58100800000010034A044B1E
:102EE80011681B780B441360704700BF1422001050
:102EF80010180010014B1868704700BF142200100A
:102F080038B50446FFF7F6FF631C054602D0044BAC
:102F18001B781C44FFF7EEFF401BA042FAD338BDD4
:102F280010180010074AD3684FF6FF010B40000243
:102F380043F0BF6300F4E06043F400330343D3601D
:102F4800704700BF00ED00E0184BDB68C3F30223B5
:102F580030B4C3F10705042D03F1040428BF042588
:102F6800062C19D9033B4FF0FF349C4022EA040495
:102F78004FF0FF32AA4021EA020101FA03F222438C
:102F880012010028D2B20ADB00F1604000F561406E
:102F980080F8002330BC704700242346E8E7044B40
:102FA80000F00F0003441A7630BC704700ED00E0D3
:102FB800FCEC00E0002807DB00F01F0101234009BA
:102FC800024A8B4042F82030704700BF00E100E021
:102FD8000138B0F1807F0ED2084B10B4084C58600D
:102FE800F02084F823000022072110469A60196017
:102FF8005DF8044B70470120704700BF10E000E007
:1030080000ED00E0044B1B68C3F30313072B0CBF50
:1030180003200120704700BF00ED00E088B103796C
:1030280010B503F0FF0204463BB100230221012240
:10303800217118462361227110BD4271FEF720FDEF
:10304800F3E70120704700BF4379012B26D0F0B485
:103058000368022404711F68012501F0100605FAAF
:1030680006F23A4345711A601A6869B902F03E02DD
:10307800A24202D15A682A435A60002301220271EF
:103088004371F0BC18467047B44002F47812A2426B
:10309800F3D15A6842F002025A60EEE70220704704
:1030A80010B483B0006800240194019051B10199D3
:1030B80014310A440192019A0020136003B05DF8AC
:1030C800044B7047019908310A440192F3E700BFA5
:1030D8004379012B52D00B682DE9F041042B164699
:1030E8000D464FF002024FF0010104464171027192
:1030F80048D0006806F010022969012934D0D5E9C2
:1031080002C70726C16B9640012F21EA060129D084
:10311800022F35D0BCFA8CF6760943EA0C03334308
:1031280093400B43C36301686B684FF48045954037
:1031380021EA05010160016840F6FE75954093405B
:1031480021EA05010B4303600368C02101FA02F27A
:1031580023EA0202012100230260184621716371EB
:10316800BDE8F0810026D8E7866B69691F2797407C
:1031780026EA0706914031438163C0E70220704781
:103188000126CAE7FFF7B6FE0746C6B9DFF8808012
:1031980004E0FFF7AFFEC01B012831D823685B6B42
:1031A80013EA080FF5D10120FFF7AAFE2068AB69E2
:1031B80003640EE0FFF79EFEC01B012820D8236899
:1031C8005B6B002BF6DB0120FFF79AFE2068AB69EA
:1031D800436406F01002836CE96940F2FF369640BA
:1031E80023EA060391400B438364C16C2B6AFF26D4
:1031F8009640934021EA060119432B68C1647BE796
:103208002369032243F00803236110462271A7E7CC
:1032180000800020F0B46D4D0468866DAC42944681
:1032280000F0AD801835AC424ED01835AC4200F0F5
:10323800C1801835AC4247D01835AC4200F0BA808E
:103248001835AC4200F0B6801835AC423CD0183581
:10325800AC4239D005F55675AC4235D01835AC427C
:1032680032D01835AC422FD01835AC4223D018359F
:10327800AC4220D01835AC421DD01835AC421AD01B
:103288001835AC4217D0524DAC4214D01435AC426C
:1032980011D01435AC420ED01435AC420BD01435D5
:1032A800AC4208D01435AC4205D01435AC4202D03B
:1032B8001435AC427CD1D0E91A75426E57607DB1A5
:1032C800D0E91C576F600BE0D0E91A75426E576061
:1032D800002D5CD03F4DD0E91C27AC42576056D03A
:1032E8003D4DAC4253D01835AC4250D01835AC42A5
:1032F8004DD01835AC424AD01835AC4247D01835B5
:10330800AC4244D005F55675AC4240D01835AC42B5
:103318003DD01835AC423AD01835AC4237D01835C4
:10332800AC4234D01835AC4231D01835AC422ED02E
:103338001835AC422BD0264DAC4211D0274DAC42AB
:103348000ED01435AC420BD01435AC4208D014352D
:10335800AC4205D01435AC4202D01435AC4230D161
:10336800C56D876805F01F050120A840402F7060D3
:1033780063601AD1C4F808C0E160F0BC7047D0E9B6
:103388001A75426E576015B1D0E91C576F60C56D4C
:10339800876805F01F053F20A840B0602068402FCF
:1033A80020F4802020606360E4D0A160C4F80CC0E1
:1033B800F0BC7047D0E91A75426E5760002DE6D010
:1033C80088E71435AC42CBD0F2E700BF10000240CA
:1033D8000854025828000240400002401C54025879
:1033E8002E4A0368934210B431D0183293422ED03B
:1033F800183293422BD01832934228D01832934275
:1034080038D01832934235D01832934232D018321D
:1034180093422FD002F55672934218D01832934235
:1034280015D01832934212D0183293420FD0183266
:1034380093421FD0183293421CD01832934219D0AD
:103448001832934216D023F0FF0383650EE0DAB2F8
:10345800134C1449103AA4FB0242C2F3021223F49B
:103468007F738A5C23F00303C0E9163218465DF8BF
:10347800044B7047DAB20A4C0A49103AA4FB0242DC
:10348800C2F3021223F47F7323F003038A5C5DF80E
:10349800044B0433C0E91632184670471000024046
:1034A800ABAAAAAAAC5810080168254B9942CAB21F
:1034B80031D0143399422ED0143399422BD014337F
:1034C800994228D01433994225D01433994222D0F6
:1034D800143399421FD0143399421CD0194B10B49D
:1034E800194C103A0B44A4FB0242A82B4FEA1212C3
:1034F80000D8083202F18053012102F01F0201FABC
:1035080002F203F5024311495DF8044B9B00036680
:10351800C0E9191270470E490E4B4366A2F1080321
:10352800A1FB03231B0903F1B05202F5164203F075
:103538001F030121920001FA03F3026683667047B4
:1035480008540258F0FBFDBFABAAAAAA80080240A3
:10355800CDCCCCCC8058025801794A1E072A2DD8E8
:1035680010B40368164CA3421BD01434A34218D0DD
:103578001434A34215D01434A34212D01434A342F5
:103588000FD01434A3420CD01434A34209D01434FD
:10359800A34206D00B4B0C4C04670B449B00C3663C
:1035A80005E00A4B0A4C04670B449B00C3660123E1
:1035B80003FA02F242675DF8044B7047704700BF98
:1035C800085402583F820010400902403F960016F6
:1035D80040590258F8B50446FFF78CFC002C00F05F
:1035E800BC802368BB4A9342054654D018329342A4
:1035F80051D0183293424ED0183293424BD01832E1
:10360800934248D01832934245D01832934242D060
:10361800183293423FD002F5567293423BD018328B
:10362800934238D01832934235D01832934232D070
:10363800183293422FD0183293422CD0183293422A
:1036480029D01832934226D0A34A934200F04E81E3
:10365800A24A934200F04A811432934200F0468114
:103668001432934200F042811432934200F03E81BA
:103678001432934200F03A811432934200F03681BA
:103688001432934200F03281402203236265012004
:1036980084F83530F8BD022284F835201A680021F4
:1036A80022F0010284F834101A6005E0FFF722FCCA
:1036B800401B05284AD823681A68D607F6D4D4E9E7
:1036C8000226D4E9045032432A43A1691F68D4E989
:1036D800076502430A4332432A438148656A3840F2
:1036E800042D42EA00027F4800F0C5800068000C03
:1036F8000004B0F1005F32D36668A6F129071F2FD6
:1037080040F2A5804F3E032E40F2A6801A605A6907
:10371800042D22F0070242EA050225D1E76AA06AD1
:1037280002430FB3002900F0B980B1F5005F00F043
:10373800C280022803D9032816D1F90114D5012320
:1037480040226265184684F83530F8BD20220323EC
:103758006265012084F83530F8BD0120F8BD1A6093
:103768005A6922F007022A435A612046FFF738FEB9
:10377800E26D3F2302F01F02934083602368554A9D
:10378800934245D01832934242D0183293423FD0E8
:10379800183293423CD01832934239D018329342AF
:1037A80036D01832934233D01832934230D002F5D3
:1037B800567293422CD01832934229D01832934231
:1037C80026D01832934223D01832934220D0183290
:1037D80093421DD0183293421AD01832934217D010
:1037E8003D4A934214D01432934211D0143293427A
:1037F8000ED0143293420BD01432934208D01432B4
:10380800934205D01432934202D01432934218D115
:103818002046FFF749FEA368802B20D06368A16E7D
:10382800D4E91802DDB2013B072B056051601DD8B1
:103838002046FFF791FED4E91B13626F0020086051
:103848005A6000200123606584F83530F8BD2648A9
:10385800F840C0077FF556AF42F4801256E7D4E926
:103868001802A16E00236360036051600023C4E95D
:103878001B336367E5E70068E76A266B000C000402
:103888003E43B0F1005F42EA0602BFF435AF1A606A
:103898005A6922F0070242F0040240E7012805D0E5
:1038A800FFF44BAF02287FF45FAF46E7B7F1C07F64
:1038B8007FF45AAF43E703283FF656AF01A151F80A
:1038C80020F000BF47371008433710084737100863
:1038D800B538100810000240085402581C54025809
:1038E8003F8010FE0010005C3F00C0C3022284F835
:1038F80035201968A06821F4FF310022402821F4FE
:10390800F87184F834202AD0802814BF10464FF468
:103918008040D4E903626569124FD20842EAD602B0
:10392800A66942EAD502E56942EAD60242EAD50228
:10393800266A0D4D1F4442EA1612A5FB07570A4393
:103948003909024389001A602046E165FFF748FDFE
:10395800E26D012302F01F02934043600EE710203E
:10396800D7E700BFF8ABFDA7CDCCCCCC002800F042
:10397800B08070B5044690F83400012800F0238127
:1039880094F835500120854284F8340006D000228E
:103998004FF4006384F83420636570BD2068914D4E
:1039A800022684F83560A8424FF0000666651ED0EE
:1039B8001835A8421BD01835A84218D01835A84287
:1039C80015D01835A84212D01835A8420FD018358E
:1039D800A8420CD01835A84209D005F55675A8425A
:1039E80005D01835A84202D01835A842FFD005687E
:1039F80025F0010505602046FFF70CFC2368794A8D
:103A0800934268D018329342216C00F0A18018329A
:103A1800934200F09D801832934200F0998018324A
:103A2800934200F095801832934200F0918018324A
:103A3800934200F08D801832934200F0C68002F560
:103A48005672934200F0C1801832934200F0BD8054
:103A58001832934200F0B9801832934200F0B580D2
:103A68001832934200F0B1801832934200F0AD80D2
:103A78001832934200F0A9801832934200F0A580D2
:103A88001A6822F00E0242F00A021A6019B11A6886
:103A980042F004021A60544A934228D0534A93428F
:103AA80025D01432934222D0143293421FD01432BC
:103AB80093421CD01432934219D01432934216D038
:103AC8001432934213D01A6842F001021A6000209F
:103AD80070BD012070471A68216C22F01E0242F066
:103AE80016021A6019B11A6842F008021A60226EAA
:103AF8001168C90303D5116841F480711160E26E41
:103B08001AB1116841F480711160364A9342DAD0D3
:103B180018329342D7D018329342D4D018329342F5
:103B2800D1D018329342CED018329342CBD018322B
:103B38009342C8D018329342C5D002F556729342C8
:103B4800C1D018329342BED018329342BBD0BAE7E4
:103B58001A6822F01E0242F016021A600029C6D026
:103B68001A68234942F008028B421A60BFD0214AE2
:103B78009342BCD018329342B9D018329342B6D08F
:103B880018329342B3D018329342B0D018329342CD
:103B9800ADD002F556729342A9D018329342A6D0FE
:103BA80018329342A3D018329342A0D018329342CD
:103BB8009DD0183293429AD01832934297D0183237
:103BC800934294D067E7022070BD1A6822F01E0263
:103BD80042F016021A600029C9D01A6842F0080299
:103BE8001A60C4E710000240085402581C540258D6
:103BF800280002404000024000286ED0F8B590F836
:103C08003530022B03D0802343650120F8BD0368BB
:103C1800404A934258D01832934255D018329342B2
:103C280052D0183293424FD0183293424CD01832A7
:103C3800934249D01832934246D01832934243D027
:103C480002F5567293423FD0183293423CD0183254
:103C5800934239D01832934236D01832934233D037
:103C68001832934230D0183293422DD018329342F2
:103C78002AD01A68284922F00E021A601A688B4264
:103C880022F001021A602AD0244A934227D0143223
:103C9800934224D01432934221D0143293421ED03E
:103CA800143293421BD01432934218D014329342E8
:103CB80015D0036D0024012280F8344080F83520A7
:103CC8004BB198472046F8BD042280F835201A6881
:103CD80022F001021A600020F8BD01207047D0E9E7
:103CE80017252C68876D466EC36E02F01F010122EE
:103CF8008A4024F48074816E2C607A607160002B95
:103D0800D7D01A68D0E91C1422F480721A604C606B
:103D1800CFE700BF10000240085402581C54025854
:103D28002DE9F04F044683B02368BC49A66DBC4A10
:103D3800002001908B4235681768306800F0948144
:103D4800B84A93425FD0183293425CD018329342FB
:103D580059D01832934256D01832934253D0183261
:103D6800934250D0183293424DD002F55672934286
:103D780049D01832934246D01832934243D0183271
:103D8800934240D0183293423DD0183293423AD0F1
:103D98001832934237D01832934234D0A24A934211
:103DA80015D0A24A934212D0143293420FD0143243
:103DB80093420CD01432934209D01432934206D065
:103DC8001432934203D01432934240F04A81E16D99
:103DD8001A6801F01F0104258D40054200F0528247
:103DE800570740F14F821004756040F17882D10383
:103DF80000F17B82A36C002B00F03381204603B0D6
:103E0800BDE8F04F1847E26D082002F01F014FF09F
:103E1800040C4FF01008884025FA01FE0CFA01FC4A
:103E280008FA01F805420EF0010E05EA0C0905EA48
:103E3800080A40F03081BEF1000F00F0D9817948BE
:103E4800834200F03F811830834200F03B811830F4
:103E5800834200F037811830834200F033811830F4
:103E6800834200F02F811830834200F02B811830F4
:103E7800834200F0278100F55670834200F02281CA
:103E88001830834200F01E811830834200F01A81F6
:103E98001830834200F016811830834200F01281F6
:103EA8001830834200F00E811830834200F00A81F6
:103EB8001830834200F006811868B9F1000F40F00D
:103EC8003F81BAF1000F15D01968C1F3800189B19B
:103ED800C6F808801968490300F18F811968C90577
:103EE80003D4196821F008011960236C13B1204626
:103EF8009847E26D02F01F02202393402B4258D0CE
:103F080020684649884200F06F811831884200F0E5
:103F18006B811831884200F067811831884200F0BF
:103F280063811831884200F05F811831884200F0BF
:103F38005B811831884200F057811831884200F0BF
:103F4800538101F55671884200F04E81183188423C
:103F580000F04A811831884200F0468118318842C1
:103F680000F042811831884200F03E8118318842C1
:103F780000F03A811831884200F0368118318842C1
:103F880000F032810168C1F3400191B1B36094F847
:103F98003530042B036800F0398113F4802F03684F
:103FA80000F054811E0340F15F81E36B0BB12046A2
:103FB8009847636D002B54D0636DDD074DD521689C
:103FC800164B0422994284F835201ED018339942A2
:103FD8001BD01833994218D01833994215D018338A
:103FE800994212D0183399420FD0183399420CD005
:103FF8001833994209D003F55673994205D01833FE
:10400800994202D018339942FFD00B68084A23F02E
:1040180001030B60A2FB0732920A0EE01000024077
:104028000000001028000240085402581C5402588E
:10403800B5814E1B0B68D80704D5019B0133934209
:104048000193F7D90B68DB074FF000024CBF03233D
:10405800012384F8342084F83530E36C002B7FF496
:10406800CDAE03B0BDE8F08FE26D082002F01F016D
:104078004FF0040C4FF01008884025FA01FE0CFAA6
:1040880001FC08FA01F805420EF0010E05EA0C09D8
:1040980005EA080A5ED0D3F800B01BF0040F0AD076
:1040A800D3F800B02BF0040BC3F800B0B060606D1B
:1040B80040F001006065BEF1000F0DD096488342C4
:1040C8007FF4BDAE5869000606D501208840B0606F
:1040D800606D40F002006065B9F1000F4AD08E486B
:1040E80083423ED08D4883423BD01830834238D03B
:1040F8001830834235D01830834232D0183083428A
:104108002FD0183083422CD01830834229D000F5A4
:104118005670834225D01830834222D0183083420B
:104128001FD0183083421CD01830834219D0183061
:10413800834216D01830834213D01830834210D0EF
:104148004FF0100808FA01F815EA080F19683FF44B
:10415800D1AEB9E6BEF1000FB4D1B9F1000F00F04D
:1041680088801968880705D5C6F808C0616D41F0D0
:1041780004016165BAF1000F3FF4BCAE66498B4299
:104188002ED018318B422BD018318B4228D01831C1
:104198008B4225D018318B4222D018318B421FD048
:1041A80018318B421CD018318B4219D001F5567149
:1041B8008B4215D018318B4212D018318B420FD058
:1041C80018318B420CD018318B4209D018318B42F0
:1041D80006D018318B4203D018318B427FF474AE6D
:1041E8001968C1F3C00172E60168C1F30011CCE699
:1041F800B9F1000F7FF476AFBCE71B6818037FF5B1
:1042080074AEA36C002B7FF472AE73E623F0160332
:10421800216C0360436923F08003436171B3036831
:1042280023F0080303603F23216D03FA02F2002004
:104238000123B26084F8340084F8353000293FF453
:1042480010AF204603B0BDE8F04F084713F4807361
:104258007FF4ABAE0268012122F01002026084F8FC
:10426800343084F83510A0E6636C002B7FF49FAEE1
:104278009FE6BAF1000F3FF43DAEB1E7A36C002B07
:10428800CDD1D0E702258D4005420BD0970709D53F
:10429800100475602ED5D10338D4636C002B7FF4DD
:1042A800ADADDEE608258D4005423FF4DAAE1207D3
:1042B8007FF5D7AE1A68E56C22F00E021A6001236A
:1042C80003FA01F100227160636584F8342084F8F0
:1042D8003530002D3FF4C5AE20462B468FE59206BB
:1042E80003D41A6822F004021A60236C002B7FF4AE
:1042F80085ADB6E612F0200208D11968012021F038
:104308000A01196084F8342084F83500E36B002B27
:104318007FF474ADA5E600BF1000024028000240FB
:10432800406D70472DE9F04FD1F800E083B0BEF141
:10433800000F00F09880DFF80C92884600260123D1
:10434800B34013EA0E0700F08980D8E9011421F080
:10435800100A4FEA460C03220AF1FF3502FA0CF262
:10436800012D6FEA020204FA0CF47FD9C3681340E6
:104378001C43C460046801F00303144003FA0CF200
:104388002243CD00026069D5644AD2F8F43043F084
:104398000203C2F8F430D2F8F42026F0030303F144
:1043A800B04302F0020203F58063019206F00302B3
:1043B800019C9D6892000F24944025EA0404584DFE
:1043C800A84226D005F58065A84200F08380554DA7
:1043D800A8427AD0544DA84200F08680534DA84296
:1043E80000F08780524DA84279D0524DA84200F083
:1043F8008580514DA84200F08680504DA84200F0BB
:1044080087804F4DA8420CBF09250A2505FA02F2FC
:1044180014439C60D9F80030FA43CC034CBF3B43AB
:104428001340C9F80030D9F804308D034CBF3B4322
:1044380013404FF0B044C9F804302368CC024FF061
:10444800B0444CBF3B43134023606368890254BFA8
:1044580002EA03071F434FF0B0435F6001363EFA9C
:1044680006F37FF46CAF03B0BDE8F08F856805EA0A
:10447800020BD8F80C5005FA0CF545EA0B058560D7
:104488004568C1F3001B25EA03055B46B3402B438F
:104498004360C36813401C43BAF1020FC4607FF441
:1044A80069AFF50800EB850506F007042B6AA40040
:1044B8004FF00F0B0BFA04FB23EA0B0AD8F8103065
:1044C800A34043EA0A032B6254E7022505FA02F2E5
:1044D80014439EE7012505FA02F2144399E70525DE
:1044E80005FA02F2144394E7032505FA02F214438D
:1044F8008FE7042505FA02F214438AE7062505FA30
:1045080002F2144385E7072505FA02F2144380E70F
:10451800082505FA02F214437BE700BF004402585D
:104528000000025800080258000C025800100258F7
:104538000014025800180258001C025800200258A3
:1045480000240258C000005802B90904816170476C
:10455800024A136818431060704700BF106502587C
:1045680038B51A4C236823F0010318430D46206020
:1045780032B1012A23691DD023F00403236138BD19
:10458800FEF740FD0328FAD12369114A23F00103FD
:104598002361136943F004031361BFF34F8FBFF323
:1045A8006F8F012D0FD020BF094A136923F0040330
:1045B800136138BD23F002032361FEF723FD0128B0
:1045C800DDD1034AE5E730BFEEE700BF00480258F7
:1045D80000ED00E008B5FEF715FD032800D040BF48
:1045E80020BF08BD384A136903F03803102B4FD099
:1045F800182B0BD00BB1354870471368990649D56D
:1046080013683348C3F3C103D8407047916A906A6E
:10461800D36AC0F3051010B4546BB0B3C4F3CC0420
:1046280003F0010303FB04F307EE103A01F0030162
:1046380007EE900A0129BAEEE97AF8EEE77A02D095
:104648002DD3022928D09FED236A136BC6EE276A63
:10465800C3F3080307EE903A1B4BF8EEE77A1B6B9F
:1046680037EE877AC3F34623B7EE006A013307EEC5
:10467800903A37EE067A27EE267AF8EEE76AC7EE22
:10468800267AFCEEE77A17EE900A5DF8044B70473D
:10469800114870470E4870479FED106AD5E71368B8
:1046A8009B060ED510680A49136BC0F3C102D140AE
:1046B80006EE901AB8EEE66AC3F30803C6EE276A58
:1046C800C8E79FED076AC0E70044025800093D00AB
:1046D8000090D0030024744A00127A000024F44A9F
:1046E8000024744C036859699A6942F008029A6177
:1046F8009A6942F010029A611A6822F001021A605F
:104708001A6922F45B7222F003021A619A6822F491
:1047180040429A6090F88120042A01D08A062ED45B
:1047280090F88120032A01D04A061DD48A0509D5AC
:10473800D0F8842042F00102C0F884209A6942F43B
:1047480000729A61CA0509D5D0F8842042F008029F
:10475800C0F884209A6942F480729A610023A0F814
:104768006230A0F86A307047D0F8842042F0040222
:10477800C0F884209A6942F040029A61D6E7D0F8DE
:10478800842042F08002C0F884209A6942F0200216
:104798009A61C5E7002800F08280F0B502684B4BAB
:1047A800C56800219A4283B0816215D0A3F5784389
:1047B8009A4211D003F580639A420DD00F2D08D884
:1047C800C76B05F108037909DB0801FB0333082BE4
:1047D8000BD9012003B0F0BDC76B05F108037909B7
:1047E800DB0801FB0333102BF3D890F88130044623
:1047F80003F0FF01002B5ED04FF0000C022384F879
:1048080081301168A3696068A66B21F00101B3F1DA
:10481800806F116045D0616B03433343666A0B4375
:104828002169334366690B43216A33430B43E169CA
:104838000191E16CA6680B4301993943A76C334396
:10484800A66D3B4341EA0C0C33434CEA05059560E1
:10485800D36098B1136D23F001031365430205D5A6
:10486800D368616D23F000430B43D360002001231C
:10487800C4F8840084F8813003B0F0BD936823F451
:10488800C05343F400639360936823F4C06343F414
:1048980080639360136D23F001031365E6E701203D
:1048A8007047B0F5800FB6D1002EB4D1116841F42D
:1048B80080511160AFE780F88010FDF703FB226894
:1048C800D4F828C0E568E76B98E700BF00300140DE
:1048D8002DE9F84390F88040012C62D004461D462B
:1048E800012380F8803090460E460768FEF702FBE9
:1048F80094F88130012B814647D1002E4BD0B8F176
:10490800000F48D0A368E66500220321B3F5C02F45
:1049180084F88110A4F86080C4F884206266A4F842
:104928006280A4F86820C4E91C22A4F86A202168DF
:1049380003D10B6843F400630B604A686068120C8B
:10494800120442EA08024A600B68B0F5800F43F08F
:1049580001030B6003D10B6843F400730B60E36839
:10496800072B2AD94B691B07FCD52046FFF7BAFE4F
:10497800012384F88130D4F884000023C01A18BFBA
:10498800012084F88030BDE8F883002384F8803063
:104998000220BDE8F883002384F880300120BDE8B8
:1049A800F8830220BDE8F883FEF7A4FAA0EB09001B
:1049B800A84201D36A1C40D12168B4F862309BB286
:1049C800002BCFD04E6916F00206EDD0B4F8622065
:1049D800E36D032A12D9E26B402A0FD953F8042B4E
:1049E8000A62B4F86220E365131F9BB2A4F8623030
:1049F800B4F862309BB2002BE4D1B3E7B4F862207C
:104A0800012A0CD9E26B52B133F8022B3A84B4F87C
:104A18006220E365931E9BB2A4F86230CDE71B7851
:104A280081F82030B4F86230E26D2168013B9BB216
:104A38000132A4F86230E265BFE72046FFF752FE74
:104A4800D4F8843084F88060012243F48073C4F879
:104A58008430104684F881209BE700BF2DE9F84395
:104A6800044690F88000012800F08F801D4601233D
:104A780084F880300E461746D4F80080FEF73AFADC
:104A880094F881306168DBB2012B814607D0B1F51B
:104A9800800F6ED1A268002A6BD1042B69D1002E39
:104AA8006DD0002F6BD0002D69D094F8813020682C
:104AB8006766042B18BF05234FF0000218BF84F85F
:104AC8008130C4F88420A4F86A50A4F8625043687E
:104AD800A4F868501B0C1B042B43E665A4F860502F
:104AE800C4E91C2243600368B1F5800F43F0010359
:104AF800036003D1036843F400730360E3680F2B7A
:104B08005BD92A4648F20801002A41D043699E072A
:104B18000DD5E26D52F8043B0362B4F86230E265E9
:104B2800013B9BB2A4F86230B4F8622092B24369A8
:104B38000B42E9D095BB002AE8D1FEF7DBF9089BC8
:104B4800A0EB09009842C0F0C280089B013300F036
:104B5800BE802046FFF7C6FDD4F88430002243F417
:104B680080730120C4F8843084F8802084F88100A0
:104B780003E0002384F880300220BDE8F883002396
:104B880084F880300120BDE8F8830220BDE8F8836E
:104B9800002DD2D0436943690B42F9D0056BB4F8B4
:104BA8006A30666E013B9BB246F8045BA4F86A3033
:104BB800B4F86A506666ADB2A6E7072B2E4643D90D
:104BC8002DBB002E00F084804369436913F4604FC5
:104BD80011D04269636E110440F19B80016BB4F8F7
:104BE8006A2043F8041B023A92B2A4F86A20B4F887
:104BF8006A606366B6B2FEF77DF9089BA0EB090010
:104C0800984201D30133A4D12068002DD9D043693B
:104C18009A0712D5012DE36D6CD9E26B002A69D091
:104C280053F8042B0262B4F86220E365931E9BB22A
:104C3800A4F86230B4F86250ADB2436913F4604F1F
:104C4800D9D0002ED7D0C4E725BB002E40D0436969
:104C5800436913F4604F10D04269636E12047AD529
:104C6800016BB4F86A2043F8041B043A92B2A4F822
:104C78006A20B4F86A606366B6B2FEF73BF9089B2F
:104C8800A0EB0900984202D301337FF462AF206899
:104C9800002DDAD043699B0712D5032DE36D47D960
:104CA800E26B402A6DD953F8042B0262B4F86220F3
:104CB800E365131F9BB2A4F86230B4F86250ADB23A
:104CC800436913F4604FD8D0002ED6D0C4E72068CB
:104CD80043691F07FCD52046FFF704FD012384F82C
:104CE8008130D4F884000023C01A18BF012084F84A
:104CF800803042E733F8022BA8F82020B4F862206D
:104D0800E365531E9BB2A4F86230B4F86250ADB2AA
:104D180093E7B8F8302023F8022BB4F86A206366CA
:104D2800531E9BB2A4F86A30B4F86A60B6B262E760
:104D3800012D25D11B7880F82030B4F86230E26D5F
:104D48002068013B9BB2A4F86230B4F8625001328B
:104D5800ADB2E265B4E7426902F4C042B2F5005F61
:104D680020D9B8F8302023F8022BB4F86A206366FB
:104D7800931E9BB2A4F86A30B4F86A60B6B27CE7B6
:104D8800E26B002AD6D033F8022BA8F82020B4F81A
:104D98006220E365931E9BB2A4F86230B4F86250B7
:104DA800ADB28DE790F830201A70B4F86A30626EB0
:104DB800013B9BB2A4F86A30B4F86A600132B6B21B
:104DC80062665AE7F8B590F88030012B7BD090F8EE
:104DD80081300124A34280F8804029D119B312B34D
:104DE8008468C16500230325B4F5C02F80F881507D
:104DF800A0F86020C0F884304366A0F86220C0E9BB
:104E08001C33A0F86830A0F86A3004D1046823681D
:104E180043F400632360C368846F0F2BA5690CD922
:104E2800B5F5804F17D0002380F880300120F8BDF9
:104E3800002380F880300220F8BD072B4AD8B5F54A
:104E4800005F4DD0B5F5804F05D1B0F8623003331F
:104E58009B08A0F86230164602682A4F93682764B8
:104E68000546294F2948E06323F400430020C4E99C
:104E780013709360B5F8623020322046FEF776FD55
:104E8800002834D1AA6F2B68D269B2F5807F5A689E
:104E98004FEA12424FEA024218BF32435A609A68F8
:104EA800696842F400429A601A6942F448721A61C9
:104EB8001A68B1F5800F42F001021A6005D000238C
:104EC80085F88030F8BD0220F8BD1A6842F40072F7
:104ED8001A60F4E7B5F5005FBDD0B5F5804FA2D1F3
:104EE800B0F8623001335B08A0F86230B3E7D5F858
:104EF8008430012243F01003C5F88430104685F849
:104F08008120F8BD4D4F10085D4F1008194F10084B
:104F1800806B08B590F88130072B09D0836FDB6967
:104F2800B3F5807F05D00268136943F00803136165
:104F380008BDFDF773FD08BD704700BF704700BF8F
:104F4800704700BF08B5806BFFF7FAFF08BD00BFC8
:104F5800704700BF10B5846BFFF7E2F902280DD047
:104F68002046FFF7BFFBD4F88430012243F010033A
:104F7800C4F8843084F88120FFF7EAFF10BD00BF31
:104F8800036819695A69D3F808C02DE9F04101EAA4
:104F9800020505F06406042E044690F881707DD160
:104FA800436F9847236F2046984705F04503012B28
:104FB80005F0260602D1236F20469847022E6BD1B2
:104FC800636F2046BDE8F0411847120500F1D08014
:104FD80015F4587F60D06E0609D5D4F8842042F0C5
:104FE8000402C4F884209A6942F040029A61A80534
:104FF80009D5D4F8842042F00102C4F884209A69C3
:1050080042F400729A61E90509D5D4F8842042F087
:105018000802C4F884209A6942F480729A61AA0648
:1050280009D5D4F8842042F08002C4F884209A6913
:1050380042F020029A61D4F884206AB31A6822F0F8
:1050480001021A601A690CF4404C22F45A7222F0D8
:105058000302BCF5404F1A6140F092809A68E06FF5
:1050680022F440429A6050B14D4B0365FEF7C4FDEF
:1050780028B1D4F8843043F04003C4F88430A06FDA
:1050880050B1474B0365FEF7B7FD28B1D4F884301B
:1050980043F04003C4F88430BDE8F08105F04500D2
:1050A800012805F0260686D0022E89D028078CD53F
:1050B8009A6942F008029A619A6942F010029A616C
:1050C8009A6942F400629A611A691CF4404F22F00E
:1050D8000802FFB21A610FD0042F58D0A26FD2690C
:1050E80052B1032F1CD0E26FD2692AB1052FD3D158
:1050F8002046FFF723FFCFE79A6812F4404F1ED0EF
:105108002046FFF7EFFA012384F88130D4F8843081
:10511800002B38D1052FEBD0042F3CD0032FBBD167
:105128002046FDF77BFCB7E72268126B40F8042B9A
:105138006066B4F86A20013A92B2A4F86A20B4F81A
:105148006A2092B2002ADBD0E168626E0F2910460D
:10515800EAD8072904D91A8E20F8022B6066E8E7F6
:10516800216891F830101170626E01326266E0E7D2
:105178000F077FF52DAF9A6942F400629A618BE7B9
:10518800012384F881302046FFF7E2FE84E7E26FCE
:10519800D269002AB0D02046FFF7CEFE7CE700BFD8
:1051A800AD51100808B5836B00220121A3F86A20CD
:1051B8001846A3F8622083F88110FFF7C9FE08BDDE
:1051C8000368094AD96841F00101D96099680A4021
:1051D800062A06D0B2F5803F03D01A6842F00102D1
:1051E8001A600020704700BF0700010090F83C30AB
:1051F800012B00F0848002220368F0B480F83D207F
:105208009D680A68594C602A04EA05044FF00105B4
:1052180080F83C509C6074D01ED9B2F1101F00F089
:105228008E8000F29680B2F5005F3ED0B2F5801F06
:1052380000F08580702A2FD1D1E90152CC68996895
:105248002A4342EA042221F47F410A439A609A6879
:1052580042F077029A601FE0202A70D06CD9402A69
:1052680033D0502A7FD11D6A1E6A4C68CF6826F059
:1052780001061E629A6925F00A0122F0F00242EA4C
:10528800071221439A6119629A6822F4401222F0A7
:10529800700242F057029A600023012280F83D20F4
:1052A80080F83C30F0BC18467047D1E90152CC6810
:1052B80099682A4342EA042221F47F410A439A600A
:1052C8009A6842F480429A60E6E71D6A1E6A4C6852
:1052D800CF6826F001061E629A6925F00A0122F0BD
:1052E800F00242EA071221439A6119629A6822F48D
:1052F800401222F0700242F047029A60CCE7022086
:1053080070471C6A4D68CE6824F010041C629969C5
:105318001A6A21F4704122F0A00242EA051241EA19
:10532800063199611A629A6822F4401222F07002DA
:1053380042F067029A60AFE70AB1102AACD19968C7
:1053480021F4401142F0070221F070010A439A60EB
:10535800A2E707498A42F2D010318A42EFD02039B9
:105368008A4299D1EBE7302A96D1E8E78800CEFF48
:1053780030001000704700BF704700BF704700BF83
:10538800704700BF03681A69910710B5044602D533
:10539800DA68920768D41A69520702D5DA685007A2
:1053A8004FD41A69110702D5DA68120737D41A6977
:1053B800D00602D5DA68D1061ED41A69D20702D5FA
:1053C800DA68D00769D41A69110602D5DA681206B4
:1053D8006BD41A69D00502D5DA6811066DD41A693A
:1053E800520602D5DA6850066FD41A69910602D5BA
:1053F800DA68920649D410BD6FF010021A61DB69B1
:10540800082213F4407F227720466FD1FFF7B2FFBE
:105418002046FFF7B3FF002223682277CDE76FF01D
:1054280008021A61DB6904229B07227720465AD1B9
:10543800FFF7A0FF2046FFF7A1FF0022236822778D
:10544800B5E76FF004021A619B69022213F4407FEA
:105458002277204644D1FFF78DFF2046FFF78EFFC5
:105468000022236822779CE76FF002021A619B6989
:1054780001229907027730D1FFF77CFF2046FFF71A
:105488007DFF00222368227785E76FF020022046FF
:105498001A61BDE8104000F011B96FF001021A61FD
:1054A8002046FDF741FC23688DE76FF080021A6102
:1054B800204600F005F923688BE76FF480721A61C3
:1054C800204600F0FFF8236889E76FF040021A6170
:1054D8002046FFF755FF236887E7FFF74DFFD0E722
:1054E800FFF74AFFBCE7FFF747FFA6E7FFF744FFD0
:1054F80091E700BFF0B4374E03684D698C680A68BD
:10550800B04256D0B0F1804F22D0A6F57C46B042CA
:105518003DD006F58066B04239D006F58066B042C7
:1055280035D006F57846B04231D006F57056B0420F
:105538004ED006F58066B0424AD006F58066B04285
:1055480046D023F080032B430360C46282621AE0D2
:105558004F68CE6823F070033B4323F44073334312
:1055680023F080032B430360C46282621A4B984283
:1055780007D003F58063984203D003F5806398420F
:1055880001D10B69036301234361F0BC70474E6886
:10559800124F23F070033343CE6823F44073334330
:1055A80023F080032B43B8420360C4628262E8D0D0
:1055B800DCE74F68CE6823F070033B4323F4407365
:1055C800334323F080032B430360C4628262D8E72D
:1055D800CE68F3E7000001400040014000040140AC
:1055E800B8B190F83D3010B503F0FF0204465BB146
:1055F800022384F83D302068211DFFF77BFF01233B
:1056080084F83D30002010BD80F83C20FDF71AFBDF
:10561800EEE70120704700BF90F83C30012B47D0DF
:10562800F0B40368234C0E68022280F83D2001255F
:10563800A3425A6880F83C509D6827D004F58064DE
:10564800A3422CD022F070023243B3F1804F5A604B
:105658000ED0194A93420BD002F58062934207D0CC
:1056680002F58062934203D002F54062934204D16E
:105678008A6825F0800515439D600023012280F883
:105688003D2080F83C30F0BC184670474C6822F446
:105698007002224322F0700232435A60E8E74F68F2
:1056A80022F470043C4324F0700434435C60DFE768
:1056B800022070470000014000040040704700BF0E
:1056C800704700BF704700BF014B1868704700BFA4
:1056D8001818001070B50D4E0D4CA41BA410002511
:1056E800A54209D10B4E0C4C00F0C8F8A41BA4101D
:1056F8000025A54205D170BD56F8253098470135DB
:10570800EEE756F8253098470135F2E7B458100807
:10571800B4581008B4581008B85810080244034682
:10572800934200D1704703F8011BF9E738B5134BD2
:105738001C68A36B7BB9182000F02CF8104A114B99
:10574800A063C0E90023104B83600B2383810122EF
:105758000023C0E90423A16B0C480A694B690C4C6F
:10576800504304FB0300A2FB04230344541C43F1ED
:105778000005C1E9044525F0004038BD181800109F
:105788000E33CDAB34126DE6ECDE05002DF4515826
:105798002D7F954C024B0146186800F003B800BFF6
:1057A8001818001070B5CD1C25F0030508350C2D10
:1057B80038BF0C25002D064601DBA94203D90C236E
:1057C8003360002070BD00F057F8214A1468214664
:1057D80091B9204C23681BB9304600F03DF8206091
:1057E8002946304600F038F8431C24D10C23336096
:1057F800304600F042F8E4E70B685B1B18D40B2B2B
:105808000FD90B60CD50CC18304600F036F804F1B3
:105818000B00231D20F00700C31AD3D05A42E250D0
:10582800D0E78C424B6816BF636013600C46EBE709
:105838000C464968CCE7C41C24F00304A04205D0F8
:10584800211A304600F008F80130CFD02560DBE798
:10585800E0180010E418001038B5064C002305467F
:1058680008462360FDF726F9431C02D1236803B1DB
:105878002B6038BD1822001070477047F8B500BF7C
:10588800F8BC08BC9E467047F8B500BFF8BC08BC19
:045898009E46704771
:10589C0000000000010203040102030406070809CA
:0858AC0000061016000610169C
:0458B400BD02100819
:0458B8009902100839
:1058BC000090D0030090D003FFFF0000FFFF00001A
:1058CC00FF03FE03FD03FC03FB03FA03F903F803D8
:1058DC00F703F603F503F403F303F203F103F00308
:1058EC00EF03EE03ED03EC03EB03EA03E903E80338
:1058FC00E703E603E503E403E303E203E103E00368
:10590C00DF03DE03DD03DC03DB03DA03D903D80397
:10591C00D703D603D503D403D303D203D103D003C7
:10592C00CF03CE03CD03CC03CB03CA03C903C803F7
:10593C00C703C603C503C403C303C203C103C00327
:10594C00BF03BE03BD03BC03BB03BA03B903B80357
:10595C00B703B603B503B403B303B203B103B00387
:10596C00AF03AE03AD03AC03AB03AA03A903A803B7
:10597C00A703A603A503A403A303A203A103A003E7
:10598C009F039E039D039C039B039A039903980317
:10599C009703960395039403930392039103900347
:1059AC008F038E038D038C038B038A038903880377
:1059BC0087038603850384038303820381038003A7
:1059CC007F037E037D037C037B037A0379037803D7
:1059DC007703760375037403730372037103700307
:1059EC006F036E036D036C036B036A036903680337
:1059FC006703660365036403630362036103600367
:105A0C005F035E035D035C035B035A035903580396
:105A1C0057035603550354035303520351035003C6
:105A2C004F034E034D034C034B034A0349034803F6
:105A3C004703460345034403430342034103400326
:105A4C003F033E033D033C033B033A033903380356
:105A5C003703360335033403330332033103300386
:105A6C002F032E032D032C032B032A0329032803B6
:105A7C0027032603250324032303220321032003E6
:105A8C001F031E031D031C031B031A031903180316
:105A9C001703160315031403130312031103100346
:105AAC000F030E030D030C030B030A030903080376
:105ABC0007030603050304030303020301030003A6
