:020000040800F2
:10000000000002207DBF0108C5700108C970010809
:10001000CD700108D1700108D57001080000000002
:10002000000000000000000000000000D97001087E
:10003000DD70010800000000E1700108E5700108B2
:10004000CDBF0108CDBF0108CDBF0108CDBF01085C
:10005000CDBF0108CDBF0108CDBF0108CDBF01084C
:10006000CDBF0108CDBF0108CDBF0108E97001086F
:10007000CDBF0108ED700108CDBF0108F97001087E
:10008000CDBF0108CDBF0108CDBF0108CDBF01081C
:10009000CDBF0108CDBF0108CDBF0108CDBF01080C
:1000A000CDBF0108CDBF0108CDBF0108CDBF0108FC
:1000B000CDBF010805710108CDBF0108117101080C
:1000C000CDBF0108CDBF0108CDBF0108CDBF0108DC
:1000D000CDBF0108CDBF0108CDBF0108CDBF0108CC
:1000E000CDBF0108CDBF0108000000001D7101084F
:1000F00039710108CDBF0108CDBF0108CDBF01088E
:10010000CDBF0108CDBF0108CDBF01085571010861
:10011000CDBF0108CDBF0108617101086D710108F3
:10012000CDBF0108CDBF0108CDBF0108CDBF01087B
:10013000CDBF0108CDBF0108CDBF0108CDBF01086B
:10014000CDBF0108CDBF0108000000000000000085
:10015000CDBF0108CDBF0108CDBF0108CDBF01084B
:10016000CDBF0108CDBF0108CDBF0108CDBF01083B
:10017000CDBF0108CDBF0108CDBF010800000000C0
:10018000CDBF0108CDBF010879710108CDBF0108BD
:1001900085710108CDBF0108CDBF0108CDBF0108A1
:1001A000CDBF0108CDBF0108CDBF0108CDBF0108FB
:1001B000CDBF0108CDBF0108CDBF0108CDBF0108EB
:1001C000CDBF0108CDBF0108CDBF0108CDBF0108DB
:1001D000CDBF010891710108CDBF0108CDBF010855
:1001E000CDBF0108CDBF0108CDBF0108CDBF0108BB
:1001F000CDBF0108CDBF0108CDBF0108CDBF0108AB
:10020000CDBF0108CDBF0108CDBF0108CDBF01089A
:10021000CDBF01089D710108A9710108CDBF01087A
:10022000CDBF0108CDBF0108CDBF0108CDBF01087A
:10023000CDBF0108CDBF0108CDBF0108CDBF01086A
:10024000CDBF0108CDBF0108CDBF0108CDBF01085A
:10025000CDBF0108CDBF0108CDBF0108CDBF01084A
:10026000CDBF0108CDBF0108CDBF0108CDBF01083A
:10027000CDBF0108CDBF0108CDBF0108CDBF01082A
:10028000CDBF0108CDBF0108CDBF010800000000AF
:08029000CDBF0108CDBF01083C
:1002A00010B5054C237833B9044B13B10448AFF3B0
:1002B00000800123237010BD3C19002400000000C1
:1002C0008C97020808B5034B1BB103490348AFF3F1
:1002D000008008BD00000000401900248C9702082F
:1002E000034613F8012B002AFBD1181A0138704776
:1002F00001F0FF01102A2BDB10F0070F08D010F8D7
:10030000013B013A8B422DD010F0070F42B3F6D1DA
:10031000F0B441EA012141EA014122F007047FF0F3
:1003200000070023F0E80256083C85EA010586EA4A
:10033000010685FA47F5A3FA87F586FA47F6A5FA86
:1003400087F68EB9EED1F0BC01F0FF0102F0070292
:1003500032B110F8013B013A83EA010313B1F8D13D
:100360000020704701387047002D06BF354603381E
:10037000073815F0010F07D1013015F4807F02BF57
:10038000013015F4C03F0130F0BC0138704700BFA8
:1003900080F0004002E000BF81F0004142001FBF3A
:1003A0005FEA410392EA030F7FEA226C7FEA236C43
:1003B0006AD04FEA1262D2EB1363C1BFD218414038
:1003C00048404140B8BF5B42192B88BF704710F0CE
:1003D000004F40F4000020F07F4018BF404211F071
:1003E000004F41F4000121F07F4118BF494292EAD9
:1003F000030F3FD0A2F1010241FA03FC10EB0C0005
:10040000C3F1200301FA03F100F0004302D5494291
:1004100060EB4000B0F5000F13D3B0F1807F06D33E
:1004200040084FEA310102F10102FE2A51D2B1F136
:10043000004F40EBC25008BF20F0010040EA03002B
:100440007047490040EB000010F4000FA2F10102D8
:10045000EDD1B0FA80FCACF1080CB2EB0C0200FA62
:100460000CF0AABF00EBC25052421843BCBFD040B0
:100470001843704792F0000F81F4000106BF80F42A
:1004800000000132013BB5E74FEA41037FEA226CED
:1004900018BF7FEA236C21D092EA030F04D092F0B8
:1004A000000F08BF0846704790EA010F1CBF0020EC
:1004B000704712F07F4F04D1400028BF40F0004049
:1004C000704712F100723CBF00F50000704700F069
:1004D000004343F0FE4040F4000070477FEA226290
:1004E00016BF08467FEA23630146420206BF5FEA61
:1004F000412390EA010F40F4800070474FF0000361
:1005000004E000BF10F0004348BF40425FEA000C27
:1005100008BF704743F0964301464FF000001CE0CF
:1005200050EA010208BF70474FF000030AE000BF25
:1005300050EA010208BF704711F0004302D5404263
:1005400061EB41015FEA010C02BF844601460020D5
:1005500043F0B64308BFA3F18053A3F50003BCFAF0
:100560008CF2083AA3EBC25310DB01FA02FC63449D
:1005700000FA02FCC2F12002BCF1004F20FA02F2A4
:1005800043EB020008BF20F00100704702F1200297
:1005900001FA02FCC2F1200250EA4C0021FA02F2F8
:1005A00043EB020008BF20EADC70704753B94AB938
:1005B000002908BF00281CBF4FF0FF314FF0FF306B
:1005C00000F072B9ADF1080C6DE904CE00F006F848
:1005D000DDF804E0DDE9022304B070472DE9F047BF
:1005E000089E04468846002B4BD18A42154667D99F
:1005F000B2FA82F24AB1C2F1200701FA02F320FAFC
:1006000007F7954047EA030894404FEA154E230C3C
:10061000B8FBFEF71FFA85FC0EFB178843EA084378
:1006200007FB0CF1994209D9EB1807F1FF3080F074
:100630001B81994240F21881023F2B445B1AA4B2FD
:10064000B3FBFEF00EFB103344EA034400FB0CFC4A
:10065000A44509D92C1900F1FF3380F00781A44586
:1006600040F2048102382C4440EA0740A4EB0C0419
:1006700000271EB1D4400023C6E900433946BDE837
:10068000F0878B4209D9002E00F0EB800027C6E9E5
:10069000000138463946BDE8F087B3FA83F7002FEA
:1006A00047D18B4202D3824200F2FA80841A61EB76
:1006B000030301209846002EE0D0C6E90048DDE79C
:1006C00002B9FFDEB2FA82F2002A40F08F80491BA5
:1006D0004FEA154E1FFA85F80127B1FBFEFC230CEB
:1006E0000EFB1C1143EA014308FB0CF1994207D9A8
:1006F000EB180CF1FF3002D2994200F2CD80844613
:10070000591AA3B2B1FBFEF00EFB101443EA0444E5
:1007100008FB00F8A04507D92C1900F1FF3302D2DD
:10072000A04500F2B6801846A4EB080440EA0C404D
:100730009FE7C7F1200CBB4022FA0CFE4EEA030EE5
:1007400001FA07F420FA0CF521FA0CF34FEA1E48DF
:100750002543B3FBF8F92C0C08FB19331FFA8EFA6A
:1007600044EA034309FB0AF49C4202FA07F200FA46
:1007700007F10BD91EEB030309F1FF3080F08780EE
:100780009C4240F28480A9F1020973441B1BADB264
:10079000B3FBF8F008FB103345EA034400FB0AFA08
:1007A000A24508D91EEB040400F1FF336BD2A24529
:1007B00069D90238744440EA0940A0FB0289A4EBDD
:1007C0000A044C45C2464B4654D351D0002E69D042
:1007D000B1EB0A0564EB030404FA0CFCFD40FC4099
:1007E0004CEA0505C6E90054002747E7C2F120039B
:1007F00020FA03F7954001FA02F021FA03F34FEAD9
:10080000154E3843010CB3FBFEF71FFA85F80EFBBB
:10081000173341EA034107FB08F38B4204FA02F461
:1008200007D9691807F1FF3C2FD28B422DD9023F1F
:100830002944CB1A81B2B3FBFEF00EFB103341EA20
:10084000034100FB08F38B4207D9691800F1FF3C14
:1008500017D28B4215D902382944C91A40EA0747F2
:100860003BE73746304609E70746E7E61846FBE62A
:100870004145ABD2B8EB020A69EB0E0201381346D0
:10088000A4E76046E9E7184695E76746D1E7814661
:100890007CE702382C4447E7ACF1020C2B442FE7ED
:1008A000384608E73746E9E6704700BF1D49002291
:1008B0001D4B1E4870B4D1F888401D4D44F470049F
:1008C0001C4EC1F888400C6944F004040C611C689B
:1008D000194944F001041C601A611C68204018602A
:1008E0009A61DA611A629A62DA621A635A639A63E7
:1008F000DA631A645A64186820F4802018601A6653
:100900006B6A43F480436B6233681940B1F1005F56
:1009100002D20A4B01221A60024B4FF0006270BCF7
:100920009A60704700ED00E0004402587FEDF6EA5F
:10093000C00000580010005C0000FFFF088100515B
:1009400082B08DF807009DF80730202B08D89DF85D
:100950000730054ADBB232F8130080B202B07047AC
:10096000002002B0704700BFB004043000EB40002C
:10097000044B01EB4101C00000EB8100184490EDF5
:10098000000A7047981B002400EB4000044B01EB69
:100990004101C00000EB8100184490ED010A70474E
:1009A000981B002400EB4000044B01EB4101C00008
:1009B00000EB8100184490ED020A7047981B002458
:1009C000431E632B00D9704702464FF48E710220FC
:1009D00015F0F2B808B54FF48E71022015F0A4FCA2
:1009E000C0B208BD431E632B00D97047024640F2D7
:1009F0001D11022015F0E0B808B540F21D110220CB
:100A000015F092FCC0B208BD431E632B00D970479D
:100A100002464FF49071022015F0CEB808B54FF49D
:100A20009071022015F080FCC0B208BD431E632BFC
:100A300000D97047024640F22111022015F0BCB8DF
:100A400008B540F22111022015F06EFCC0B208BDBD
:100A5000431E632B00D9704702464FF48F7102206A
:100A600015F0AAB808B54FF48F71022015F05CFCA0
:100A7000C0B208BD431E042B00D97047024640F2A5
:100A80001F11022015F098B808B540F21F1102207E
:100A900015F04AFCC0B208BD08B533200DF02EFF9A
:100AA00031200DF02BFF32200DF028FF15F0C4FC93
:100AB000052115F039FC012817D015F0BDFC0421E3
:100AC00015F032FC01280CD015F0B6FC032115F00E
:100AD0002BFC012800D008BD3220BDE808400DF0F5
:100AE00003BF31200DF000FFEEE733200DF0FCFED8
:100AF000E3E700BF08B507200DF000FF06200DF06A
:100B0000FDFE05200DF0FAFE04200DF0F7FE15F0B5
:100B100093FC0B2115F008FC032817D8DFE800F040
:100B2000110C07020720BDE808400DF0DDBE0620CD
:100B3000BDE808400DF0D8BE0520BDE808400DF026
:100B4000D3BE0420BDE808400DF0CEBE08BD00BFF6
:100B5000002310B41A46114CE11803F5F870013364
:100B600081F8A220042B81F8F22124F81020F3D17F
:100B7000002384F8F02309481A46C11803F5FA74D3
:100B8000013381F84A21042B81F89A2220F814209D
:100B9000F3D180F8F1235DF8044B7047C81000389A
:100BA0002DE9F04F00232DED0C8B97B09FEDBCBBD2
:100BB0009FEDBDAB9FEDBE9B9FEDBF8B9FEDC0CB6F
:100BC0000393C14B0493039AA8234FF0000903FB3E
:100BD00002F39100019303F16053059103F58653ED
:100BE000083300931AF0E2FC484540F3FF80B64B0F
:100BF0005FFA89F79DF80C60162205993046DFF8F8
:100C0000D0825C5A394603F051FA0546162239461D
:100C1000304608F6FC7A03F0CBFA4FF48F710544A6
:100C2000022015F081FB9FEDA97AC3B240F21F119B
:100C300002202C4407EE903A40F2FF3524B2F8EE41
:100C4000677A24EAE47487EE87DA15F06DFB4FF4D7
:100C50008F718346022015F067FBAC42C0B2DAED1B
:100C6000004AA8BF2C465FFA8BF307EE900A3A467B
:100C700008EB840407EE103AB8EE675B009BB8EE11
:100C8000477B314606A885EE0B6B94ED005AC5EE06
:100C9000245A37EE467BB0EE4D6AF7EEC7DBA5EE81
:100CA000AD6AB7EEC66A86EE0A7BBCEEC77B83ED03
:100CB000007A1AF06BFCBDF91A30542B40F3C48053
:100CC0004FEA49040199009AB0EE007B04EB090554
:100CD000DFF800B21368B0EE490B01EB85058B44D9
:100CE00005F1605505F5865508356B6092ED001AE3
:100CF000B8EE411B87EE011B27F05AFF049B1C2214
:100D000039465B883046B7EEC00B0293B7EE006BF6
:100D100085ED020A95ED027AB7EEC77A37EE467B8B
:100D200087EE086BB7EEC66B85ED036A03F0BEF97C
:100D300005461C223946304603F03AFA029B284405
:100D40009AED007A3A46314603440EA81BB283F36B
:100D50000A0308EB8308D8ED006AC6EE877AA7EE8F
:100D6000ADDAB7EECDDA8DEE0A7BBCEEC77B8BED4C
:100D7000547A1AF00BFCBDF93A30542B3FDD019A3E
:100D80004C44B0EE007B09F1010902F1605302EB23
:100D90008404B0EE490B03F5865304F16054083324
:100DA00004F58654D3F850210834C4F8542193ED47
:100DB000541AB8EE411B87EE011B27F0F9FEB7EE7F
:100DC000C00BB7EE006B84ED560A94ED567AB7EE81
:100DD000C77A37EE467B87EE086BB7EEC66B84EDBD
:100DE000576A1AF0E3FB48453FF701AF049B043311
:100DF0000493039B002B4DD101230393E3E60421CD
:100E00003046DBF8508115F08FFA3A4605463146F8
:100E100012A81AF0BBFBBDF94A309BED546AC3F12E
:100E20005403B8EE466B08FB03F805FB08F507EE24
:100E3000905AB8EE677B87EE0C5B35EE067BBCEE16
:100E4000C77B8BED547A9AE7009B052130461D68DD
:100E500015F06AFA3A46044631460AA81AF096FB9B
:100E6000BDF92A30009AC3F1540392ED006A05FBE4
:100E700003F5B8EE466B04FB05F407EE904AB8EEB6
:100E8000677B87EE0C5B35EE067BBCEEC77B82EDA5
:100E9000007A15E717B0BDEC0C8BBDE8F08F00BFF2
:100EA0000000000000408F402D431CEBE2361A3F4B
:100EB000DDB66DDBB66DDB3F87C6FAD0581FEABFE3
:100EC0000000000000005240D01B002400007A44C3
:100ED00018F60208C81000382DE9F84340F2FF3632
:100EE0000F4645002A4B964281464FF48F714FF0D2
:100EF000020028BF1646EA194D4407EB470723F8BE
:100F0000126015F011FA40F21F1180460220ED0028
:100F100015F00AFA4FF48F710446022015F004FA16
:100F20001C4BC0B29FED1C6A5FFA88F807EE900A6E
:100F300003EB860603F6FC73E2B2B8EE675B07EEDE
:100F4000908AD3ED004A07EE102AF8EE677A96ED04
:100F5000004A124B05EB87059FED0B3BC7EE866AF7
:100F60001D4484EE246A85EE034BB8EE477B37EED2
:100F7000447BB7EEC77BF0EE667AE6EE077AC5ED06
:100F8000007ABDE8F88300BF0000000000408F40F9
:100F9000D01B002418F6020800007A44981B002495
:100FA0002DE9F84340F2FF360F4645002A4B9642A2
:100FB00081464FF490714FF0020028BF1646EA199F
:100FC0004D4407EB470723F8126015F0ADF940F2E6
:100FD000211180460220ED0015F0A6F94FF4907122
:100FE0000446022015F0A0F91C4BC0B29FED1C6A0C
:100FF0005FFA88F807EE900A03EB860603F6FC73A7
:10100000E2B2B8EE675B07EE908AD3ED004A07EED6
:10101000102AF8EE677A96ED004A124B05EB870529
:101020009FED0B3BC7EE866A1D4484EE246A85EE75
:10103000034BB8EE477B37EE447BB7EEC77BF0EE51
:10104000667AE6EE077AC5ED017ABDE8F88300BF5F
:101050000000000000408F40D81B002418F6020852
:1010600000007A44981B00242DE9F04F00232DED59
:101070000C8B97B09FEDBECB9FEDBFBB9FEDC0AB80
:101080009FEDC19B9FEDC28B0393C54B0493039AC5
:10109000A8234FF0000AC34F03FB02F39100019312
:1010A000DF1905911AF082FA504540F30481BC4BD8
:1010B0005FFA8AF89DF80C60172205993046DFF830
:1010C000EC925C5A414602F0F1FF05461722414678
:1010D000304609F6FC7B03F06BF84FF49071054441
:1010E000022015F021F99FEDB07AC3B240F2211130
:1010F00002202C4407EE903A24B2F8EE677A24EAF4
:10110000E474C7EE87DA15F00FF94FF490710546D5
:10111000022015F009F940F2FF33C0B2DBED004ABE
:101120009C42424607EE900A3146A8BF1C46EBB2ED
:10113000B8EE675B06A809EB840407EE103A85EE6B
:101140000C6B94ED005AC5EE245AB8EE477B37EE8F
:10115000467BB0EE6D6AB7EEC7DBA5EE8D6AB7EEE3
:10116000C66A86EE0B7BBCEEC77B87ED0D7A1AF064
:101170000DFABDF91A30542B40F3CD804FEA4A04E2
:10118000019A7B6BB0EE007B04EB0A05B0EE4A0BD4
:1011900002EB850505F1605505F586550835AB630D
:1011A00097ED0D1AB8EE411B87EE011B27F000FDED
:1011B000049B1D2241465B883046B7EEC00B02936C
:1011C000B7EE005B85ED0F0A97ED1A6A95ED0F7A81
:1011D000B7EEC66AB7EEC77A36EE496B37EE457B97
:1011E00026EE077B87EE086BB7EEC66B85ED106ABF
:1011F00002F05CFF05461D224146304602F0D8FF52
:10120000029B28449BED007A4246314603440EA8D7
:101210001BB283F30A0309EB8309D9ED006AC6EE1A
:10122000877AE7EE8DDAB7EEED7A87EE0B6BBCEEE0
:10123000C66B87ED616A1AF0A9F9BDF93A30542BF3
:1012400042DD019A5444D7F88431B0EE007B02EBC2
:101250008404B0EE4A0B0AF1010A04F1605404F56B
:1012600086540834C4F8883197ED611AB8EE411BF2
:1012700087EE011B27F09CFCB7EEC00BB7EE005BBE
:1012800084ED630A97ED6E6A94ED637AB7EEC66AF1
:10129000B7EEC77A36EE496B37EE457B26EE077B15
:1012A00087EE086BB7EEC66B84ED646A1AF07EF9C0
:1012B00050453FF7FCAE049B04330493039B002B83
:1012C0004FD101230393E2E604213046D7F88491FD
:1012D00015F02AF842460546314612A81AF056F98A
:1012E000BDF94A3097ED616AC3F15403B8EE466B1D
:1012F00009FB03F905FB09F507EE905A9FED264B14
:10130000B8EE677B87EE045B35EE067BBCEEC77BF1
:1013100087ED617A95E7052130467D6B15F004F87D
:101320004246044631460AA81AF030F9BDF92A307F
:1013300097ED0D6AC3F15403B8EE466B05FB03F558
:1013400004FB05F407EE904A9FED134BB8EE677B64
:1013500087EE045B35EE067BBCEEC77B87ED0D7A2E
:101360000CE717B0BDEC0C8BBDE8F08FAFF300803D
:101370000000000000408F402D431CEBE2361A3F76
:10138000CBF7470A2673703FFC2ABEC788E9F03EB8
:101390008470EE2CDEFFEFBF000000000000524022
:1013A000D81B0024C810003800007A4418F6020840
:1013B0002DE9F04F4FF00008DFF8C0902DED028BC3
:1013C0009FED2D8A83B02D4B4FF0A80A002703EB29
:1013D000880301932A4B0AFB083A33E0019B1C88DF
:1013E00002F018FE06461021584602F0BBFE3318E4
:1013F0001E2158462344B9F802401BB223EAE37386
:10140000AB42A8BF2B4607EE903AF8EEE77A87EE9C
:10141000887A8AED1A7A02F0FDFD06461E215846AA
:1014200002F0A0FE3044044424B224EAE474AC4246
:10143000A8BF2C4607EE904AF8EEE77A87EE887A46
:101440008AED6E7A1AF0B2F8B8425FFA88FB40F281
:10145000FF354FF0100107F101075846BEDC09F1D6
:101460000409B8F1000F02D14FF00108ABE703B057
:10147000BDEC028BBDE8F08F00C07F44E01B002470
:10148000C810003840F2FF3301EB40019A4210B41B
:1014900028BF1A46024C24F811205DF8044B70470F
:1014A000E01B0024000000002DE9F04F00232DED8B
:1014B0000A8B97B09FED9EAB9FED9F9B9FEDA08BFE
:1014C0009FEDA1BB0393A24B0493039AA8234FF073
:1014D0000008A04F03FB02F391000193DF1905916F
:1014E0001AF064F8404540F3CA80994B5FFA88FAD5
:1014F000059A9DF80C6051469C5A11223046DFF83F
:101500005C9202F0D3FD04444FF48E71022023B2AA
:1015100009F6FC7B23EAE37414F006FFC3B29FEDE7
:101520008E7A40F21D11022007EE903AF8EE677AAB
:10153000C7EE87CA14F0F8FE4FF48E7105460220FC
:1015400014F0F2FE40F2FF33C0B2DBED004AA342DA
:10155000EAB207EE900A3146A8BF234607EE102AEA
:10156000B8EE675B524609EB8303B8EE477B06A8EB
:1015700085EE0A6B93ED005AC5EE245A37EE467B92
:10158000B0EE6C6AB7EEC7CBA5EE8C6AB7EEC66A52
:1015900086EE097BBCEEC77B87ED1B7A19F0F6FF60
:1015A000BDF91A30542B40F398804FEA4804019952
:1015B000FA6EB0EE007B04EB0803B0EE480B01EBD3
:1015C000830303F1605303F5865308331A6797EDDD
:1015D0001B1A0293B8EE411B87EE011B27F0E8FAB5
:1015E000049B1F2251465D883046B7EEC00B029B1C
:1015F00083ED1D0A02F05AFD05449BED007A524628
:101600002DB231460EA885F30A0509EB8509D9EDFF
:10161000006AC6EE877AE7EE8CCAB7EEEC7A87EE00
:10162000096BBCEEC66B87ED6F6A19F0AFFFBDF9B1
:101630003A30542B2CDD019A4444D7F8BC31B0EE3B
:10164000007B02EB8404B0EE480B08F1010804F1C2
:10165000605404F586540834C4F8C03197ED6F1A0D
:10166000B8EE411B87EE011B27F0A2FAB7EEC00BC4
:1016700084ED710A19F09AFF40453FF736AF049B9D
:1016800004330493039B002B4BD1012303931CE7EA
:1016900004213046D7F8BC9114F046FE5246054668
:1016A000314612A819F072FFBDF94A3097ED6F6A02
:1016B000C3F15403B8EE466B09FB03F905FB09F5CA
:1016C00007EE905AB8EE677B87EE0B5B35EE067B34
:1016D000BCEEC77B87ED6F7AADE705213046FD6E26
:1016E00014F022FE5246044631460AA819F04EFF75
:1016F000BDF92A3097ED1B6AC3F15403B8EE466B6F
:1017000005FB03F504FB05F407EE904AB8EE677B92
:1017100087EE0B5B35EE067BBCEEC77B87ED1B7A55
:1017200043E717B0BDEC0A8BBDE8F08FAFF3008044
:101730000000000000408F402D431CEBE2361A3FB2
:10174000CBF7470A2673703F0000000000005240AC
:10175000C81B0024C810003800007A4418F602089C
:1017600008B5FFF71DFAFFF77FFCBDE80840FFF75B
:101770009BBE00BF000000002DE9F84340F2FF3699
:101780000F4645002A4B964281464FF48E714FF02A
:10179000020028BF1646EA194D4407EB470723F815
:1017A000126014F0C1FD40F21D1180460220ED00D0
:1017B00014F0BAFD4FF48E710446022014F0B4FD0B
:1017C0001C4BC0B29FED1C6A5FFA88F807EE900AC6
:1017D00003EB860603F6FC73E2B2B8EE675B07EE36
:1017E000908AD3ED004A07EE102AF8EE677A96ED5C
:1017F000004A124B05EB87059FED0B3BC7EE866A4F
:101800001D4484EE246A85EE034BB8EE477B37EE29
:10181000447BB7EEC77BF0EE667AE6EE077AC5ED5D
:10182000027ABDE8F88300BF0000000000408F404E
:10183000C81B002418F6020800007A44981B0024F4
:1018400039B1A821074B01FB00F0034483F8F121D3
:101850007047A821034B01FB00F0034483F8A1204B
:10186000704700BFC810003810B40A4BA82441B11B
:1018700004FB00200121034483F8F2115DF8044BBE
:10188000704704FB00200121034483F8A2105DF897
:10189000044B7047C8100038012938B504461ED0E3
:1018A0000321154614F040FD68B104EB840312498E
:1018B00005EB85021B0103EB8203194491EDAB0A92
:1018C000B1EE400A38BD04EB84040B4905EB8502F8
:1018D000230103EB8203194491EDAB0A38BD00EB01
:1018E0008003054902EB82021B0103EB82031944CA
:1018F00091EDD30A38BD00BFC810003800EB80005E
:10190000044B01EB8101000100EB81000344B3F8BB
:1019100050037047C81000382DE9F84F00264FF0EB
:101920000008F5B219F042FE40455FFA88F94FF021
:101930001501284629DD01F053F9152204464946D0
:10194000284602F0B3FB152249460746284602F016
:101950002FFC83460B2010F0BDFF494682460B2228
:10196000284610F083FE204408EB86020949C3197B
:1019700008F1010802F5F8725B4453441BB283F38B
:101980000A039BB221F81230CCE70EB90126C6E754
:10199000BDE8F88FC8100038014B1954704700BFDC
:1019A000B814003870B51821054602F083FA50B912
:1019B0004FF48C74114E04FB05F433195B7C03F077
:1019C000FF0013B970BD002070BD2846182102F039
:1019D000B5F96FF4FF71325D0844094B07EE900AC8
:1019E00003EB8203F8EEE77A93ED007A67EE877AED
:1019F000FDEEE77A17EE903A18B270BDC8000430D9
:101A000018F40208F0B40C4F4FF48C7505FB007508
:101A10006B7C73B100244FF0460C1CFB0043013477
:101A200007EB83035E7E8E4200D1DA766B7CA342A5
:101A3000F3DCF0BC704700BFC8000430F0B40C4FBA
:101A40004FF48C7505FB00756B7C73B100244FF06F
:101A5000460C1CFB0043013407EB83031E7E8E42C1
:101A600000D1DA766B7CA342F3DCF0BC704700BF98
:101A7000C800043030B40B4D4FF48C7404FB005498
:101A8000637C63B14623002203FB00F0831801321C
:101A9000063305EB8303D970637C9342F6DC30BCDC
:101AA000704700BFC8000430F8B51821044602F0A2
:101AB00059FA00283AD11F4E4FF48C7101FB046192
:101AC0004A7C02F0FF037AB34A7C02F0FF037AB348
:101AD0004627024617FB0423013206EB8303DD7E13
:101AE000854201D9D87EC0B24B7C9A42F2DB10F01D
:101AF000800F0CBF05467F252046182102F04AF9C9
:101B00006FF4FF720C4B104403EB850307EE900A51
:101B100093ED007AF8EEE77A67EE877AFDEEE77AE2
:101B200017EE903A18B2F8BD1846F8BD0020F8BD7F
:101B30001D46E1E7C800043018F4020810B5002380
:101B4000124C40F223110220A4F8D232A4F8D03271
:101B5000237384F82431637484F82931637384F81F
:101B60002531A375E37584F82E3184F82F3114F0F4
:101B7000DBFB4FF49271C3B2022084F8D53214F02B
:101B8000D3FBC0B284F8D60210BD00BFC800043039
:101B900016490246B1F8D23203EB83030B44F0B48A
:101BA000D3F8300282B00090104693F83442B1F876
:101BB000D2329DF800C001339DF801709DF802609B
:101BC0009BB29DF803508DF80440A1F8D232B1F8D1
:101BD000D23203F01F03A1F8D23282F800C057704E
:101BE0009670D570147102B0F0BC7047C800043014
:101BF000074BB3F8D022B3F8D212B3F8D002914217
:101C0000B3F8D23288BF2030C01A80B2704700BF0C
:101C1000C800043008B540F22311022014F084FB00
:101C2000C0B208BD012800D9704710B5024604466D
:101C30004FF49271022013F0BFFF024B83F8D6429B
:101C400010BD00BFC800043008B54FF492710220E7
:101C500014F06AFBC0B208BD024B03EB800090EDAC
:101C6000000A704758190024044B33F810300E2B2B
:101C700002D8034AD05C704701207047FC1C002446
:101C8000B8970208014B33F810007047FC1C002481
:101C9000184A08B592F82431DBB2012B0AD1002191
:101CA000154882F82D11437082F8263182F82C11E4
:101CB00082F82A1140F22311022014F035FBC0B241
:101CC00001280ED10B4A137BDBB2012B00D008BDDB
:101CD0000021094893754370517593731175917480
:101CE00008BD4FF48571022014F01EFB0028E9D0D6
:101CF00008BD00BFC80004306419002410B540F2CC
:101D00002311022014F010FB10F0FF0F11D04FF43C
:101D10008571022014F008FB02280AD0274B1B7B98
:101D2000012B3DD0254B93F82401C0B201282AD0C5
:101D300010BD4FF48571022014F0F6FA012810D07E
:101D40001E4B93F82401C0B20128F1D1002114F0F8
:101D5000EBFA0128ECD111F0DFFABDE810400DF0EC
:101D600033B8164B1B7B012BE2D10021084614F03F
:101D7000DBFA0128DCD1002011F018FB0020BDE8BF
:101D800010400DF027B8002114F0CEFA01280446C7
:101D9000CED111F00BFB2046BDE810400DF01AB873
:101DA0000021084614F0C0FA0128BBD1002011F030
:101DB000FDFA00200DF00EF8B4E700BFC8000430B3
:101DC000014B01221A54704764190024084B1A5C15
:101DD00062B14FF48C71074A01FB00F130B40A4440
:101DE000002501241D54D47530BC7047704700BFD6
:101DF00064190024C8000430012800D9704730B4A9
:101E000040F2FF34144B154AA14203F6FC7502EB75
:101E1000800228BF2146D5ED007A114C03EB8103E7
:101E200024F8101093ED007A87EE276A9FED065B89
:101E30009FED077B30BCB7EEC66AA6EE057BB7EE1A
:101E4000C77B82ED007A70476666666666E6334059
:101E50009A9999999999B93F18F602085819002446
:101E6000F81C0024000000002DE9F84F344D4FF01D
:101E7000000A344F344E2DED088B9FED2BAB9FEDB8
:101E80002C9B9FED2D8B95ED00BAA5F6FC755FFAA6
:101E90008AF92E4B484633F81A40FFF783FD8346F4
:101EA0004846FFF701FE834406201FFA8BFB10F023
:101EB00011FD06218046484610F02AFC0BEB00037A
:101EC000B0EE495B4FF48C724344F7EE006A02FBBC
:101ED0000A6223441BB283F30A0305EB83019BB21E
:101EE000D1ED007AA7FB0313194987EE8B7A5B09C2
:101EF00021F81A30B7EEC77AA7EE0A5BB7EEC57BBA
:101F000086EE876AB7EEC66A86EE087BBCEEC77BB4
:101F100082ED017ABAF1000F03D0BDEC088BBDE869
:101F2000F88F4FF0010AB2E76666666666E63340F0
:101F30009A9999999999B93F2D431CEBE2361A3F2A
:101F400014060308DB81B976C8000430F81C0024AD
:101F5000FC1C0024032906D84FF48C72024B02FBB0
:101F600000F00344D9737047C800043003290CD82B
:101F70004FF48C72054B02FB00F010B403440024B4
:101F800019749C745DF8044B70477047C8000430A6
:101F9000F0B5384C4FF48C76D2B206FB0046757C17
:101FA000B5B1757EAA4260D04FF0460EA44600251A
:101FB0000EFB00FE04E00CEB84046478A24254D0D3
:101FC0000135777C0EEB0504BD4204F10604F2DB1B
:101FD000284E4FF48C7505FB00656C7C1F2C44D893
:101FE0004FF0460C95F811E0C9B200240CFB00F745
:101FF000BE440EF1060E06F82E10697C39440631F7
:1020000006EB81014A706A7C3A44063206EB820292
:1020100093706B7C3B44063306EB8303DC706B7C74
:102020000133DBB26B746B7C03F0FF019BB1224682
:102030006746214617FB0023013206EB83039C7E93
:102040008C4201D9997EC9B26B7C9342F2DC11F0CB
:10205000800F18BF7F214FF48C73064A03FB00F0FA
:10206000831881545A7C012A00D0F0BD5A689A60C6
:10207000F0BD00BFC8000430104890F82931BBB152
:10208000002200EB8203013293F83011C9B21976B5
:1020900093F83111C9B2597693F83211C9B29976D1
:1020A00093F83311C9B2D97690F829319342E8DC1C
:1020B000024A92F82931DBB253747047C8000430E9
:1020C000F0B4084C235C1F2B09D803EB4016064DD7
:1020D000013305EB860705F8261023547A70F0BC0F
:1020E000704700BF60190024E81B00242DE9F04769
:1020F000244E335C013B1F2B3AD8174688460546D1
:102100000024DFF884904FEA401A06E05B78BB4277
:1021100013D0D4B2735DA3422CD910F093FC0AEB18
:102120000403022804F1010209EB8303EED10AEB58
:10213000040319F823304345EBD1735D2246A342D3
:102140001CD0013B9A4212DA541C0AEB02010AEB42
:102150000400E2B209EB810409EB800C19F820704D
:102160009A429CF8010009F821706070ECDB73550D
:10217000BDE8F087A3424FF00002E2D10020BDE8A5
:10218000F08700BF60190024E81B0024F8B5594F00
:102190004FF48C7404FB0074657C15B1657C202DB4
:1021A00029D94FF48C73534E03FB00F3F418627C6F
:1021B00002F0FF05002A78D0637C03F0FF019BB199
:1021C00000224627114617FB0023013206EB83034A
:1021D0009D7E8D4201D9997EC9B2637C9342F2DC27
:1021E00011F0800F18BF7F214FF48C73414A03FB1D
:1021F00000F01154F8BD667C06F0FF05FEB14FF00B
:10220000460E264600250EFB00FE09E007EB84047F
:102210006478944213D05FFA8CF5747CAC4260D938
:102220000EEB0504022B05F1010C04F10604EDD1BF
:102230000EEB0504063417F824408C42EBD12B46F4
:102240002C4E4FF48C7707FB00677A7C9A424ED075
:102250007B7C013BAB4216DD00EB8004C4EBC40485
:102260006400691C25440A1906EB8503CDB206EB10
:102270008202517EC9B25976127ED2B21A767B7C26
:10228000013B9D42EDDB4FF48C721A4B02FB00F2D6
:1022900013445A7C013AD2B25A745A7D002A80D033
:1022A0005A7D013A52B25A757BE70446124AF554F8
:1022B0004FF485710220155514F036F8022813D01A
:1022C000204611F073F84FF48C700A4B0022012164
:1022D00000FB04F003445A745A7599731A759A7482
:1022E000F8BD2B460025ABE711F016F8EBE7002010
:1022F000F8BD00BFC800043060190024F8B5274FAE
:102300007B7C03B3002402E07B7CA3421BDD07EB54
:10231000840640F21B1102200134757E14F004F88B
:10232000EDB28542F0D3357E0124767E10F08AFB33
:10233000EDB20346F6B2002029463246FFF726FFEB
:102340007B7CA342E3DC154F97F829312BB30024A3
:1023500003E097F82931A3421FDD07EB840640F222
:102360001B110220013496F8315113F0DDFFEDB25C
:102370008542EED296F83051012496F8316110F082
:1023800061FBEDB20346F6B2204629463246FFF71E
:10239000FDFE97F82931A342DFDCF8BDC800043008
:1023A000014B00221A54704760190024894A4FF4E7
:1023B0008C7303FB00232DE9F0475B7BA0B0044640
:1023C000022B39D0012824D040F22311022013F02F
:1023D000ABFF10F0FF0F0DD04FF48571022013F00A
:1023E000A3FF022806D0204610F0E0FF20460CF0A4
:1023F000F1FC03E010F090FF0CF0E6FC4FF48C725F
:10240000744B012102FB04F42344197320B0BDE88E
:10241000F087557BEDB2022DD6D14FF48571284659
:1024200013F082FF0028CFD1284640F2231113F089
:102430007BFF10F0FF0FC7D14FF48571022013F01E
:1024400073FF022843D1634B002201219046994635
:102450005A745A7599731A759A7483F8292183F8F6
:102460002D2183F8261183F82C2183F82A210025B9
:102470005FFA88F706E019F089F89DF81730012B0C
:1024800011D0013519F092F8A842EEB239466846EB
:1024900032465EDD19F07AF89DF800303246394652
:1024A000012B04A8E7D13246394608A819F06EF886
:1024B000BDF922A0324639460CA819F067F85246F9
:1024C0009DF8343000210120FFF762FDD9E74FF479
:1024D0008571022013F028FF002871D04FF48C7111
:1024E0003C4B0022012001FB04F115460B445A74B9
:1024F0005A7598731A759A7406E019F047F89DF8A2
:102500005730012B11D0013519F050F8A842EEB226
:10251000214610A832463ADD19F038F89DF84030CF
:1025200032462146012B14A8E7D13246214618A88D
:1025300019F02CF8BDF96270324621461CA819F03A
:1025400025F83A469DF8743000212046FFF720FD1B
:10255000D9E700255FFA88F601E019F03FF819F095
:1025600025F8A842E9B24FF0000305F101054FF04C
:1025700004023046F1DC4FF48C73012203FB089314
:102580005A73B8F1000F7FF41FAF90466FE7002534
:1025900001E019F023F819F009F8A842E9B24FF068
:1025A000000305F101054FF004022046F1DC4FF471
:1025B0008C72084B012102FB04F21344597303E7A8
:1025C00040F22311022013F0AFFE10F0FF0F3FF492
:1025D0003AAF83E7C8000430012838B5044638D044
:1025E0004FF48C72284B02FB04F213445A7B012AED
:1025F00004D1002202215A745A7559734FF48C7019
:10260000214B0022012500FB04F040F2231103447A
:1026100002201A735A745A759D731A759A7413F0BE
:1026200083FE10F0FF0F0ED04FF48571022013F0DF
:102630007BFE022807D0204610F0B8FE2046BDE8F9
:1026400038400CF0C7BB10F067FEBDE838400CF016
:10265000BBBB0D4D6B7B012BC2D14FF485710220AA
:1026600013F062FE0028BBD140F22311022013F0C8
:102670005BFEC0B20028B3D16B7B012BB0D102232B
:10268000687468756B73ABE7C8000430012800D923
:10269000704738B50446244D024640F2231102200B
:1026A00013F08AFA85F8D5421CB1BDE838400EF027
:1026B000B1BD4FF48571022013F036FE012811D010
:1026C0002B7B012BF1D103F0F1FE03281ED9002052
:1026D000FFF782FF0022144B11461046DA7413F004
:1026E0006BFAE2E795F82431012BDED103F0DEFE30
:1026F000032812D90120FFF76FFF00220A4B0120A7
:10270000114683F82B2113F057FACEE713F094FE0D
:102710000028DCD103F072FFD9E713F08DFE012809
:10272000E8D103F06BFFE5E7C80004304FF48C728A
:1027300038B502FB00F21D4B05460C4613441B7BCB
:1027400049B9012B15D04FF48C72184B02FB05F5DB
:102750002B44DC7438BD13B1022CF4D938BD03F01E
:10276000A5FE032814D92846FFF720FE022CF5D831
:10277000E9E703F09BFE032811D92846FFF72CFF59
:102780004FF48C72094B02FB05F52B44DC74E1E736
:102790000CF05EFC0130E6D103F0FEFEE3E70CF046
:1027A00057FC0130E9D103F029FFE6E7C800043007
:1027B0004FF48C72024B02FB00F00344187B70470D
:1027C000C80004304FF48C71074B002201FB00F06D
:1027D00010B4034401245A745A759C731A759A7480
:1027E0005DF8044B704700BFC8000430F0B589B0F5
:1027F000064603F05BFE032845D9284F4FF48C753D
:1028000005FB06752C7BE4B2012C28D002230024A2
:102810006B7318F0CBFEA042E5B23146684604F176
:1028200001042A4627DD18F0B1FE9DF80030012B87
:1028300023D04FF48571022013F076FD0228E8D1F1
:102840002A46002104A818F0A1FE9DF81030012BA3
:10285000DFD129460422002018F0C0FED9E74FF44A
:102860008571022013F060FDA0B997F8D5328BB9BD
:102870007C7387F8254109B0F0BD04222946304613
:1028800018F0ACFED5E70CF0E3FB0130B5D103F056
:1028900095FEB2E76C7309B0F0BD00BFC80004300C
:1028A00070B50646002418F081FEA042E5B24FF054
:1028B00000034FF004023046294604F101040FDD05
:1028C00018F08CFE4FF48571022013F02DFD0228C4
:1028D000E9D1002329460422184618F07FFEE2E7DA
:1028E0004FF48C72274B02FB06F21344587BC0B2A4
:1028F00002283AD04FF48C72224B02FB06F21344AA
:102900001B7B012B1DD04FF48571022013F00CFDB1
:1029100002281ED04FF48C711A4B002201FB06F6E0
:1029200033445A745A755A7303F0C0FD032800D912
:1029300070BD0CF08DFB0130FAD1BDE8704003F0A2
:102940004FBE40F22311022013F0EEFC10F0FF0FF7
:10295000D9D10C4B00225A745A755A7383F8292125
:1029600083F82D2183F82521DEE74FF4857113F0DC
:10297000DBFC022803D0304610F018FDBAE710F057
:10298000CBFCB7E7C80004304FF48C72034B002136
:1029900002FB00F00344597459757047C8000430B5
:1029A0004FF48C72024B02FB00F00344587B7047DB
:1029B000C8000430204800221021F8B505461F4CFD
:1029C0001BF098F801221021284604F5A0771BF08F
:1029D00091F8012613E0A3880133A380012204218A
:1029E00028461BF087F8A388032B1AD0B3F5967FEF
:1029F00004F10A0408BF04F8046CBC421AD0002297
:102A0000042128461BF076F8202128461BF06CF89C
:102A100000230028DFD0A380A67066702370A37106
:102A2000DCE7002326700A3404F8083C04F8093C6B
:102A3000BC42E4D1F8BD00BF0018025808000024D1
:102A40001F29034607D90C4A03CA12881860184682
:102A50001A8159607047084A01EB810102EB41017C
:102A600010B448680C680A891C60586018461A81BE
:102A70005DF8044B704700BF080000241F2805D8EC
:102A800000EB8000024B002240001A54704700BF48
:102A9000080000241F2806D800EB8000024B00220B
:102AA00003EB4000427070470800002438B5054D24
:102AB0000024E0B20134FDF743FF25F8020F212C7A
:102AC000F7D138BD421D002438B5054D0024E0B2D1
:102AD0000134FDF735FF25F8020F212CF7D138BD61
:102AE000FE1C0024014B33F810007047001D002429
:102AF00008B50FF009F97D200FF028F942220649A8
:102B00004FF4FA200FF0ACF9422204490448BDE822
:102B100008400FF0A5B900BF441D0024001D00248B
:102B200042D0070008B5422205494FF4FA200FF0C1
:102B30005BF9422203490448BDE808400FF054B94C
:102B4000441D0024001D002442D00700F0B54FF4BE
:102B5000E773CD000F4C83B003FB00F36F1A0646FA
:102B600003EB470323449B89022B01D1012A0AD995
:102B70004FF4E7736D1A03FB06F101EB45012144A5
:102B80008A8103B0F0BDCDE9001212F0EFFADDE961
:102B90000012EDE7AC1D0024012800D9704700EBBE
:102BA0004010024B014433F81100704748210024C3
:102BB000012800D97047FFF7C9BF00BF012800D91D
:102BC00070474FF4E773C1EBC101044A03FB00F007
:102BD00000EB41011144087B704700BFAC1D00248D
:102BE00038B504460D4602204FF4857113F09CFB66
:102BF000022802D0012C06D938BDA5F11803DBB29A
:102C0000082B12D901244FF4E773C5EBC5050C4915
:102C100003FB04F404EB45054B199A89012A0DD0F6
:102C20000AD3022AE8D1188938BD40F2091222FAE3
:102C300003F3DB07E6D5DDE7988838BD485B38BD90
:102C4000AC1D002438B505460C4602204FF48571B2
:102C500013F06AFB02280CD028464FF4E773C4EB4C
:102C6000C4040A4A03FB00F000EB44001044C0888F
:102C700038BDA4F11803DBB2082B05D840F20912C5
:102C800022FA03F3DB07E7D40120E6E7AC1D0024BA
:102C900038B505460C4602204FF4857113F044FB0D
:102CA00002280CD028464FF4E773C4EBC4040A4A48
:102CB00003FB00F000EB44001044408838BDA4F151
:102CC0001803DBB2082B05D840F2091222FA03F3ED
:102CD000DB07E7D40120E6E7AC1D002438B5044645
:102CE0001F2900F2C081DFE811F03E005A00BE014A
:102CF000BE01BE01BE0176009200BE01BE01BE0152
:102D0000AE00BE01BE01BE01BE01CA00E800BE01A8
:102D1000BE01BE01BE010601240142015001BE01F7
:102D2000BE018601A20120006A011E21FFF758FFA3
:102D3000012102462046FEF7A5FB4FF485710220D3
:102D400013F0F2FA012C40F09881022840F09581AE
:102D50001E210120FFF744FF012102460020BDE8AB
:102D60003840FEF78FBB0021FFF73AFF01462046AF
:102D70000BF03EFE4FF48571022013F0D5FA012CC2
:102D800040F07B81022840F0788100210120FFF78C
:102D900027FF01460020BDE838400BF029BE012185
:102DA000FFF71EFF014620460BF020FF4FF4857110
:102DB000022013F0B9FA012C40F05F81022840F0A4
:102DC0005C8101210846FFF70BFF01460020BDE8AA
:102DD00038400BF00BBF0621FFF702FF01462046EB
:102DE00016F0ECFB4FF48571022013F09DFA012CD4
:102DF00040F04381022840F0408106210120FFF786
:102E0000EFFE01460020BDE8384016F0D7BB072191
:102E1000FFF7E6FE0146204616F0AEFB4FF4857143
:102E2000022013F081FA012C40F02781022840F0A3
:102E3000248107210120FFF7D3FE01460020BDE8D1
:102E4000384016F099BB0B21FFF7CAFE0146204619
:102E500016F0F4FB4FF48571022013F065FA012C93
:102E600040F00B81022840F008810B210120FFF780
:102E7000B7FE01460020BDE8384016F0DFBB102148
:102E8000FFF7AEFE002102462046FEF7FBFA4FF4A4
:102E90008571022013F048FA012C40F0EE800228E0
:102EA00040F0EB8010210120FFF79AFE002102463E
:102EB0000846BDE83840FEF7E5BA1121FFF790FE5D
:102EC000002102462046FEF757FC4FF48571022090
:102ED00013F02AFA012C40F0D080022840F0CD8077
:102EE00011210120FFF77CFE002102460846BDE8C3
:102EF0003840FEF741BC1621FFF772FE0021024662
:102F00002046FDF7E9FF4FF48571022013F00CFA1B
:102F1000012C40F0B280022840F0AF801621012041
:102F2000FFF75EFE002102460846BDE83840FDF787
:102F3000D3BF1721FFF754FE002102462046FEF7BB
:102F40002FF84FF48571022013F0EEF9012C40F0B8
:102F50009480022840F0918017210120FFF740FE65
:102F6000002102460846BDE83840FEF719B818218E
:102F7000FFF736FE01462046FEF73EFF4FF485710F
:102F80000220BDE8384013F0CFB91921FFF728FE21
:102F90000146204616F034F84FF48571022013F0F4
:102FA000C3F9022869D1012C67D119210120FFF74B
:102FB00017FE01460020BDE8384016F021B81F2159
:102FC000FFF70EFE012102462046FEF7D5FB4FF427
:102FD0008571022013F0A8F9012C4ED102284CD1A2
:102FE0001F210120FFF7FCFD012102460020BDE862
:102FF0003840FEF7C1BB1C21FFF7F2FD012102465C
:103000002046FDF769FF4FF48571022013F08CF91B
:10301000022832D1012C30D11C210120FFF7E0FD24
:10302000012102460020BDE83840FDF755BF1D21B3
:10303000FFF7D6FD012102462046FDF7B1FF4FF410
:103040008571022013F070F9022816D1012C14D1D9
:103050001D210120FFF7C4FD012102460020BDE82B
:103060003840FDF79DBF0D4602204FF4857113F0E7
:103070005BF9022801D1012C00D038BD063D192D85
:10308000FBD801A353F825F0FB2D0008332E0008D0
:103090007B3000087B3000087B3000086B2E000876
:1030A0007B3000087B3000087B3000087B30000854
:1030B000A52E0008E12E00087B3000087B300008B8
:1030C0007B3000087B3000081D2F0008592F0008B6
:1030D0007B300008AB2F00087B3000087B300008F5
:1030E0001930000851300008512D0008E12F000868
:1030F00000EB4010012110B4064C431E04F12002E5
:103100002344104403F8011F8342FBD15DF8044BB4
:10311000704700BFCC21002400EB4010002110B408
:10312000064C431E04F120022344104403F8011FFF
:103130008342FBD15DF8044B704700BFCC210024D3
:1031400002292DE9F8431F460E46154604469DF810
:1031500020304AD001295AD0002944D101287BD9F6
:103160007BBB4601DFF8D89333184B449B5C43BBD1
:10317000A5F10C03DBB2142B40F2608229462046F5
:10318000FFF72EFD381A00B20BF026FF092800F2D7
:103190007F82012326449C42B14409F8053010D8AF
:1031A0004FF4E77140F2FF320E23DFF890C301FBCA
:1031B00004F1BA4203FB051328BF3A469C44ACF81D
:1031C000042029462046FFF789FD012C40F25A8150
:1031D000D84CFF08635DBB4205D0FFB22846394694
:1031E0000FF050FC6755BDE8F8831146FFF72AFD44
:1031F000D14A04EB4413012C2B4422F8130040F273
:10320000858029462046BDE8F843FFF767BD114693
:10321000FFF718FDC84A04EB4413012C2B4422F895
:1032200013004DD929462046FFF7DAFC381A00B2C0
:103230000BF0D2FE092800F27C8229462046FFF7D7
:103240004DFD012CCFD840F2FF32DFF8F0C2E9008B
:10325000BA4228BF3A464EE0D1004FF4E772460129
:10326000DFF8D8C2A1EB050902FB00F206EB00086B
:10327000DFF8D0E202EB490208EB050962442EF8C0
:10328000197092F80CE0BEF1020F00F0A180BEF1BF
:10329000010F00F0FB80BEF1000F00F03F824FF401
:1032A000E77340F2FF32491B03FB04F4BA421346B2
:1032B00004EB410128BF3B468C44ACF8063087E75D
:1032C000E9004FF4E77340F2FF32DFF870C2481BA9
:1032D00003FB04F3BA4203EB400328BF3A460CEB6E
:1032E00003002CF80320037B022B21D0002B00F0DD
:1032F0002B81012BA1D04FF4E773491B03FB04F48E
:1033000004EB41018C44ACF802206CE74FF4E77207
:1033100040F2FF30C5EBC503884902FB04F2874247
:1033200002EB430328BF07460B449E811F8168E7D9
:1033300029462046FFF754FC381A00B20BF04CFE29
:10334000092840F267810FF06BFB022800F06281D0
:103350000FF066FB01287FF474AF29462046FFF783
:103360003FFCB84205D929462046FFF791FCB842F8
:103370000DD329462046FFF733FCB842BFF461AFB6
:1033800029462046FFF784FCB8427FF65AAF29460B
:103390002046FFF725FC294606462046FFF778FC25
:1033A000012C3FF64AAF33184FF4E77C40F2FF316F
:1033B0000E22DB1B0CFB04FC9BB202FB05C2DFF8F8
:1033C0007CC18B42944428BF0B46ACF8083034E7EC
:1033D00040F2FF332946BB4228BF3B469380FFF7AC
:1033E000FFFB381A00B20BF0F7FD092805D80022C0
:1033F00029462046FFF7AAFBE3E60FF0FFFA022872
:1034000000F00E810FF0FAFA01287FF4DEAE2946B3
:103410002046FFF7E5FBB84205D929462046FFF7CD
:1034200011FCB8420DD329462046FFF7D9FBB8421C
:10343000BFF4CBAE29462046FFF704FCB8427FF626
:10344000C4AE29462046FFF7CBFB29460646204658
:10345000FFF7F8FB012C3FF6B4AE33184FF4E77CCE
:1034600040F2FF310E22DB1B0CFB04FC9BB202FB83
:1034700005C2DFF8C8C08B42944428BF0B46ACF8A5
:1034800008309EE6DFF8B4C0E90008E740F2FF33F9
:103490002946BB4228BF3B469380FFF7A1FB381A61
:1034A00000B20BF099FD0928A1D90FF0A7FA022864
:1034B00000F0E0800FF0A2FA01287FF486AE2946E2
:1034C0002046FFF78DFBB84205D929462046FFF775
:1034D000B9FBB8420DD329462046FFF781FBB8421D
:1034E000BFF473AE29462046FFF7ACFBB8427FF627
:1034F0006CAE29462046FFF773FB29460646204658
:10350000FFF7A0FB012C3FF65CAE33184FF4E771D8
:1035100040F2FF300E22DB1B01FB04F1DFF81CC080
:103520009BB202FB0512834228BF03462CF80230EF
:1035300047E600BF881D002434220024AC1D00246F
:10354000CC2100244821002429462046FFF748FBCF
:10355000381A00B20BF040FD09285BD90FF060FA71
:10356000022857D00FF05CFA01287FF46AAE294692
:103570002046FFF735FBB84205D929462046FFF71C
:1035800087FBB84225D329462046FFF729FBB842DE
:1035900005D229462046FFF77BFBB84219D82946B9
:1035A0002046FFF71DFBB84205D929462046FFF704
:1035B0006FFBB8420DD829462046FFF711FBB842F1
:1035C000BFF43FAE29462046FFF762FBB842BFF486
:1035D00038AE29462046FFF703FB2946064620461B
:1035E000FFF756FB012C3FF628AE33184FF4E77C6B
:1035F00040F2FF310E22DB1B0CFB04FC9BB202FBF2
:1036000005C2DFF844C18B42944428BF0B46ACF896
:10361000043012E6012229462046FFF797FA0CE60D
:10362000474A32F81900381A00B20BF0D5FC0528C9
:103630007FF6E8AE012C3FF6C4ADD8E6414A22FA47
:1036400003F3DB077FF59AAD012C3FF6BAADDFF847
:10365000F8C0E9004FF4E77340F2FF32491B03FB67
:1036600004F3BA4203EB410128BF3A468C44ACF85C
:103670000420A6E504EB4413314A2B4432F813002E
:10368000381A00B20BF0A8FC05287FF613AFD1E77B
:103690000FF0B4F902283FF47CAD0FF0AFF9012828
:1036A0007FF493AD29462046FFF79AFAB84205D930
:1036B00029462046FFF7C6FAB8420DD329462046D0
:1036C000FFF78EFAB842BFF480AD29462046FFF7D7
:1036D000B9FAB8427FF679AD29462046FFF780FA5D
:1036E000064629462046FFF7ADFA3318012CA3EB16
:1036F00007039BB23FF665AD4FF4E77140F2FF3030
:103700000E22DFF844C001FB04F1834202FB0512E4
:1037100028BF03469444ACF8043052E5002B99D1FD
:10372000DFF82890C84418F80530002B3FF420AD8E
:1037300090E70FF075F902283FF47FAD12E700BF64
:1037400034220024C3901000AC1D0024CC2100249E
:10375000F0B58000104F114D3B1844185B5C55F8D4
:1037600024601F2B09D8DFF838C00CEB441C1CF870
:1037700003E00CF80320A6EB0E0601333244384474
:10378000DBB245F82420202B08BF002343545011FE
:1037900020EAE070C0B2F0BDB8220024C0220024AC
:1037A000E0220024012808D8042906D8044B00EBA5
:1037B000400003EB4000405670474FF0FF30704729
:1037C00054010024012808D8042906D8044B00EB32
:1037D000400003EB4000405670474FF0FF30704709
:1037E00048010024F8B50C4605464FF485710220C7
:1037F00012F09AFD022804F10C0C04F1180700D114
:10380000FDB105EB4505164B164A6900164EAD0095
:103810000B440A442E44196821609988134BA180F7
:1038200011682B44C4F806109288628107CEE060CC
:10383000CCF80410CCF8082007CBA0617960BA60FE
:10384000F8BD0B4B0B4A19680B4D216099880B4B47
:10385000A1801168C4F806109288628107CDE6E75E
:103860005401002448010024881900246819002408
:103870005A0100244E0100249419002474190024D4
:1038800000EB40000A462DE9F0434FEA400C0B687C
:10389000274D89468600274F45F80C3005EB0C0470
:1038A000B1F804E007EB0C0306354FF0FF08A4F86D
:1038B00004E04FF0000E51F8060F47F80C00AC443E
:1038C00089885F1E1C4D998052F80C0F35441B4BA4
:1038D000516892683344AE1E07C559F8180F9D1EF3
:1038E000D9F80410D9F8082007C314F9013B0133B3
:1038F000DBB2222B17F8013F03F1010388BF04F864
:10390000018CDBB2222B36F8023F88BF87F800809B
:10391000B3F5806F35F8023F28BFA6F800E0B3F595
:10392000806F28BFA5F800E06445DED1BDE8F083D4
:103930005401002448010024881900246819002437
:10394000F0B599B0044660224FF4F2206946194D53
:103950000EF04AFA184904EB4400184C184A460085
:103960008300013E0001023B354434440DF10A0658
:1039700019441A440DEB000306EB000E15F901CFB4
:1039800014F9017F23F802CB734531F8026F32F846
:10399000020F5F81DE825884F0D10EF0B5F97920F4
:1039A0000EF0D4F9694660224FF4F2200EF058FA76
:1039B00019B0F0BD540100248819002448010024E6
:1039C00068190024F0B599B0044660224FF4F22043
:1039D0006946144D0EF008FA0DF10A0704EB440095
:1039E0001149124C4300124A8600013B0001023E7D
:1039F0001D441C4407EB000E0DEB00033144324420
:103A000033F902CB5F897345DE8A588C05F801CF04
:103A100004F8017F21F8026F22F8020FF0D119B0EB
:103A2000F0BD00BF5401002488190024480100247F
:103A30006819002470B5134A4FF0FF34124B4FF64B
:103A4000FF766FF0FE2140F2FF1514600020147124
:103A5000D480168196721D819D82C3E90011C3E94D
:103A6000031112F075FD48B1012012F071FD00B193
:103A700070BD0120BDE87040FFF762BFFFF760FF37
:103A8000F2E700BF540100248819002470B5134ADE
:103A90004FF0FF34124B4FF6FF766FF0FE2140F2ED
:103AA000FF15146000201471D480168196721D8158
:103AB0009D82C3E90011C3E9031112F049FD48B129
:103AC000012012F045FD00B170BD0120BDE870403D
:103AD000FFF736BFFFF734FFF2E700BF48010024CD
:103AE0006819002430B54FF48571ADB0044602204A
:103AF00012F01AFC022809D02C4B28A821461A5D86
:103B000017F044FD9DF8A5002DB030BD274C0021D5
:103B10006846227817F03AFD6278012104A89DF8E2
:103B2000005017F033FD9DF8103000212278AB4291
:103B30001ED018A817F02AFD9DF86030012B0FD079
:103B40000121627820A817F021FD9DF8801001293D
:103B5000DAD124A8627817F019FD9DF89500D3E713
:103B60001CA82278002117F011FD9DF87500CBE705
:103B700008A817F00BFD627801210CA89DF82550CC
:103B800017F004FD9DF83530AB4207D210A822781B
:103B9000002117F0FBFC9DF84500B5E714A86278FA
:103BA000012117F0F3FC9DF85500ADE784190024BE
:103BB0002DE9F043002795B0DFF8D8800024FEB24D
:103BC00005E017F0E3FC9DF80030012B5ED017F004
:103BD000EDFCA042E5B23146684604F101042A46F4
:103BE000EFDC0FB90127E9E70027DFF8A8900024F0
:103BF000FEB217F0DBFCA042E5B2314604A804F1A6
:103C000001042A4619DD17F0C1FC9DF81030012B84
:103C1000EFD12A46314608A817F0B8FC19F807205A
:103C200031460CA89DF8258017F0B0FC9DF8353082
:103C3000434538BF07F80950DBE70FB90127D6E73E
:103C400000270024FEB205E0294603223046013455
:103C500017F0C4FC17F0AAFCA042E5B2314610A848
:103C60002A460DDD17F092FC032C4FF00003EBDC2D
:103C70009DF8462029463046FFF76AFD0346E3E7F4
:103C80000FB90127DDE715B0BDE8F08307F808504C
:103C9000A7E700BF84190024014B1954704700BFE7
:103CA0008019002420291CD800EB400330B40E4CAE
:103CB000002504EB4303013B13F9014F8C4206D06E
:103CC0000135052DF8D14FF0FF3030BC704700EBC7
:103CD00040030649002005EB430521F8152030BCC0
:103CE00070476FF0010070475401002488190024C8
:103CF00020291CD800EB400330B40E4C002504EB07
:103D00004303013B13F9014F8C4206D00135052DC9
:103D1000F8D14FF0FF3030BC704700EB400306494C
:103D2000002005EB430521F8152030BC70476FF0EB
:103D300001007047480100246819002438B5054681
:103D40000C4602204FF4857112F0EEFA022808BFEB
:103D50000125202C0ED82BB20B4A002103EB430384
:103D600002EB4303013B13F9012FA24204D00131BE
:103D70000529F8D1054838BD05EB4505044B01EB95
:103D8000450133F9110038BD5401002418FCFFFF30
:103D90008819002438B505460C4602204FF4857179
:103DA00012F0C2FA022808BF0125202C0ED82BB22F
:103DB0000B4A002103EB430302EB4303013B13F9DE
:103DC000012FA24204D001310529F8D1054838BDA0
:103DD00005EB4505044B01EB450133F9110038BDF6
:103DE0004801002418FCFFFF6819002420291BD873
:103DF00000EB4003002230B40D4D05EB4303013BC3
:103E000013F9014F8C4206D00132052AF8D14FF048
:103E1000FF3030BC704700EB4003FF21002005EB72
:103E20004303995430BC70476FF00100704700BFE6
:103E30005401002400EB40000449FF2340000A180D
:103E40000B5453709370D370137170474801002462
:103E500000EB40000449FF2340000A180B54537044
:103E60009370D370137170475401002420291BD81C
:103E700000EB4003002230B40D4D05EB4303013B42
:103E800013F9014F8C4206D00132052AF8D14FF0C8
:103E9000FF3030BC704700EB4003FF21002005EBF2
:103EA0004303995430BC70476FF00100704700BF66
:103EB0004801002438B504460D4602204FF48571B0
:103EC00012F032FA022808BF0124202D13D824B2A0
:103ED0000A4B04EB44041A1D6400611E14440B4495
:103EE00013F9012FAA4204D0A342F9D14FF0FF30B9
:103EF00038BD002038BD6FF0010038BD54010024EA
:103F00002DE9F843904681460F46FFF7D3FFF8B1FD
:103F10004FEA4906114A4346052106EB090502EB23
:103F20004505E8565C1C013014D0E3B2052B08BFF0
:103F300000230139F5D1202F0AD84E44084B40F216
:103F4000FF1176003244464402F8087023F8161038
:103F5000BDE8F883202F9846EFD9F9E754010024F3
:103F60008819002438B504460D4602204FF48571A7
:103F700012F0DAF9022808BF0124202D13D824B248
:103F80000A4B04EB44041A1D6400611E14440B44E4
:103F900013F9012FAA4204D0A342F9D14FF0FF3008
:103FA00038BD002038BD6FF0010038BD4801002445
:103FB0002DE9F843904681460F46FFF7D3FFF8B14D
:103FC0004FEA4906114A4346052106EB090502EB73
:103FD0004505E8565C1C013014D0E3B2052B08BF40
:103FE00000230139F5D1202F0AD84E44084B40F266
:103FF000FF1176003244464402F8087023F8161088
:10400000BDE8F883202F9846EFD9F9E7480100244E
:104010006819002438B505460C46FFF74BFF002809
:104020003DD1072C2146284619D00B2C17D0FFF77D
:1040300085FE6FF4FF711B4A08441B4B525D07EE6F
:10404000900A03EB8203F8EEE77A93ED007A67EECD
:10405000877AFDEEE77A17EE903A18B238BDFFF78F
:104060006DFE104A6FF4FF740F4B525DB7EE005BAC
:10407000204403EB820307EE900A93ED007AB8EE3A
:10408000E76BB7EEC77A37EE457B27EE067B37EE58
:10409000077BBDEEC77B17EE103A18B238BD002083
:1040A00038BD00BF8019002418F4020870B50E4610
:1040B00088B0114614460546FFF7FCFE00284BD198
:1040C000072C2146284620D00B2C1ED0FFF736FEA9
:1040D00032460446294604A817F058FA6FF4FF71D7
:1040E0009DF8142061181E4B07EE901A03EB820313
:1040F000F8EEE77A93ED007A67EE877AFDEEE77ADD
:1041000017EE903A18B208B070BDFFF717FE3246AE
:1041100004462946684617F039FA6FF4FF709DF897
:104120000420B7EE005B21180D4B07EE101A03EBCD
:104130008203B8EEC76B93ED007AB7EEC77A37EE1D
:10414000457B27EE067B37EE077BBDEEC77B17EE80
:10415000103A18B208B070BD002008B070BD00BFA2
:1041600018F4020838B505460C46FFF7FBFE08B107
:10417000002038BD21462846FFF70CFE044628469D
:10418000FFF7B0FC6FF4FF72084BA21803EB80003E
:1041900007EE902A90ED007AF8EEE77A67EE877ADC
:1041A000FDEEE77A17EE903A18B238BD18F402081F
:1041B00070B50E4684B0114614460546FFF7D2FE90
:1041C00010B1002004B070BD21462846FFF7E2FD83
:1041D000324604462946684617F0D8F96FF4FF7155
:1041E0009DF805206118094B07EE901A03EB820336
:1041F000F8EEE77A93ED007A67EE877AFDEEE77ADC
:1042000017EE903A18B204B070BD00BF18F402085F
:10421000144B00220B20114610B5D3F8D84082B0C1
:1042200044F00104C3F8D840D3F8D83003F00103B8
:104230000193019B17F062FF0B2017F095FF0022FE
:1042400002210D2017F05AFF0D2017F08DFF0022DC
:104250000F20114617F052FF0F2002B0BDE81040AA
:1042600017F082BF0044025838B54FF40002084DE1
:10427000084C4FF48023AA610D21A361002012F0A5
:1042800053F810B98023AB6138BD0423A36138BD56
:104290000004025800100258F0B40F4D0F4A2B5C76
:1042A00052F820401F2B08D80D4E03EB401736F86C
:1042B00017C026F81710A4EB0C0401332144DBB21D
:1042C00042F820101F2B88BF00232B54481120EAEE
:1042D000E070F0BC80B27047382E0024302E0024ED
:1042E000902B0024F0B40F4D0F4A2B5C52F8204065
:1042F0001F2B08D80D4E03EB401736F817C026F8D1
:104300001710A4EB0C0401332144DBB242F8201057
:104310001F2B88BF00232B54481120EAE070F0BC0B
:1043200080B270476C2B00242C2F00240024002422
:1043300038B5184D002404F00301C4F3870001349C
:1043400035F8022F0DF008FC082CF4D1124D002096
:10435000124C2988FFF7A0FF014600200DF066FCF3
:1043600069880120FFF798FF014601200DF05EFCEF
:1043700021880020FFF7B6FF014600200DF062FC07
:1043800061880120FFF7AEFF01460120BDE83840FB
:104390000DF058BC9E190024B8190024B01900244F
:1043A000014B1878704700BFB5190024014B93F9F1
:1043B00000007047B419002410B50DF09DFB0024D7
:1043C000104B11481C701EF03BFA10481EF038FAD2
:1043D0000F481EF035FA0F481EF032FA0E481EF054
:1043E0002FFA20460DF088F901200DF085F94FF4E1
:1043F0008571022011F098FFC0B2BDE8104017F09F
:104400006BBA00BFB5190024E48E0024A48D0024EB
:10441000A48F0024A48E0024E48D0024014B0122EB
:104420001A707047BC19002488B101280ED14FF4CE
:1044300000224FF480130D2110B5074CA261A36137
:1044400011F072FF28B11023A36110BD7047FFF770
:104450000BBF0823A36110BD00100258F8B5074632
:1044600008F0C4FE00210C4608460DF0C7FB0120F1
:1044700021460DF0C3FB21460322204615F0D6F855
:1044800003222146012015F0D1F8C4F3870504F07A
:10449000030640F2FF120134284631460DF07EFB40
:1044A0003146284640F2FF120DF08AFB314628467D
:1044B00000220DF051FB082CE7D140F6985207F08E
:1044C0000301B80800240DF047FB04F00301C4F316
:1044D0008700013400220DF04FFB082CF5D138463F
:1044E0000DF000FB384614F05DF8FFF7BDFE00212B
:1044F0000120FFF799FF032F3CD9002108460DF05A
:1045000071FB40F2FF3101200DF06CFB00210846E9
:104510000DF08CFB40F2323101200DF087FB0021C1
:1045200008460DF08FFB002101200DF08BFB0022CF
:1045300001212F4819F0DEFA002202212C4819F03F
:10454000D9FA00224FF40071294819F0D3FA002259
:104550004FF48061264819F0CDFA01224FF48061B2
:10456000234819F0C7FA012221481146BDE8F84056
:1045700019F0C0BA40F2FF3100200DF033FB0021EA
:1045800001200DF02FFB40F2323100200DF04EFBE8
:10459000002101200DF04AFB002108460DF052FBDE
:1045A000002101200DF04EFB00220121104819F0DE
:1045B000A1FA002202210E4819F09CFA00224FF4C1
:1045C00000710B4819F096FA00224FF480610848F8
:1045D00019F090FA01224FF40071054819F08AFA97
:1045E000012202210248BDE8F84019F083BA00BF59
:1045F0000010025870B5154E96F90030002BB4BF6C
:10460000D81C18465A4203F00303C0F3870502F092
:10461000030258BF5342013303F0FF0416F0C6FFF4
:10462000A0420CD004EB8500C0B20728307002D93C
:1046300070BD00203070BDE87040FFF70FBF681CF0
:10464000C5B2022DF5D00024ECE700BFB419002458
:1046500038B5154D95F90030002BB4BFD81C18465D
:104660005A4203F00303C0F3870402F0030258BF69
:10467000534213F0FF030CD0581EC0B200EB84006D
:10468000C0B20728287000D938BDBDE83840FFF710
:10469000E5BE16F08BFF14F1FF3400F1FF3018BFB8
:1046A0000124C0B2EAE700BFB419002410B500200D
:1046B000204CFEF7F5F80120FEF7F2F81E481EF038
:1046C000D5F81E481EF0D2F81D481EF0CFF81D4840
:1046D0001EF0CCF81C481EF0C9F8204600224FF40A
:1046E000805119F007FA204600224FF4005119F0CA
:1046F00001FA204600224FF4804119F0FBF92046D0
:1047000000224FF4004119F0F5F920460122102152
:1047100019F0F0F920460122402119F0EBF90023AD
:104720000A4A18461370FFF799FE094B01221A70C6
:1047300010BD00BF00140258A48D0024A48F0024D3
:10474000A48E0024E48D0024E48E0024B4190024F7
:10475000B5190024000000002DE9F04F00232DEDD5
:10476000108B8BB09FEDDCAB9FEDDD9B0393EE4B8D
:104770000593039C03214FF0000A5FFA84F8A3001D
:104780004046049311F0D0FDC1B240460DF092F9BD
:104790000C21404611F0C8FDC1B240460DF080F931
:1047A00008214046FEF71CFA082105464046FFF75F
:1047B00031FC082181464046FFF7D4FC074608201B
:1047C0000EF088F80821064640460DF0A1FF05448A
:1047D00040F2FF320A2105EB0903404603943B44B3
:1047E0003344D24E1BB223EAE3739342A8BF13466D
:1047F00026F81430FEF7F4F90A2105464046FFF783
:1048000009FC0A2181464046FFF7ACFC07460A2016
:10481000C74C0EF05FF80A21064640460DF078FFBF
:104820002B18039A14214B44404604EB021B059CB1
:104830003B44019440F2FF3433441BB223EAE37358
:104840009C42A8BF1C46BB4B07EE904A9FEDA66B4F
:10485000B8EEE77B9FEDA68B27EE067B9FEDA6DBF0
:104860009FEDA7EBBDEEC77B17EE104A23F8124071
:10487000FEF7B6F9044614214046FFF7CBFB04448B
:1048800014214046FFF76EFC20449FEDAB7A07EE03
:10489000900AF8EEE77A87EE87CA16F087FE504551
:1048A00040F361815FFA8AF50921404640F2FF3604
:1048B000FEF796F92946044609224046FFF7F6FB23
:1048C0002946092202904046FFF772FC81460920E2
:1048D0000EF000F809220746294640460DF0C6FEB4
:1048E000029B04440E214046234499444F443FB266
:1048F00027EAE777B742A8BF374607EE907AB8EEC7
:10490000E7FBFEF76DF9294604460E224046FFF705
:10491000CDFB074629460E2240462FEE0AFBFFF745
:1049200047FC0744294640463C4424B224EAE47448
:10493000B442A8BF344607EE904AB8EEE77B27EEB4
:10494000097BBDEEC77B17EE103A9AB20DF0BCF8AA
:104950000F214046FEF744F9294604460F224046FF
:10496000FFF7A4FB29460F2202904046FFF720FCE8
:10497000814603200DF0AEFF29460322074640463C
:104980000DF074FE029B04444046234499444F4476
:104990003FB227EAE777B742A8BF374607EE907ADB
:1049A000664FB8EEE7BB0AF0DFF9FDEECF7B1A21C8
:1049B0002BEE08BB17EE903AFDEECB7B17EE902A5C
:1049C00012FB00F2404687FB0247D4173A44C4EB7F
:1049D000622213441BB29E42A8BF1E46FEF700F996
:1049E000294604461A224046FFF760FB074629463F
:1049F0001A22404626EAE676FFF7DAFB38440444FA
:104A000024B2B4F5806F80F2FC80002CC0F21E81CD
:104A10006FF4FF739FED4A7A1C4407EE904AF8EE5C
:104A2000E77A87EE875A9FED387BB7EEC55AB4EE2A
:104A3000C75BF1EE10FA05D5B4EE4D5BF1EE10FA5E
:104A40003EFE055B07EE906AB7EECC4A9FED306BF9
:104A5000B8EEE77B9FED302B27EE067B9FED303BDA
:104A600087EE026BB4EEC34BF1EE10FA36EE055B47
:104A7000F7EEC5FB40F18380FCEEEF7A17EE903A3B
:104A80006A2B00F3B48003984FF4D8716C22B8EE0F
:104A9000E75A01FB00F1244802FB0A123FEEC55A17
:104AA0001344591C30F8132030F8113007EE902AC7
:104AB0009B1AF8EEE77A07EE103AB8EEC77AE7EEFF
:104AC000057AFDEEE77A17EE903A002B80F292809D
:104AD000002337E0AFF30080333333333333EB3F1E
:104AE000A69BC420B072E03F9A9999999999E93FA1
:104AF000CDCCCCCCCCCCE43F9A9999999999B9BFBB
:104B000000000000000000009A9999999999B93F16
:104B10000000000000C05A400000000000F88F4074
:104B20009A9999999999A93F80240024B019002451
:104B300060010024B819002400803B440308208051
:104B400000C07F44019A0BF1040B7149D8320192E5
:104B5000049A52440AF1010A21F8123016F026FD97
:104B600050453FF79FAE059B03F558730593039B94
:104B7000002B6ED00BB0BDEC108BBDE8F08F2A4639
:104B8000414606A816F002FDBDF91A3029464046F6
:104B90000CEE903A13F0F6FF06214046B0EE40FAD4
:104BA00011F0C2FB0228F8EEECCA2DD006214046D7
:104BB00011F0BAFB012827D0CBED00CADFED557A02
:104BC000294640467CEEE7CA13F07CFFECEE2CFA57
:104BD0003FEE800A13F010FDB5EEC00AF1EE10FAB8
:104BE0003AD4FCEEC07A17EE901A6A2968DD019B70
:104BF000B3F8D63040F6FF729342A8BF13469BB27B
:104C0000A0E79FED3F5B1DE72946404614F0A2FC5C
:104C10000028D1D0BFEE007ADBED007AF4EE477ABF
:104C2000F1EE10FA3BD1CBED00CAF5EEC0CA00237D
:104C300006214046F1EE10FA48BFCBF8003011F0E3
:104C400073FB022842D0DBED00CAB7E79FED2E5B75
:104C5000F8E6012303938CE501209FED2F0A002144
:104C60004FF4D873039C6C2203FB04F302FB0A335A
:104C700019440344294830F8112030F8133007EE66
:104C8000902A9B1AF8EEE77A07EE103AB8EEC77A48
:104C9000E7EE007AFDEEE77A17EE903A15E7F4EECC
:104CA000EC7AF1EE10FA1ED53CEEE77AB4EECF7A4C
:104CB000F1EE10FAB7DB77EE8FCACBED00CAB4E79E
:104CC000F8EEE77A481C30EE670AC9E7DBED007AB8
:104CD000FCEEE77ACDED027A9DF808300CEE903AC2
:104CE000F8EE6CCA6AE737EEEC7AB4EECF7AF1EE02
:104CF00010FA98DB77EECFCACBED00CA95E700BF7C
:104D0000000000000104E03F00000000FEF7DFBFEC
:104D1000A01900240000404200000000802400246C
:104D200038B5164A002316491648174C174D03701C
:104D3000237017484B6253622B701DF081FD0821D0
:104D400014481DF03FFE144A144B1278197803E002
:104D500002B921B12B7873B92378002BF8D0104B0E
:104D6000104A1B78991E013B32F8110032F81330BB
:104D70001844400838BD4FF6FF7038BD004401406C
:104D800000040040BE190024C6190024BC190024E8
:104D9000E48F0024648E0024C0190024C719002465
:104DA000BD1900243C2E002416491748174A38B56F
:104DB0000B88174C9BB20380D26B237892B20A8087
:104DC0006BB10A885D1E018892B289B28A4238BFEF
:104DD00002F1FF32521A0F4992B221F815200E4A01
:104DE00012789A4202D00133237038BD08210B4853
:104DF0001DF022FE23780A4A01210133117023702D
:104E000038BD00BFC4190024C219002400040040AA
:104E1000BE1900243C2E0024BD190024648E0024F9
:104E2000C619002408B50CF06FFF7A200CF08EFF35
:104E30004FF4D86203494FF4F420BDE808400DF068
:104E40000FB800BF80240024F8B51B4E00254FF694
:104E5000FF744FF4D862B71E17494FF4F4200CF0DA
:104E6000C3FF7A194FF4966332F8020F03F114016D
:104E7000A04208BF13808BB2B3F5526FF4D1D8357E
:104E8000B5F5587FEDD106F25E3600254FF6FF747A
:104E900072194FF4966332F8020F03F11401A04225
:104EA00008BF13808BB2B3F5526FF4D1D835B5F586
:104EB000587FEDD1F8BD00BF802400242DE9F04FCC
:104EC0000746CD482DED028B8FB01DF0CFFCCB48AF
:104ED0001DF0CCFCCA481DF0C9FCCA481DF0C6FC38
:104EE000C9481DF0C3FC0021C8480C461DF006FE51
:104EF00040F2FF3120460CF099FE40F2FF310120D4
:104F00000CF094FE214620460CF06CFE2146012058
:104F10000CF068FE214620460CF070FE2146012070
:104F20000CF06CFE214620460CF08CFE2146012040
:104F30000CF088FEFFF798F901210846FFF774FA94
:104F400022460121B24818F0D5FD22460221B04880
:104F500018F0D0FD22464FF40071AD4818F0CAFD9C
:104F600022464FF48061AA4818F0C4FD40F2FF3198
:104F700020460CF04FFE40F2FF3101200CF04AFEBB
:104F800004F00301C4F38700013400220CF0F4FDA7
:104F9000082CF5D10024C4F3870504F0030640F281
:104FA000FF120134284631460CF0F8FD3146284600
:104FB00040F2FF120CF004FE082CECD1954B0522B8
:104FC000082F1A7000F0AE81BB0807F003070A2013
:104FD0001C46791C0A93079117F064F8631CA342DE
:104FE0000C9340F39A810D970D98D8224FF4587383
:104FF0000A9C02FB00F28849884803FB04239FEDCA
:10500000888A90F800E00B4401900B93079B0D9A5F
:105010001946914240F3AD80BEF1000F00F0A98027
:105020000A9B0B999B00DBB2CDE905120993099B02
:105030004FF44875069A7B4F03EB0208059B5FFA15
:1050400088F80393002340464FEA980402930CF03B
:1050500049FD0A20A24617F025F8019B93F800E0CD
:10506000BEF1000F00F085806F4C08F00306029B34
:105070006E4A3146206832F81330AAB220F001009F
:10508000BDF80890013B20605046A362636943F07D
:1050900001036361236923F001032361236843F063
:1050A0000103236025E0002A44D13B8807EE104A23
:1050B00007EE905A06EE903AB8EEC77AF8EEE77A25
:1050C000F8EE665A87EE256AE6EE087AFDEEE77A94
:1050D00017EE903A0FFA83FC65451FFA8CF200F048
:1050E0008380BCF5805F654680F2DE80BCF1000FF6
:1050F00024DB0CF031FD0A2016F0D4FF08F076F81E
:10510000FFF70EFE4FF6FF738346012249464046E5
:105110009B453C8808BF0022ABEB040402F09AFFD9
:10512000019B3146504693F800E0BEFA8EF25209D8
:10513000002CB8D1B5F5805F0EDA6AB9029AADB22B
:1051400003990237013205F1200321F8025F6C2A2E
:10515000029203911DB283D1069B079A01339342B9
:10516000069306D0059BD8330593BEF1000F7FF45C
:105170005EAF0B9A0A9B02F5587201330B920C9AA0
:105180000A939342FFF642AFBEF1000F01D0FFF742
:1051900049FE019B00241C700CF0AEFC16481DF06B
:1051A0004FFB16481DF04CFB15481DF049FB1548F8
:1051B0001DF046FB14481DF043FB214613481DF02B
:1051C00079FC20460CF098FA01200CF095FA4FF487
:1051D0008571022011F0A8F8C0B20FB0BDEC028BAF
:1051E000BDE8F04F16F078BB16EE903A5B4566D2FC
:1051F000CDF820801EE000BFE48E0024A48D0024A2
:10520000A48F0024A48E0024E48D0024248F002485
:1052100000100258BD1900247E240024C019002467
:1052200000C0CC4384010024000400405C02002440
:1052300083464546ACB23146504604F101091FFA97
:1052400089F94A460FFA89F80CF086FC0A2016F014
:1052500029FF3B880493FFF763FD39888142E7D338
:10526000049BC446DDF82080ABEB03031AB2002A8E
:1052700001DA5B421AB2431A9BB219B2002901DA71
:105280005B4219B2914244DDA1464A46314650463E
:105290000CF062FC0A2016F005FF019B93F800E079
:1052A000BEFA8EF2520945E7069B079A01339A42ED
:1052B00006933FF45EAF059BD8330593B7E604949D
:1052C00000E025461FFA85FB314650460BF1FF39B9
:1052D0001FFA89F94A460FFA89F40CF03DFC0A20BE
:1052E00016F0E0FEFFF71CFD3A888242E9D2234621
:1052F000049C21B2002901DA644221B2821A92B2DE
:1053000010B2002801DA524210B2884203DDD946B9
:10531000BBE76546B9E71D46B7E7094B019393F82C
:1053200000E031E700231C460D9316F03FF907908B
:105330000A200A9416F0B6FE02230C9354E600BF2E
:10534000C0190024014B1878704700BFC019002411
:10535000014B00221A707047C0190024044B1878C2
:10536000012801D00020704700221A70704700BF4A
:10537000BF19002402490122024B08701A707047BD
:1053800080010024BF190024074A012310B5074CEF
:1053900010782370FFF792FD002314202370BDE8DE
:1053A000104008F0DDBC00BF80010024C0190024BB
:1053B0002DE9F0432DED028B83B0002406F03AFF77
:1053C00040F2FF31814600200CF030FC40F2FF310A
:1053D00001200CF02BFC214620460CF003FC21465A
:1053E00001200CF0FFFB214620460CF007FC214673
:1053F00001200CF003FC214620460CF023FC214642
:1054000001200CF01FFC40F2FF3120460CF002FCA2
:1054100040F2FF3101200CF0FDFB04F00301C4F366
:105420008700013400220CF0A7FB082CF5D1484678
:10543000DFF858810CF056FB9FED4F8AFEF714FF02
:1054400001214E4F08464E4CFEF7EEFF002201218F
:105450004C4818F04FFB002202214A4818F04AFB42
:1054600000224FF40071474818F044FB00224FF42B
:105470008061444818F03EFB0123642088F8003026
:1054800016F010FE404B02221A7006F0D9FE0328D7
:105490005AD107F0ABFE06F0CDFE05460920FBF71A
:1054A0004FFA064601F002F8342828465CD1A94597
:1054B00001D00CF017FBB20005F00301C5F3870023
:1054C00092B20CF049FB0A2016F0ECFD07EE906A50
:1054D000B2EE035B2368B8EEE77B322023F00103D2
:1054E00087EE056BFCEEC67BCDED017A9DF80420BE
:1054F00037F812602360731EA362636943F00103EF
:105500006361236923F001032361236843F00103EE
:10551000236016F0C7FDFFF703FC4FF6FF739842B8
:105520001CD007EE900AA946B8EE670A07EE906A0B
:10553000F8EEE77A20EE270A88EE000A06F086FEEB
:1055400006F07EFE0328A4D00CF0D6FA002388F8DB
:10555000003003B0BDEC028BBDE8F083BFEE000A63
:10556000A94606F073FEEBE70CF0C6FA00F09EFFCA
:1055700008F0F6FBE8E700BFC0E1644D5C020024E0
:105580000004004000100258BD190024C71900246F
:105590002DE9F04F924B8FB000240125DFF8509297
:1055A00040F27F610A942246099448460D94DFF840
:1055B0004482DFF844B2DFF844A28A4FCDE90B44BD
:1055C000D3F8E06046F01006C3F8E060D3F8E0607E
:1055D00006F010060196019ED3F8E06046F0040E36
:1055E000814EC3F8E0E0D3F8E0E00EF0040ECDF811
:1055F00008E0DDF808E0D3F8E0E04EF0200EC3F854
:10560000E0E0D3F8E0E00EF0200ECDF80CE0DDF89D
:105610000CE0D3F8E0E04EF0800EC3F8E0E0D3F801
:10562000E0E00EF0800ECDF810E0DDF810E0D3F8E9
:10563000E0E04EEA050EC3F8E0E0D3F8E0E00EEA61
:10564000050ECDF814E0DDF814E0D3F8E0E04EF0FC
:10565000020EC3F8E0E0D3F8E0E00EF0020ECDF861
:1056600018E0DDF818E0D3F8E0E04EF0080EC3F8DB
:10567000E0E0D3F8E0E00EF0080ECDF81CE0DDF835
:105680001CE0D3F8E0E04EF0400EC3F8E0E0D3F8C1
:10569000E03003F040030893089B18F02BFA2246F1
:1056A00040464EF20F0118F025FA224658464FF2B6
:1056B000FF7118F01FFA48462A464FF4006118F0AF
:1056C00019FA224650464FF4845118F013FA224634
:1056D00038464FF4E86118F00DFA38462A464FF480
:1056E000006118F007FA224630464FF4EE7118F0C8
:1056F00001FA40462A464FF4007118F0FBF92246A1
:105700003A484FF4054118F0F5F940F67F624846F3
:1057100009A9CDE90925CDE90B4417F0F1FF4EF2B7
:105720000F23404609A909930C94CDE90A5417F0B8
:10573000E7FF4FF2FF73584609A909930C94CDE98E
:105740000A5417F0DDFF4FF48453504609A909931A
:105750000C94CDE90A5417F0D3FF4FF4746309A9F0
:10576000384609930C94CDE90A5417F0C9FF4FF459
:10577000EA7309A9304609930C94CDE90A5417F04D
:10578000BFFF0822022309A9304609920B930A950C
:105790000C9417F0B5FF222309A930460993CDE9EF
:1057A0000A4417F0ADFF4FF48053384609A9099316
:1057B000CDE90A4417F0A4FF304609A90B95CDE9BD
:1057C000095417F09DFF4FF4054309A907480C94AD
:1057D0000993CDE90A5417F093FF0FB0BDE8F08F9D
:1057E00000440258000C02580018025800000258E9
:1057F0000010025800080258001402580004025811
:105800000268054B9A4200D0704740F20143034AB8
:105810007821034818F060BB00540040542F002446
:105820005833002408B51F2016F0ACFC40F20142AA
:105830000449054821F000FA1F20BDE8084016F091
:1058400093BC00BFA8330024542F00242DE9F0415D
:1058500086B0A24D64264FF42E4306AC4FF4554754
:105860002846782124F80C3D02232246009618F0A1
:1058700079FAADF80C704FF400472246009628469E
:105880000223782118F06EFAADF80C704FF4284717
:105890002246009628460223782118F063FAADF8D4
:1058A0000C704FF47C57224600962846022378213C
:1058B00018F058FA2246ADF80C70284600960223DC
:1058C00078214FF4534718F04DFA4FF00008224664
:1058D0000096284602237821ADF80C7018F042FAA1
:1058E0004FF4804722460096284602237821ADF8DF
:1058F0000C8018F037FA22460096284602237821B9
:10590000ADF80C7018F02EFA4FF40D4C22460096AC
:10591000284602237821ADF80CC018F023FA4FF482
:10592000A05C22460096284602237821ADF80CC0E0
:1059300018F018FA4FF4005C22460096284602231D
:105940007821ADF80CC018F00DFA224600962846D2
:1059500002237821ADF80C8018F004FA4FF4204CA3
:1059600022460096284602237821ADF80CC018F094
:10597000F9F94FF45A4C2246009628460223782122
:10598000ADF80CC018F0EEF94FF4905C224600968A
:10599000284602237821ADF80CC018F0E3F94FF443
:1059A000014C22460096284602237821ADF80CC00F
:1059B00018F0D8F94FF44F4C22460096284602239F
:1059C0007821ADF80CC018F0CDF94FF4594C2246AF
:1059D0000096284602237821ADF80CC018F0C2F9D1
:1059E0004FF4714C22460096284602237821ADF8E8
:1059F0000CC018F0B7F94FF45B4C224600962846CD
:105A000002237821ADF80CC018F0ACF922460096BC
:105A1000284602237821ADF80C7018F0A3F922462D
:105A20000096284602237821ADF80C8018F09AF9E8
:105A30004FF4805C22460096284602237821ADF878
:105A40000CC018F08FF94FF4304C224600962846CF
:105A500002237821ADF80CC018F084F9ADF80C7071
:105A60004FF424472246009628460223782118F056
:105A700079F9ADF80C704FF4264722460096284677
:105A80000223782118F06EF92246ADF80C702846F2
:105A90000096022378214FF42F4718F063F922462D
:105AA0000096284602237821ADF80C7018F05AF9B8
:105AB0000B4A40240B4B0C4910684FF480621C7059
:105AC00021F0BAF8FFF7AEFE40F20143074A782111
:105AD000284618F001FA06B0BDE8F08158330024DA
