:020000040000FA
:1000000006EF00F006EF00F004EF02F0006A010EC8
:10001000F66E000EF76E300EF86E0900F550070B05
:10002000060AD8B4009E070EF66E000EF76E200E7C
:10003000F86E0A00F5507F0B016E0A00F5B0008CD7
:100040000A00F550256E010FD8B4256AF19E806A2A
:10005000816A400E826E836A846AEF0E926E9368A4
:10006000800E946E020E956E070E966E8C948B9099
:100070008C968B928C908B94800E036E8C868B82E8
:100080008C968B92032EFAD78C848B808C948B90D9
:10009000240EAC6E00AC52EF00F0410E00BE200EFC
:1000A00055EF00F04F0E00BE270EAF6E900EAB6EF8
:1000B000AB98AE50AB889E9A2890255004E02880DB
:1000C0006AD9FE0E49D909D9010E026E0FD9300E38
:1000D000206E216A226A066A0400065018E10400B4
:1000E0009EBA15D0222EFBD7212EF9D7202EF7D776
:1000F000040EF66E040EF76E0900110EF562FF0095
:100100000900470EF562FF00040000EF02F00ED96F
:10011000F80E0760E4D70650F7D80718DCE1062A86
:10012000060E0662D9D7C2D8236E8F0B020AD3E11E
:100130002338070B236E026AB9D8096E0226B6D897
:100140000A6E0226BED808C0F8FF09C0F7FF0AC031
:10015000F6FFACD8096E0226A9D80A6E0226B1D8DD
:1001600009C010F00AC011F001EE00F0080E0C6E8C
:100170009DD802260D6ED8900D36070E0B6E0D36EB
:100180000E360C4E03D00B2EFAD7F2D7010EE962D1
:1001900004D0050EEA6201D09AD70EC0EEFF080E19
:1001A0000C6E0A06D8A00906D8A008060A50091045
:1001B0000810E9E17BD8025000087F0B026E025064
:1001C000071807E08AD80E0EC0D8030EBED88ED806
:1001D000FF000400F7AE23D0840EF76062D02350F6
:1001E00060E1F8505EE11050FE0B5BE101EE00F0C3
:1001F000F7CFAAFFF6CFA9FF0400EE50A86EA69E87
:10020000A684550EA76EAA0EA76EA682A6B206EF0A
:1002100001F0A92AD8B4AA2A112EEED73DD023B0D6
:10022000F78E2330030BF86E03E1F750FC0B39E037
:10023000F838F00BF36EF7380F0BF312180EF3606B
:1002400030D001EE00F010C012F011C003F0033600
:10025000123603361236A68EA69CA684A688550EA4
:10026000A76EAA0EA76EA6820A00080E136E080ECD
:10027000146EEECFF5FF0F00142EFBD7A68EA69CB2
:10028000A684550EA76EAA0EA76EA682132EEFD7D0
:10029000A6940900122EDFD720D80F0E56D826D8E4
:1002A00003D0050E27D800D067EF00F004003ED839
:1002B000F80E0760FBD7075007BE01D012000600FA
:1002C00006D7D8900A36086AD8900A360936083612
:1002D000D8900A36093608361200036A035014D83B
:1002E00034D8032A060E0362F9D7120002502DD823
:1002F000F70E2BD0F36EF1DF0E0E27D8F35025D872
:10030000F5DFACA2FED71200070B8FEC01F0F00C6A
:10031000000C000C7E0C400C01501200000CE84454
:10032000FD26D8B0FE2AD8B0FF2A1200ABB207D003
:100330009EAAFED7ABB406D0AE50076E12000B0ECD
:10034000D9DFFF000C0ED6DFFF00246E05D8245045
:10035000ACA2FED7AD6E1200266E28A01200276A4E
:100360000DD828B005D017D8272EFAD7289005D059
:10037000265025D828A0F7D70ED8120003D825502C
:10038000FE0B1DD02880898892988C8A0BD889987A
:100390000CD88C9A12008C9A899807D88C8A02D82B
:1003A0008988120000000000120000001200000006
:1003B00000000000000000000000000012002A6E93
:1003C000080E296E2ABE89882AAE8998000000008E
:1003D0008C8AE8DF8C9AE9DF2A36292EF3D78988C0
:1003E0009288000000008C8ADDDF80B828908C9A0B
:0403F0009298DDD72B
:0604000000EF00F0EEEE3B
:0404080004EF02F00B
:020000040020DA
:080000000000000000000000F8
:020000040030CA
:0E000000FF36EFF3FFF9BBFFFFFFFFFFFFFF2F
:00000001FF
