:020000040000FA
:1030000087EF19F089EF19F08AEF19F08BEF19F0BB
:103010008CEF19F0C7EF19F0D0EF19F0D1EF19F0DC
:10302000CEEF19F0CFEF19F0D2EF19F0CBEF19F086
:10303000CAEF19F0C8EF19F0C9EF19F080EF19F0D5
:1030400081EF19F082EF19F083EF19F0CDEF19F04D
:10305000CCEF19F084EF19F085EF19F086EF19F035
:103060001200000012000000120000001200000018
:103070001200000012000000120000001200000008
:10308000FFFFFFFFFFFFFFFFFFFFFFFFFFFFFFFF50
:10309000FFFFFFFFFFFFFFFFFFFFFFFFFFFFFFFF40
:103300001200120012001200120012001200D3EF7D
:1033100019F012001200120082EC16F07E0EF66E0A
:10332000330EF76E9EEC16F0400E88EC16F0F29E0F
:10333000000EF66E000EF76E200EF86E10EE10F016
:10334000B4EC16F0F86AF28E00EE10F0EE5098EC45
:1033500016F0EE5098EC16F0EE5098EC16F0EE5099
:1033600098EC16F0EE5098EC16F0EE5098EC16F043
:10337000EE5098EC16F0EE5098EC16F01200000E9D
:103380004E6577204944204865616465723A1200B1
:10339000120012001200120012001200120012009D
:1033A0001200120012000400000EF66E000EF76EFE
:1033B000200EF86E10EE10F0C00EF616066A090028
:1033C000F5CFE6FF062A06ACFAD71050000A15E141
:1033D0001150000A12E11250000A0FE11350000AC6
:1033E0000CE11450000A09E11550000A06E11650DC
:1033F000700A03E11750000A36E0000E106E000E4E
:10340000116E000E126E000E136E000E146E000E82
:10341000156E700E166E000E176E10EE10F0000E88
:10342000F66E000EF76E200EF86EA68EA69CA68491
:10343000A688550EA76EAA0EA76EA68200000A00E7
:10344000066A0650E3CFF5FF0F00062A0650070B69
:10345000F8E1A68EA69CA684550EA76EAA0EA76EAE
:0A346000A682A694FF00F86A12008D
:00000001FF
