:020000040000FA
:0604000046EF15F0114764
:08040800D9CFC4F5DACFC5F528
:100410009EBAA1D09EB040D0A1B27FD09DA802D0FC
:100420009EB88ED0F2AA02D0F2B42BD0C4C5D9FFA8
:10043000C5C5DAFF1100E1CFBBF5E2CFBCF5F6CFC1
:10044000BDF5F7CFBEF5F8CFBFF5F5CFC0F503C0CA
:10045000C1F504C0C2F505C0C3F51200BBC5E1FF7C
:10046000BCC5E2FFBDC5F6FFBEC5F7FFBFC5F8FFBF
:10047000C0C5F5FFC1C503F0C2C504F0C3C505F092
:100480001200080ED66EF29402B405D05FEC0BF0A9
:10049000B4BD6FEC0CF0BCD79E90CD90D80ECF269B
:1004A000EF0ECE26CD800501B951D8A4B907B82BDF
:1004B00002B432D0B851070B05E1BA0503E0BA51D6
:1004C000D8A4BA070501AB0723E1AC51D8B4AC29D5
:1004D000AB6FAA511DE0AF51D8A4AF07ACDF02A6A5
:1004E0000CEC18F0AFEC08F0E2EC0DF002A60EEC0C
:1004F00018F00501AF510BE025EEF0F015EEE0F03D
:10050000100E0B6EDF50E61ADE6A0B2EFBD7A6DF4D
:10051000AF51D8B4DEEC09F07BD7A1920501B190C0
:10052000C851B226C951B322B180B1A008D002B4DB
:1005300006D002B604D07FDF04EC18F08FDF68D756
:10054000050199519A1902E19D9862D774DFD9D9B2
:10055000AD6E84DF5DD7ABB4028CAECF94F56BDFAC
:10056000050194BF0ED09C51F00A08E09D5105E1B1
:100570009C5181D99C5115D89D6F9D0794517BD971
:100580000DD0F70E946503D0945175D907D09451CE
:100590009C6F9C5106D89D6F9C516DD99E9A5EDFD1
:1005A00037D70C6E0CAC020C0CBA01D0010C0CA8A5
:1005B000020C0CB6000C0CB4000C0CB201D0010CF7
:1005C0000CB001D0020C010CE838300BB16E050103
:1005D000041CC96FB36E031CC86FB26EB1801200E9
:1005E000E838300BB16E0501041CC96F031CC86FDD
:1005F000B1801200B1801200B19012000501B96FF4
:10060000FF0BD8B412000400B951FDE1120005013E
:10061000B851036E1200D890E834FD26D8B0FE2AF7
:10062000D8B0FF2A1200D890E836D890E834FD26DA
:10063000D8B0FE2AD8B0FF2A12000900F5CFCAF5BB
:100640000900CAC5F6FFF5CFF7FF1200F29E0500BC
:100650000900F550FD6E0900F550FE6EF28E120095
:10066000E8B408D0E8B203D0E8A0FE0CFD0CE8A086
:10067000FB0CF70CE8B203D0E8A0EF0CDF0CE8A00D
:10068000BF0C7F0CE8B408D0E8B203D0E8A0010C9E
:10069000020CE8A0040C080CE8B203D0E8A0100C8F
:1006A000200CE8A0400C800C056EE190E7CF90F59F
:1006B000E180E7CF91F5E190E726E180000E05BEED
:1006C000FF0EE72205BE0DD0E190E750035CE1800C
:1006D000E75004580BE704C0E7FFE19003C0E7FFD1
:1006E00005D0E7AE03D0E76AE190E76A036A050147
:1006F000E190E7509019D8A40380E180E750911968
:10070000D8A40380E19003501200050103C004F057
:10071000036ED890100E056E926B916B906B033642
:100720000436903791379237054E19D0030E922533
:10073000E8B6926F300E9225E8BE926F030E9125B7
:10074000E8B6916F300E9125E8BE916F030E9025AB
:10075000E8B6906F300E9025E8BE906FE0D792C556
:1007600005F091C504F09051036E1200240EAC6E9A
:100770000DD8900EAB6E0501000E976F966F400E70
:100780009A6F996FA369A469A569120000AC04D09F
:10079000410E00BE200E03D04F0E00BE270EAF1834
:1007A00002E0AF18AF6E12000501906FFE0B02E081
:1007B000CB6F05D0CB6B009C90B1008CE7DF1200B3
:1007C000F29E060EF66E000EF76E200EF86E0A0010
:1007D000F550010BE9DF0A00F55004E0010F02E0DB
:1007E000F550E2DFF86AF28E12000501CB5101E00C
:1007F00003D0000E00BC0109036EFF0B12007F0B3B
:1008000005019B6F1200F29E070EF66E000EF76E4A
:10081000200EF86E0800F550F2DFF86AF28E120032
:1008200005019B51036E12000098009AE8B0008801
:10083000E8B2008A1200000E00B8010900BA0209ED
:10084000036EFF0B1200F90E00AA120000A812009E
:1008500040D0FE0E00AA120000A812003AD00501F6
:100860009651976103D0400897251200975D1200BA
:10087000F6DF3F0812000501956F02A626EC18F07E
:1008800005019729400AD8B4400E400A966301D06A
:100890001200976F15EE00F0E16E9551E76E1200B1
:1008A0000501962B400E966302D0000E966F15EE52
:1008B00000F096C5E1FFE7501200050199519A61D9
:1008C00003D030089A2512009A5D1200F6DF2F0837
:1008D00012000501986F0501CB532FE19A29700A88
:1008E000D8B4300E700A996302D09851F2D7F29EB4
:1008F0009A6F15EE40F0E16E9851E76E9D88F28E8A
:1009000012000501992B700E996302D0400E996F69
:1009100015EE40F099C5E1FFE75002A628EC18F06B
:1009200015EE40F099C5E1FFE75012000400C5DF65
:10093000FEE1ACA299EF04F01200CC6FFF0A02E1D5
:10094000A2EC04F0CD6B10D802B006D028EC14F065
:10095000CD2FF9D7029007D0CC5147EC14F002A06C
:10096000F5D728EC14F012001FEC14F0CB51FE0B5D
:1009700047EF14F00501A68D12000501A68F1200A5
:100980000501010EA6BF000E036EFF0B120005014C
:100990009E6B9F6BF60EA06F0400ABB273D002BCCF
:1009A00076D005019E2BD8B49F2BD8B4A02B9E5196
:1009B0009F11A01170E053DF09E10501A1519D11C4
:1009C000EBE1A6BBE9D7A6B7E7D7120069DF0501BF
:1009D000A26FF80EA2611AD0A6BB07D0A6B705D0A9
:1009E000A1B3ACD0A1B19BD08FD00501A6BB61D083
:1009F000A65136D8A26309D0A62BA651070B060A2A
:100A000005E1A68BF80EA61721D037D8A251036EA8
:100A100002A616EC18F00501A6BF18D0050100AA21
:100A200022EF05F000B824EF05F0F90EA26302D022
:100A300002820CD0FE0EA26302D0029207D002A264
:100A400005D002D000A802D0A251F7DAA6AD02D09C
:100A5000A69DA69FA6B7AFD7F80EA261ACD797D731
:100A6000070B0BEC03F0F00C000C000C7E0C400CA0
:100A70009B517F0B120001D88AD70501C80EA6171B
:100A8000A76B1200AB98AB880B0EDCDA0BD0029C84
:100A90000C0ED8DA07D0A6AB02D0060ED3DAA6B772
:100AA000EDEF14F002A618EC18F005019D6BA16B98
:100AB000E2D7A6B90BD0A689A2BF0AD0A2510F0BCC
:100AC000A76FA239070BA96FA86B0AD0A2AF04D0F9
:100AD000F70EA263D0D704D0A251A827100EA727E3
:100AE000A7050F0BD8B455D0FF0FD8B4FBD0FF0F1C
:100AF000D8B446D2FB0FD8B456D2FB0FD8B493D19A
:100B0000FE0FD8B493D2B7D7A2AF6FD7A251F00BD4
:100B1000F00AD8B46AD7A2C5A3F5A12B66D7A2C59F
:100B2000A4F5A2C5A5F50501A351F00BC00A08E084
:100B3000A351F00BD00A04E0A12B57D7A2C5A5F50D
:100B400004009EDA0501A16B50D7D8900636086ADA
:100B5000D890063607360836D89006360736083657
:100B60001200A2C507F013D7A2C506F0EEDF08C039
:100B7000F8FF07C0F7FF06C0F6FF09D7A2C507F0C8
:100B800006D7A2C506F0E1DF06C009F007C00AF0EB
:100B9000FED6A2BF12D0A751F00B01E1F8D6A739BB
:100BA000070B0BEC03F0DDD7DCD7DED7E7D7E9D7AF
:100BB00001D000D0F00EA727EAD6410EA7638BD054
:100BC000B6DAD8A458D7065007100810D8B483D086
:100BD0000EEC15F00501A68704003BDAA9390209DD
:100BE0002CDAA86BF730E830F8B0400924DAF73097
:100BF000F630E830E8301FDA06C009F007C00AF026
:100C0000085003E10750FC0B03E0096A040E0A6E6A
:100C10000A30E830010B0FDA0A300930E830E830EA
:100C20000ADAF85018E0A95100EC14F0F6CF03F0FE
:100C3000F7CF04F001EE00F0C3EC13F002A04ED0A9
:100C4000EE6EF62AD8B4F72A0906D8A00A0609508B
:100C50000A10F2E131D0F7AE13D0F7CFAAFFF6CFEA
:100C6000A9FF01EE00F020EC13F0EE6EA950D8B40D
:100C7000AA2A0906D8A00A0609500A10F4E11CD0D5
:100C800011EE00F0F79EA9B1F78EA931030BF86EB3
:100C9000E1EC14F0F734F834A96FF86AF79E400ECF
:100CA000E126000EE222C00E0926D8A00A0609504D
:100CB0000A1002E00AAEE6D70FDADCD906500710B8
:100CC000081008E0030E0A6EFA0EFEEC02F00A2E7F
:100CD000FBD782D7D0D6010EB5D9CDD6CFD90A0E43
:100CE000B1D9C9D6A2BF4AD0A751F00B05E101EE98
:100CF00000F0080E906F4BD6A739070B0BEC03F0F2
:100D000030D72FD731D73AD73CD701D02AD0A251EC
:100D1000916FD8909137070E936F91379237904F1C
:100D200005D0932FFAD7F00EA72731D6010EE9622E
:100D300006D0050EEA6203D0020E84D99CD60EECD2
:100D400015F00501A68792C5EEFF080E906F060606
:100D5000D8A00706D8A00806065007100810E1E141
:100D600016D6F00EA727A251A85D00087F0BA86F2A
:100D7000A26301D00CD6030E65D97DD6520EA763AF
:100D8000AAD7D5D9D8A477D6F8501BE0A95100EC42
:100D900014F0F6CF03F0F7CF04F011EE00F070EC92
:100DA00013F002A09BD7400EE126000EE222C00EF7
:100DB0000926D8A00A0609500A1030E00AAEEFD77B
:100DC0002DD0F7AE14D0F7CFAAFFF6CFA9FF01EED2
:100DD00000F0EE50F2EC12F023E1A950D8B4AA2AA8
:100DE0000906D8A00A0609500A10F3E117D011EE3F
:100DF00000F0A9B1F78EA931030BF86E76EC14F070
:100E00000FE1400EE126000EE222C00E0926D8A016
:100E10000A0609500A1002E00AAEEBD70FD92BD60A
:100E2000040E10D928D6A2BF4FD0A751F00B01E174
:100E3000AED5A7390F0B0BEC03F00ED00DD01BD0A5
:100E40001DD01FD02ED02FD030D031D032D033D0C3
:100E500034D035D036D035D0A2C50AF098D5E96E59
:100E6000EA6AA239F00BEF6E92D5E96EEA6AA251F6
:100E70000F0BEF128CD5A2C506F089D5A2C507F0DD
:100E800086D5A2C508F0D8900632D8B0078ED89083
:100E900006320732D8B0088E07C0F7FF08C0F6FF49
:100EA00076D5060EDCD7060EE0D7070ED8D7070E8C
:100EB000DCD7080ED4D7080ED8D7090ED0D7090E24
:100EC000D4D7F00EA72763D5CD0EA76348D0010E67
:100ED0000A621ED007C003F008C004F009C005F084
:100EE00047D80501076E03C008F004C009F005C02B
:100EF0000AF0AFD80F0EA1D835D808C007F032D805
:100F000009C007F02FD80AC007F02CD8B7D8B3D53E
:100F1000020E0A6219D0F6CFE9FFF7CFEAFF07C049
:100F200008F006C007F095D80F0E87D8EF380F0BE2
:100F300084D8EE500F0B81D80806D8A007060850B9
:100F40000710F4E19BD897D5030E0A6208D0F6CFBC
:100F5000E9FFF7CFEAFF06C0EFFF70D88CD5070E88
:100F600071D889D507380F0B68D807500F0B65D09B
:100F700001D8B7D7F650FD6EF750FE6E065012003E
:100F8000A2BF09D0A751F00B01E101D50EEC15F07D
:100F90000501A687FCD4036A046AC3EC13F002A01F
:100FA0009DD64CD868D5A2BF3DD0A751F00B01E12A
:100FB000EED4A739030B02E0FF0F0BE1096AA2513F
:100FC0000A6E0A5005E1CBEC0FF0FF0E95EC10F025
:100FD000DED4F00EA7270A50030B0BEC03F003D06E
:100FE00003D011D011D013D0095003E1A2C506F0EF
:100FF00015D009040CE1A251400D06503F0BF3102F
:10100000E4EC0FF00BD003D098EC10F007D0050102
:10101000A25182EC0FF0FF0E95EC10F0092AD8B423
:101020000906B5D4F70E00B808D825D5A2BF01D05F
:10103000AED404D820D57F0BA8274BD40AD80F0EE6
:10104000FCDF18D0066E05D80E0EF7DF0650F5DF70
:1010500011D00501A6AB05D000A803D0050E9E6FE8
:1010600001D09E6B9E51FCDCE8DF9E2B060E9E633A
:10107000F9D712000501A8517F0BDFDFF70EDDD78E
:10108000A3C503F0A4C504F0A5C505F002A61AEC9B
:1010900018F0800EF66E300EF76E000EF86E050139
:1010A0009E6B0900F5CF9FF509009F2909E09F512C
:1010B000A36304D0F550A46301D003D09E3FF1D7C1
:1010C0001200A3C503F0A4C504F0A5C505F09E5108
:1010D00002A61CEC18F0120001EE00F0070E05014C
:1010E000936F916B080E906FEECF92F59237913718
:1010F000932F06D091519FDF070E0501936F916BDF
:10110000902FF4D70606D8A00706D8A008060750E7
:10111000030B0610E7E19351070A06E0D8909137D8
:10112000932FFCD7915187DFA81FA82B1200F850EE
:10113000FE0B0CE1F8A001D00FD0F7AE04D0840E66
:10114000F76004D009D0F6503F0B06E0080E01D03E
:10115000090E78DFEE0E01D0000EFF0B1200E9CF72
:101160000BF0EACF0CF00501AD5107E18C94946BC4
:101170000000000000008C840BD0946F8C88942FAA
:10118000FED78C94946B0000000000008C848C9837
:1011900005EEF0F015EEE0F025EED0F0AA05D92628
:1011A000AA51946F83B20F8E8C80DFA08C9083A2A3
:1011B0000F9E8C86000083B20F8C8C968C80DFA2F1
:1011C0008C9083A20F9C8C86000083B20F8A8C9631
:1011D0008C80DFA48C9083A20F9A8C86000083B24F
:1011E0000F888C968C80DFA68C9083A20F988C86BB
:1011F000000083B20F868C968C80DFA88C9083A22F
:101200000F968C86000083B20F848C968C80DFAAA8
:101210008C9083A20F948C86000083B20F828C96F0
:101220008C80DFAC8C9083A20F928C86000083B2FE
:101230000F808C968C80DFAE8C9083A20F908C8672
:1012400000000F50E718EE128C960F50E66EDD503E
:10125000942FA8D78C940BC0E9FF0CC0EAFF8C84B4
:101260008C8012000501AA6FF00BD8B41200100E8A
:10127000AA6F12000501AA51036E12000501AC6F9E
:10128000AC51D8B4AC2B12000501AC51036E120066
:101290000501AD6F12000501AD51036E120005018D
:1012A000AE6F12000501AE51036E1200036EE836F8
:1012B000E8380F0BE1260350070B42EC03F0E7146C
:1012C000000ED8A4010E010B036E1200036EE83667
:1012D000E8380F0BE12603B40ED003B206D0000E9F
:1012E000E7B00109E7B2020913D0000EE7B4010923
:1012F000E7B602090DD003B206D0000EE7B8010927
:10130000E7BA020905D0000EE7BC0109E7BE0209F1
:10131000030B036E1200036EE836E8380F0BE1266C
:101320000350070B30EC03F0E7161200036EE836AB
:10133000E8380F0BE1260350070B42EC03F0E712ED
:101340001200036EE836E8380F0BE12603B406D02E
:1013500003B202D0FC0E07D0F30E05D003B202D0C8
:10136000CF0E01D03F0EE71612000F0B15EEE0F086
:10137000E126E750036E12007F0B15EEE0F096D7E2
:101380007F0B14EE00F0E126E78E028812007F0B3F
:1013900014EE00F0E126E79E12000F0B15EEE0F0D0
:1013A000E126000EE7BE010E036E12007F0B15EE64
:1013B000E0F08CD77E0B15EEF0F0C3D702A8120038
:1013C0000501B02F1200200EB06FE9CF0BF0EACF6D
:1013D0000CF0E1CFBBF5E2CFBCF504EE00F014EE6B
:1013E00080F025EEE0F0EEAE0DD0DFB009D0E72EB4
:1013F00009D0E72A100ED926DF80F00ED92602D0B8
:10140000100EE76EE650EEAE0DD0DFB209D0E72E3B
:1014100009D0E72A100ED926DF82F00ED92602D095
:10142000100EE76EE650EEAE0DD0DFB409D0E72E19
:1014300009D0E72A100ED926DF84F00ED92602D073
:10144000100EE76EE650EEAE0DD0DFB609D0E72EF7
:1014500009D0E72A100ED926DF86F00ED92602D051
:10146000100EE76EE650EEAE0DD0DFB809D0E72ED5
:1014700009D0E72A100ED926DF88F00ED92602D02F
:10148000100EE76EE650EEAE0DD0DFBA09D0E72EB3
:1014900009D0E72A100ED926DF8AF00ED92602D00D
:1014A000100EE76EE650EEAE0DD0DFBC09D0E72E91
:1014B00009D0E72A100ED926DF8CF00ED92602D0EB
:1014C000100EE76EE650EEAE0DD0DFBE09D0E72E6F
:1014D00009D0E72A100ED926DF8EF00ED92602D0C9
:1014E000100EE76EE650DE50E9AE7DD7BBC5E1FFDA
:1014F000BCC5E2FF0BC0E9FF0CC0EAFF120005010A
:10150000936B05EEF0F09351E926EF5010E0EFB049
:1015100012D8EFB213D8EFB414D8EFB615D8EFB88D
:1015200016D8EFBA17D8EFBC18D8EFBE19D8932B3E
:1015300093A9E7D71200EF90000E14D0EF92020E9D
:1015400011D0EF94040E0ED0EF96060E0BD0EF984C
:10155000080E08D0EF9A0A0E05D0EF9C0C0E02D0B0
:10156000EF9E0E0EEA6EE938F00BEA10D890E830E4
:10157000056E02DF046E0550036E02A610EC18F033
:10158000AEC5AFF505EEF0F005019351E926120066
:101590000F0B15EED0F0E12603C0E7FF12000F0B92
:1015A00015EED0F0E126E750036E12007F0B15EE2A
:1015B000D0F07CD67F0B15EED0F0ADD67F0B15EEBC
:1015C000D0F0B4D603B0FAD7F5D70501B48F120026
:1015D0000501B49F12003F0B13EE80F0E126E7CF28
:1015E00003F0E18CE7CF04F004320332043203321B
:1015F00003307F0B036E12003F0B13EEC0F0E126A9
:10160000E750030B036E12003F0B13EE80F0E12650
:10161000E750036E12003F0B13EEC0F0E126E750D7
:10162000030B046EE19CE750036E12000501B56BDD
:10163000B36FC00BD8B402D0400EB36FB4AD04D0BA
:10164000080EB36501D0B36FF28AD58E1200050182
:10165000B351036E12000501B16F12000501B151C3
:10166000036E12000501B481E8B0B49112000501C7
:10167000000EB4A1010EFF0B12000501B7C504F066
:10168000B651036E12000501936BB351D8B412002A
:1016900003EEC0F09351EBAE0DD0EB9EEBCF05F017
:1016A000E99CEBCF04F0036E02A614EC18F003EEF5
:1016B000C0F00501932B9351B363EDD712000501E0
:1016C000B4B703D0B487C28283D0B49723EE80F03E
:1016D000B551B4A303D0B651B4B5B751D926DF5034
:1016E000C35C0B6ED98CDF507F0BC4580C6E0CBEE4
:1016F0000B1E0CBE0C1E0B500C52D8A4FF0EB26F6A
:10170000B151B26516D0D99CC3CFDFFFD98CC4CFFD
:10171000DFFFDF8ED99CC45004E1050EC36001D009
:10172000DF6AD9503F0BB66301D003D0B6C5B7F519
:10173000B66FB4BDFCD00501B4A302D0B4930AD0F7
:10174000B4AF08D0B4B106D0B551030B03E1B483F4
:10175000B47506D0B52BB3513CE0B519D8B4B56B10
:10176000B4BF04D0B5390B6E0B302DD0B551B4A336
:1017700003D0B651B4B5B751E8B412D0E8B208D02E
:101780008B808B86E8B002D08B921DD08B821BD0D1
:101790008B808B96E8B002D08B8215D08B9213D0C1
:1017A000E8B209D08B90E8B003D08B828B960BD037
:1017B0008B928B8608D08B90E8B003D08B928B965F
:1017C00002D08B828B86E8301C0B0109C26EC2826C
:1017D0001200F29AD59E12000501B4AD1200F29EDD
:1017E00013EEA8F0070BE126E75010E1280EE126E2
:1017F00003C0E7FFE18604C0E7FFE00EE126E75003
:101800001F0EE76EF80EE126FF0EE76EF28E120055
:101810000501080EB36501D0B36F0501B48D030156
:101820009A6B030E3ED8010E46D8010E4ED8010E1B
:101830002ED812000501B49D12000501B4AD1200AE
:1018400042EC03F003019A1312000501B4AD12003B
:101850000501906F13EEA8F0070BE126FF0EE76E6F
:10186000905130EC03F003019A17120042EC03F0A0
:1018700003019A15000ED8A4010EFF0B12000501FA
:10188000B4AD120013EEA8F0070BE36A12000501D5
:10189000B4AD12000301996F120003019951036E58
:1018A00012000501B4AD120003019D6F1200030187
:1018B0009D51036E12000501B4AD120003019C6F2F
:1018C000120003019C51036E12000501B4AD120019
:1018D00003019B6F120003019B51036E1200030171
:1018E00093C30CF092C30BF0100E906F0CBE8B8460
:1018F0000CAE8B940B368B820C368B92902FF6D7D6
:101900008B808B90912B91A711D0916B906B23EED4
:10191000A8F09051DB52D8A4DB0623EEB0F0905132
:10192000DB52D8A4DB06902B90A7F1D71200E1CFB1
:10193000BBF5E2CFBCF50301B5C590F39051F80BB0
:10194000D8A4FFD723EE80F09051D926C3CF94F3CB
:10195000C4CF95F3400EDBCF9FF3DB9E500EDBCF61
:1019600096F3580EDBCF97F3300EDBCF98F3380E9B
:10197000DB50010822E3C0D8985106E0380EDB5056
:1019800003E0380EDB6A88D0985107E0500E94C30C
:10199000DBFF580E95C3DBFF7FD09FAF7DD0500E8D
:1019A00094C3DBFF580E95C3DBFFFF0E0B6E280EB2
:1019B0000BC0DBFF400EDB8E6FD0B2C50EF0010E08
:1019C0000E6006D0985109E1380EDB6ADB2A64D03C
:1019D000FF0E0B6E300E0BC0DBFF905142EC03F09C
:1019E0009A1506E0380EDB6ADB2A300EDB6A54D02B
:1019F000B2C50EF00A0E0E6402D07ED84DD09751BB
:101A000007E1955105E196519411F80B01E121D0C0
:101A10009651945D0B6E975195590C6E0D900CAECE
:101A200006D00B1E0C1E0B2AD8B40C2A0D800B50AE
:101A30000C52D8A4FF0E0B6E380EDBCF0EF099516E
:101A40000EB4040E0EB6080E0EB8200E0B6401D0B4
:101A500004D052D8380EDB061FD0600E0B6013D0B6
:101A6000200EDB2ADBCF0EF09D510DE00E6404D07A
:101A70000E6A200E0EC0DBFF9C510DB09B510E6410
:101A800002D03AD809D00DB004D0600EDB9032D825
:101A900003D0600EDB802CD8BBC5E1FFBCC5E2FFE4
:101AA0004AD613EE92F090B513EE93F090B310D0A7
:101AB00090B107D0E79CE79EE8B0E78CE8B2E78EEC
:101AC0001200E798E79AE8B0E788E8B2E78A1200E0
:101AD00090B107D0E794E796E8B0E784E8B2E786EC
:101AE0001200E790E792E8B0E780E8B2E7821200E0
:101AF000010ED7D7020ED5D7000ED3D7800EF66EC3
:101B0000320EF76E000EF86E036A0900F52804E045
:101B10000900032A03ACF9D70350120004D8E75098
:101B20007F0B036E120038D8E12A1200FCDF03504D
:101B3000E76E1200F8DFE750046E0350E726E75027
:101B400003BE03D0E7BE7F0E02D0E7BE000EE76EF5
:101B5000036E046202D0046A02D0046A0480035057
:101B600012001AD8010EE7BA020EE7B8000E036E93
:101B7000FF0BE4CF04F012000FD803B208D003B07B
:101B800003D0E788E79A05D0E798E79A1200E7982C
:101B9000E78A04C0E4FF1200D890E8347E0BE16EBF
:101BA000800EF66E320EF76E000EF86EE150F626DD
:101BB000000EF722000EF822090014EE00F0F55096
:101BC000E126120025EEF0F0800EF66E320EF76E72
:101BD000000EF86E0B6ADE500B12D9500F0BFBE1B2
:101BE0000B5012E10501946B0900F5283AE024EE50
:101BF00000F0F550D96ED98EDF50D8A4DF06090069
:101C0000942B94ADF1D72DD0800EF66E320EF76E78
:101C1000000EF86E0501946B0800F52822E024EE12
:101C200000F0F550D96EDFCF0EF0D98EDF50D8A47A
:101C3000DF06DF500F6EF550D6EC09F00C6E0E503B
:101C4000030B0C180FE124EE00F0F5CFD9FF0EC006
:101C5000DFFFD98E0FC0DFFF09000900942B94AD80
:101C6000DBD712000E940EB00E840E960EB20E86C6
:101C7000FC0E0E160C500E12F550DAEC09F024EEA4
:101C800080F0F528D926090008000EB61AD00EB447
:101C90000CD00EB205D00EA02DD0F5B84CD02AD065
:101CA0000EB028D0F5B029D025D00EB205D00EB098
:101CB00021D0F5B622D01ED00EA01CD0F5BA3BD054
:101CC00019D00EB40CD00EB205D00EB013D0F5BEA4
:101CD00032D010D00EA00ED0F5B20FD00BD00EB275
:101CE00005D00EA007D0F5B408D004D00EB002D0B5
:101CF000F5BC21D00A000800A6D7E00E0F6402D080
:101D00000EBCF8D70E9C0EBA04D00EB805D0DF2A50
:101D10003AD03BD8DF2637D0D99EDF34E8380F0BD6
:101D20000D6E0D2ADF50070B0D6404D00D6AD98E9D
:101D3000DF2AD99E1ED00D6EE00E0F6402D00EACCD
:101D4000D9D70E8C0EBA04D00EB805D0DF061BD042
:101D50001CD8DF5E18D0D99EDF34E8380F0B0D6E2B
:101D60000D060DAE06D0DF50070B0D6ED98EDF06C7
:101D7000D99E0D3A0D30780B0D6E070EDF160D5003
:101D8000DF12D98E00D00F68B5D70F50C00B0D6E83
:101D9000C00AD8B40D68D99EDF50D98E070B0BEC62
:101DA00003F007D008D009D00AD00BD00CD00DD04A
:101DB0000ED0D8900D32D8900D32D8900D32D890E8
:101DC0000D32D8900D32D8900D32D8900D32D89077
:101DD0000D30D8B4010E12000501936B800EF66E23
:101DE000320EF76E000EF86E0900F52826E004EEBC
:101DF00080F0F5507E0B010FE926F29EEF5017E0C0
:101E0000EF6AF28E046E9351036E02A612EC18F084
:101E10000501800EF66E320EF76E000EF86ED89049
:101E20009335010FF626000EF722000EF822F28EEF
:101E30000900932B93BD01D0D7D7120000900092D8
:101E400000940096070B001203C078F504C079F5E2
:101E50000501846B1200F29E060EF66E000EF76E00
:101E6000200EF86E0800036A046AF5BC0ED0F5BABD
:101E700008D0F5B805D0B70E036EA40E046E0FD0CF
:101E80000ED0F5B801D00BD00AD0F5BA04D0F5B811
:101E900001D005D004D0F5B801D001D000D0F5387C
:101EA000CDDFF86AF28E12000050070B120003C05B
:101EB00089F504C08AF505C08BF5E8CF8CF51200D2
:101EC00089C503F08AC504F08BC505F08CC5E8FF11
:101ED000FF0B120005017A6B8D6B00B408D000B2C5
:101EE00003D000A030D14AD200A01200120000B2EC
:101EF00003D000A01200120000A0ABEF12F0008689
:101F00001EEF18F001D81BD1050184BF1200050196
:101F100000B408D000B203D000A057D1C9D200A0AD
:101F20001200120000B203D000A01200120000A0A4
:101F3000ACEF12F024EF18F0050184BF120000B4DA
:101F400008D000B203D000A040D121D200A01200DE
:101F5000120000B203D000A01200120000B02AEF5D
:101F600018F0ACEC12F0ECEF12F0050184BF120097
:101F700000B408D000B203D000A032D11CD200A01F
:101F80001200120000B203D000A01200120000A044
:101F900012002CEF18F0050184BF12007A6B8D6BD4
:101FA00000B408D000B203D000A0AED1C4D200A0CB
:101FB0001200120000B203D000A01200120000A014
:101FC000B6EF12F020EF18F0050184BF12007A6F0F
:101FD0008D6F3F0B7ABF06D07ABD02D0892507D01E
:101FE0008A2505D07ABD02D08B2501D08C257A6F49
:101FF00000B404D000B202D000A094D117D08DC597
:10200000E8FFFF0B12000900F5CF7DF50900F5CFC1
:102010007EF50900F5CF7FF50900F5CF80F5F6CF05
:1020200081F5F7CF82F5F8CF8EF5120005017B6FB1
:102030007B39E832E830030B7C6F036E7B513F0B3A
:102040007D03F3507B6F05017B6F03C07CF500B40B
:1020500008D000B203D000A0120064D200A0120089
:10206000120000B203D000A01200120000A0B8EFCE
:1020700012F022EF18F005017CC503F07B51FF0B35
:1020800012000501906F903905D8905103D857D0B0
:1020900001D855D00F0BF60FD8B0070F3A0F34D731
:1020A000036A85EC03F018D0036A85EC03F00FD0C7
:1020B00085EC03F007D085EC03F005500F0B12E11F
:1020C000200E22DF04380F0B0EE1200E1DDF04501E
:1020D0000F0B0BE1200E18DF03380F0B08E1200E69
:1020E00013DF07D0D7DF0438D5DF0450D3DF033840
:1020F000D1DF0350CFDF23D00900F55065DF0900A1
:10210000F5500501906F0900F550FEDE902F02D0CA
:10211000090012000900F550F7DE902FF4D70FD018
:10212000EBDF0501FF0EBA6F12000501BA6F120056
:102130000501BA51D8B41200010EBA6F120002BAEA
:10214000ECEF12F0120000960501876B640EFEECB6
:1021500002F08C9C8C9A76D80BD88BBF04D08CBFA5
:1021600002D0878312007A8F6DD802D87A9F12002E
:10217000300E8A6EC7D8320EC3D8320EC1D886AFA1
:1021800012D0200E8A6E010EBBD8010EB9D88A6A11
:10219000010EB6D8010EB4D8100E8A6E010EB0D85A
:1021A0008A6A010EADD8080E1BD80C0E19D8060E7F
:1021B00017D8010EF0EC10F0849F380E86BF280E61
:1021C0000FD80C0E0DD8000EADD08A6E14D887B57E
:1021D00012008C8A8C9C86AF02D094D88A3A92D016
:1021E0008A6E09D887B512008C9A8C9C86AF02D073
:1021F00089D88A3A87D026D887B51200FF0E86BFC5
:10220000F00E93128C9A836B846B8C8C55D8832B35
:10221000D8B4842B12E032D881AE05D086AFF6D781
:102220004BD82CD8F3D786AF02D046D827D844D87D
:10223000000E86BF0F0E9316120087A7878187B7FF
:102240008783F6D7050187958797050178518BBF5E
:1022500002D08CBF00D07ABF06D0879778C586F5AC
:1022600087B1878505D0878779C586F587B3878548
:102270001FEE89F08639070BE126120086B50ED0D5
:1022800086B306D086B102D0E7801200E782120042
:1022900086B102D0E7841200E786120086B306D02A
:1022A00086B102D0E7881200E78A120086B102D018
:1022B000E78C1200E78E12001FEE89F08639070BBB
:1022C000E126865186B50ED086B306D086B102D0FF
:1022D000E7901200E792120086B102D0E794120054
:1022E000E796120086B306D086B102D0E7981200B6
:1022F000E79A120086B102D0E79C1200E79E120016
:10230000FEEC02F0BBDFD8D7010EF0EC10F08BBF73
:1023100003D08CBF01D012007A8F010EF0EC10F0C8
:102320007A9F120080095CD700B408D000B203D0B5
:1023300000A00DD0120000A01200120000B203D0C5
:1023400000A01200120000A012002EEF18F0E83AD0
:10235000E830380B400944DF0501856B0900F55072
:1023600034DF852B85A7FAD77A51DCD70501906B2E
:102370009051DADF902B90A7FBD712000086050161
:10238000846B320EFEEC02F03F0E15D8D4D08A6E6C
:1023900021D80BE18C8A8C9CF29E38D88C8E000060
:1023A0000000000000008C9EF28E7B2B7B513F0BC7
:1023B000D8A41200400E8A6E0DD80BE18C9A8C9C2A
:1023C000F29E24D88C8E00000000000000008C9E3D
:1023D000F28E120064D8841512E193688C9A8C8C6A
:1023E000836B8C9EF28E832B0DE0F29E0FD88C8E29
:1023F00000000000000081BEF4D78C9ED884F28ECD
:10240000936A12004CD88413D894F9D7050178B197
:1024100023D08CBA07D08CBC05D08B8A8B888C805B
:102420008B8412007BBF0CD07BBD05D08B8A8B9830
:102430008C908B9412008B9A8B888C908B941200CA
:102440007BBD05D08B9A8B988C808B9412008B9AD5
:102450008B988C908B8412008CBA07D08CBC05D0E2
:102460008B9A8B988C908B9412007BBF0CD07BBD89
:1024700005D08B9A8B888C808B8412008B8A8B98EA
:102480008C808B8412007BBD05D08B8A8B888C90CE
:102490008B8412008B8A8B888C808B9412000501B0
:1024A0007BBF03D07BAD010C020C7BAD040C080C90
:1024B0000501856F80517E038551F302F6CF85F5C6
:1024C000F7CF86F5F8CF87F581517F25F324F66E97
:1024D0008251F420F76E000E8E21F86E7E51E26E6E
:1024E0007D51E16E0900F55052DFE12EFBD7E24E3F
:1024F0000CD07D51805D04E0E16E0900E12EFDD736
:102500007C2B7D517B5F0ED8EBD77E0504E07E1DD2
:10251000020F7C2707D885C5F6FF86C5F7FF87C55C
:10252000F8FF120005017B513F0B400944DF7C514D
:10253000070BB80940D705017C6B05017B6BF2DF07
:10254000000E25DF7B51FCE17C2B7CA7F6D7C00E6B
:1025500032DF000E6BD50AD000960501706F02AA1B
:1025600036D8050170517F0B69EF04F026D834D0BE
:1025700029D805017A513F0B69EC04F07A39E8302B
:10258000E830030B69EC04F027D0028AF00E69EC06
:1025900004F0000E69EC04F0000E69EC04F07E0E0D
:1025A00069EC04F0400E69EC04F0050178517F0BF2
:1025B00069EC04F0080E69EF04F0C5EC12F0000EAF
:1025C00069EF04F0C5EC12F0010E69EF04F0C5EC00
:1025D00012F0020E69EF04F002AA1200029AF70E3E
:1025E00069EF04F00501906F2BD8906302D0000EC4
:1025F00015D0A90690C5A8FFF29EA69EA684550EEA
:10260000A76EAA0EA76EA682A6B204EF13F0F28EF2
:1026100017D8906302D0000E01D0010E036EFF0B9D
:102620001200C00EA9160501916BA9503F0BE35093
:10263000D9DF9113A9503F0BF8E19151036E1200BD
:10264000F29EA69EA69CA680A850F28EA92A1200F1
:10265000C00EA916F5DF0501916FA9043F0B91C5C6
:10266000E3FFA9503F0BF6E112000501916F01B69F
:102670000AD089D802A02FD0916302D0000E2ED0AC
:102680000306D8A004069151DAD801340E0BA00934
:10269000FED80450FCD80350FAD8032AD8B4042A30
:1026A00002A019D09151F3D8D3D80280C8D80134F0
:1026B0000E0BA009ECD8CCD802A0F7D7000E01B6BB
:1026C0000DD00306D8A004065ED802A004D0916302
:1026D00004D0000E03D0020E01D0010EFF0B120039
:1026E0000501C00E031601B613D0916B4CD802A0A1
:1026F00045D0056E9151E350051805E1912B91AD40
:10270000F5D7000E3ED00306D8A00406C00E03166F
:1027100096D801340E0BA009BAD80450B8D803508B
:10272000B6D8400E0326000E0422916B9151E3505F
:10273000AED802A023D0912B91ADF8D789D80280D2
:102740007ED801340E0BA009A2D882D802A0F7D7F8
:10275000000E01B616D00306D8A00406C00E03165C
:10276000916B11D802A00AD0056E9151E350051863
:1027700007E1912B91ADF5D7000E03D0020E01D0E9
:10278000010EFF0B12005BD801340E0BA0097FD89D
:1027900004507DD803507BD852D801340E0BA109C8
:1027A00076D887D80501906F69D852D8032AD8B453
:1027B000042A90511200C00E031641D801340E0BAA
:1027C000A00965D8045063D8035061D838D80134C3
:1027D0000E0BA1095CD80501916B6BD80501906FB8
:1027E000915190C5E3FF912B91513F0B02E048D8E6
:1027F000F4D744D82DD8400E0326D8B0042A1200AE
:102800000190019201940196E8BE0186070B011226
:1028100012000150070B01B68009120001A8120036
:10282000958A83AAFED7959A120000001200000034
:102830000000000000000000000000001200028004
:10284000929889888C8AEADF8998EFDF8C9A120047
:102850008C9A8998EADF8C8AE1DF8988120089885E
:102860009288000000008C8AD9DF80B802908C9A90
:10287000DEDF9298FF0902A0000B1200898801D0C8
:102880008998929800008C8AC9DF8C9AD0D705016C
:10289000C66F080EC76FC6BF8988C6AF899800008B
:1028A00000008C8ABBDF8C9AC0DFC637C72FF3D7F6
:1028B000D6D70501C66B89889288080EC76F0000BD
:1028C00000008C8AABDFC637C69180B8C6818C9A6F
:1028D000ACDFC72FF4D7C65112000198E8B00188C9
:1028E0001200000E01B8010EFF0B12000501C00E10
:1028F000F616F838F00B906FF7380F0B9013180E90
:10290000906159D0F85003E12F0EF76454D0906BCA
:1029100009009051E350F51805E1902B90ADF8D7E0
:10292000000E4CD00A00C00EF616F29E9DCF0BF0A2
:10293000A0CF0CF0F2CF0DF0F1CF0EF0F0CF0FF0F2
:102940009D6AA06AF26AF16AF06AA68EA69CA684C5
:10295000A688550EA76EAA0EA76EA6820A00906BD7
:102960009051E3CFF5FF0F00902B9051070BF8E14A
:10297000A68EA69CA684550EA76EAA0EA76EA6824A
:1029800090ADEED7A6940BC09DFF0CC0A0FF0DC06C
:10299000F2FF0EC0F1FF0FC0F0FFF28EC00EF61670
:1029A000906B09009051E350F51807E1902B90AD22
:1029B000F8D7000E03D0020E01D0010E036EFF0BFC
:1029C0001200C00EF6160501906B09009051F5CF6C
:1029D000E3FF902B90ADF9D71200CBEC0FF0FC0E7B
:1029E000F66E7C0EF76E000EF86E03EC10F00A0E19
:1029F000F66E2A0EF76E000EF86E7CEC10F00ED814
:102A0000040096EC04F0FF00FFD700105265626FDF
:102A10006F74696E67204D494F53202002A602D083
:102A200002B410D0028402868C908B94800EE86EE3
:102A30008C868B828C968B92E82EFAD78C948B9016
:102A40008C848B801200029412000286120002967F
:102A5000120002B612000501BA0505E0BA51D8A469
:102A600012000AEF18F0BA6B08EF18F00400C7EC78
:102A700004F07FEC0AF043EC0BF0ECEC0EF029ECE8
:102A800015F0040002A602EC18F0F0D7040000EEE6
:102A900000F0EE6A000EE962FCD70D0EEA62F9D78B
:102AA000F19E806A816A400E826E836A846AEF0EAC
:102AB000926E0F0E936E800E946E020E956E070E40
:102AC000966E070EC16E860EC06E070EB46E03ECD6
:102AD00004F0E0EC03F02BEC0FF0B6EC03F0C10EC9
:102AE000D56E010ECD6EB190210E9D6E020EA06EC0
:102AF000AB98AE50AB88C00EF26E000E036E400E67
:102B0000046E140E056E540E57EC0FF0FC0EF66EAC
:102B10007C0EF76E000EF86E03EC10F000EC18F06F
:102B20006AEC0FF0CBEC0FF0840EF66E2B0EF76E06
:102B3000000EF86E7CEC10F07CEC10F0060E066EC9
:102B40000400FA0EFEEC02F0062EFAD7CBEC0FF0E2
:102B5000100E066E05EEF0F0EE6A062EFDD7800E22
:102B6000066E04EE80F0EE6A062EFDD7400E066E6D
:102B700003EEC0F0EE9E062EFDD7010E0501BA6FE2
:102B800036EF15F000104D494F53382056312E398D
:102B90006820202020204010284329203230313462
:102BA00020542E4B6C6F7365FF00FF00FF00FF0089
:102BB000FF00FF00FF00FF00FF00FF00FF00FF001D
:102BC000FF00FF00FF00FF00FF00FF00FF00FF000D
:102BD000FF00FF00FF00FF00FF00FF00FF00FF00FD
:102BE000FF00FF00FF00FF00FF00FF00FF00FF00ED
:102BF000FF00FF00FF00FF00FF00FF00FF00FF00DD
:102C000023EF04F003EF04F010EF04F0FFEF03F004
:102C100029EF04F0B6EF03F0E0EF03F0F5EF03F077
:102C2000D4EF03F01BEF04F014EF04F038EF04F0DE
:102C300050EF04F03BEF04F02FEF04F096EF04F0B8
:102C400066EF04F081EF04F069EF04F05DEF04F04B
:102C5000BDEF04F0BAEF04F0C0EF04F02EEF0BF07C
:102C60002BEF0BF0E5EF0AF027EF0BF016EF0BF070
:102C7000EBEF0AF00BEF0BF004EF0BF0FCEF0AF0B8
:102C8000E8EF0AF061EF0CF05BEF0CF06BEF0CF08B
:102C900065EF0CF04DEF0CF047EF0CF01AEF0CF075
:102CA00008EF0CF0ECEF0BF025EF0CF01DEF0CF043
:102CB00036EF0CF0BCEF09F0B5EF09F0D6EF0AF0F3
:102CC000E2EF0AF0DAEF0AF0DEEF0AF0CFEF0AF0F7
:102CD000C8EF0AF09AEF0DF08EEF0DF096EF0DF0C1
:102CE0007EEF0DF0B1EF0DF0BCEF0DF03AEF09F013
:102CF00032EF09F04BEF09F048EF09F044EF09F02B
:102D00003EEF09F0CBEF0FF0B5EF0FF0FFEF0FF054
:102D1000E4EF0FF09CEF0FF06AEF0FF048EF10F0C8
:102D200050EF10F054EF10F082EF0FF048EF10F07A
:102D300041EF10F090EF10F081EF10F07CEF10F009
:102D40002BEF0FF054EF0FF01EEF0FF060EF0FF0CE
:102D500057EF0FF003EF10F03BEF10F023EF10F000
:102D600020EF13F0F2EF12F0E1EF14F076EF14F031
:102D7000C3EF13F035EF13F0E4EF02F0FAEF02F0D7
:102D8000FCEF02F01DEF03F030EF03F042EF03F031
:102D90000BEF03F013EF03F026EF03F0FEEF02F06A
:102DA00007EF03F0EDEF14F023EF15F00EEF15F041
:102DB00027EF15F025EF15F054EF03F0C0EF09F001
:102DC000C7EF09F0CDEF09F094EF11F0B6EF11F075
:102DD00032EF0BF037EF0BF03DEF0BF000EF14F09C
:102DE00009EF14F070EF13F085EF03F058EF10F0D7
:102DF0005BEF10F095EF10F098EF10F057EF0CF03C
:102E000051EF0CF01FEF14F028EF14F047EF14F01F
:102E100059EF14F040EF14F03EEF14F06DEF14F0A2
:102E200071EF14F04FEF09F052EF09F03FEF0CF0A3
:102E3000DBEF13F028EF13F011EF13F0F0EF02F0D7
:102E4000120000001200000012000000120000003A
:102E5000120000001200000012000000120000002A
:102E6000120000001200000012000000120000001A
:102E7000120000001200000012000000120000000A
:102E800012000000120000001200000012000000FA
:102E900012000000120000001200000012000000EA
:102EA00012000000120000001200000012000000DA
:102EB00012000000120000001200000012000000CA
:102EC00012000000120000001200000012000000BA
:102ED00012000000120000001200000012000000AA
:102EE000120000001200000012000000120000009A
:102EF000120000001200000012000000120000008A
:102F00001200000012000000120000001200000079
:102F10001200000012000000120000001200000069
:102F20001200000012000000120000001200000059
:102F30001200000012000000120000001200000049
:102F40001200000012000000120000001200000039
:102F50001200000012000000120000001200000029
:102F60001200000012000000120000001200000019
:102F70001200000012000000120000001200000009
:102F800012000000120000001200000012000000F9
:102F900012000000120000001200000012000000E9
:102FA00012000000120000001200000012000000D9
:102FB00012000000120000001200000012000000C9
:102FC00012000000120000001200000012000000B9
:102FD00012000000120000001200000012000000A9
:102FE0001200000012000000120000001200000099
:102FF0001200000012000000120000001200000089
:103000001200000012000000120000001200000078
:1030100084EF19F0120000001200000012000000FE
:103020001200000012000000120000001200000058
:103030001200000012000000120000001200000048
:103040001200000012000000120000001200000038
:103050001200000012000000120000001200000028
:10330000000652454144592ECBEC0FF0000EF66EEC
:0C331000330EF76E000EF86E7CEF10F02C
:047CFC000601000677
:107D000000808080808000C0C0C0C0C000E0E0E093
:107D1000E0E000F0F0F0F0F000F8F8F8F8F800FC1F
:107D2000FCFCFCFC00FEFEFEFEFE00FFFFFFFFFF72
:107D300000183C7EFF0000FF7E3C180000000000A1
:107D40000000000000000000000000000000000033
:107D50000000000000000000000000000000000023
:107D60000000000000000000000000000000000013
:107D70000000000000000000000000000000000003
:107D800000000000000000000000000000000000F3
:107D900000000000000000000000000000000000E3
:107DA00000000000000000000000000000000000D3
:107DB00000000000000000000000000000000000C3
:107DC0000000000000000000004F0000000007005D
:107DD000070000147F147F1400242A7F2A12002336
:107DE0001308646200364955225000000503000064
:107DF00000001C224100000041221C000014083E2B
:107E000008140008083E0808000000503000000870
:107E100008080808000030300000002010080402A4
:107E2000003E5149453E0000427F40000042615102
:107E30004946002141454B31001814127F1000279C
:107E400045454539003C4A4949300001710905035F
:107E500000364949493600064949291E00000036C6
:107E600036000000005636000008142241000014BD
:107E700014141414000041221408000201510906D0
:107E800000324979413E007E1111117E007F49493F
:107E90004936003E41414122007F4141221C007F82
:107EA00049494941007F09090901003E4149497A90
:107EB000007F0808087F0000417F4100002040410A
:107EC0003F01007F08142241007F40404040007F76
:107ED000020C027F007F0408107F003E4141413EBA
:107EE000007F09090906003E4151215E007F091902
:107EF00029460046494949310001017F0101003FFF
:107F00004040403F001F2040201F003F4038403F7E
:107F100000631408146300070870080700615149E2
:107F2000454300007F41410000020408102000008A
:107F300041417F00000402010204004040404040F3
:107F4000000001020400002054545478007F48448B
:107F5000443800384444442000384444487F0038C2
:107F60005454541800087E090102000C5252523E2B
:107F7000007F080404780000447D40000020404455
:107F80003D00007F102844000000417F4000007C3D
:107F900004180478007C0804047800384444443809
:107FA000007C1414140800081414187C007C0804C5
:107FB000040800485454542000083E484020003C27
:107FC0004040207C001C2040201C003C4030403CB5
:107FD000004428102844000C5050503C0044645485
:107FE0004C440000083641000000007F0000000003
:107FF00000413608000201020100000000000000FC
:00000001FF
