:020000040000FA
:103000002BEF1BF09AEF1BF0BDEF1BF0C5EF1BF091
:10301000E3EF1BF011EF1CF069EF1CF06EEF1CF0FA
:1030200056EF1CF05BEF1CF071EF1CF01EEF1CF074
:103030001CEF1CF019EF1CF01BEF1CF080EF1AF0D6
:10304000E9EF1AF0F7EF1AF0FBEF1AF02BEF1CF094
:103050002AEF1CF0A8EF1AF0B3EF1AF0FCEF1AF009
:103060001200000012000000120000001200000018
:103070001200000012000000120000001200000008
:10308000FFFF324690002E4691002A4692002646C7
:10309000930022469400EE45A300F246A000AA4AFF
:1030A0009800DA459900C6459A00CA4A9B004846EE
:1030B0008B004C468A005046890054468800D04711
:1030C0008000064781001247820028478300DC47C2
:1030D000BA009248BF004A48B9006E48BB009A49FE
:1030E000BD00C249BE00EA499700DA4895000C4984
:1030F0009E002E49BC0088499600B6479D00F44AC0
:10310000B000F84AB100FC4AB200004BB300044BD7
:10311000B400084BB5000C4BB600104BB700864B03
:10312000A8008A4BA9008E4BAA00924BAB00964B8D
:10313000AC009A4BAD009E4BAE00A24BAF00E84AEC
:10314000B800000000003E0000883E0001893E00FB
:10315000028A3E00038B2B0001822B0004810A00AF
:103160000680420000B5420001B6420002B70600E8
:1031700000BB060001BA060002B9060004AC060056
:1031800005AD060006AE060007AF070000A7070062
:1031900001A60800009F0800019E0800029D08008B
:1031A0000394080004950800059608000697070098
:1031B00004A4070005A5070006B30A0007B207002C
:1031C00007B1090006AB090007AA0900009309002E
:1031D000019209000291090003900900049B090073
:1031E000059A0A0000980A0001990A0002A30A0041
:1031F00003A20A0004A10A0005A0070003BF0700FC
:0632000002BE0000000008
:1032800006881C881088148808880C8800880488A0
:103290001A881E88128816880A880E880288FFFFFE
:10330000060103510F0BD8B41200DAEC16F039D0D5
:103310000400A8D848E106011FEE60F0E7BE19D00E
:103320001FEE50F0E7BE15D01EEE20F0E7BE11D024
:103330001EEE30F0E7BE0DD01EEE40F0E7BE09D025
:103340001EEE50F0E7BE05D01EEE60F0E7BE01D0E5
:10335000DFD7E1CF01F6E2CF02F6050EE3500F0B07
:1033600006010D6F020EE330700B046F0439001973
:10337000070B09E1020EE350030B17E0FE0F23E0F9
:1033800004D0000E05D0020E03D0030E01D0FF0EB4
:1033900001C6E1FF02C6E2FFE79E010F03E0FF0F57
:1033A00015EC1AF0B5D7D2EF16F0040EE350FF0F6C
:1033B00001E0EBD7000E15EC1AF054D8F4E10F0140
:1033C00030B7FBD7F0D7080E0D632ED0040EE3CF35
:1033D000F6FF030EE3CFF7FFF86A030ED890F63638
:1033E000F736F836FF0FFAE1060EE12607EE00F099
:1033F000F650380BE926080EE6CFEEFFFF0FFCE192
:10340000F6503F0B380A0FE1F85005E1F750330A48
:103410000AE0070A08E0C00EF61617EE00F0B6EC58
:1034200016F0010A01E0ADD7B0D70601066F1AD831
:103430000DE10F0130B7FBD71FEE31F00601065149
:1034400007D80F01356B3087060112000601120004
:1034500004C6E7FFE68E030B0809E66EE66A05C6BA
:10346000E6FF1200060100BB08D07450380B07E0DD
:103470006F886F501F0B20096F6EFF091200000B41
:02348000120038
:103500000096F90E96160501856B640ECEEC16F04A
:103510008C9C8C9A380E8A6E4ED854D8320ECEECD3
:1035200016F049D84FD8320ECEEC16F044D84AD80F
:10353000080E19D80C0E17D8060E15D8010EB3ECCC
:103540001AF0849F380E0FD80C0E0DD8000E4FD0F5
:103550008A6EE8408D6EE84411D885B512008C8AD9
:103560008C9C29D82FD08A6EE8408D6EE84406D80E
:1035700085B512008C9A8C9C1ED824D085B512007B
:10358000F30E9312060E96128C9A836B846B8C8CBE
:1035900019D8832BD8B4842B09E00DD881BEF8D775
:1035A00011D80C0E9316F90E9616120085A7858178
:1035B00085B78583F6D78C8E0000000000000000E0
:1035C00000001200000000000000000000008C9EBF
:1035D0001200010EB3EC1AF08BBF03D08CBF01D0E8
:1035E00012007A8F010EB3EC1AF07A9F12000501D7
:1035F0007A518009B8D7ACD7E83AE830380B40099F
:10360000B2DF0501876B0900F550A2DF872B87A782
:10361000FAD7F7EF1AF001030703010000000000DA
:103620000010181C18101B131B1B1B1B111F110E45
:103630001E1D1B17001F001D1B1D1E0E111F1D1917
:10364000150D001D1D1F0206021A020207000103CC
:103650000713191C1810106AF29EFE0EF66EFF0E6C
:10366000F76E3F0EF86E0900F550066E0900F55032
:10367000076E270A11E0F86AF28EEE0E24EC16F0BF
:103680000638070B24EC16F007507F0B24EC16F0DD
:103690001EEC16F0F29EFFD7F86AF28E0101006B65
:1036A000010EE8CF79F01568090ECB6E240ECA6EB4
:1036B0000F0EBD6E040EBE6EA2EC66F004EC16F0AA
:1036C000126E0101420E146F156F0F0EE8CF18F342
:1036D000E8CF58F3136A146ACDEC5AF08EEC58F028
:1036E00091EC57F0125009E10A0E78EC16F0010E39
:1036F00080EC16F0000E7CEC16F098EC1CF0000E3E
:1037000014EC16F0D7EC1DF02EECADF01082100E7C
:10371000036E270E046E000EBCEC16F0400E036E16
:10372000140E046E000E056E540EA8EC16F049EC53
:103730002BF0120010920EEC6AF010B605D039ECA6
:1037400064F0D1EC66F005D0F29E10983EB010887F
:10375000F28E51EC1EF01DEC28F00601FDA104D004
:10376000FD91FA0E24EC16F00601FC5105E0FC0771
:10377000F80E24EC16F0F8D7120010A620EC6AF030
:10378000125002E135EC29F01200120000144D49EC
:103790004449626F785349442056322E30343420E5
:1037A000202040104C61756E6368696E672043533A
:1037B0002020202040104353206E6F7420656E61DE
:1037C000626C6564212082EC16F08C0EF66E370E6A
:1037D000F76E000EF86E31501CE09EEC16F0A20E53
:1037E000F66E370EF76E000EF86E125006E0B40E4D
:1037F000F66E370EF76E000EF86E9EEC16F000B601
:1038000008D0160EF66E360EF76E000EF86EE6EC69
:1038100016F01C8210A604D03EA002D050ECADF0F1
:1038200012001250D8A4120010B8120058EC2BF05D
:103830001200FEEF88F01200AFEF90F0125208E194
:10384000E8CF0CF176ECADF010B612000CC1E8FF39
:103850008EEF90F012000B6E0101F80E0B620BD090
:103860003D513C6F3D6B3F5104083B273F6B3C3162
:10387000E8303F0B3E6F0B50FA0A03E0080A01E004
:103880000CD01E89C2C0E8FFE8B2108A3D29800E24
:10389000D8B43D6B3B6B030E3F6FFB0E0B6201D048
:1038A0001E8BFC0E0B6201D01E8D1200125002E125
:1038B000C2EF22F012001250D8A4120003C035F05B
:1038C000000E036203D00450B5EF28F00306D9EFD1
:1038D00028F0125002E192EC27F0120005EC28F0DB
:1038E00012001200050E03601200125005E0035092
:1038F00004C003F088EF96F0336A3350C6EC16F03C
:103900003E140FE003500FEC97F0E150020FE96E08
:10391000E250040FEA6E04C0EFFF03C034F0D0ECB5
:1039200041F0332A33A4E9D712001200120012002A
:103930000301EE6B036A13EEF0F0E66AE66A032A0F
:1039400003A6FBD701D8F3D7F0DF0301EF6912001C
:103950000301EE6F12000301EE511200056E13EE2B
:10396000F0F0E834FE0BE126E750031804E1010E05
:10397000E350041809E003C0E6FF04C0E5FF05506A
:10398000C6EC16F00301EF13120003C004F0D89048
:103990000436036AE3D7036E0F0EC16ED00E921683
:1039A00003500F0B921203B8928AF80E9616033842
:1039B000E830070B96121200036E8950D00B046E8C
:1039C00003500F0B041003B82009896E8D50F80BBB
:1039D000046E0338E830070B04108D6E1200E8B453
:1039E0001AD0E8B20CD0E8B005D003B0898003A0AB
:1039F0008990120003B0898203A089921200E8B076
:103A000005D003B0898403A08994120003B089868D
:103A100003A089961200E8B20CD0E8B005D003B03C
:103A2000898A03A0899A120003B08D8003A08D902B
:103A30001200E8B005D003B08D8203A08D92120071
:103A400003B08D8403A08D94120016511803F4CF97
:103A50001BF1F3CF1AF117511903F4CF1DF1F3CF76
:103A60001CF116511903F3501B27F4501C23E86A6C
:103A70001D2317511803F3501B27F4501C23E86A29
:103A80001D231200E2DF19AF04D016511C5F17513D
:103A90001D5B17AF04D018511C5F19511D5B12003C
:103AA00016511803F4CF1BF1F3CF1AF11751180375
:103AB000F3501B271C6BF4501C231200180E086EC9
:103AC000096A0A6A180E086EF334F436F5360A36B7
:103AD0000936F33607500A5E0650D8A0063C095E48
:103AE000D8B0F380F3B003D0092607500A26082E79
:103AF000EBD712003E0EC06E0301E06BE16BF36A80
:103B000013EEE3F0E66AF32AF3A6FCD7010EC26EC9
:103B1000C282120013EEE3F00301E051E126E75008
:103B2000C45C02E2FF0A010F08E0FF0F06E0C4CF09
:103B3000E7FFE051C6EC16F0E113E029070BE06F58
:103B4000E035E8341C0B0109C26EC2821200030189
:103B5000F29EE151E16BE26FFF0BF28E27E0000E67
:103B6000E2B11DD8010E0301E2B319D8020E030120
:103B7000E2B515D8030E0301E2B711D8040E030114
:103B8000E2B90DD8050E0301E2BB09D8060E030108
:103B9000E2BD05D8070E0301E2BF01D807D0036ECE
:103BA00013EEE3F0E3CF04F072EF1CF01200060115
:103BB000006B010E096F0A6BF29EFF0EF66EFF0E90
:103BC000F76E3F0EF86E0900F550270A01E0008BF2
:103BD000F86AF28E00BB120004EC16F00601036FC7
:103BE00012E116EE20F0010EE66E530EE66E490E5F
:103BF000E66E440EE66E200EE66E020EE66E000ED7
:103C0000E66E000EE66E09690A6B0E6B16EE10F09A
:103C10000F6BE66A0F2B0FA7FCD70F6B0601100E78
:103C20000017800E88D9800E776E000E706EC50E5C
:103C3000716E010E726E200E736E000E0F01606FBA
:103C4000506F0D01F86B0E01206B306B406B506BA9
:103C5000606B706B0D01010ED46FD56B0D01D86BCD
:103C60000D01E06BE16BE26BE36BE46BE56BE66B24
:103C7000E76B0D01F06BF16BF26BF36B03C605F6AE
:103C80000601046B076B086B000E1FEE00F039D9BC
:103C90000F017F0E186F080E196F1A6B1B6B000E49
:103CA0004AD155EC1EF088EF1EF0060103512EE1BB
:103CB0000E053F0B0E6F2AE10F29070BD8B4010F39
:103CC0000F6F16EE10F00F51E35220E0E30601DA19
:103CD0001DE106010F51C6EC16F009130FC605F6DB
:103CE000076B086B030E4FD911E1000EE66E008DD5
:103CF000F6EC1FF0009D0AE116EE10F00F51E36A9A
:103D00000F51036E2FEC45F0FF091200000B12005B
:103D10000400DFD9D8A412006F50070B9009776E0A
:103D200060BE04D0060100B7F3D7120061AE02D026
:103D3000609EEED706016230700B046F00A704D0BE
:103D400004390019070B0AE16250030B2BE0FF0F47
:103D500010E0FF0F1EE022D0000E05D0020E03D0AF
:103D6000030E01D0FF0E609E010F02E0FF0F93D8FB
:103D7000CFD7AFD9F7E10F0130B7FBD72FEE35F032
:103D800000EC96F01FEE31F0010ECBD80F0130871A
:103D9000E9D72FEE35F02DEC96F0E5D7609E000EBA
:103DA0008DD8E0D76450F00B15E1645017E0FF0F99
:103DB0001CE0FD0F1CE0FF0F1DE0FF0F28E0FF0FD0
:103DC00032E0FF0F38E0FF0F40E0FF0F48E0FB0F4D
:103DD00050E0C6D7645073EC95F0C5D70087F80B58
:103DE00000170439070B0013B7D70097B5D72BEC92
:103DF0001BF0B2D7040E6562B3D76950056E6850E8
:103E0000046E6750036E6650C5EC1BF0A5D7030E19
:103E10006562A6D76850056E6750046E6650036EE3
:103E200019EC1CF099D7010E65629AD76650036EA3
:103E30001EEC1CF091D7020E656292D76750046E9B
:103E40006650036E56EC1CF087D7020E656288D769
:103E50006850046E6750036E5BEC1CF07DD7030E58
:103E600065627ED76750046E6650036E71EC1CF07D
:103E700073D7800E60D8400E776E000E5CD8500E5F
:103E8000776E1FEE60F0E1CF01F6E2CF02F680EC34
:103E900019F0C4DE65D70601066F1BD90DE10F01CD
:103EA00030B7FBD71FEE31F0060106513AD80F01AB
:103EB000356B308706011200060112000AD91FE196
:103EC0000F0130B7FBD71FEE31F0000E2AD81FEEDE
:103ED00035F0080EE66E010EE66E530EE66E490EE4
:103EE000E66E440EE66E200EE66E020EE66E000EE4
:103EF000E66E000EE66E0F01308706011200060125
:103F0000120005C6E7FFE69E030B0809E76E04C62C
:103F1000E8FFE834E00BE61208C6E6FF07C6E6FF56
:103F2000120004C6E7FFE68E030B0809E66EE66A98
:103F300003C6E6FF1200F36E6F501F0BF3106F6E97
:103F40006E50E00BF318FCE112006FB40ED06FB2AC
:103F500006D01FEE60F06FB01FEE50F012001EEEA4
:103F600020F06FB01EEE30F012006FB206D01EEEE1
:103F700040F06FB01EEE50F012001EEE60F06FB019
:103F80001EEE70F012000601066F0551C6EC16F029
:103F9000091511E09ED80FE10F0140B7FBD70601CC
:103FA000065103C604F61FEE41F0ABDF1FEE45F0ED
:103FB000000B06011200FF09060112006F50070BEB
:103FC0009009776E60AE0AD061AE08D0609ED00EC8
:103FD00024EC16F0000E24EC16F0F0D70F01408709
:103FE00040A703D07450300BFBE01200E7DF08D08D
:103FF000E5DF6F50070B9009776E60AEFAD71AD0E5
:1040000006010B6B0C6B06010B2BD8B40C2B0CBFF1
:1040100058D06F50070B9009776E60AEF4D761BE31
:1040200009D0D10E24EC16F060507F0B24EC16F072
:10403000609EE9D7060100996450056342D0625042
:10404000030B05E0FF0F03E0FF0F36E03AD000ADB1
:1040500034D016EE20F00535E834E834380BE1268C
:1040600066CFE6FF67CFE6FF68CFE6FF69CFE6FFE2
:104070006ACFE6FF6BCFE6FF6CCFE6FF6DCFE6FFC2
:104080006550080A13E1010E666210D0530E676294
:104090000DD0490E68620AD0440E696207D0200E26
:1040A0006A6204D0020E6B6201D007D0060105518E
:1040B000C6EC16F00A1305D099D7609E000B0601D6
:1040C0001200609E06010551C4EC16F00917FF09A5
:1040D0001200060100BB0FD07450380B0EE06F8841
:1040E0000601008974AA06D0008B010E0917200E64
:1040F00022DF01D093DDFF091200000B1200F36EE6
:1041000016EE10F0E126400EE76EF350C4EC16F008
:10411000060109171200000E436C6F6E696E67206E
:10412000536C61766573400A416464726573733AD7
:1041300020307800401157616974696E6720666F9E
:10414000722052657365740040112121212120469F
:1041500041494C45442021212121200006010351E1
:10416000700BD8A4120082EC16F0160EF66E410EFB
:10417000F76E000EF86E9EEC16F0080EF36EFF0E52
:10418000CEEC16F0F32EFBD705C6E8FFC00924ECF1
:1041900016F0000E24EC16F0010E0601056F0D0E50
:1041A00088EC16F0200E94EC16F005C6E8FF98ECAB
:1041B00016F0260EF66E410EF76E000EF86E9EECAF
:1041C00016F0060105C6E8FFC00924EC16F0010E42
:1041D00024EC16F0060106010551066E90DF010E73
:1041E000CEEC16F0040061DD16EE10F00650E35040
:1041F000F6E106010650056FC6EC16F00915D8B4B5
:104200009CD005C6E8FFC00924EC16F0020E24EC91
:1042100016F00601000E9CD8D8A48FD005C6E8FF82
:10422000C00924EC16F0030E24EC16F006010F0E64
:104230008FD8D8A482D005C6E8FFC00924EC16F0B8
:10424000040E24EC16F00601000EF66E300EF76E2A
:10425000000EF86EF6500FE14A0E88EC16F0F8509A
:1042600098EC16F0F75098EC16F0F65098EC16F023
:10427000200E94EC16F00400F6CF07F6F7CF08F600
:10428000F83008330733D89008330733D890083311
:104290000733020E78DE51E1080EE66E0900F5CF15
:1042A000E6FFF650070BFAE1A3DE47E1F850D2E053
:1042B000F650D0E1F750800ACDE105C6E8FFC0090D
:1042C00024EC16F0050E24EC16F00601010E40D881
:1042D00005C6E8FFC00924EC16F0060E24EC16F023
:1042E0000601340EF66E410EF76E000EF86E9AEC73
:1042F00016F006010551066E0400065000DFD5DCFD
:1043000006010650056FC6EC16F006010915F4E02B
:1043100005C6E8FFC00924EC16F0070E24EC16F0E1
:1043200006010601052B030E056539D7C00E24ECE6
:1043300016F07F0E24EC16F01200010E09D8480E7C
:10434000F66E410EF76E000EF86E9AEC16F0E9D795
:104350000601076F086B000E16DE03E1000EE66E25
:1043600045DE120001030300010304000103050000
:1043700001030600010307000109090001090A0001
:1043800001090B0001090C0001090D000B000000E0
:104390000B0001000B0002000B0003000B000400E7
:1043A00003020200030204000200020002000300F4
:1043B00004010100040203000406080004090900C6
:1043C00004090A00FF000000FF010000FF020000D6
:1043D000FF030000FF04000004000200040D0D00B4
:1043E000040D0E0004090900040D0F00030303006F
:1043F000030304000303050003030600030307008F
:104400000309090003090A0003090B0003090C0052
:1044100003090D000A0000000A0001000A00020062
:104420000A0003000A000400060303000603060056
:104430000500020005000300070003000704040054
:10444000070405000704060007040700FF0000003A
:10445000FF010000FF020000FF030000FF04000056
:104460000700030007040400070405000704060012
:104470000704070003010100030102000301030018
:1044800003010400030105000306060003060700FC
:10449000030608000306090003060A0006000000E0
:1044A00006000100060002000600030006000400EA
:1044B00000000000000000000400020004000300EF
:1044C00000000000000000000000000000000000EC
:1044D00000000000FF000000FF010000FF020000DC
:1044E000FF030000FF0400000000000000000000C7
:1044F00000000000000000000000000001030300B5
:104500000103040001030500010306000103070085
:104510000109090001090A0001090B0001090C0049
:1045200001090D0009000000090001000900020056
:10453000090003000900040003030300030305004E
:104540000200020002000300040002000404040050
:10455000040405000404060004040700FF00000032
:10456000FF010000FF020000FF030000FF04000045
:10457000040002000404040004040500040406000E
:104580000404070004A0FCEC16F06BEC41F0820E72
:10459000F66E300EF76E000EF86E0900F550066EDE
:1045A0000900F5CF07F0F5100DE00900F5500900FE
:1045B0000318F3E1F29E05000650FD6E0750FE6EF3
:1045C000F28E1200120004B0120010B856D303503D
:1045D000DEEC16F0FF0EB5EF28F004B0120010B8B4
:1045E0004CD30350DEEC16F0010EB5EF28F031503D
:1045F00004E004B01200AEEF20F02B9E04A02B8E3E
:1046000004B0120010B840EFADF0EBEF2EF0090E41
:1046100011D0080E0FD0070E0DD0060E0BD0050ED0
:1046200009D0040E07D0030E05D0020E03D0010EF0
:1046300001D0000E04B0120010B81FD31EB4D4EF86
:1046400043F02224CDEF2EF0010E05D0020E03D050
:10465000040E01D0080E066E1C8204B043D03E50FA
:10466000F00BF00A03E006503E1A04D0F00E3E169E
:1046700006503E1237D86BEC41F049EC42F0E7505F
:104680007F0B2F6E50EC42F0E750070B306E1F503F
:10469000C00B08E110EE50F010CBE8FF030B4D6E9D
:1046A0001FC0E3FF24EC45F078EC41F01F50C00B35
:1046B0000CE110CBE8FF4D18030B07E010EE50F0B3
:1046C00010CBE8FF030BE350B8DAB5EC2EF0BDDAFF
:1046D0003EA007D010A605D050ECADF010883FECFE
:1046E00026F012000638FF0A3E16063804B03E12C5
:1046F000120010B8C2D22B9004A02B801E9404A0EC
:104700001E841C82120004B0120010B8B6D22B72A4
:104710009CD204B0120010B8B0D22B742B982BB4DA
:104720002B880A0E266E91D204B0120010B8A5D2C2
:10473000C6C0E8FF070B04E0000E07EC43F039D0D9
:104740003E50F00BF00A25E11D50F00B11E1F29EF6
:10475000F00E1D12F28E336A25EC43F0332A25EC5D
:1047600043F0332A25EC43F0332A25EC43F021D0E3
:10477000F29E0F0E1D16F28E336A2BEC43F0332A95
:104780002BEC43F0332A2BEC43F0332A2BEC43F091
:1047900010D0000E3EB011EC43F0010E3EB211EC11
:1047A00043F0020E3EB411EC43F0030E3EB611ECA2
:1047B00043F01C84120004B0120010B85ED23F28EF
:1047C000030BD8B4010F3F6E3DEC32F01C84120095
:1047D00004B0120010B851D2420E2AD204B0120016
:1047E00010B84BD2F1EC30F01F182CE110CBE8FFE1
:1047F000E8B220D0E8B016D04250070B010D1C0ED5
:10480000F324F66E480EF420F76EF86A000EF822D4
:104810000900F550416EAFEC2FF014D000010203F7
:10482000060606003F28030BD8B4010F3F6E010EA9
:10483000426E08D0E8B003D0010E426E03D0010EE4
:10484000426E00D0F1EC30F0F3D104B0120010B899
:1048500014D210CBE8FF030B020AD8B41200010EE9
:10486000036E000E046EF1EC30F016EF30F004B081
:10487000120010B802D210CBE8FF030B020AD8B422
:104880001200020E036E000E046EF1EC30F016EF13
:1048900030F004B0120010B8F0D1432A030E436088
:1048A000436A43A2F1EC30F043B2FBEC30F0C0D9E4
:1048B000435002E1030E0CD043B209D010CBE8FF05
:1048C000030B020A02E1060E03D0090E01D0000E0E
:1048D000226E236E1C882AEF2BF004B0120010B851
:1048E000CCD1F5EC30F01F1804E0F5EC30F018EF07
:1048F00026F010CBE8FF030B000ED8A4010E036EC8
:10490000000E046EF5EC30F016EF30F004B012003B
:1049100010B8B3D110CBE8FF030B010ED8A4020EE0
:10492000036E000E046EF5EC30F016EF30F004B0BC
:10493000120010B8A2D1F7EC30F01F1816E110CB1E
:10494000E8FFE8B210D0E8B008D0000E036E000E09
:10495000046EF7EC30F016EF30F03F28030BD8B4BC
:10496000010F3F6E02D0E8B000D0F7EC30F060D11C
:1049700004B0120010B881D1070E036E030E046E4E
:10498000F7EC30F016EF30F004B0120010B875D12B
:104990004606020E46B2466E58D104B0120010B858
:1049A0006CD1F3EC30F01F1804E0F3EC30F018EFAA
:1049B00026F0010E036E000E046EF3EC30F016EFDD
:1049C00030F004B0120010B858D1F3EC30F01F18DA
:1049D00004E0F3EC30F018EF26F0040E036E000E46
:1049E000046EF3EC30F016EF30F004B0120010B8A3
:1049F00044D110CBE8FF020B020A050ED8A4060E24
:104A0000036E010ED8A4020E046EF3EC30F016EF24
:104A100030F004B012006BEC41F010CBE8FFE8B2CC
:104A200020D0E8B215D06CCB06F006700BEE6CF01F
:104A300030D80BEE7CF02DD80BEE8CF02AD80BEE94
:104A40009CF027D80BEEACF024D80BEEBCF021D0B4
:104A50006CCB06F006700BEE6CF01BD80BEEBCF0C6
:104A600018D0E8B201D012006CCB06F006700BEE45
:104A70006CF00FD80BEE9CF00CD80BEECCF009D8F4
:104A80000BEEFCF006D80CEE2CF003D80CEE5CF02C
:104A900000D0EF9006B0EF80A2EF41F004B012001A
:104AA00010B8EBD0FBEC30F0C3D010B8E6D004A0C7
:104AB00009D01FAE02D01C8212001C9C1C94266AD6
:104AC0001C961200010E78EF30F010B8D6D004B06A
:104AD000F0D7FF0E78EF30F02BB083EF23F0E5D75F
:104AE0002BB089EF23F0F1D704B0120010B8C5D075
:104AF0002B7AABD0000E0DD0010E0BD0020E09D0D8
:104B0000030E07D0040E05D0050E03D0060E01D00B
:104B1000070E496E10B8B1D004A005D04950C4ECBE
:104B200016F03C1619D03C5003E02B7A25EC26F009
:104B30004950C6EC16F03C1210CBE8FFE8B216D094
:104B4000E8B00BD03A6A4850C6EC16F03B1404E0CB
:104B500048C047F049507BD812000BEE8CF049C09A
:104B6000EFFFA2EC41F049C02DF06FD0E8B00AD0C1
:104B70000BEE51F049C0EFFFA2EC41F049C02DF01F
:104B800064D012001200000E0DD0010E0BD0020EE8
:104B900009D0030E07D0040E05D0050E03D0060E73
:104BA00001D0070E04A004D0C4EC16F03B1612008E
:104BB000486E476E10B861D010CBE8FFE8B22CD039
:104BC000E8B021D04750C6EC16F03B123A6A495083
:104BD000C6EC16F03C1402E0495039D82BB003D093
:104BE000F9EC30F025D01E944850FE0B01E005D0C2
:104BF0004850456EF7EC30F01BD04850FE0F446E25
:104C0000F5EC30F015D00BEEDCF048C0EFFFA2EC75
:104C100041F048C02DF019D0E8B009D047C04AF0A3
:104C2000010E06D8020E236E226A25EF2BF0120029
:104C30001F6203D03DEC32F008D01F6E236A226A57
:104C40008AEC2CF01C882AEC2BF01C8412001C84AB
:104C5000346E0BEE00F04BEC39F03F50181A336A0B
:104C60003350C6EC16F03E1404E00BEE00F036ECC8
:104C700039F0332A33A4F4D712006BEFADF06BECAC
:104C800041F088D810CBE8FF030B010A01E002D005
:104C90003F50426E4350C6EC16F0070B066E10CB29
:104CA000E8FF030B020A0CE0010E346E40EC32F018
:104CB000EF38F00BEFB8000E0612EF38E830030BB8
:104CC0002BAA08092BBA0409076E10CBE8FF030BC7
:104CD00004E0030A02E03F3804D04550C6EC16F069
:104CE000E838300B07124650C6EC16F0E83AE836C2
:104CF000E834C00B0712000E346E71EC32F0EFCFC7
:104D000008F04450C6EC16F03F0B096E3F50E83AED
:104D1000E836E834C00B091210CBE8FFE8B206D041
:104D2000E8B002D0000E07D0140E05D0E8B002D0D3
:104D3000000E09D0140E346E84EC32F0EF380F0BF5
:104D4000D3D8EFA0000E0A6E1D50F00BD8A40A8C29
:104D500046B20A8E460EF66E310EF76E000EF86EF3
:104D60000900F550E96E0900F5CFEAFFF51011E0F2
:104D70000900F550C6EC16F0EF14D8A4010E036E2E
:104D80000900F550F5AE60EC16F0F5BEECEC27F03E
:104D9000E7D7120010B8120010EE60F010CBE8FF59
:104DA000E8B24BD0E8B027D01D962BBC12003FB024
:104DB00011D005CCE6FF0DCCE6FF15CCE6FF1DCCEF
:104DC000E6FF25CCE6FF2DCCE6FF35CCE6FF3DCC5B
:104DD000E6FF120004CCE6FF0CCCE6FF14CCE6FFA5
:104DE0001CCCE6FF24CCE6FF2CCCE6FF34CCE6FF5F
:104DF0003CCCE6FF12003EB012001D966AD80B01B3
:104E000070A30FD08C51F80B0CE18C51C6EC16F04E
:104E1000076E10EE60F0080E066E07C0E6FF062E65
:104E2000FCD7C0A309D0DC51F80B06E110EE60F00E
:104E3000DC51070BE126E7681200E8B017D03EB05E
:104E400012001D9646D80B0150AD0FD05151F80BF2
:104E50000CE15151C6EC16F0076E10EE60F0080E32
:104E6000066E07C0E6FF062EFCD712003EA003D058
:104E700030D82BBC12001D964050080DA20EF32412
:104E8000F66E4E0EF420F76EF86A000EF82210EE61
:104E900060F0080EF36E0900F5CFE6FFF32EFBD7A6
:104EA00012000040447F7F40400000627351494F30
:104EB000460000226349497F360000181814167F07
:104EC0007F1000276745457D3900003E7F494973C3
:104ED000320010EE60F020EEE8F0F36AE66ADE6A77
:104EE000F32AF3A6FBD712000F0BC8EC16F0010C47
:104EF000020C040C080C100C210C220C240C280CA5
:104F00001F0C1F0C1F0C1F0C1F0C1F0C1F0C00EE86
:104F1000D0F010EED8F0F36AEE68E66AF32AF3A652
:104F2000FBD712003928070B396ED8B43A2A39500A
:104F3000C6EC16F0036E020E68EC16F0315007E076
:104F40003950CC183118C6EC16F0036E39D010B8B1
:104F500002D01DA61ED010EEE8F039500708E12659
:104F6000E750D8A4E706D8A4E706E75011E04C0EB6
:104F7000F66E510EF76E000EF86EE730E830E8304E
:104F8000070BF626000EF722000EF8220900F55056
:104F90000AD02BBC03D010EE60F002D010EEE8F087
:104FA00039500708E350036E3A50380B09E13C5082
:104FB000031A39500708C6EC16F03B14D8A4031E98
:104FC000000E68EC16F020EEE0F03950DBCF03F075
:104FD000010E68EC16F0120010EEE0F003B001D004
:104FE0000AD0036EE836E838070BE1260350C6EC1A
:104FF00016F0E7121200036EE836E838070BE126D8
:105000000350C4EC16F0E71612003904070B0B6EC0
:10501000040E5CEC16F0100EE126E76A10EED0F0FC
:105020000B50E3CF0CF003C0E3FF10EED8F00B50B1
:10503000E1260C500318E71212000001786B10EE05
:10504000D8F07851E126E75010E0E7B013D8E7B286
:1050500014D8E7B415D8E7B616D8E7B817D8E7BA22
:1050600018D8E7BC19D8E7BE1AD8782B070E786590
:10507000E6D71200E790000E14D0E792010E11D08F
:10508000E794020E0ED0E796030E0BD0E798040EBD
:1050900008D0E79A050E05D0E79C060E02D0E79EE1
:1050A000070E036E7839E830380B8009031210EED2
:1050B000D0F07851E1260350C6EC16F0E714D8A4DE
:1050C000010E046EC2EC22F010EED8F0000178510F
:1050D000E126120010EEE8F0E126800E03260350D0
:1050E000F00B800A02E1E76A12000338E8A604D058
:1050F000E8B4070E040903D0E8A4000E030B070B65
:105100003C0FF66EF76A510EF722F86A000EF8228D
:105110000900F5CFE7FF120010EEE8F0E1260338B2
:10512000E830070B440FF66EF76A510EF722F86A63
:10513000000EF8220900F5CFE7FF120078381808B2
:10514000080C0E0F804020100804020180C0E0F01F
:10515000F8FCFEFF070BC8EC16F0040C010C050C64
:10516000020C060C030C000C070C366E10B86BEF2B
:10517000ADF01CBC76EF30F01EB41C821E941FBE36
:10518000C2EC2EF010EE18F01AC003F01BC004F0B1
:105190003650DCEC16F01FAE07D02BAEFBEF2EF036
:1051A00018C011F0F9EF2EF01CA83FEF2FF047EFD9
:1051B0002FF00450366E056E10B86BEFADF01EB4D4
:1051C0001C821E946BEC41F0040E036407D0060EA3
:1051D00003640AD0080E03640AD00CD0035043B015
:1051E000050F43B20A0F0CD003500A0F09D0035029
:1051F0000A0F06D003500A0F46B0050F46B20A0F39
:10520000F56E10CBE8FF030B880D640EF324F66EE9
:10521000430EF420F76EF86A000EF822F534E834F5
:10522000FC0BF626000EF722000EF8220900F550BE
:10523000066E1AE00900F5CF04F00900F5CF03F07F
:10524000062803E0065059EF30F01F507F0B0CE0AA
:1052500004500F0B2224036E2450036005D022C09B
:1052600004F01F5059EF30F012005650D8A45606E3
:10527000252E1200640E256E2750D8A42706D8A428
:105280001200262A000174517F0BD8A474077551AF
:105290007F0BD8A4750776517F0BD8A4760777517A
:1052A0007F0BD8A47707315003E0310401E03106C9
:1052B0002BB402D01FBE12002B982BB42B88265083
:1052C000040A04E02650140A04E012001C861C8420
:1052D0001200266A1C962BA402D02BB62B981C8495
:1052E0001200EF0FD8B0EF0E110FC8EC16F010D06F
:1052F00010D017D029D00FD1FCD001D106D125D1A3
:105300002FD133D143D17CD1A0D12FD076D0C1D0F1
:1053100012001CA8236A1CA8226AE9507F0B9AD1AC
:1053200012001CA8236A1CA8226A6BEC41F049EC0D
:1053300042F0E7507F0B2F6E50EC42F0E750070B26
:10534000306EFDEC30F086D11CA8236A1CA8226ABE
:1053500011C02EF0460E7ED140102D2D2D2D2D206A
:10536000434F5059202D2D2D2D2D1D8410CBE8FF9E
:10537000030B020A1AE013EE80F00CEE00F02D3859
:10538000700BE912346A3450EBCFE3FF100EE126C4
:10539000800EE9263450EBCFE3FFF00EE126800EBD
:1053A000E926342A34A8EFD70ED013EE80F00CEEA5
:1053B00000F02D50200DF350E926346AEECFE6FFC1
:1053C000342A34AAFBD7580EF66E530EF76E000E31
:1053D000F86E0ED1120040102D204275666665727F
:1053E00020456D707479202D40102D2D2D2D2050CD
:1053F00041535445202D2D2D2D201DA43AD010CBE6
:10540000E8FF030B020A1CE00CEE00F02D38700BD5
:10541000E912346A13EE80F03450E3CFEFFFA2ECD0
:1054200041F0800EE92613EE90F03450E3CFEFFF09
:10543000A2EC41F0810EE926342A34A8EBD712D031
:105440000CEE00F02D50200DF350E926346A13EED7
:1054500080F03450E3CFEFFFA2EC41F0EE50342A5D
:1054600034AAF5D7E80EF66E530EF76E000EF86EFE
:10547000BFD0D60EF66E530EF76E000EF86EB8D093
:1054800040102D2D2D2D20436C656172202D2D2D6A
:105490002D2010CBE8FF030B020A16E00CEE00F003
:1054A0002D38700BE912346A800EEF6EA2EC41F0D9
:1054B000800EE926400EEF6EA2EC41F0810EE92647
:1054C000342A34A8F1D70ED00CEE00F02D50200D68
:1054D000F350E926346AEF6AA2EC41F0EE50342A28
:1054E00034AAF9D7800EF66E540EF76E000EF86EE1
:1054F0007FD011D824502360120020EF2DF00BD85C
:1055000024502360120039EF2DF005D82450236079
:10551000120040EF2DF02450236012001C88266AF0
:105520001C961C84A3EC2FF0040E77EC2FF00900DE
:10553000F5CF1AF00900F5CF1BF0000ED1DBB5EC6A
:105540002EF0F0EC31F036EF32F0245023601200F0
:10555000E2DF182A1A281860186A47EC2FF07CD06E
:105560003450D0EC60F093EF42F040509CEC61F08E
:105570000BEE60F040500A0DF350E9260A0E066E5D
:10558000A2EC41F0EE50062EFBD712002FC013F014
:1055900030C014F0145013100AE095EC65F007E0E9
:1055A000DE0EF66E550EF76E000EF86E21D0326AE2
:1055B0001C8A8BEF2AF0CC0EF66E550EF76E000E9D
:1055C000F86E16D8E1EC2FF01C98ABD640102D2DBC
:1055D0002053617665205061746368202D2D401042
:1055E0002D206E6F7420706F737369626C65202D4F
:1055F0009AEC16F0180E71EC55F0400EFAEF16F01A
:105600002E5004E0F2EC65F001E0CAD7240EF66EED
:10561000560EF76E000EF86E10D82EC011F0C0ECCA
:105620002FF092D640132D2D205361766520456EC4
:1056300073656D626C65202D2D009AEC16F0150EC9
:1056400071EC55F0400EFAEF16F0326A1E801E9291
:105650008BEF2AF01CA80BD01C981C9A1E901C9E45
:105660001C84266A1C96000E3BDB7FDB6ED31F6E0C
:105670001C82000E35D3800EEDD71CA8236A1CA80F
:10568000226A000EE7D71CA8236A1CA8226A400ED3
:10569000E1D7800E1F6E180E316EF10E3E6E030EB6
:1056A0003F6E2B9A87EC27F0FF0E36EC32F012009B
:1056B0009BEC44F03150D8A412006BEC41F024EC88
:1056C00046F0D8A412001DA203D01D9278EF41F03D
:1056D000EAEC42F0F29E2B9C2BBA2B8C3C50D8A4C7
:1056E0002B9CF28E1CA222D01C921C84266A1C9633
:1056F0001C9C1C9EAFEC2FF01EB407D00BD96BEC9A
:1057000041F0000EEDDA31DB20DB286A1C80E1EC91
:1057100044F01CA012001EB409D01FAE07D0450EE5
:1057200088EC16F0AFEC55F0C3EC2BF01CA03FEF6B
:1057300026F02750D8A412005850D8A4E8D02850FA
:1057400011E1545005E0140A02E1565001E0B6D0D0
:105750005650D8A412001CA412001C94320E566E8F
:105760003FEC26F01EB4EDD01FAE9ED01CBC9BD0EB
:105770006BEC41F0285007E0FF0F19E0FF0F21E02C
:10578000FF0F2BE044D0050E88EC16F050EC42F0F1
:10579000146E49EC42F0136E86EC55F095EC65F012
:1057A000200ED8A42A0E94EC16F0282A7CD0000EE5
:1057B00088EC16F075EC55F07C0E94EC16F0282A67
:1057C00072D00A0E88EC16F010CBE8FF9DEC55F075
:1057D000020E71EC55F0282A66D00E0E88EC16F0F9
:1057E000430E94EC16F0680E94EC16F06E0E94ECEA
:1057F00016F02E0E94EC16F010EE70F03350030BF2
:10580000E126E7287F0B90EC16F0282A4CD0400EBA
:1058100088EC16F009C6F3FFC6C0E8FF070B0FE0DF
:105820001DA80DD0500E94EC16F06F0E94EC16F0EF
:105830006C0E94EC16F0790E94EC16F030D02D0E20
:105840001DB8500E3EA003D0310E1DB8020EF3A0BD
:105850002A0E94EC16F02D0E1DBA500E3EA203D067
:10586000320E1DBA030EF3A22A0E94EC16F02D0E82
:105870001DBC500E3EA403D0330E1DBC040EF3A479
:105880002A0E94EC16F02D0E1DBE500E3EA603D02F
:10589000340E1DBE050EF3A62A0E94EC16F07C0EF7
:1058A00094EC16F0286A12000C0E00A684EC16F098
:1058B0000400020E0EEC31F0CCEF16F054065450FA
:1058C000C00988EC16F055281AE0545018E0FF0F74
:1058D00018E0EF0F18E0FF0F12E05550200A0DE01E
:1058E0005450FE0FF36E55300F0BF35C02E005E3EE
:1058F00006D055B002D02D0E08D03D0E06D0200E99
:1059000004D05B0E02D05D0E00D094EF16F0580666
:105910008CEF48F0576A3DEC32F01FBE1200000ECB
:105920000EEC31F0C2EC16F0F86A0900F5CF24F065
:105930000900F5CF57F0F6CF20F0F7CF21F0F86A45
:1059400004D2285003E161EC43F002D079EC43F03B
:10595000282A010E28641200286A1200000A456EE7
:1059600073656D626C653A2028502AE11CBC28D012
:105970001FAC17D05C0EF66E590EF76E000EF86E67
:105980009EEC16F075EC55F01150D8A4F2EC65F0D1
:10599000200ED8A42A0E94EC16F0050E71EC55F0EA
:1059A0000FD0000E88EC16F06BEC41F0AFEC55F028
:1059B00050EC42F0146E49EC42F0136E86EC55F058
:1059C000400EDBEC2DF0282A2850050AD8A412003E
:1059D000400E0DD9286A12001CBA71D01EB09ED09C
:1059E0001CBC05D01CBE03D0000EDBEC2DF01CBE91
:1059F00003D0400E19EC2EF0282A2850050AD8A40E
:105A00001200000EF4D8286A00B612001CA812007A
:105A10002450236012001CBE12002250235C040D8F
:105A2000F350420F88EC16F01200001450617261BE
:105A30006D657465722041737369676E2E3A20201C
:105A40001C8E2A0EF66E5A0EF76E000EF86E9EEC45
:105A500016F0400E88EC16F0185029EF56F00007AB
:105A600050617463683A2000000742616E6B3A200F
:105A70002000680EF66E5A0EF76E000EF86E07D014
:105A80005E0EF66E5A0EF76E000EF86E00D01C8E8B
:105A90009EEC16F06BEC41F050EC42F0146E49ECC9
:105AA00042F0136E86EC55F0090E71EC55F0400E85
:105AB00088EC16F010EC56F0040E71EF55F01CBC9B
:105AC00008D0000E88EC16F0AFEC55F0180E71EC13
:105AD00055F01CB606D0325088EC16F0200E94EC2F
:105AE00016F0060EF66E5B0EF76E000EF86E9EEC6C
:105AF00016F000B61200325088EC16F00E0E00A61A
:105B000084EC16F0120040145341564520203C20EE
:105B100020203E202044656C20436C721CBC22D0A7
:105B2000000E88EC16F0C1EC3EF0200E94EC16F05E
:105B30001EB20CD02D288EEC16F05F0E94EC16F0F1
:105B40004A50070B010F8EEC16F009D0520E94EC60
:105B500016F06F0E94EC16F0740E94EC16F0140E12
:105B600071EC55F01EB208D01CB606D0325088EC4D
:105B700016F0200E94EC16F0A00EF66E5B0EF76E8B
:105B8000000EF86E9EEC16F000B612001EB2120067
:105B9000325088EC16F00E0E00A684EC16F01200BF
:105BA000401447415320526F7420526E6420436C5E
:105BB000722044524D20066E2850040DF3500610FA
:105BC00088EC16F0B4D928500A0DF3502926F45069
:105BD0002A2222502824010F246004D0040E71ECE4
:105BE00055F004D04FD8200E94EC16F01200130F8D
:105BF00088EC16F01CB81AD0060E246002D0200ED5
:105C000016D0225009E02450FB0F22620AD000A6D1
:105C1000000E00B6080E0BD000A6010E00B6090E4D
:105C200006D000A6070E00B6090E01D0200E94EF94
:105C300016F0066E2850040DF350061088EC16F08E
:105C400076D928500A0DF3502926F4502A222250E2
:105C50002824010F246008D0FDEC30F01F1811E05B
:105C6000040E71EC55F00DD022502824236208D088
:105C70001CB606D01CA804D0040E71EC55F001D05F
:105C80002BD81200010E33D90800240EF5621BD068
:105C9000240E1DA094EC16F022042824346EF0EC9F
:105CA00032F00AE13C0E94EC16F02D0E1DB094EC8F
:105CB00016F03E0E94EF16F0E950800F1DB092EFF3
:105CC00016F098EF16F0030E066E0900F55094ECEE
:105CD00016F0062EFAD7120011D90350E8EF39F06A
:105CE000F36EFF0B09E11FBE07D01CB805D0010EF3
:105CF000036EF35074EF16F01A50E00B1B1007E11F
:105D0000000E056E010E036EF35074EF16F01B507B
:105D1000F30B10E11B500CE11A50800B07E11A50F5
:105D2000C00B02E1000E07D0020E05D0030E03D017
:105D3000050E01D0070E2BB0FE0F046E04BE046AE0
:105D4000020E036EF35074EF16F01CB812001FBE63
:105D500008D024042450FB0FD8A0000E1A6E1B6A32
:105D600012007F0E1A6E1B6A12001CA805D0EBD819
:105D7000C5D8055054EF33F01FBE04D02250186E22
:105D8000196A12002BAE02D0115004D06BEC41F016
:105D900049EC42F0186E196A12001CA012001CBED9
:105DA00012001CBA57D21EB0B1D21FAE06D0FF0BE4
:105DB000D8B443EF2BF03DEF2BF0236E186E276A1B
:105DC0001C84266A1C96245023601200BCD896D8E6
:105DD000045071EF29F01CA01200276A286AFF0EF8
:105DE00036EC32F01FBE1200040E0EEC31F0CCEF98
:105DF00016F091EF57F032D86BEC41F050EC42F0D6
:105E0000146E18507F0B136E336A3350C6EC16F0C5
:105E10003E1416E049EC42F013C0E7FF50EC42F0AC
:105E200014C0E7FFE3EC42F000EE81F013C0EFFF97
:105E3000B9EC41F000EE80F014C0EFFFB9EC41F096
:105E4000332A33A4E2D76BEC41F0120007D849ECB7
:105E500042F018507F0BE76EE3EF42F02BA41200E4
:105E60002BA612002B966BEC41F049EC42F0E75068
:105E70007F0B2F6E50EC42F0E750306EA2D01850DE
:105E80003F0B236E226E1C84266A1C9612005BD880
:105E90002B86336A3350C6EC16F03E1404E030D83B
:105EA000055052EC33F0332A33A4F4D727D80350EB
:105EB000570A09E00C0A07E06A0A05E0390A07E018
:105EC0000F0A03E005D0BCDD03D0D3DD01D0D8DD5F
:105ED0003DEC32F0F0EC31F01CBAFF0E1EB0FF0EBC
:105EE00036EC32F01C840A0E266E1C861200292421
:105EF000F66E000E2A20F76EF86A12006BEC41F085
:105F00000BEE00F029C0F6FF2AC0F7FFF86A09007F
:105F1000F550346EE926060EEADF0900F5CF03F0EE
:105F20000900F5CF04F00900F5CF05F0120020C0FC
:105F300029F021C02AF0F86A22500A0DF3502926D0
:105F4000000E2A22120020C029F021C02AF0F86A8F
:105F500023500A0DF3502926000E2A221200415028
:105F600002D8426E1200F90FD8B0F90E070FC8EC34
:105F700016F0010C020C040C030C050C060C070CAB
:105F80002E5003E0F2EC65F01BE12EC011F0336AF5
:105F9000335003E150EC58F009D06EEC46F009C6DE
:105FA000F3FF3350C6EC16F0F31403E033501FEC4C
:105FB00058F0332A33A4ECD787EC58F09BEC41F02F
:105FC00012006BEC41F02FC013F030C014F095ECD0
:105FD00065F028E1A96AAA6A04001BEE00F0A95046
:105FE000E126AA50E222ADEC65F0A950F5E1010EE0
:105FF000AA64F2D749EC42F013C0E7FF50EC42F03C
:1060000014C0E7FF00EE81F013C0EFFFB9EC41F0E0
:1060100000EE80F014C0EFFFB9EC41F0335002E025
:1060200095EC47F012002B861C8412001CA0120075
:106030000A6E1FC04DF023C04FF022C04EF01F6EFD
:1060400069DC03C023F004C022F08BEC2AF0185066
:106050001A64FF0E010F186E1ADF2AEC2BF04D5058
:106060000A1807E14DC01FF055DC4EC022F04FC0AA
:1060700023F01C8412001CA012000A6E1FC04DF0F9
:1060800023C04FF022C04EF01F6E44DC03C023F04B
:1060900004C022F08BEC2AF01870F9DE2AEC2BF009
:1060A0004DC01FF037DC4EC022F04FC023F01C84DF
:1060B00012001CA0120005C00AF01F6E2BDC03C0EA
:1060C00023F004C022F08BEC2AF010EE18F01AC076
:1060D00003F01BC004F00A50DCEC16F003B0D7DE6E
:1060E0003550FEDD2CEC2BF01C841200039001D007
:1060F0000380066A062AE8BE06681FAE04D0130EA7
:106100002BBE110E07D0090E0EEC31F00900F55030
:10611000D8B459D0E96EEA6A130A03E149EC42F0B7
:10612000136E0900F5501FBE7F0E076E03B00CD032
:106130000650EF2606BE04D00750EF60EF6E10D079
:106140000750EFBEEF6A0CD00650EF2606BE05D012
:106150000750010FEF60EF6A03D00750EFBEEF6EFC
:106160001FBE1AD00B0E0EEC31F00900F5500D0ACF
:1061700003E01F0A06E010D0AFEC2FF000EE42F073
:106180000BD006BE04D0EF50D8B4EF2A05D0EF50A4
:10619000D8B4EF04030BEF6E1EB01ED0E950130A03
:1061A00003E0020A05E006D013C018F024DE14D084
:1061B00020DE12D062D910D0000C5B4E6F742068C4
:1061C000657265215D20B80EF66E610EF76E000EE9
:1061D000F86E9EEC16F01C8C1C841CA812008BEF31
:1061E0002AF0000E0BD0040E09D0080E07D00C0EBA
:1061F00005D0100E03D0140E01D0180EF36E10CB84
:10620000E8FF030BF324400FF66EF76A930EF722B4
:10621000F86A000EF8220900F5501200E16E10CB6A
:10622000E8FF030B1FBC040E020D5C0EF324F66E98
:10623000930EF420F76EF86A000EF822C2EC16F006
:10624000F86A1F503F0B0C0DF350E124F626F45072
:10625000F72212001CA01200066E2250065E276A6A
:106260001C84266A1C966BEC41F00650FA0FD8B0DD
:10627000FA0E060FC8EC16F005D008D00BD00ED0E1
:1062800039D022D02CEC2BF0DBEF2AF032040F0BAC
:10629000326E39D032280F0B326E35D00BEE00F053
:1062A000000EE9263250066E0F0E06600AD0062850
:1062B000EBCF07F0065007C0EBFF062A0E0E066470
:1062C000F6D70F0EEB6A1FD00BEE00F0000EE9269A
:1062D0000E0E066E0650EBCF07F0062807C0EBFF48
:1062E0000606062803E032500660F4D73250EB6A07
:1062F000EB8A09D00BEE00F0000EE926066AEE6A82
:10630000062A06A8FCD7FADD0550CED1066E22502B
:10631000065E276A1C84266A1C966BEC41F00650C8
:10632000FB0FD8B0FB0E050FC8EC16F004D029D037
:106330002CD03ED048D0F0EC32F0020E32B6E92636
:106340003250C6EC16F0066E076AEE500614D8A45A
:106350000780ED500614D8A407820728030B076EA8
:10636000061CEF1607A002D00650EF12EF5033D8EC
:10637000061CEF1607A202D00650EF12EF502BD8E2
:1063800029D01E72326A186A25D0F0EC32F06EEC19
:1063900060F014C1E8FF1FD815C1E8FF1CD86EECEF
:1063A00060F014C1E8FF17D815C1E8FF14D812D067
:1063B000F0EC32F0000E0FD8000E0DD8000E0BD806
:1063C000000E09D807D01E90D8904A34406E030EB4
:1063D00018EF26F01200EF6EA2EC41F0EE50120022
:1063E00018501A1804E119501B1801E1200C1B5019
:1063F00006E11AC0F5FFF36A18C0F4FF06D01BC00F
:10640000F5FF18C0F3FF19C0F4FFF550F00B07E1DA
:10641000F5B61DD0F5B416D0F5B20DD007D0F5BE47
:1064200020D0F5BC1BD0F5BA17D014D0F43AF3380D
:106430000F0BF41019D0F336F436F336F436F33686
:10644000F43412D0F336F436F336F4340DD0F33698
:10645000F4340AD0F45008D0F43006D0F430E830E8
:1064600003D0F430E830E8301F0B1200551804E078
:106470005518556E140E546E1200050E586E12000B
:1064800010CBE8FFE8B215D0E8B00CD00BEE00F06E
:10649000B00E42B2A00E42B0900E3FB0D00F3424E6
:1064A000E92612000BEEB0F034503FB0B00FE926F1
:1064B0001200E8B00BD00BEE60F03450E9264050EB
:1064C0000A0DF350E926F450EA2212000BEE60F0B8
:1064D0003450E9264050300DF350E926F450EA22BA
:1064E000120010CBE8FFE8B20BD0E8B008D00BEEFA
:1064F00000F05A0E3FB0540E3424E9261200F7D7AC
:10650000E8B001D0F4D7F3D710CBE8FFE8B211D050
:10651000E8B008D00BEEC0F04450050DF350342421
:10652000E9261200BFDF4450010B070DF350E926A6
:106530001200E8B001D01200C9DF4450010B070D72
:10654000F350E926120010CBE8FFE8B20BD0E8B018
:1065500008D00BEEE0F04550100DF3503424E9263E
:106560001200A0D7E8B001D01200B0D70CEE00F0B6
:106570004750080DF3503424E92612000CEE00F0C9
:106580004750080DF350040FE92612000CEE40F0BE
:106590004A50030DF35034B6010F34B8020FE92608
:1065A00012000BEE18F04B50050DF3503424E92681
:1065B000120010CBE8FFE8B20BD0E8B008D00CEE28
:1065C0006CF04C50050DF3503424E92612006AD7C4
:1065D000E8B005D00BEE00F034C0E9FF120076D72A
:1065E00010CBE8FFE8B215D0E8B00AD03450030B66
:1065F000050D1CEE6CF0F350E126F450E22228D099
:106600000CEE00F02D38700BE9262C500F0BE9260C
:106610001200E8B00CD00CEE00F02D50200DF3501D
:10662000E9264A50070B040DF350E926120034C046
:10663000F5FF40C0E1FF34C040F02B0E346E46DF62
:10664000F5CF34F0E1CF40F0E9CFE1FFEACFE2FF50
:10665000020EE3507F0BF36E030EE3507F0BF46EDC
:106660002C507F0BF3260BEE00F0F350800FE96EF9
:10667000010EEA22F428F36002D0FF091200000B99
:10668000120000EE80F03450E926120000EE80F097
:10669000030EE9261200F5DF4050080DF350100FED
:1066A000E9261200040D03D0040D020EF3262FEC90
:1066B00039F0CBD0CAD0CAD0CDD0CFD0D4D0D8D05A
:1066C000D9D0DCD0FED0FFD002D103D105D107D183
:1066D0001FD12ED131D133D135D137D13AD13BD1A0
:1066E00041D144D14AD14DD153D156D156D156D1B1
:1066F00058D15AD163D168D170D177D17ED182D1AE
:1067000084D186D18CD18FD191D193D195D197D18C
:1067100099D19BD19DD19FD1A4D1A7D1AED1B2D1D6
:10672000B8D1BBD1BDD1BFD1C1D1C3D1C5D1C7D1E2
:10673000C9D1CBD1CDD1CFD1D1D1D3D1D5D1D5D153
:10674000D7D1D7D1DBD1DDD1E3D1E6D1E8D1EAD1C0
:10675000ECD1ECD1F2D100D20BD211D214D20FD2A3
:1067600012D2EFD1F5D114D216D218D21AD216D233
:1067700018D21AD21BD21CD226D22CD235D23ED25B
:1067800040D243D245D248D24AD24DD24ED250D234
:1067900056D25AD260D264D266D256D25CD267D276
:1067A00069D26BD274D279D27FD283D286D289D287
:1067B0008CD28FD28FD28FD28FD28FD299D299D2C0
:1067C0009ED29ED2A3D2A3D2A4D2A5D2A6D2A7D221
:1067D000A8D2A9D2B1D2B7D2C0D2C7D2CDD2D2D24A
:1067E000DED2E5D2E9D2EBD2EFD2F1D202D30FD38F
:1067F00012D315D319D31BD323D32AD331D335D3F3
:1068000038D33BD33ED341D348D34CD354D359D3BD
:1068100059D35ED362D366D366D366D36BD36ED3BC
:1068200073D376D382D38AD38AD38AD390D395D3A2
:106830009BD3A0D3A6D3ABD3B6D3BAD3C4D3D2D32E
:10684000E1D3ECD3F3D3F9D3FED3120018C0EFFF9A
:1068500070EF38F0EF5030EF38F018C0EEFF19C08D
:10686000EDFF70EF38F0EECF18F0EDCF19F0120019
:106870002CEF38F028EC38F030EF38F009C6F3FF91
:10688000335018640CD01850C6EC16F0F31412E113
:106890001828030B186EF2E13350186E0BD0185005
:1068A000C6EC16F0F31406E11804030B186E030A85
:1068B000E5E1F2D71850C6EC16F0F0093E6E1D82E5
:1068C00012003350CDD318C041F0AFEF2FF041503C
:1068D000C7D318283F6E12003F04030BC1D341EC0D
:1068E00033F03FB007D8040E342641EC33F03FB20A
:1068F00001D812001838F00BEE6E18380F0BEF6E3F
:106900001938F00BED12B9EC41F0E92AB9EF41F07A
:1069100041EC33F0000E3FA0040FE926EE380F0BD8
:10692000186EEF38F00B1812EF380F0B196E1200BB
:10693000325018C0EBFF12003250EB5091D31EB210
:10694000A0D396D71EB2120095D7F0DB18C0EFFF88
:10695000C7D396DD7FD7EADB0F0EEF161838F00BA2
:10696000EF12BED38DDDEF380F0B7AD3DFDBF00EE5
:10697000EF1618500F0BEF12B3D382DDEF500F0B51
:106980006FD3D4DBFC0EEF161850030BEF12A8D315
:1069900077DDEF50030B64D3D8D7DBD7C7DB020E0C
:1069A000A1D36EDD020E66D3C1DB18C0EFFF98DB0A
:1069B000EE5019C0EFFF94DBED50120061DDEECF19
:1069C00018F0EDCF19F01200B1DBE00EEF16185001
:1069D000EF121850D8B4EF8883D352DDEF50070B75
:1069E000EFB6080EEFB8000E3BD3A0DB1F0EEF167C
:1069F0001838E834600BEF1273D342DDEF38E8301B
:106A0000030B2ED393DB000E6DD33ADD000E32D391
:106A10008DDBF10EEF1618340E0BEF1261D330DD63
:106A2000EF30070B1DD382DB040E5CD329DD040E8F
:106A300021D37CDB050E56D323DD050E1BD376DB7D
:106A4000060E50D31DDD060E15D370DB070E4AD39C
:106A500017DD070E0FD36ADBE00EEF161850EF12AA
:106A60003FD30EDDEF501F0BFBD260DB1F0EEF1686
:106A70001838E834E00BEF1233D302DDEF38E8309A
:106A8000070BEED253DBC00EEF1618503F0BEF1280
:106A900027D3F6DCEF503F0BE3D248DB070E22D3BF
:106AA000EFDC070EE7D242DB040E1CD3E9DC040E58
:106AB000E1D23CDB030E16D3E3DC030EDBD236DB84
:106AC000000E10D3DDDC000ED5D230DB010E0AD370
:106AD000D7DC010ECFD22ADB020E04D3D1DC020EAA
:106AE000C9D233DF31EF43F034D72FDF1CEF42F050
:106AF00030D71CDB050EEF12010EF4D2C1DC010E03
:106B0000B9D214DBC00EEF1618503F0BEF12E8D2CB
:106B1000B7DCEF503F0BA4D209DB070EE3D2B0DCA9
:106B2000070EA8D218DF31EF43F01CD7E5DAF80ED4
:106B3000EF161850070BEF12D3D2D3DCEF50070B30
:106B40008FD2DADA8F0EEF161838700BEF12C8D228
:106B5000C8DCEF38070B84D2CFDA18C0EFFFC0DAF9
:106B6000EE50F00EEF161950EF12BADAED50120097
:106B7000B8DCEECF18F0ED500F0B196E1200BCDA36
:106B80001850EF6EADD2ADDCEFCF18F0196A1200DD
:106B9000B3DA030EA7D2A5DC030E6CD2ADDA070E72
:106BA000A1D29FDC070E66D20CDB50D6ADDC52D6EC
:106BB00008DB0E0EEF161804E838F00BEF12185031
:106BC000D8A4EF808DD2A0DCEF380F0B010FEFA01F
:106BD000000E46D2F6DA445034264AC00AF04A6A19
:106BE0006BDB0AC04AF01200445034264AC00AF057
:106BF0004A6A6BEC39F00AC04AF01200E2DA010E80
:106C000071D284EC32F0010E35D2DBDA030E6AD297
:106C100084EC32F0030E2ED2D4DA020E63D284EC6E
:106C200032F0020E27D2F9DA11D6A3EC32F012D6E6
:106C3000F4DAF80EEF161850070BEF1251D2A3EC4E
:106C400032F0EF50070B0CD2E8DA8F0EEF1618383F
:106C5000700BEF1245D2A3EC32F0EF38070B00D2E5
:106C6000DCDA070E3FD2A3EC32F0070E03D2B6EC0B
:106C700032F0ECD5B6EC32F0EDD5B6EC32F018507F
:106C8000E10FE8BE03D0800FEF6E2AD2DFD5B6EC5D
:106C900032F0EF50EFBE9E0FE3D1B6EC32F0F00EC3
:106CA000EF161850EF121CD2B6EC32F0EF500F0B6B
:106CB000D7D1B6EC32F0060E15D2B6EC32F0060E95
:106CC000D9D1B6EC32F0070E0DD2B6EC32F0070E89
:106CD000D1D1CCD2E0D2F0D2FED210D9405007E1CF
:106CE00010EE70F03350030BE12618C0E7FF1200DE
:106CF0000BD1FAD850EC42F018C0E7FFB4D9FAD063
:106D0000F3D849EC42F018C0E7FFADD9F3D0000E3C
:106D1000E9D1000EAFD1010EE5D1010EABD1020ECB
:106D2000E1D1020EA7D141EC33F01850320FD8B0A8
:106D3000FF0EEF6EB9EF41F041EC33F0EF50CE0FA4
:106D4000D8A0000E8DD141EC33F0FC0EEF1618B038
:106D5000EF8018B2EF82B9EF41F041EC33F0000E52
:106D6000EFB00109EFB202097BD141EC33F0EF96AD
:106D700018B0EF86B9EF41F041EC33F0000EEFB6FA
:106D8000010E6ED134500FEC97F0E150020FE96E16
:106D9000E250040FEA6E18C0EFFFD0EF41F034501C
:106DA0000FEC97F0040EE226020EE35059D1D1EC1D
:106DB00032F04CDD15EF42F0D1EC32F04BD5D1EC96
:106DC00032F044DD1CEF42F0D1EC32F043D51938FB
:106DD000F00BF46E18380F0BF4121838F00BF36E3A
:106DE000F3CFEFFF7DD9EE50F4CFEFFF79D9ED501F
:106DF0001200EECFF3FFEDCFF4FFF4380F0B196E56
:106E0000F438F00B186EF3380F0B18121200140E32
:106E1000E96E345067D1140EE96E34502BD1D9ECA1
:106E200032F014DD1CEF42F0D9EC32F013D5D9EC7E
:106E300032F0EF9CEF9E18B0EF8C18B2EF8E50D16D
:106E4000D9EC32F0000EEFBC010EEFBE020908D102
:106E5000D9EC32F0C00EEF1618503F0BEF1240D1B4
:106E6000D9EC32F0EF503F0BFBD0D9EC32F0060EEC
:106E700039D1D9EC32F0060EFDD0D9EC32F0070E44
:106E800031D1D9EC32F0070EF5D0D9EC32F0800ECA
:106E9000EF1618507F0BEF1223D1D9EC32F0EF50E0
:106EA0007F0BDED0D9EC32F018047F0B1852D8B427
:106EB000800EEF6E15D1D9EC32F0EF28EFBE000E48
:106EC000CFD016D2F0EC32F0D8A42AEF34F0C8D0EC
:106ED000BFD8EF9018B0EF801200BAD8000EEFB014
:106EE000010EBED01AD251D241EC33F01850EF6EE1
:106EF000B9EF41F041EC33F0EF50B2D04BEC33F04E
:106F00001850EF6EB9EF41F04BEC33F0EF50A8D0D2
:106F100046EC33F03450C6EC16F018B003D0FF0A3C
:106F2000EF1601D0EF12B9EF41F046EC33F03450D8
:106F3000C6EC16F0EF14D8A4010E92D01200120085
:106F400041EC33F0EF9C18B0EF8CB9EF41F041EC1D
:106F500033F0000EEFBC010E83D041EC33F0EF981C
:106F600018B0EF88B9EF41F041EC33F0000EEFB804
:106F7000010E76D041EC33F0EF9E18B0EF8EB9EFF2
:106F800041F041EC33F0000EEFBE010E69D03350FA
:106F900008E141EC33F0F80EEF161850EF12C3EC95
:106FA00041F031EF43F041EC33F0EF50070B58D094
:106FB00012D83450C4EC16F0EF16FF0A1852D8A4B9
:106FC000EF12B9EF41F007D83450C6EC16F0EF14C9
:106FD000D8A4010E45D041EC33F0E950F00B070F77
:106FE000E96E120089D81850200DF3CFEFFF78D842
:106FF000EE501850200DF00EEF16F450EF1270D82E
:10700000ED50120071EC32F0EE38E830070B186EDC
:10701000ED38E830780B1812196A1200A3EC32F040
:107020001850800FE8AE800EEF6E5AD0A3EC32F00D
:10703000EF50800FE8BE000E13D0A3EC32F0D890D2
:107040001834EF6E4DD0A3EC32F0D890EF3008D06A
:10705000EA6AE99EEF501200FBDF18C0EFFF120052
:10706000186E196A120049EC42F0E79EE7CF18F05B
:1070700026EF2FF0C6EC16F0EF14000ED8A4010E88
:10708000EFD7F0EC32F0EECF06F0EECF08F0EECF17
:1070900007F0EFCF09F0FD0EE92636AE0BD0D89001
:1070A00007320632D8B0078ED89009320832D8B0ED
:1070B000098E0AD0D89006360736D8B00680D89008
:1070C00008360936D8B0088006C0EFFF09D808C0D6
:1070D000ECFF06D807C0ECFF03D809C0ECFF00D0D6
:1070E000A2EF41F018B004D0C4EC16F0EF16F8D7B8
:1070F000C6EC16F0EF12F4D7FDCFF6FFFECFF7FF88
:10710000FFCFF8FF10CBE8FFE8B20DD0E8B00AD00F
:10711000540EE9263FB04BD8060EE9263FB247D8B9
:1071200006001200F5D7E8B000D0F2D7FDCFF6FF89
:10713000FECFF7FFFFCFF8FF10CBE8FFE8B230D06B
:10714000E8B020D03FA00DD0600E3424E96E42B0EC
:107150002ED8100EE92642B22AD8100EE92642B4E3
:1071600026D83FA20DD0900E3424E96E42B01FD82D
:10717000100EE92642B21BD8100EE92642B417D8E9
:10718000060012003FA004D0600E3424E96E0FD830
:107190003FA204D0B00E3424E96E09D806001200D4
:1071A000E8B000D040EC32F002D806001200F29EA7
:1071B0000500F650FD6EF750FE6EF850FF6EF28E31
:1071C0001200FDCFF6FFFECFF7FFFFCFF8FF10CB89
:1071D000E8FFE8B21FD0E8B005D084EC32F0E7DF7A
:1071E000060012003FA009D0600E3424E96E44501E
:1071F000010B070DF350E926DADF3FA209D0B00EEC
:107200003424E96E4450010B070DF350E926CFDF1B
:1072100006001200E8B000D0E0D7FDCFF6FFFECFA9
:10722000F7FFFFCFF8FF10CBE8FFE8B215D0E8B0CA
:1072300005D0A3EC32F0BBDF060012003FA004D063
:10724000600E3424E96EB3DF3FA204D0B00E3424C4
:10725000E96EADDF06001200E8B000D0EAD7F350C7
:10726000FD26F450FE22000EFF221200BEEC32F08A
:107270003450C6EC16F0066E3450C4EC16F0076EAF
:10728000EF16065018B0EF122BDF0750EC16065021
:1072900018B2EF1225D7BEEC32F03450C6EC16F01F
:1072A000066E186A196AEE500614D8A41880ED50BC
:1072B0000614D8A418821200C6EC32F03450C6EC82
:1072C00016F0066E3450C4EC16F0076EEF1606503A
:1072D00018B0EF1205D7C6EC32F03450C6EC16F0F9
:1072E000066E186A196AEF500614D8A418801200A6
:1072F000F0EC32F02C50800A03E018C0EFFFF0D61B
:107300002C6AF0EC32F006E018C0EFFFE9DE2C2A20
:107310002CAEF7D7800E2C6E12002C50F00B06E02E
:107320002C6A04D82C2A2CA8FCD71200F0EC32F0DE
:10733000345007E0FF0F0BE0FF0F11E0FF0F17E0E5
:107340001CD0F00EEF1618500F0BEF12C9D6CF0E4F
:10735000EF161838300BE8BAE878EF12C1D63F0EB6
:10736000EF161838E834E834C00BEF12B9D6800EA7
:10737000E926EF9E18B0EF8EB3D6800EE926800E78
:10738000EF1618507F0BEF12ABD6F0EC32F0345002
:1073900007E0FF0F08E0FF0F0BE0FF0F0EE013D038
:1073A000EF500F0B5DD6EF38030BE8B2E87058D6FC
:1073B000EF38E830E830030B53D6800EE926000E94
:1073C000EFBE010E4DD6800EE926EF507F0B48D65A
:1073D000830FD8B0830E7D0FC8EC16F07CD07ED022
:1073E00080D082D084D086D087D08FD0A4D0A8D0AF
:1073F000ACD0AED0B0D0CFD0B1D0D1D0D3D0E1D0FE
:10740000D3D0F3D0F4D0F7D0F9D0FBD006D11AD135
:107410001CD11DD11ED11FD120D12BD135D13BD1B3
:107420003DD146D148D14AD14CD14ED151D155D17F
:1074300058D15AD163D165D167D169D16BD16DD1A2
:107440006DD176D180D182D185D188D192D197D199
:1074500096D19BD1A7D1B7D1B9D1BBD1C3D1C5D119
:10746000C7D1C9D1CAD1CBD1D5D1D8D1DAD1E3D105
:10747000EED1F6D119D2FCD1FED100D217D228D24A
:107480002BD22ED241D244D24BD252D255D258D244
:1074900066D269D26CD26FD27CD280D283D289D2AA
:1074A00092D2A1D2A2D2ADD2B4D2BAD2C8D2CBD2C9
:1074B000CED211D313D31AD33FD33FD347D352D312
:1074C00053D35FD363D364D367D367D36AD36DD306
:1074D00070D38CD393D3040E71EF55F0EF503FEF80
:1074E0003EF0EF283FEF3EF0EF504EEF3EF0EF5012
:1074F0005BEF3EF035EF3EF010EE70F03350030BD3
:10750000E126E7287F0B3FEF3EF0200E1DEC3EF01A
:1075100049EC42F0136E50EC42F0146E410F1DEC3A
:107520003EF095EC65F0200ED8A42A0E1DEC3EF03E
:10753000200E1DEF3EF049EC42F0010F43EF3EF00C
:1075400006EC3EF0010F43EF3EF0000E78EF3EF008
:10755000010E78EF3EF0020E78EF3EF006EC3EF0C2
:10756000066E09C607F02D0E06B0310E07A02A0ED2
:1075700064DB2D0E06B2320E07A22A0E5EDB2D0E44
:1075800006B4330E07A42A0E58DB2D0E06B6340EB1
:1075900007A62A0E52D306EC3EF09DEF3EF036DBF6
:1075A0003FEF3EF033DB6AD331DB200E46DB2D0E9E
:1075B000EFB04C0E42DB2D0EEFB2520E3EDB200E32
:1075C0003CD341EC33F0000E3FA0040FE926EF500E
:1075D000EC3896EC16F0ED38F00BF36EEF380F0B3D
:1075E000F31098EC16F0200E28D317DB48D315DBE8
:1075F000E8380F0B44D311DB0F0B41D30EDB7F0BAD
:107600003DD30BDB070BF36E040B04E0F350030BCD
:107610007C0F51D3F350800F4ED3FFDA340EF66E49
:10762000760EF76E000EF86E000EEFB0010EEFB2A0
:10763000020E70D34E6F722043544720476C732064
:107640003F3F3F20EADA020E53D3E7DAF8D2E5DA19
:107650000CD3E3DA23D3E1DA2ED3DFDA7C0EF66E35
:107660007F0EF76E000EF86EEF500F0BEFB8000EA6
:1076700051D3D3DABC0EF66E7F0EF76E000EF86EA5
:10768000EF30E838030B46D3C8DAD8B44ED3B6ECA3
:10769000AAF0200ED2D2C1DA000E2AD3BEDAF00E42
:1076A000F66E7F0EF76E000EF86EEF30070B32D3DA
:1076B000B4DA040E1DD3B1DA050E1AD3AEDA060E13
:1076C00017D3ABDA070E14D3A8DAEF501F0BD6D2BC
:1076D000A4DAEF38E830070BD1D29FDAEF503F0B36
:1076E000CDD29BDA070E04D398DACC0EF66E7F0E5D
:1076F000F76E000EF86EEF500F0B0CD38EDA040EFF
:10770000F7D28BDA030EF4D288DA000EF1D285DAE2
:10771000010EEED282DA020EEBD267D77EDACC0E01
:10772000F66E7F0EF76E000EF86EEF380F0BF2D28A
:107730005C0EF66E7F0EF76E000EF86E71EC32F096
:10774000EF50070BE7D271EC32F08FD271EC32F0D0
:10775000EF5095D271EC32F0EF5091D23C0EF66EB4
:107760007F0EF76E000EF86E71EC32F0EF38070BFB
:10777000D1D271EC32F0EFCF03F0030EBBD271EC3B
:1077800032F0EFCF03F0070EB5D21C0EF66E800E6E
:10779000F76E000EF86E45DAE8380F0B010FEFA018
:1077A000000EB8D23EDA440EF66E800EF76E000E72
:1077B000F86EFE0EEBA405D0EF30E830E8301F0B7A
:1077C000A9D2EF505CD211EC3EF059D211EC3EF050
:1077D00072D2445034264AC00AF04A6A79D80AC0A4
:1077E0004AF012001EDA010E83D21BDA030E80D299
:1077F00018DA020E7DD219DA42D217DA5CD215DA23
:10780000070BF36EC40EF66E800EF76E000EF86E68
:10781000F35080D20ADAEF38070BF3D706DA070EF7
:1078200067D2E40EF66E800EF76E000EF86EFDD98C
:10783000EF38070B6FD2040EF66E810EF76E000E56
:10784000F86EF7D9E8AE02D07F0B19D263D2800E62
:10785000F66E810EF76E000EF86EEBD90F0B5AD252
:10786000C00EF66E810EF76E000EF86EE2D952D29F
:10787000E0D9060E3DD2DDD9070E3AD2BEEC32F089
:107880003450C6EC16F0066EEE5006144C0ED8B40A
:107890002D0ED3D92F0ED1D9ED500614520ED8B4D7
:1078A0002D0ECBD9200EC9D1C4D905D2640EF66EE7
:1078B000820EF76E000EF86EEA6AEF34E834FC0BC5
:1078C000F626000EF722000EF822030E9CEF16F0AB
:1078D000C6EC32F034500CD241EC33F0EF50CFD143
:1078E000FC0EF66E780EF76E000EF86E41EC33F07B
:1078F000000EEFB0010EEFB2020E0CD24D73742EDB
:10790000536C762E4175746F41EC33F0030EF0D159
:107910009C0EF66E820EF76E000EF86E77D9FAD1D5
:1079200034500FEC97F0040EE226020EE350A7D17C
:10793000D1EC32F0EF50A3D1D1EC32F0EF509FD127
:10794000EECFF3FFEDCFF4FFF43896EC16F0F450E1
:1079500096EC16F0F33896EC16F0200E6ED1140E5D
:10796000E96E3450C5D1D9EC32F0EF5088D1D9EC62
:1079700032F0EF5083D1D9EC32F02D0EEFBC4C0E2B
:107980005CD92F0E5AD92D0EEFBE520E56D9200EAD
:1079900054D1D9EC32F0EF503F0B70D1D9EC32F02A
:1079A000070EA6D1D9EC32F0EF507F0B0BDA200E88
:1079B00044D1D9EC32F0EFBE05D0EF507F0B02DAA4
:1079C000200E3BD1B2D122D97F0E2C6408D0410EBB
:1079D00034D96C0E32D96C0E30D9200E2ED1EF5026
:1079E000F1D9200E2AD106EF3FF0480E1DB0440E0B
:1079F00024D9650E22D9780E1DB0630E1ED9200E33
:107A00001CD1470E1AD96F0E18D9210E16D9200E87
:107A100014D1FCD80F0E2C6401D0D9D7EF502ED141
:107A2000D9EC32F0EF50F80B02E1EF5027D1200EE5
:107A300004D9200E02D92D0E00D9200EFED0D9EC8B
:107A400032F0070E55D1D9EC32F0060E51D1F0ECE0
:107A500032F0345007E0FF0F18E0FF0F27E0FF0F70
:107A600031E034D0200EE9D8EF500F0B020DBC0EE0
:107A7000F324F66E820EF420F76EF86A000EF822F8
:107A8000020E9CEC16F0200ED8D09C0EF66E7A0EEC
:107A9000F76E000EF86EEF38030B3CD1202D20203E
:107AA0002055702044776E20557032202D0EEFBC8B
:107AB0002A0EC3D8200EC1D82D0EEFBE2A0EBDD877
:107AC000200EBBD0800EE926070E12D1800EE926CB
:107AD000EF507F0BD4D0A1D8EF503ED1470EADD898
:107AE000650EABD86E0EA9D8200EA7D01CA802D068
:107AF0001CA61CD030C014F02FC013F095EC65F01C
:107B00000DE014500BE03050410F97D82D0E95D852
:107B10002D0E93D82D0E91D8200E8FD030C0F3FFAC
:107B20002FC0F4FF86EC55F0200E87D03050410F67
:107B300084D8040E71EF55F01200450E88EC16F053
:107B40002FC013F030C014F010EF56F02E5006E0A6
:107B5000F2EC65F003E0450E70D8E7D02EC0F3FFDD
:107B600077EF55F056D88AD054D8F00B02E1EF5099
:107B700085D0200E62D82D0E60D82D0E5ED8200E36
:107B80005CD047D8B6ECAAF0200E57D042D886D0A9
:107B900046EC33F03450ACD0120041EC33F0060E1A
:107BA000A7D041EC33F0040EA3D041EC33F0070E24
:107BB0009FD041EC33F0EF50070B10E03350200E14
:107BC000D8A4280E3AD8EF50070B8EEC16F033509D
:107BD000200ED8A4290E31D8200E2FD06F0E2DD80C
:107BE000660E2BD8660E29D8200E27D041EC33F034
:107BF000E950F00B070FE96E34507AD0100EF66E94
:107C0000800EF76E000EF86EEF5084D0EA6AEF50E7
:107C100012004BEC33F0EF50120040EC32F0EF501A
:107C2000120084EC32F0EF501200A3EC32F0EF506F
:107C30001200B6EC32F0EF50120094EF16F0066E20
:107C4000200EFBDF065098EC16F0200EF6D7066EDD
:107C50002B0E06AC2D0EF1DF06507F0B4008E8BE60
:107C6000E86C98EC16F0200EE8D7EC5096EC16F085
:107C7000ED50EF5098EC16F0200EDFD7010F92EC8C
:107C800016F0200EDAD7036AF4EC16F0045096ECE6
:107C900016F0035098EC16F0200ECFD7066E200E8B
:107CA00006AC2D0ECADF06504008E8BEE86C90EC2A
:107CB00016F0200EC2D7E8AE05D07F0B92EC16F07E
:107CC000200EBBD78008066E9C0F07E22D0EB5DF95
:107CD000065090EC16F0200EB0D7060EAEDF065020
:107CE0009C0F036AF4EC16F098EC16F0200EA5D762
:107CF000EFCF03F0C6EC16F0031404E1200E9DDF75
:107D00006F0E03D0200E99DF2A0E97DF200E95DF2D
:107D1000200E93D7E836E834FC0BF626000EF72247
:107D2000000EF822040E9CEF16F02D0E86DF2D0EAD
:107D300084DF2D0E82DF200E80D7066E2D0E06B05A
:107D4000310E7BDF2D0E06B2320E77DF2D0E06B41C
:107D5000330E73DF200E71D7020D160EF324F66E6C
:107D6000580EF420F76EF86A010EF8220900F5CFDC
:107D7000F3FF0900F5CFF7FFF3CFF6FF040E9CEFFA
:107D800016F0F0EC32F0EECF06F0EECF08F0EECFCA
:107D900007F0EECF09F0100EF36E06B006D008B073
:107DA00002D0A50E07D0410E05D008B002D02A0E91
:107DB00001D0530E42DF0732063209320832F32E69
:107DC000ECD712001DA002D092EF16F0066E200E26
:107DD00034DF065098EF16F01DB00CD0066E2B0E57
:107DE00006AC2D0E2ADF06507F0B4008E8BEE86C7B
:107DF00098EF16F0066E2B0E06AC2D0E1EDF065009
:107E00004008E8BEE86C90EC16F01200F0EC32F09E
:107E100017E110CBE8FF030B030A0BE11BEE8DF01B
:107E20003450070B300DF350E126F450E222E7BE48
:107E300007D02E0E02DF2E0E00DF2E0EFEDE58D0F3
:107E4000EFAE54D010CBE8FFE8B20ED0E8B00BD0C4
:107E50001CEE6DF03450030B050DF350E126E75096
:107E6000FC0BFC0A1DD0F4D7E8B001D0F1D71BEE13
:107E70008DF03450070B300DF350E126F450E22220
:107E8000E7AE09D0010EE126E7507F0B010F2C6011
:107E900029D0FF0EE126FF0EE126E750F80BF80A85
:107EA00021E1EF50FC0BFC0A0AE14B0EC6DE790E15
:107EB000C4DEEF50030B010F8EEC16F019D0EF501B
:107EC0007F0B06E0FF0F06E0010FB6ECAAF010D022
:107ED0002D0E01D02B0EF56EB0DEF550AEDEF55056
:107EE000ACDE06D0EF507F0B6DDF02D0EF5074DFB9
:107EF00010CBE8FFE8B209D0E8B006D01CEE70F075
:107F00003450030B050D09D0F9D7E8B001D0F6D7EE
:107F10001BEE64F03450070B300DF350E126F450A3
:107F2000E222E7BE1200E7507F0BF36EE950800FAC
:107F3000F3183C0ED8A4200E80DE12002D2D2D202B
:107F40004C2D2D202D422D204C422D202D2D482012
:107F50004C2D48202D4248204C4248202D2D2D20CC
:107F6000312D2D202D322D2031322D202D2D33205D
:107F7000312D33202D323320313233206F6666208D
:107F80005472692053617720542B532050756C2014
:107F9000502B5420502B5320505354204E6F6920A7
:107FA0004E7331204E7332204E7333204E73342083
:107FB0004E7335204E7336204E7337202D2D2D20D5
:107FC00053796E2052696E2052265320204C522045
:107FD000204C2D20202D5220204F3120204F3220A8
:107FE000204F3320204F3420204F3520204F362083
:107FF0005570202044776E20552644204426552075
:108000005544322044553220526E6420722E37205F
:108010004E6F722053752D2053752B206F6666208E
:1080200053696E20547269205361772050756C201B
:1080300052616E2050536E2050547220505377205E
:1080400050506C202D2D2D2031366220313462208D
:1080500031326220313062202039622020386220A3
:1080600020376220203662202035622020346220B2
:10807000332E356220336220322E35622032622068
:10808000312E356220316220312F3244312F31546C
:10809000312F3220312F3444312F3254312F3420BC
:1080A000312F3844312F3454312F38202F3136447A
:1080B000312F38542F3136202F3332442F3136545C
:1080C0002F3332202D2D2D20417431204174322048
:1080D0004465312044653220537573205265312048
:1080E000526532202D2D2D20412D2D202D442D2067
:1080F00041442D202D2D5220412D52202D4452201F
:10810000414452202D2D2D20454731204547322016
:108110004C4631204C4632204C4633204C463420CD
:108120004C4635204C4636204D5031204D503220A3
:108130004D5033204D5034204D5035204D50362079
:108140004D5037204D5038204D6457204B657920D5
:108150004B2331204B2332204B2333204B2334201D
:108160004B2335204B2356204B2350204B234120BB
:108170005754312057543220575433205754342009
:108180002D2D2D205372312053723220312B32206D
:10819000312D3220312A3220584F52204F52202088
:1081A000414E44204D494E204D415820313C322013
:1081B000313E3220313D322053264820722E32206B
:1081C0002D2D2D20507431205074322050743320C6
:1081D000507434205074352050743620505731205C
:1081E00050573220505733205057342050573520A5
:1081F00050573620466C3120466C3220566C312068
:10820000566C32204C4431204C4432204C443320B4
:108210004C4434204C4435204C4436204C523120C0
:108220004C5232204C5233204C5234204C52352088
:108230004C5236204578312045783220457833201D
:1082400045783420457835204578362045783720E4
:108250004578382057543120575432205754332012
:10826000575434204E4F6E204E4F662045315320D8
:10827000453253204C3150204C3250204C3350204A
:108280004C3450204C3550204C365020436C6B20E1
:10829000436C3620433234204D5374204B2331201D
:1082A0004B2332204B2333204B2334204B233520C8
:1082B0004B2356204B2350204B2341204320432364
:1082C000442044234520462046234720472341207D
:1082D00041234220432B030E3EB4020E3EB2010E58
:1082E0003EB0000E336EFF0B12003D5008E012004E
:1082F0006BEC41F03D18D8B4120033C03DF03DC0E6
:1083000033F0335010E10BEE00F017EE00F0F36A9B
:10831000F46AE6CFEEFFF32AD8B4F42AF4A2F9D730
:1083200050EC58F004D02FEC46F06EEC46F01C8474
:108330001FBE1C8212003D50336E02E150EF58F018
:108340006EEF46F033500CE1E9CFE1FFEA50FC0F4D
:10835000E26EEFCFE7FF020EE226EFCFE7FF12005B
:10836000E9CF03F0EA50F50F046EEF5098EC45F0BA
:108370001200335002E1DAEF57F0800EE924036E69
:10838000EF50B1EF45F03350D8A41200DAEC57F0BB
:10839000332AF3DF332AF1DF332AEFDF336A1200A7
:1083A000335006E1EFCF03F0345088EC96F005D05F
:1083B00034C003F0EF50E1EC45F02BA2120010EEB8
:1083C00070F03350E1263450070BC8EC16F007D09C
:1083D00014D015D016D017D018D018D025D0010E33
:1083E000F36EE7500F0BB00924EC16F0F35024ECB9
:1083F00016F0EF307F0B24EF16F0100EF1D7110EB0
:10840000EFD7120EEDD7130EEBD71200E7500F0B7C
:10841000E00924EC16F0000EEFB0400E24EC16F04C
:10842000EF307F0B24EF16F01200335003E14B5076
:1084300001EF97F0F9EF45F0335002E1A1EF5AF068
:10844000A0EF46F095D81C841FBE1C82120033B2E8
:108450000CD033B005D068C013F06CC014F011D04C
:1084600069C013F06DC014F00CD033B005D06AC0F1
:1084700013F06EC014F005D06BC013F06FC014F091
:1084800000D0139E120068C013F06CC014F0139E4D
:10849000120010EE68F03350E126E7507F0B120017
:1084A00010EE6CF03350E126E750070B120001018B
:1084B000F36A00EE70F0F350E926EF500B190F0B42
:1084C0000EE1F80EE9260C51EF187F0B08E00CC105
:1084D000EFFF0C0EE926EFBE02D0810EEF6EF32AFD
:1084E000F3A4E7D712000101F36A00EE70F0F35035
:1084F000E926EF500B190F0B12E1FC0EE9260D5186
:10850000EF18070B0CE00D51070BEF6EFC0EE92680
:10851000EF9E0C0EE926EFBE02D0810EEF6EF32A1D
:10852000F3A4E3D7120010CBE8FF37EC43F033504D
:1085300012E10BEE00F017EE00F029EE00F0020E53
:10854000F36EEFCFE6FFEECFDEFFE950FAE1F32E58
:10855000F8D74BEF59F06EEF47F0336A3350C6EC63
:1085600016F03E1401E0DFDF332A33A4F7D7B3D689
:1085700010EE74F03350E126E750D8A424D03350E5
:1085800011E1010EE76E000168BF1AD068C013F058
:108590006CC014F0688FCDEC5AF010C7E8FF37ECD0
:1085A00043F00ED0060EE76E10EE68F03350E3BED7
:1085B00007D0E38EA2EC46F027EC42F0D2EC46F076
:1085C0003DEC32F0120010EE74F03350E126800ED4
:1085D000E76E1200336A0FD80AE1E79E33DFC6C0A8
:1085E000E8FF070B04E0800E756F766F776F332A14
:1085F00033A4F1D7120010EE74F03350E126E7AE49
:1086000004D0E7507F0B01E11200FF0912001DB8F2
:1086100004D0F00E1D12F5EF59F00F0E1D165CEF91
:108620005AF0336E3350C6EC16F0E838F00B076E94
:10863000F29E1D5007181D6EF28E3350C6EC16F0D8
:10864000E8381D1401E001D006D0335002E1F5EF07
:1086500059F0A4EF46F0335002E15CEF5AF0B9EF65
:1086600046F0335002E126EF5FF0BBEF46F0030B1C
:10867000F36E030EF46E33B2F33A33B2F43A33A02E
:1086800005D0D890F336F336F436F436F41C591688
:10869000F35059121200595033B2E83833A004D0C5
:1086A000D890E830D890E830030B120000145349FA
:1086B000443120452E20506C7920496E6920446D4C
:1086C00070200C0E00A684EC16F0AC0EF66E860E32
:1086D000F76E000EF86E9EEC16F0030E88EC16F0A6
:1086E0006BEC41F0010F8EEF16F050742E20456EAA
:1086F0007320400E88EC16F042D84C0E3FA02D0E91
:108700003FD8520E3FA22D0E3BD839D8200E94EC04
:1087100016F010CBE8FF030B9DEC55F0200E94EC07
:1087200016F02DD86BEC41F0C6EC16F0E8381D14AD
:108730006F0ED8A42A0E24D822D821D8F2D8066EDB
:10874000E8BC010E040DEA0EF324F66E860EF4204A
:10875000F76EF86A000EF822040E9CEC16F006BCC8
:108760000BD06BEC41F050EC42F0146E49EC42F04F
:10877000136E86EC55F002D075EC55F01200200E09
:1087800094EF16F0066EFBDF6F0EFADF660E06B092
:108790006E0EF6DF660E06B0200EF2DFF0D79EEC0E
:1087A00016F0400EFAEF16F0070BC8EC16F007D0E3
:1087B0000DD06BD03BD097D01200120012003F2892
:1087C000030BD8B4010F3F6E1C8412000BEE10F0A7
:1087D000EF50010F030BF36EEF50FC0BF310EF6E35
:1087E000DEEC5AF0ADEC42F0406A416AAFEC2FF09B
:1087F000446A456A476A4A6A4B6A4C6A3DEF2BF005
:10880000401420506174636820496E697469616C1A
:108810006973656420204014456E73656D626C65F4
:1088200020496E697469616C697365647AD8E8BCC3
:108830000CD0DEEC5AF0ADEC42F0000EF66E880E75
:10884000F76E000EF86EABDF1200B0EC58F0160EAB
:10885000F66E880EF76E000EF86EA1DF120040145F
:108860002D2D20416C6C204E6F746573204F666611
:10887000202D2D2040142D2D20506C6179696E67BC
:10888000205061746368202D2D2094EC23F06BEC54
:1088900041F0C6EC16F0E8381D1407E0740EF66ED1
:1088A000880EF76E000EF86E06D05E0EF66E880E1D
:1088B000F76E000EF86E73DF120040142D2D20505D
:1088C000617463682044756D702073656E74202D2B
:1088D00040142D2D20456E732E2044756D7020732D
:1088E000656E74202D201DD80809E8CF07F1146AA1
:1088F000136A33C012F0E8BC0DD0BA0EF66E880EC3
:10890000F76E000EF86E4BDFA5EC94F004EC16F059
:10891000126E1200D00EF66E880EF76E000EF86E14
:10892000F2D7000E1FBC700E120091DDC3EF65F090
:108930008EDDD5EF65F03104D8A41200316AF2EC77
:1089400065F002E0116A04D0115002E1010E116ECF
:1089500091EF57F0001453494478206E6F742063F0
:108960006F6D70617469626C6520001453494478BE
:10897000206E6F7420617661696C61626C65202085
:108980004014284E6F204D424E657420526573701E
:108990006F6E7365292040142843414E2042757341
:1089A000204572726F7273292020202040142843C2
:1089B000414E2064697361626C6564212920202026
:1089C00020206BEC41F0C6EC16F0060109153BE1E6
:1089D0001C9000BB14D03350C6EC16F006010A15EB
:1089E0000EE0540EF66E890EF76E000EF86E9EECD9
:1089F00016F0400E88EC16F0335041D81DD06A0EA8
:108A0000F66E890EF76E000EF86E9EEC16F00601FB
:108A100000BB01D007D0AC0EF66E890EF76E000ECB
:108A2000F86E08D000A906D0960EF66E890EF76E85
:108A3000000EF86E9EEC16F0030E88EC16F033284C
:108A40008EEC16F0120012006BEC41F0C6EC16F042
:108A50000601091503E133507FEC20F01200336E5C
:108A6000030B10EE68F0E39EE3EC42F033500DECA4
:108A700058F0B8EC47F09BEC41F01C82120006EE77
:108A800020F0E834E834E834380BE926500E94EC52
:108A900016F0EE50036AF4EC16F0045096EC16F063
:108AA000035098EC16F0200E94EC16F0040EF36EC2
:108AB000EE50D8B43F0E94EC16F0F32EF9D7200EFA
:108AC00094EC16F0560E94EC16F0EE50036AF4ECAB
:108AD00016F0045096EC16F0035098EC16F02E0E9B
:108AE00094EC16F0EE50EECF03F0F4EC16F00550D7
:108AF00096EC16F0045098EC16F0035098EC16F033
:108B0000120033C005F60601060E076F086B000E53
:108B1000C3EC1FF00CE1030EE66E03C0E6FF04C0D9
:108B2000E6FF05C0E6FFF6EC1FF0D8A444D2120021
:108B3000056E33C005F60601120E076F086B000EB6
:108B4000C3EC1FF00DE1040EE66E03C0E6FF04C0A7
:108B5000E6FF05C0E6FFE66AF6EC1FF0D8A42BD2CC
:108B60001200056E33C005F60601110E076F086B83
:108B7000000EC3EC1FF00CE1040EE66E03C0E6FF2E
:108B8000E66A05C0E6FFE66AF6EC1FF0D8A413D249
:108B90001200056E33C005F606011C0E076F086B48
:108BA000000EC3EC1FF00CE1040EE66E03C0E6FFFE
:108BB000E66A05C0E6FFE66AF6EC1FF0D8A4FBD132
:108BC0001200056E33C005F60601130E076F086B21
:108BD000000EC3EC1FF00CE1040EE66E03C0E6FFCE
:108BE000E66A05C0E6FFE66AF6EC1FF0D8A4E3D11A
:108BF000120033C005F60601140E076F086B000E55
:108C0000C3EC1FF008E1010EE66E03C0E6FFF6ECD0
:108C10001FF0D8A4D0D112000601076F086B33C033
:108C200005F6000EC3EC1FF006E1000EE66EF6EC52
